:020000040800F2
:10000000C806002091010008990100089B01000822
:100010009D0100089F010008A101000800000000E8
:10002000000000000000000000000000A301000824
:10003000A501000800000000A7010008A9010008B0
:10004000AB010008AB010008AB010008AB010008E0
:10005000AB010008AB010008490400086104000876
:1000600079040008B5040008CD040008AB010008BD
:10007000AB010008AB010008AB010008AB010008B0
:10008000AB010008AB010008AB010008AB010008A0
:10009000AB010008AB010008AB010008E504000853
:1000A000AB010008AB010008AB010008AB01000880
:1000B000FD0800081D09000841090008AB010008FF
:1000C000AB010008AB010008AB010008AB01000860
:1000D000AB0100085D0900087909000895090008CE
:1000E000AB010008AB010008AB01000800F002F80A
:1000F00000F03FF80AA090E8000C82448344AAF183
:100100000107DA4501D100F034F8AFF2090EBAE880
:100110000F0013F0010F18BFFB1A43F0010318473B
:100120000424000024240000103A24BF78C878C1B9
:10013000FAD8520724BF30C830C144BF04680C60ED
:10014000704700000023002400250026103A28BF35
:1001500078C1FBD8520728BF30C148BF0B60704739
:10016000642900F07780002070471FB51FBD10B5CF
:1001700010BD00F03BF91146FFF7F7FF00F076FEE7
:1001800000F059F903B4FFF7F2FF03BC00F010FCD4
:100190000948804709480047FEE7FEE7FEE7FEE71B
:1001A000FEE7FEE7FEE7FEE7FEE7FEE70448054957
:1001B000054A064B704700009D080008ED00000846
:1001C000C8000020C8060020C8020020C802002085
:1001D000704700000FB4044910B503AA029800F05C
:1001E000D3F810BC5DF814FB300000202DE9F0417D
:1001F0000E460446002020622046E168884730B35E
:10020000252805D0D4E901219047206A401CF2E757
:10021000E168204600278847050018D0A5F1410075
:10022000192802D820354FF4006732462946204667
:100230002760FFF795FF40B1012804D0F61D26F096
:1002400007060836D8E7361DD6E72846DAE7206ADB
:10025000BDE8F0812DE9F0410646002410687529BB
:10026000314616A510D0AFF30080002802DA4042D4
:1002700013A507E031688A0701D512A502E04907F6
:1002800004D511A5012401E0AFF3008000210A226A
:1002900006F1240709E0B0FBF2FCB0FBF2F302FB2D
:1002A0001C00303078541846491C0028F3D12346EE
:1002B0002A463046BDE8F04100F00CB800000000CE
:1002C0002D0000002B000000200000007047704748
:1002D000704770472DE9F0470D469946924604460F
:1002E00000F124080168880604D5E06921F01001B6
:1002F000216000E00120A84201DD471B00E000274B
:10030000A1697A1902EB0900081AA0612078C006D9
:1003100002D42046AFF30080002608E0D4E9012192
:100320001AF806009047206A401C761C20624E4551
:10033000F4DB2078C0060AD52046AFF3008006E043
:10034000D4E9012130209047206A401C2062381EE9
:10035000A7F10107F4DC07E0D4E9012118F8050052
:100360009047206A401C2062281EA5F10105F3DC9D
:100370002046AFF300802078000602D50220BDE8B9
:10038000F0870120FBE70000074B70B50D467B446A
:1003900000F011F80446284600F020F810B14FF0A4
:1003A000FF3070BD204670BDB708000001694A1CCF
:1003B00002610878704700B58FB0CDE901310021A6
:1003C000059105497944CDE9031011466846FFF7C8
:1003D0000DFF0FB000BD0000E5FFFFFF007B00F048
:1003E0008000704700487047680000207546FFF79E
:1003F000F9FFAE4605006946534620F007008546E2
:1004000018B020B5FFF7D2FEBDE820404FF000063F
:100410004FF000074FF000084FF0000B21F00701EC
:10042000AC46ACE8C009ACE8C009ACE8C009ACE82F
:10043000C0098D46704710B50446AFF300802046D2
:10044000BDE81040FFF79EBE0448006800F00100C0
:1004500010B10120014908607047000014040140F8
:100460000448006800F0020010B102200149086051
:10047000704700001404014010B50C48006800F0FB
:10048000040090B10321002000F0ECFB28B10848E3
:100490000068401E0649086004E005480068401CEA
:1004A0000349086004200149086010BD140401409C
:1004B000040000200448006800F0080010B1082083
:1004C00001490860704700001404014004480068B6
:1004D00000F0100010B110200149086070470000C2
:1004E000140401401548006800F0200010B12020DD
:1004F000124908601148006800F0400010B1402027
:100500000E4908600D48006800F0800010B180209E
:100510000A4908600948006800F4807018B14FF477
:100520008070064908600548006800F4007018B142
:100530004FF4007001490860704700001404014046
:10054000014607238B431A02054B18684FF6FF0339
:1005500018401043034B1843014B186070470000CC
:100560000CED00E00000FA0570B505460C460420CD
:10057000FFF7E6FF0E48005D00F0010646EA0510B1
:10058000C1B20B4801552046E21704EBD26252116A
:10059000A4EB421301229A402146E31704EBD363F4
:1005A0005B119B0003F1E023C3F8002170BD000044
:1005B00000E400E070B500240EE00021204600F0C9
:1005C000C7F8002504E0002000F0E3F8681CC5B27D
:1005D000802DF8DB601CC4B2082CEEDB70BD10B5BA
:1005E00002220821012000F04FFB022209210120F4
:1005F00000F04AFB01220821104600F017FC0122FE
:100600000921104600F012FC10BD70B5054600240B
:1006100013E08020204100EA05020921012000F0BA
:1006200005FC01220821104600F000FC00220821F0
:10063000012000F0FBFB601CC4B2082CE9DB0122A6
:100640000821104600F0F2FB00220821012000F0F2
:10065000EDFB70BD10B501220921104600F0E6FB4C
:1006600001220821104600F0E1FB002209210120AF
:1006700000F0DCFB00220821012000F0D7FB10BDB8
:1006800010B500220921012000F0D0FB0122082131
:10069000104600F0CBFB01220921104600F0C6FBFA
:1006A00010BD70B5002406E0002500E06D1CB5F516
:1006B0007A7FFBD3641CB4F57A7FF5D3FFF78FFF05
:1006C000AE2000F056F8D52000F053F8802000F05E
:1006D00050F8A82000F04DF83F2000F04AF8D32051
:1006E00000F047F8002000F044F8402000F041F806
:1006F000A12000F03EF8C82000F03BF8DA2000F01E
:1007000038F8122000F035F8812000F032F8CF20C0
:1007100000F02FF8D92000F02CF8F12000F029F893
:10072000DB2000F026F8302000F023F8A42000F0B1
:1007300020F8A62000F01DF88D2000F01AF81420F3
:1007400000F017F8AF2000F014F8FFF733FF70BD8A
:1007500070B505460C4645F0B00000F00AF81021CF
:1007600041EA141000F005F804F00F0000F001F861
:1007700070BD10B50446FFF76DFF7820FFF745FF09
:100780000020FFF742FF2046FFF73FFFFFF778FF0B
:1007900010BD10B50446FFF75DFF7820FFF735FF69
:1007A0004020FFF732FF2046FFF72FFFFFF768FFDB
:1007B00010BD10B500F002F810BD00000CB500200F
:1007C000019000903348006840F48030314908605F
:1007D00000BF3048006800F4003000900198401CD1
:1007E0000190009818B90198B0F5A06FF1D129488F
:1007F000006800F4003010B10120009001E00020FA
:1008000000900098012843D12348006840F0100070
:10081000214908600846006820F003000860084687
:10082000006840F0020008601A48406819494860B2
:100830000846406848600846406840F48060486068
:100840000846406820F47C1048600846406840F440
:10085000E81048600846006840F08070086000BFFB
:100860000C48006800F000700028F9D00948406882
:1008700020F00300074948600846406840F0020045
:10088000486000BF0348406800F00C000828F9D118
:100890000CBD0000001002400020024010B51348BB
:1008A000006840F00100114908600846406810499E
:1008B00008400E494860084600680E4908400B4948
:1008C00008600846006820F48020086008464068F8
:1008D00020F4FE0048604FF41F008860FFF769FFB6
:1008E0004FF000600449086010BD00000010024095
:1008F0000000FFF8FFFFF6FE08ED00E04FF080403B
:10090000008A00F0010038B14FF08040008A20F0EA
:1009100001004FF0804108827047000010B5074881
:10092000008800F0010038B100F096FB0348008811
:1009300020F001000149088010BD000010040040B3
:100940000548008800F0010028B10348008820F025
:1009500001000149088070471008004005480088E0
:1009600000F0200028B10348008820F02000014951
:1009700008807047003801400548008800F02000DA
:1009800028B10348008820F0200001490880704702
:10099000004400400548008800F0200028B10348CA
:1009A000008820F02000014908807047004800407E
:1009B00000BF704710B500220121062000F006F8A4
:1009C00001220321002000F05FF910BD2DE9F04164
:1009D00004460D461646204600F092F845488069C8
:1009E00040F0010043498861032294FBF2F0C217F2
:1009F00000EB927293104FEAB13252F82320032396
:100A000094FBF3F1CB1701EB93739B10A1EB8307DE
:100A10000F23BB409A43032394FBF3F0C31700EB6F
:100A200093739F10344B43F82720032094FBF0F17D
:100A300000FB114028B3032294FBF2F0C21700EB35
:100A4000927293102C4A52F82330032294FBF2F74F
:100A500002FB17470122BA40032794FBF7F1CF1797
:100A600001EB9777BF10A1EB8707BA40134303222E
:100A700094FBF2F0C21700EB927297101E4A42F8F4
:100A80002730032094FBF0F1012088401B490968BE
:100A900008431A49086065B9032094FBF0F101206E
:100AA000884016490831096808431449083108602C
:100AB0000BE0032094FBF0F1012088400F490C313A
:100AC000096808430D490C310860032094FBF0F0DD
:100AD000042809DC032094FBF0F0801DC7B23946DE
:100AE0003046FFF741FD03E017213046FFF73CFD9C
:100AF000BDE8F08100100240080001400004014000
:100B000010B50446182C12D2DFE804F00C12181E9F
:100B1000242A30363C42484E545A60666C72787EC5
:100B2000848A909601220021084600F0ADF889E001
:100B300001220021104600F0A7F883E001220021E5
:100B4000022000F0A1F87DE001221146002000F013
:100B50009BF877E001221146104600F095F871E00D
:100B600001221146022000F08FF86BE001220221E1
:100B7000002000F089F865E001220221104600F013
:100B800083F85FE001220221084600F07DF859E079
:100B900001220321002000F077F853E00122032115
:100BA000104600F071F84DE001220321022000F010
:100BB0006BF847E001220421002000F065F841E0D5
:100BC00001220421104600F05FF83BE001220421DD
:100BD000022000F059F835E001220521002000F044
:100BE00053F82FE001220521104600F04DF829E0CE
:100BF00001220521022000F047F823E0012206210E
:100C0000002000F041F81DE001220621104600F00E
:100C10003BF817E001220621022000F035F811E030
:100C200001220721002000F02FF80BE0012207210C
:100C3000104600F029F805E001220721022000F00B
:100C400023F800BF00BF10BD00BF054A128802F0A4
:100C50004002002AF9D0C2B2014B1B1D1A80704716
:100C60000038014010B50246064850F8220080685E
:100C700001248C4000EA04030BB1012010BD0020C8
:100C8000FCE700000C00002070B5654CA469042549
:100C900085402C43624DAC6108295DDA614C54F803
:100CA000204024688E000F25B540AC435D4D55F8BB
:100CB00020502C601AB1032A01D0022A0FD101243E
:100CC000944044F003048D00AC40564D55F820503C
:100CD0002D682C43534D55F820502C609FE0012A7D
:100CE00001D0042A2AD14F4C54F8204024688E00A9
:100CF0000825B5402C434B4D55F820502C60012A57
:100D00000ED1484C54F82040E46801258D4024EA77
:100D1000050301248C401C43424D55F82050EC60E3
:100D2000042A7CD13F4C54F82040E56801248C40D3
:100D3000A5433C4C54F82040E56070E00424944006
:100D40008D00AC40374D55F820502D682C43354D63
:100D500055F820502C6062E0324C54F82040646812
:100D6000A1F10805AE000F25B540AC432D4D55F857
:100D700020506C601AB1032A01D0022A11D101243B
:100D8000944044F00304A1F10805AD00AC40254DAA
:100D900055F820506D682C43224D55F820506C605A
:100DA0003DE0012A01D0042A2AD11E4C54F82040EB
:100DB0006468A1F10805AE000825B5402C43194D23
:100DC00055F820506C60012A0CD1174C256801247D
:100DD0008C4025EA040301248C401C43114D55F836
:100DE0002050EC60042A1AD10E4C54F82040E468DC
:100DF00001258D40AC430B4D55F82050EC600EE0C2
:100E000004249440A1F10805AD00AC40054D55F80F
:100E100020506D682C43034D55F820506C6070BD18
:100E2000001002400C0000200C08014030B57AB1DF
:100E30000D4C54F82040E46801258D4024EA050358
:100E400001248C401C43084D55F82050EC600AE00A
:100E5000054C54F82040E46801258D40AC43024D18
:100E600055F82050EC6030BD0C00002008B5FFF7AD
:100E700018FC00F053F8FFF79DFD42F2107000F0EF
:100E800031F800224FF4E131104600F033FB0E48F8
:100E90000E4B1A46012100900D4800F003F96FF047
:100EA000F90000F04DF800220A21012000F09AFA22
:100EB00008E00749486801F01BF90446214605A0EF
:100EC000FFF788F9F5E700000000A040000020418E
:100ED0003400002073706565645F6E6F773A256437
:100EE0000D0A000010B50446A2B20021084600F029
:100EF000EFF90948027806210020FFF797FF06481E
:100F0000007808B9012000E00020024607210020F7
:100F1000FFF78CFF10BD00000000002010B54FF45B
:100F20007A720021084600F0C5F80022062110461A
:100F3000FFF7AAFE002207211046FFF7A5FE10BD0D
:100F400010B50446002C08DB012008490870204633
:100F500001F00AF90649086007E00020034908701B
:100F6000604201F001F90249086010BD0000002054
:100F7000340000202DE9F0410446D4E9000101F0DD
:100F80005BFAA060206B01282DD1D4E9020101F0A9
:100F900053FA0546616901F047F92062A168A0692A
:100FA00001F042F9A0624FF08040E16801F03CF9A5
:100FB0000746A16801F035FA0646216900F068FF8E
:100FC0000546E16901F030F96062A16A206A00F02B
:100FD0005FFF0646616A00F05BFF0546E16A00F0CC
:100FE00057FFE06221E0206BF8B9A168606901F069
:100FF0001BF92062A168A06901F016F90546A16AF3
:1010000000F046FFA062D4E9020101F015FA05469E
:10101000E16901F009F96062A16A206A00F038FF15
:101020000546616A00F034FFE062E1682161A16871
:10103000E1600849E06A01F0C3F901D80548E062BF
:101040000021E06A01F0BCF801D80020E062BDE8B0
:10105000F08100000050434710B50F48007830B1D0
:101060000E48006801F080F80D49486006E00B4822
:101070000068404201F078F80949486000200749BB
:1010800008600748FFF776FF0549C86A01F030F8A5
:101090000446FFF727FF10BD0000002004000020D9
:1010A0003400002010B5029C016342618361C46179
:1010B00010BD00002DE9F04104460D4616462846B5
:1010C000E91705EB91718910A5EB8101491CCFB29D
:1010D0005148C0690121A14008434F49C8614F48A8
:1010E00090FBF6F0401E4E4951F8241088854720A9
:1010F0004B4951F824100885284600F093F8012F39
:1011000006D0022F1ED0032F36D0042F69D14DE018
:10111000434850F82400008B40F06000404951F8EB
:10112000241008833E4850F82400008B40F008004B
:101130003B4951F8241008830020394951F8241004
:1011400088864EE0364850F82400008B40F4C040BA
:10115000334951F824100883314850F82400008B9B
:1011600040F400602E4951F82410088300202C49D7
:1011700051F82410088734E0294850F82400808B67
:1011800040F06000264951F824108883244850F824
:101190002400808B40F00800214951F824108883F6
:1011A00000201F4951F8241088871AE01C4850F885
:1011B0002400808B40F4C040194951F824108883E2
:1011C000174850F82400808B40F40060144951F80F
:1011D000241088830020124951F82410A1F84000FF
:1011E00000BF00BF0E4850F82400008C791E8A0012
:1011F0000121914008430A4951F824100884084805
:1012000050F82400008840F08100054951F824106E
:101210000880BDE8F08100000010024040420F004D
:101220001800002010B504460C2C4FD2DFE804F063
:10123000060C12181E242A30363C42480322002194
:101240000846FFF721FD41E0032201210020FFF7BE
:101250001BFD3BE0032202210020FFF715FD35E0D6
:10126000032211460020FFF70FFD2FE00322062185
:101270000020FFF709FD29E0032207210020FFF7E6
:1012800003FD23E0032200210120FFF7FDFC1DE008
:10129000032201210846FFF7F7FC17E0032206218D
:1012A0000120FFF7F1FC11E0032207210120FFF7E5
:1012B000EBFC0BE0032208210120FFF7E5FC05E031
:1012C000032209210120FFF7DFFC00BF00BF10BD92
:1012D0002DE9F84F04460D4617462846E91705EB59
:1012E00091718910A5EB8101491C01F0FF084CF2B6
:1012F0005030874200DB0746384850F82400868D7E
:10130000B8F1010F09D0B8F1020F1DD0B8F1030FE9
:1013100031D0B8F1040F5DD144E0701C00F024FF1F
:101320008346384600F038FF2D49009000F01EFE3D
:101330008246594600F078FF814600F0F5FE2749C5
:1013400051F82410888645E0701C00F00DFF0090D5
:10135000384600F021FF8346214900F007FE82460F
:10136000009900F061FF814600F0DEFE1B4951F854
:10137000241008872EE0701C00F0F6FE009038461E
:1013800000F00AFF8346164900F0F0FD82460099FE
:1013900000F04AFF814600F0C7FE104951F82410C2
:1013A000888717E0701C00F0DFFE0090384600F0E0
:1013B000F3FE83460A4900F0D9FD8246009900F009
:1013C00033FF814600F0B0FE044951F82410A1F823
:1013D000400000BF00BFBDE8F88F000018000020EB
:1013E0000050434770B504460D4616461748C0697D
:1013F0000121A14008431549C86105EB8500400063
:10140000401E134951F82410888541F61F401049A9
:1014100051F8241008850E4850F82400008840F048
:1014200001000B4951F824100880094850F82400A5
:10143000808940F00100064951F82410888104F1A8
:101440001C00C1B23046FFF78FF870BD001002409B
:10145000180000202DE9F04F89B081468A46B9F185
:10146000000F01D11F4C00E01F4C4FEA0A1094FB03
:10147000F0FB584600F0E5FACDE90401504600F0D3
:10148000C9FA07460022194B00F0EEFA05460E464F
:10149000204600F069FE074600F0CEFC2A4633469F
:1014A000CDE9000100F05EF9CDE90201DDE9042398
:1014B00000F0D8FBCDE9060100F07AF808904FF073
:1014C0008341089800F0B0FE0890089800F02CFEC8
:1014D00000EB0B10064951F82910088109B0BDE84E
:1014E000F08F000000A24A040051250200003040A5
:1014F0002400002070B504460E46154634B9144841
:10150000806940F480401249886108E01048C06951
:1015100004F1100101228A4010430D49C8612046A0
:1015200000F01AF831462046FFF794FF094850F8BA
:101530002400808942F22C010843064951F8241006
:10154000888104F12500C1B22846FFF70DF870BD6F
:10155000001002402400002010B5044624B1012CE4
:101560000DD0022C21D115E0032209210020FFF724
:101570008BFB04220A210020FFF786FB15E00322E3
:1015800002210020FFF780FB042203210020FFF747
:101590007BFB0AE003220A210120FFF775FB0422EE
:1015A0000B210120FFF770FB00BF00BF10BD000042
:1015B00021F00042A2F16052B2F5801F01F0004319
:1015C00028BFD2F17F6C0BD95FEA001C43EAC2024C
:1015D00042EB507018BF704728BF20F001007047E1
:1015E000B2F5801FBCBF184670474FEA410C1CF58E
:1015F000001F02D2084600F0DEBE70B500F0DEFA31
:1016000000000089FFF7F6BF4FF00040A0F5800012
:101610007047000010B591EA030F48BF83F0004304
:1016200000F12883841A71EB030C05D2121943EBE5
:101630000C03001B61EB0C01DFF824E14FEA1154AD
:10164000A4EB135C1EEA430F18BF9EEA445F73D0FD
:1016500023EA0E03DCF1200E21EA045143F4801347
:1016600032D322FA0CFE10EB0E0023FA0CFE41EBF3
:101670000E01CCF1200E03FA0EFE10EB0E0051F11C
:101680000001B1F5801FCCF1200E32D201EB0451E4
:1016900012FA0EF2BDE8104058BF7047401C38BF28
:1016A0005FEA420218BF7047002814BF20F0010013
:1016B00041F100014FEA410313F5001F38BF7047A5
:1016C000A1F1C04100F0C8BA012A43EB0302ACF11A
:1016D000200CDCF11F0E32BF4FF0000E23FA0CF38A
:1016E00010EB030041EB0451B4EB115FD0D0A1EB40
:1016F000045101F5801149085FEA300001EB045103
:101700000ED350F1000038BF12FA0EFE08D1BDE82A
:101710001040C9E7401C38BF5FEA4202CAD1C3E7A4
:10172000BDE810404FEA410313F5001F38BF704772
:10173000A1F1C04100F090BA9EEA445F08D011EADE
:101740005E0FBDE8104004BF01F00041002070476B
:10175000BDE8104070B500F031FA00BF64FBBE3E3A
:101760000000E0FF2DE9C04130B4DFF8A0C23CEA40
:10177000111418BF3CEA131400F0EC8081EA030551
:101780001CEA111444EAD57418BF1CEA131500F0C2
:10179000C780A4EB05044FF0004545EAC12145EAA6
:1017A000C32341EA505143EA525304F17F749942F2
:1017B00004F500344FEAC0204FEAC22208BF90422D
:1017C00000F09C804FEA13650FF24016765D4FEAF9
:1017D000134506FB05F7C7F1807706FB07F74FEACD
:1017E000D737A7FB03687642C8F58038A7FB06CE3B
:1017F00038BFA8F1010807FB08E64FF0000EA6FB72
:10180000028CE6FB03CEDCF1000CCEF1004E38BFBB
:10181000AEF1010EA6FB0C584FF000074FF000058B
:10182000E6FB0E87A1FB08C6A0FB07CE16EB0E0653
:1018300045F10005E1FB076515F1E04E7EBFA4F51B
:1018400080345FEA46066D4116F1800745F10005D8
:101850004FEA17274FEA066647EA0567A6F1DE4614
:10186000B6F1805F4FEA15251FD9384624F0010CE8
:1018700005EBC471BCF1FE6F01EB0C1102D8F0BC9A
:10188000BDE8008124425CBF01F5801E9EEAC47F52
:1018900002D4F0BCBDE80081244238D4F0BCA1F1F0
:1018A000C041BDE8004100F0D7B94FEAD22242EA78
:1018B00043524FEAD323A7FB02864FEAD02040EAE7
:1018C000415007FB03661EEA0E0F4FEAD12105FBCC
:1018D000026658BFA6EB0056B6EB00564FEA520E12
:1018E0004EEAC37E18EB0E0E56EB530EBDD518EB29
:1018F00002085E417F1C55F10005B6E74FF48015E4
:101900004FF000074FF000064FF00008ADE7F0BCC5
:101910004FF0000001F1C04101F00041BDE800813D
:1019200011EA0C1F0CEA131500D00CE013EA0C1F8F
:1019300000F025804FF00000F0BC81EA030101F0C7
:101940000041BDE80081F0BCBDE8004181EA03012F
:1019500000F082B9F0BCBDE8004170B500F02EF98E
:10196000097EFC3E00F007B881EA03014FF0000059
:1019700001F00041704781EA030100F06DB9F0BC4D
:10198000BDE800414FF0000021497047FFFDFBF921
:10199000F7F5F4F2F0EEEDEBE9E8E6E4E3E1E0DEA2
:1019A000DDDBDAD8D7D5D4D3D1D0CFCDCCCBCAC814
:1019B000C7C6C5C4C2C1C0BFBEBDBCBBBAB9B8B73B
:1019C000B6B5B4B3B2B1B0AFAEADACABAAA9A8A82E
:1019D000A7A6A5A4A3A3A2A1A09F9F9E9D9C9C9BFC
:1019E0009A999998979796959594939392919190A7
:1019F0008F8F8E8E8D8C8C8B8B8A89898888878738
:101A00008685858484838382828181800000FF07AC
:101A10000000F87F10F0004248BF4042B0FA80F367
:101A200010FA03F10AD0C3F11D0303F580634FEAF6
:101A3000415002EB035202EBD12170474FF00000FE
:101A40007047B0FA80F310FA03F10AD0C3F11D0316
:101A500003F580634FEA41504FEA035202EBD12174
:101A600070474FF000007047DFF848C170B51CEABE
:101A7000111E1EBF1CEA13159EEA0C0F95EA0C0FEF
:101A800000F06F8081EA030423EA4C134EEAD47E0F
:101A900021EA4C1141F4801143F48013AE44A1FBC0
:101AA000024CA0FB0365AEF17F7E361955EB0C05A9
:101AB000A1FB034C4CF10003A0FB021C16EB0C062F
:101AC000654153F10003094218BF46F0010613F4C3
:101AD000007F0BD14FEA03314FEA0530340341EA6E
:101AE000155140EA16506FF003020AE04FEAC32195
:101AF0004FEAC520F40241EA555140EA56506FF0D2
:101B0000020202EB2E4201EB025585EACE710AD0A9
:101B10005FEA440C18BF24F0004450F1000041F18A
:101B2000000120EAD47040F2FE7C624500D270BD14
:101B3000A84214BF4FF080444FF04044002E08BF2D
:101B40000024BEF1806FA8BFA1F1C041BDE8704084
:101B500080F282804FF0000001F1C04101F00041AD
:101B600070479EEA0C0F0CEA131518BF95EA0C0F8C
:101B700006D04FF0000081EA030E0EF0004170BD68
:101B800000F01CF88900013E00F007B800F009B829
:101B90004FEA430C5FEA5C5C08D081EA030100F085
:101BA0005BB84FEA410C5FEA5C5CF6D14FF0000095
:101BB000014970470000FF070000F87F0EF1020E98
:101BC0002EF0030E5EF8046B364205D4012A43EB77
:101BD000030515F5001F12D8012841EB010C1CF577
:101BE000001F0CD80ED14FEAD17C15F5001F0CEB6D
:101BF0004C0C0CF1020C08BF4CEBD37C04E04FF012
:101C0000080C01E04FEAD37C0CEB4C0526FA05F6F4
:101C100006F00706B6F1040C06D20EEB860CBDE802
:101C200070404CF0010C6047DFE80CF0090B020239
:101C30004FF000414FF00000A1F5002170BD1946A2
:101C40001046012851EB010418BFD4F5001484BFDD
:101C5000002001F0004170BD0808A0F500114FEA16
:101C60003101704710B591EA030F48BF83F000437C
:101C70003FF5D8AC841A71EB030C07D212198CF023
:101C8000004C43EB0C03001B61EB0C01DFF8A4E1FB
:101C90004FEA1154A4EB135C1EEA430F18BF9EEAEF
:101CA000445F00F0B08023EA6E03524221EA0451FF
:101CB000C3EB6E0338BF5B1EDCF1200E25D322FA86
:101CC0000CFE10EB0E0043FA0CFE41EB0E01CCF1C2
:101CD000200E03FA0EFE10EB0E0051F10001CCF1C4
:101CE000200E29D412FA0EF201EB0451BDE8104087
:101CF00058BF7047401C1CBFB2F1004F704700280E
:101D00000CBF491C20F00100704712EB020E43EBA0
:101D1000030218BF4FF0010E4EEA4202ACF1200C54
:101D2000DCF11E0E54D943FA0CFE10EB0E0051F1FB
:101D3000FF31CCF11E0ED5D50EF1010E12FA0EFEBA
:101D4000404141EB010101EB445C5FEA5C5C10D96E
:101D500010EBDE7001EB045138BFBEF1004FBDE85F
:101D6000104018BF704700280CBF491C20F001002C
:101D7000704730D24FEAD42C11F5001124F40064DE
:101D80001BD0B1FA81F20B3AA41AA41ED2F120039F
:101D9000914030FA03F31943904001EBCC71002CD1
:101DA00001EB0451BDE81040A8BF704701F1C041EC
:101DB0004FF0000001F000417047B0FA80F310FAD4
:101DC00003F100D110BDE41A173C4805C90AE4E745
:101DD00001EB045110BD491001EB0451BDE8104066
:101DE0004FEA300002E04FF0000170474A0008BFA0
:101DF0000042F8D0B2F5001F28BF704701F0004143
:101E00004FF0000070479EEA445F07D011EA5E0F72
:101E1000BDE8104004BF002100207047BDE810401D
:101E200070B5FFF7CBFE00BF40DFF63E83F0004108
:101E3000104670470000E0FF43004FEAD30C4FEA22
:101E40003C0C43401FBF40070CF1605113F0FE4FA4
:101E500070471CF0006F03D100200CF00041704768
:101E60000CF0004343EA507010B540EACC0000F09B
:101E70005CFA00BF000000924FEA0001FFF7ECBEE1
:101E80004FF000414FF00000A1F500217047000025
:101E900090EA010F48BF81F0004100F1D482421A5C
:101EA0003CBF801A89184FEAD0524FF07F4C1CEA91
:101EB000410FA2EBD15318BF9CEA026F00F03B80A8
:101EC0004FF0004C4CEA00204CEA012121FA03FCBF
:101ED00010EB0C0C1ED202F1FF325FEA1C2040EB2B
:101EE000C25038BF70471CF07F0F4FEA400C18BF3C
:101EF000BCF17F4F38BF7047C3F12003994008BF42
:101F000020F00100BCF17F4F38BF7047A0F1C04006
:101F100000F051BA4FEA3C00000A40EBC25028BF23
:101F20001CF0FF0F4FEA400CE6D018BFBCF17F4F0A
:101F300038BF7047EAE79CEA026F05D010EA5C0FF1
:101F400008BF00F00040704710B500F0EEF900BF88
:101F500064FBBE3E401058BFC0F14040491058BF1E
:101F6000C1F140418142EFF3008070474FF47F0C94
:101F70001CEAD0121EBF1CEAD11392EA0C0F93EA9E
:101F80000C0F00F0858090EA010F48BF42F4807288
:101F900040F4000C41F400002CF07F4120F07F4021
:101FA00000B58142A2EB03020FF2081CACEB504ECD
:101FB000C0F100009EF800E04FEA4E0E00FB0EFC60
:101FC00038BF49004FEA2C1C02F5FA020CFB0EF355
:101FD0004FEACE1E4FEA112C4FEAC1210EEB635E91
:101FE00042EB22420EFB0CFC4FEA1C5300FB031198
:101FF0004FEA112C4FEA01310EFB0CFC4FEADC4C8E
:1020000000FB0C11C14228BF09184CEB03335DF8EB
:1020100004EB10EB410143EBC250B2F57C0F38BF2B
:10202000704729D512F0F00F1CBF00F1C04000F03E
:1020300000407047008182838485868788898B8CE5
:102040008D8E8F919293959697999A9C9D9FA0A221
:10205000A3A5A7A8AAACAEB0B2B3B5B7B9BCBEC071
:10206000C2C5C7C9CCCED1D4D7D9DCDFE2E6E9EC12
:10207000F0F3F7FAFE0000004FEA400C0CF1807C10
:10208000BCF17E4F28BF7047B0F1C04000F093B95B
:1020900090EA010F0CEAD11348BF42F48072624506
:1020A00038BF634507D213F47F0F16D080EA0100D2
:1020B00000F00040704710B500F037F9097EFC3E93
:1020C00000F005B880EA010000F00040704780EAA7
:1020D000010000F0004000F06EB912F47F0F04BF61
:1020E0000248704780EA010000F065B90000C07F37
:1020F00041000B0ED3F19E0208D950F400034FEAC1
:10210000032323FA02F048BF4042704710B500F0A5
:102110000CF900BF49922480002070476FF0004204
:1021200082EA200070470000C10DD1F19E0206DB5B
:102130004FEA002343F0004323FA02F070470042C5
:1021400007D54FEA4001B1F1FE4F02D24FF0000037
:10215000704710B500F0E9F84992248000207047DC
:102160006FEA20007047000010F0004148BF404275
:10217000B0FA80F310FA03F2C3F19D030BD051EAD9
:10218000C35101EB1220530638BF704700F1010024
:1021900008BF20F001007047B0FA80F310FA03F294
:1021A000C3F19D030AD0D90501EB1220530638BFB5
:1021B000704700F1010008BF20F0010070470000E7
:1021C00050EA010C00F113801CF5000F58BFBCF55C
:1021D000000F01D48842704707D710F5000F58BF91
:1021E00011F5000F15D488427047894270471CF5DD
:1021F000000F04D5BCF5000FF7D5814270474FF0B2
:10220000807C1CEB400F38BF1CEB410F01D2814298
:10221000704710B500F089F8922449004FF0005043
:102220004FF08051FFF796BE4FF47F0C1CEAD0129E
:102230001EBF1CEAD11392EA0C0F93EA0C0F00F0B8
:10224000478090EA010F48BF42F480724FF0004C83
:102250004CEA00204CEA012102EB0302A0FB01132F
:10226000A2F50002002918BF43F001035B0028BF5C
:102270004FEA330342EB22425FEA132C4CEBC2508D
:102280002EBFBCEB436FB2F57C0F70474FEA036C77
:10229000BCF1004F08BF20F00100B2F57C0F38BF41
:1022A00070470BD582F0FF0212F5803FC8BF704720
:1022B00000F1C040D8BF00F00040704700F5000CAE
:1022C0005FEA4C0C48BF7047B0F1C04000F073B8F3
:1022D00090EA010F0CEAD11348BF42F480726245C4
:1022E00038BF634504D280EA010000F00040704727
:1022F00010B500F01AF800BF8900013E00F007B8E1
:1023000000F009B85FEA410C5FEA1C6C08D080EA73
:10231000010000F050B85FEA400C5FEA1C6CF6D197
:102320004FF00040A0F5800070470EF1020E2EF035
:10233000030E5EF8044B244204D44FEA4102B2F18A
:102340007F4F11D84FEA4003B3F17F4F0CD80ED125
:102350004FEAD07CB2F17F4F0CEB4C0C0CF1020C2D
:1023600008BF4CEBD17C04E04FF0080C01E04FEAD1
:10237000D17C0CEB4C0324FA03F404F00704B4F111
:10238000040C06D20EEB840CBDE810404CF0010C9E
:102390006047DFE80CF0070802024FF00040A0F5AC
:1023A000800010BD0846420018BFD2F1807288BF7D
:1023B00000F0004010BDFF2141EAD050C005704739
:1023C00051EA000C00F113801CF5000F58BFBCF55A
:1023D000000F01D48142704707D711F5000F58BF95
:1023E00010F5000F15D481427047894270471CF5E3
:1023F000000F04D5BCF5000FF7D5884270474FF0A9
:10240000807C1CEB410F38BF1CEB400F01D288428F
:10241000704780EA010081EA000180EA0100FFF7CD
:10242000F8BE80F0004090EA010F7FF538AD81F0F2
:10243000004100F008B8000090EA010F48BF81F0A9
:1024400000413FF52CAD421A04D882F00042A0EBC7
:10245000020011444FEAD0524FF07F4C1CEA410F6A
:10246000A2EBD15318BF9CEA026F4AD04FF0004C48
:102470004CEA00204CEA012121FA03FCB0EB0C0CE1
:102480000FD412F0FE0F36D05FEA4C001DD50012BB
:1024900040EBC25038BF70471CF03F0F18BF704769
:1024A0000BE0A2F101025FEA1C2040EBC25038BFF2
:1024B00070471CF07F0F18BF7047C3F1200399408D
:1024C00014BF401E20F00100704780084FEA12231D
:1024D00008BF7047B0FA80FCA2EB0C02CCF1280CCC
:1024E00060FA0CF093EA122F04BF00EBC250704761
:1024F0004FEAC3707047130A5FEADC1008BF7047E9
:10250000F6E79CEA026F04D010EA5C0F08BF0020D7
:10251000704710B5FFF709FF40DFF63E81F000403D
:10252000704700004425000800000020340000002F
:1025300028010008782500083400002094060000D7
:10254000440100080100000000000000000000003D
:1025500000080140000C0140001001400000004054
:1025600000040040000800400038014000440040E2
:082570000048004000000000DB
:04000005080000ED02
:00000001FF
