:020000040800F2
:1000000078080020E1010008E9010008EB01000880
:10001000ED010008EF010008F101000800000000F8
:10002000000000000000000000000000F3010008D4
:10003000F501000800000000F7010008F9010008C0
:10004000FB010008FB010008FB010008FB010008A0
:10005000FB010008FB01000859120008711200089A
:1000600089120008C5120008DD120008FB01000813
:10007000FB010008FB010008FB010008FB01000870
:10008000FB010008FB010008FB010008FB01000860
:10009000FB010008FB010008FB0100081913000820
:1000A000FB010008FB010008FB010008FB01000840
:1000B000E11C0008011D0008251D0008FB010008C7
:1000C000FB010008FB010008FB010008FB01000820
:1000D000FB010008411D00085D1D0008791D000896
:1000E000FB010008FB010008FB01000800F002F81A
:1000F00000F067F80AA090E8000C82448344AAF15B
:100100000107DA4501D100F05CF8AFF2090EBAE858
:100110000F0013F0010F18BFFB1A43F0010318473B
:10012000B4700000D47000000A444FF0000C10F8C6
:10013000013B13F0070408BF10F8014B1D1108BF65
:1001400010F8015B641E05D010F8016B641E01F805
:10015000016BF9D113F0080F1EBF10F8014BAD1C55
:100160000C1B09D16D1E58BF01F801CBFAD505E073
:1001700014F8016B01F8016B6D1EF9D59142D6D3CD
:10018000704700000023002400250026103A28BFF5
:1001900078C1FBD8520728BF30C148BF0B607047F9
:1001A000662906F0D483002070471FB500F0FEFAE0
:1001B00004000020002105F061F9E0601FBD10B5CA
:1001C00010BD00F013FC1146FFF7EFFF03F08CFDAC
:1001D00000F031FC03B4FFF7F2FF03BC01F03FFF76
:1001E0000948804709480047FEE7FEE7FEE7FEE7CB
:1001F000FEE7FEE7FEE7FEE7FEE7FEE70448054907
:10020000054A064B70470000811C0008ED000008FD
:10021000780200207808002078040020780400206C
:10022000704700000FB4044910B503AA029800F00B
:10023000ABFA10BC5DF814FB240100202DE9F04757
:100240004FF0000A89460446C0F820A02046E16825
:100250008847002876D0252806D0D4E90121904788
:10026000206A401C2062F1E7E168204600258847AB
:10027000C4F81CA006460027C4F818A02A2E09D0EE
:10028000304601F0E5FE38B304EB8708303EC8F88D
:10029000186019E059F8041B204604EB87029161AD
:1002A000E1688847012F064618D1E069002820DA66
:1002B00025F020051DE0D8F8180000EB800006EBC3
:1002C00040003038C8F818002046E16888470646E4
:1002D00001F0BEFE0028EED1012F0AD02E2E08D14B
:1002E0002046E16888477F1C0646022F45F020051E
:1002F000C4DBA069002803DA404245F00105A06193
:10030000E80701D025F01005B6B1A6F14100192883
:1003100002D8203645F400654A463146204625601D
:100320004D46FFF73DFF58B1012806D0ED1D25F0E1
:10033000070000F1080989E704E005F1040985E7F1
:1003400030468AE7206ABDE8F087704770477047FB
:10035000704710B500F02EFA006810BD10B50446C5
:1003600000F028FA046010BD70472DE9FF4F0C46DD
:100370001E464FF0FF378BB0D2E90001DDF86080F8
:100380000A908A46C1F30A5505B93D460021084640
:100390004FF00000BAF1000F00F4400005DA00EB66
:1003A00080004FF4400101EA50004FEA9059B9F142
:1003B000010F00DDB9460A9850EA4A000ED044F613
:1003C0001050A5F2FF3545432F14B8F1000F1ED091
:1003D0007542291E1EDDC9F100021CE0B8F1010FB3
:1003E0004FF0000001D0302103E0F24305E021543A
:1003F000401CB042FBDB30460022002121540B9907
:10040000C1F80880C1E900200FB0BDE8F08FBD1B26
:100410006D1CDEE74A4600DA694206A800F06CFA75
:1004200006AB93E8070003AB83E8070050460A9940
:1004300000F04AFB8DE80700A0F500501F3800903F
:100440000398002D0ADD42F21F014A4608440023AA
:1004500003A90390684600F0B3FD09E0A0F5005041
:100460004A461F38002303A90390684600F0BDFDEB
:100470008DE807000004000C03D04FF0FF30410866
:1004800000E01046B8F1000F03D00022009215469C
:100490001EE0751E05D400F091F9303262556D1ED4
:1004A000F9D5B3460122084302D000227F1C04E0A4
:1004B0002078302801D100227F1E002A099784D09D
:1004C0001DE0112D07DA00F079F9303262556D1C0C
:1004D00050EA0102F5D1084302D00098C8B10EE0FD
:1004E0000021681E05E0235C625C63542254401EB8
:1004F000491C8142F7DBAB46A81B401E0990002037
:1005000004F80B000B98099AC0F80880C0E9002B8A
:100510007AE711264FF0000857E72DE9F04F88469B
:100520000446D21D22F0070191B0D1E90001CDE9C6
:100530000A0101F02FFC02460B98C00F01D02D20BC
:1005400007E02068810701D52B2002E0202101EA85
:10055000C000032A099001D0072A05DB0346414663
:10056000204600F089F90BE12078800601D5E0698A
:1005700000E00620B8F1650F814606D0B8F1660F9D
:1005800018D0B8F1670F70D131E00020B9F1110F28
:10059000009001DB112301E009F101030AAA01A97E
:1005A0000CA8FFF7E2FEDDE90C70002609F1010559
:1005B000834647E001204B4600904FF000470AAACF
:1005C00001A90CA8FFF7D1FEDDE90DB00C995D463D
:1005D000002610B909F101000D18B9EB050003D48C
:1005E000C0F1FF3609F10105A5EB09002BE0B9F1D7
:1005F000010F01DA4FF001090020B9F1110F00904D
:10060000484601DD112300E003460AAA01A90CA80F
:10061000FFF7ABFEDDE90C704D46002683462078DF
:1006200000070AD4AB4500DA5D4601A8012D04DDC0
:10063000411911F8011C302907D04F4502DA17F192
:10064000040F04DA012082460FE06D1EEEE7002F52
:1006500002DCED1B3E4403E0781CA84200DD7D1C5B
:10066000B81B00F1010A4FF000472078000703D4BF
:10067000AA4501DB4FF0FF3A0021B7F1004F0DF121
:1006800043088DF8431024D002202B23002F01DAD9
:100690007F422D230A21021EA0F1010000DC5FB180
:1006A00097FBF1FC97FBF1F201FB1C7C17460CF168
:1006B000300C08F801CDEEE7A8F1010003702188A5
:1006C000090501D5452100E06521A0F1010800F8E8
:1006D000011C09980FA9A1EB0807FF1D00B101201B
:1006E000411901EBEA70A1693844081A401EA06163
:1006F0002078C00602D42046AFF30080099828B1C4
:10070000D4E901219047206A401C20622078C0066D
:1007100022D52046AFF300801EE0002E04DBB34557
:1007200002DD01A8805D00E03020D4E9012190477E
:10073000206A401C2062761CAAF101005FEA000AD0
:100740000AD100F033F8C0680168405CD4E90121A7
:100750009047206A401C2062281EA5F10105DCDCC0
:1007600007E0D4E9012118F8010B9047206A401CEA
:100770002062381EA7F10107F3DC2046AFF30080AA
:10078000032011B041E60000074B70B50D467B44D5
:1007900000F05FF80446284600F020F910B14FF051
:1007A000FF3070BD204670BD0F2900000048704723
:1007B00038020020004870471802002030B5B0F120
:1007C0000A024FEA900E71F100034EEA817EB0EB0F
:1007D0000E0061EB91014FEA101E4EEA017E10EB14
:1007E0000E0041EB11114FEA102E4EEA016E10EB94
:1007F0000E0041EB11214FEA104E4EEA014E10EB74
:100800000E0041EB1141401841F100014FEAD000C8
:1008100040EA41704FEAD10110EB80054FEA8104B4
:1008200044EA907444EB01046D1944EB0404521B38
:10083000A3414FF0000348BF0A3200D530BD401C31
:1008400041F1000130BD000001694A1C02610878D5
:10085000704700B58FB0CDE9013100210591054900
:100860007944CDE9031011466846FFF7E7FC0FB065
:1008700000BD0000E5FFFFFF2DE9F0411F460446E3
:1008800003260168072A01F4006004DB08B116A5FD
:1008900005E016A503E008B115A500E015A521F0B7
:1008A00010002060A069C01EA0610FB1401EA061B1
:1008B0002046AFF300804FB1D4E90121384690477C
:1008C000206A401C2062C01C206206E0206AFAE711
:1008D000D4E9012115F8010B9047761EF8D2204685
:1008E000AFF30080BDE8F0814E414E006E616E00B6
:1008F000494E4600696E66002DE9F047814616466E
:100900008AB0354878440DC88DE80D0032487844E7
:10091000801C03AC0DC884E80D0041F69B300844F0
:10092000372190FBF1F290FBF1F5A5F1800501FB79
:1009300012041B3C02D56442012000E00020DFF8D5
:1009400098A080460027FA44AAF1BE0A0EE0E0070C
:100950000AD03246684607EB470101230AEB8101C2
:1009600000F043FB8DE8070064107F1C002CEED1E3
:10097000194F7F44AE3F19E0E80715D007EB04108C
:100980000DF1180A90E80E008AE80E00C068F042E7
:1009900001D1981908903246012306A903A800F056
:1009A00024FB03AB83E807006D10641C002DE3D12A
:1009B0004FF0010332466946B8F1000F03A802D098
:1009C00000F0FEFA01E000F010FBC9E90001C9F8EF
:1009D00008200AB0BDE8F087B4680000007B00F092
:1009E0008000704700487047180200207546FFF7E6
:1009F000F9FFAE4605006946534620F007008546DC
:100A000018B020B5FFF7FAFBBDE820404FF0000614
:100A10004FF000074FF000084FF0000B21F00701E6
:100A2000AC46ACE8C009ACE8C009ACE8C009ACE829
:100A3000C0098D46704710B50446AFF300802046CC
:100A4000BDE81040FFF7C6BB4FF0013C50F8042B47
:100A500051F8043B9A4221D1A2EB0C03934313EAD1
:100A6000CC1317D150F8042B51F8043B9A4215D1FE
:100A7000A2EB0C03934313EACC130BD150F8042BD5
:100A800051F8043B9A4209D1A2EB0C03934313EAB9
:100A9000CC13DBD04FF00000704700BFD01A01BA72
:100AA000B1FA81F101F0180122FA01F0CB40C1F155
:100AB0002001DBB2C0B2C01A2CFA01F3D11A914363
:100AC00011EAC311E6D170475FEA400C08BF91F00C
:100AD000000F4FEA8C234FEAC12243EA51514FEAFB
:100AE0001C5018BF00F5F0404FEA300018BF41F02D
:100AF00000415FEA6C5C00F02980BCF1FF3F08BF59
:100B000040F080407047130C06BF12044FF0100CE9
:100B10004FF0000C130E04BF12020CF1080C130F5F
:100B200004BF12010CF1040C930F04BF92000CF1EE
:100B3000020CD30F04BF52000CF1010C11464FF010
:100B40000002A0F11F00A0EB0C00704711F0004F55
:100B500008BF704731F000413FF4D5AF0B0C06BF22
:100B600009044FF0100C4FF0000C0B0E04BF0902EB
:100B70000CF1080C0B0F04BF09010CF1040C8B0FD6
:100B800004BF89000CF1020CCB0F04BF49000CF12B
:100B9000010CCCF12003A0EB0C0022FA03F302FAC3
:100BA0000CF241EA030100F10100704720F07F4C94
:100BB00080EA030023F07F47ACEB070303F57C5387
:100BC00000F0004003F1FF032DE980494FEA154B87
:100BD00009B44FEA144325EA0B4E24EA03480FF206
:100BE000042606EB132749083E785FEA320203FB2E
:100BF0000667C7F5000707FB06F64FEA54374FEACA
:100C0000D64606F1020607FB066CCCF1005C4FEA03
:100C10001C472CEA074C07FB06F40CFB06F504EB1B
:100C200015464FEA961634BF00204FF000404FEAB9
:100C3000D13706FB07FC4FEA1C4C0CFB0BF7D21B11
:100C400003FB0CF761EB07010CFB0EF7B0EB074061
:100C500072EB17420CFB08F734BFA2EB0742B2EB72
:100C6000074261EB17414FEA0C444FEA910706FB3C
:100C700007FC4FEA1C4C0CFB0BF7B0EBC74072EBC8
:100C8000573203FB0CF734BFA2EBC742B2EBC742AB
:100C900061EB57310CFB0EF7B0EBC70072EB5772EC
:100CA0000CFB08F734BFA2EBC702B2EBC70261EB43
:100CB0005771039F4FEA816141EA921104EBCC0422
:100CC0004FEAD1374FEA826206FB07FC42EA9012F4
:100CD0004FEA80604FEA1C4C0CFB0BF7D21B03FB66
:100CE0000CF761EB07010CFB0EF7B0EB074072EB62
:100CF00017420CFB08F734BFA2EB0742B2EB0742E6
:100D000061EB17414FEA8C554FEA910704EB9C24A5
:100D100006FB07FC4FEA1C4C0CFB0BF7B0EBC74083
:100D200072EB573203FB0CF734BFA2EBC742B2EBB6
:100D3000C74261EB57310CFB0EF7B0EBC70072EB0B
:100D400057720CFB08F734BFA2EBC702B2EBC70225
:100D500061EB577115EB4C254FEA816141EA921125
:100D60004FEA82624FEAD13742EA901206FB07FC53
:100D700044F100044FEA80604FEA1C4C0CFB0BF777
:100D8000D21B03FB0CF761EB07010CFB0EF7B0EB7A
:100D9000074072EB17420CFB08F734BFA2EB074287
:100DA000B2EB074261EB174115EB1C154FEA81319D
:100DB00041EA92414FEA823242EA90424FEA803061
:100DC0004FEA0C7644F1000448EA03434EEA0B482C
:100DD0004FF0000EB2EB080C71EB030724BF624624
:100DE00039464EEB0E0E4FF0000B001852414941B0
:100DF0004BEB0B0BB2EB080C71EB03077BF1000B19
:100E000024BF624639464EEB0E0E4FF0000B001821
:100E1000524149414BEB0B0BB2EB080C71EB030752
:100E20007BF1000B24BF624639464EEB0E0E51EAB1
:100E3000020718BF46F0010616EB0E7655F10002C8
:100E400054F1000103D5BDE88901BDE80088BDE883
:100E50008901BDE80048B619524141EB0101A3F1F7
:100E60000103704780807F7E7D7C7B7A79787776FE
:100E700076757473727171706F6E6E6D6C6C6B6A77
:100E80006A69686867666665646463636261616015
:100E9000605F5F5E5E5D5D5C5C5B5B5A5A59595892
:100EA00058575756565555555454535352525251FC
:100EB000515050504F4F4F4E4E4D4D4D4C4C4C4B52
:100EC0004B4B4A4A4A494949484848474747474699
:100ED00046464545454444444443434343424242D5
:100EE00042414141002B9C4630D477002BD01CB5A9
:100EF0004FEA370703B44FF010004FF01001BAF17A
:100F0000000F06D0BCF1000FDCBF40F0080040F03D
:100F100008014FF000000FBCBDE810400BF1010BC1
:100F2000BBF1010F08BF5FEA170722BF12F10102F0
:100F300011F101014FF0004143F1000300F00040C6
:100F400043EA00007047F9D35708D0E746EA06465F
:100F500013F1400F4FEA16461FDD13F1200FDFBFDC
:100F600016430A46002120335B42BED0C3F120075E
:100F700046EA064602FA07F74FEA164646EA070629
:100F8000C3F1200722FA03F201FA07F721FA03F16D
:100F90004FF0000342EA0702A7E746EA020646EAE4
:100FA00006464FEA164646EA0106BCBF46EA064632
:100FB000360C4FF000034FF000024FF0000194E7B1
:100FC0002DE9804C9A46934670B491E8380007C8E2
:100FD00031EA400C48BF34EA430C03D5FFF7E6FD85
:100FE000FFF780FFF0BCBDE8008C2DE9804C9A46ED
:100FF000934670B491E8380007C810F0804F08BFDE
:1010000013F0804F03D100F005F8FFF76BFFF0BC41
:10101000BDE8008C20F07F4780EA030023F07F4C7E
:1010200007EB0C03A3F57C5300F00040A3F1FE0393
:1010300092F0000F00F0B38095F0000F00F0778081
:101040002DE901494FEA11404FEA144621EA0048D0
:1010500000FB06FC24EA064708FB06F607FB08F837
:1010600000FB07F718EB06484CEB164C4FEA124B07
:1010700018EB07484FEA15464CEB174022EA0B4E97
:101080000BFB06FC25EA06470EFB06F607FB0EFEE9
:101090000BFB07F71EEB064E4CEB164C4FF0000611
:1010A0001EEB074E4CEB174B18EB0B0840F1000002
:1010B00018EB0E0B58EB000840F100008F1A4FF0B0
:1010C00000013CBFC943661B14BFB5EB040C0021F3
:1010D0003CBFC943F61B4FEA17444EEA8E0E27EA7F
:1010E00004454FEA1C4704FB07622CEA074C05FB4A
:1010F00007F70CFB05F604FB0CFC16EB074642EB6E
:10110000174216EB0C4642EB1C421BEB060658EB53
:101110000202414146EA9E0601D5BDE80189B619A1
:10112000524141EB0101A3F10103BDE801894FEAFE
:1011300014454FEA114724EA054621EA074C05FB0E
:1011400007F406FB07F70CFB06F105FB0CFC11EBA3
:10115000074144EB17444FEA124711EB0C4144EBB3
:101160001C4422EA074C05FB07F206FB07F70CFBC1
:1011700006F605FB0CFC16EB074642EB174216EB96
:101180000C4642EB1C456A1854F1000148BF7047F9
:10119000B619524141EB0101A3F10103704795F0EB
:1011A000000F37D04FEA11424FEA144721EA0246B6
:1011B00024EA074C02FB07F106FB07F70CFB06F4D9
:1011C00002FB0CFC14EB074441EB17414FEA1547B7
:1011D00014EB0C4441EB1C4125EA074C02FB07F5DC
:1011E00006FB07F70CFB06F602FB0CFC16EB0746AA
:1011F00045EB174516EB0C4645EB1C42121951F115
:10120000000148BF7047B619524141EB0101A3F1FB
:10121000010370474FEA14454FEA114724EA054697
:1012200021EA074C05FB07F106FB07F70CFB06F26A
:101230004FF0000605FB0CFC12EB074241EB174197
:1012400012EB0C4251EB1C4148BF7047921841EB26
:101250000101A3F1010370470448006800F0010098
:1012600010B10120014908607047000014040140DA
:101270000448006800F0020010B102200149086033
:10128000704700001404014010B50C48006800F0DD
:10129000040090B10321002001F010FF28B108489C
:1012A0000068401E0649086004E005480068401CCC
:1012B0000349086004200149086010BD140401407E
:1012C000040000200448006800F0080010B1082065
:1012D00001490860704700001404014010B50C4833
:1012E000006800F0100090B10521002001F0E6FE3A
:1012F00028B108480068401C0649086004E0054819
:101300000068401E0349086010200149086010BDB4
:10131000140401400800002030B58DB04B4800682F
:1013200000F0200010B120204849086047480068BC
:1013300000F0400010B14020444908604348006874
:1013400000F0800000286CD000F044F94048B0F96B
:10135000000005F067F804464FF08D4104F030FFBF
:101360000A903C48B0F9000005F05CF804464FF0E4
:101370008D4104F025FF0B903748B0F9000005F0CF
:1013800051F804464FF08D4104F01AFF0C90334899
:10139000B0F9000005F046F80446314904F010FFAA
:1013A00007903048B0F9000005F03CF804462C499D
:1013B00004F006FF08902C48B0F9000005F032F860
:1013C0000446274904F0FCFE099028480290DDE914
:1013D0000801CDE90001079B0AA807C802F078F8C8
:1013E00007A90EC904A801F06DFF214904980860FF
:1013F000204905980860204906980860084600685A
:1014000004F03EFE21F00041044600221B4B04F094
:1014100025FC02D21A481849086080200B49086050
:1014200000BF0A48006800F4807018B14FF4807063
:10143000064908600548006800F4007018B14FF4D0
:101440000070024908600DB030BD00001404014076
:10145000280100202A0100202C0100202E0100205C
:101460003333834130010020320100200AD7A33BEF
:101470004C010020500100205401002000806640F3
:10148000000034C310B502220A21012001F028FE19
:1014900002220B21012001F023FE01220B21104624
:1014A00001F0F0FE01220A21104601F0EBFE10BD12
:1014B00010B501220B21104601F0E4FE01220A21A1
:1014C000104601F0DFFE00220A21012001F0DAFEC1
:1014D00010BD70B5002501220B21104601F0D2FE8F
:1014E000002412E001220A21104601F0CBFE0B215C
:1014F000012001F0E3FD10B18020204105430022CE
:101500000A21012001F0BEFE641C082CEADB2846FB
:1015100070BD70B50546002419E0802020412840A8
:1015200028B101220B21104601F0ACFE04E000229C
:101530000B21012001F0A6FE01220A21104601F034
:10154000A1FE00220A21012001F09CFE641C082C4F
:10155000E3DB70BD10B501220B21104601F092FEB5
:1015600001220A21104601F08DFE00220B210120EC
:1015700001F088FE00220A21012001F083FE10BD47
:1015800010B500220B21012001F07CFE01220A216E
:10159000104601F077FE01220B21104601F072FE89
:1015A00010BD10B5002401220B21104601F06AFE87
:1015B00001220A21104601F065FE0B21012001F0F5
:1015C0007DFD044600220A21012001F05BFE204639
:1015D00010BD000070B53B2000F072F804463C20BE
:1015E00000F06EF8054645EA042000B22149088063
:1015F0003D2000F065F804463E2000F061F8054605
:1016000045EA042000B21C4908803F2000F058F849
:101610000446402000F054F8054645EA042000B294
:1016200016490880432000F04BF80446442000F09F
:1016300047F8054645EA042000B2114908804520D4
:1016400000F03EF80446462000F03AF8054645EA28
:10165000042000B20B490880472000F031F804460E
:10166000482000F02DF8054645EA042000B206495E
:10167000088070BD280100202A0100202C010020D4
:101680002E010020300100203201002010B502217F
:101690006B2000F035F82721192000F031F80021E7
:1016A0001A2000F02DF818211B2000F029F8002145
:1016B0001C2000F025F80121382000F021F810BD91
:1016C00070B50446FFF746FFD020FFF722FFFFF773
:1016D00068FF2046FFF71DFFFFF763FFFFF750FF8E
:1016E000FFF738FFD120FFF714FFFFF75AFFFFF78E
:1016F000F0FE0546FFF7DCFEFFF742FF284670BD0F
:1017000070B505460C46FFF725FFD020FFF701FF17
:10171000FFF747FF2846FFF7FCFEFFF742FF204692
:10172000FFF7F7FEFFF73DFFFFF72AFF70BD000050
:10173000014607238B431A02054B18684FF6FF0337
:1017400018401043034B1843014B186070470000CA
:101750000CED00E00000FA0570B505460C460420CB
:10176000FFF7E6FF0E48005D00F0010646EA0510AF
:10177000C1B20B4801552046E21704EBD262521168
:10178000A4EB421301229A402146E31704EBD363F2
:101790005B119B0003F1E023C3F8002170BD000042
:1017A00000E400E070B500240EE00021204600F0C7
:1017B000D1F8002504E0002000F0DDF9681CC5B276
:1017C000802DF8DB601CC4B2082CEEDB70BD10B5B8
:1017D00002220821012001F083FC022209210120BC
:1017E00001F07EFC01220821104601F04BFD012290
:1017F0000921104601F046FD10BD70B505460024D4
:1018000013E08020204100EA05020921012001F0B7
:1018100039FD01220821104601F034FD0022082183
:10182000012001F02FFD601CC4B2082CE9DB01226D
:101830000821104601F026FD00220821012001F0B8
:1018400021FD70BD10B501220921104601F01AFDDD
:1018500001220821104601F015FD00220921012076
:1018600001F010FD00220821012001F00BFD10BD48
:1018700010B500220921012001F004FD01220821F8
:10188000104601F0FFFC01220921104601F0FAFC8C
:1018900010BD70B5002406E0002500E06D1CB5F514
:1018A0007A7FFBD3641CB4F57A7FF5D3FFF78FFF03
:1018B000AE2000F050F9D52000F04DF9802000F066
:1018C0004AF9A82000F047F93F2000F044F9D3205E
:1018D00000F041F9002000F03EF9402000F03BF913
:1018E000A12000F038F9C82000F035F9DA2000F026
:1018F00032F9122000F02FF9812000F02CF9CF20CE
:1019000000F029F9D92000F026F9F12000F023F9A0
:10191000DB2000F020F9302000F01DF9A42000F0B9
:101920001AF9A62000F017F98D2000F014F9142000
:1019300000F011F9AF2000F00EF9FFF733FF70BD92
:1019400010B50246012000E050430B1EA1F1010139
:10195000FAD110BD70B505460C4645F0B00000F058
:10196000FAF8102141EA141000F0F5F804F00F0025
:1019700000F0F1F870BD00002DE9F04105460E467B
:101980001746721ED206110E6A1E5206100EFFF77F
:10199000E1FF002409E0A7F12001134A02EB011145
:1019A000085D00F0E8F8601CC4B2082CF3DB721E7E
:1019B000D206110E6A1E012303EB4202D0B2FFF7DA
:1019C000C9FF00240BE0A7F12001074A02EB011236
:1019D00004F10801505C00F0CEF8601CC4B2082C81
:1019E000F1DBBDE8F0810000A06A00082DE9FF4F9F
:1019F00087B00C4691469A46DDF850B0484604F050
:101A0000D5FC0590584603F0DBFF07463A460B46E7
:101A100000201A4902F0B2FB05460E46059804F074
:101A200001FD8046494604F08BFE074604F028FB82
:101A30002A463346CDE9000104F012F8CDE902014F
:101A400003F078FF049053462146059A079800F06A
:101A50003BF804EB0A00401CC1B209A2079800F051
:101A600066F804EB0A00801CC1B25B46049A079832
:101A700000F008F80BB0BDE8F08F00000000244033
:101A80002E0000002DE9F04780460E4617461D4601
:101A9000002415E0281B411E0A20FFF751FFB7FB69
:101AA000F0F00A21B0FBF1F201FB120000F1300965
:101AB0003019C1B24A464046FFF75EFF601CC4B20F
:101AC000AC42E7DBBDE8F0872DE9F0478146884668
:101AD00015461E46002D06DB2B2241464846FFF7E1
:101AE0004BFF2F4605E02D2241464846FFF744FFB5
:101AF0006F42002417E0301B411E0A20FFF720FF31
:101B0000B7FBF0F00A21B0FBF1F201FB120000F18B
:101B1000300A08EB0400401CC1B252464846FFF7A9
:101B20002BFF601CC4B2B442E5DBBDE8F0872DE9B1
:101B3000F04107460E461546002407E02A5D30199D
:101B4000C1B23846FFF718FF601CC4B2285D0028F8
:101B5000F4D1BDE8F08110B50446FFF773FE78209C
:101B6000FFF74BFE0020FFF748FE2046FFF745FE3B
:101B7000FFF77EFE10BD10B50446FFF763FE782028
:101B8000FFF73BFE4020FFF738FE2046FFF735FE0B
:101B9000FFF76EFE10BD10B500F002F810BD00009A
:101BA0000CB50020019000903348006840F480306C
:101BB0003149086000BF3048006800F400300090F0
:101BC0000198401C0190009818B90198B0F5A06FD9
:101BD000F1D12948006800F4003010B101200090D4
:101BE00001E0002000900098012843D123480068BC
:101BF00040F01000214908600846006820F003000A
:101C000008600846006840F0020008601A48406812
:101C1000194948600846406848600846406840F4F2
:101C2000806048600846406820F47C1048600846A0
:101C3000406840F4E81048600846006840F0807052
:101C4000086000BF0C48006800F000700028F9D060
:101C50000948406820F0030007494860084640688A
:101C600040F00200486000BF0348406800F00C00EC
:101C70000828F9D10CBD00000010024000200240ED
:101C800010B51348006840F001001149086008468B
:101C90004068104908400E494860084600680E49EF
:101CA00008400B4908600846006820F4802008605E
:101CB0000846406820F4FE0048604FF41F0088602A
:101CC000FFF769FF4FF000600449086010BD000095
:101CD000001002400000FFF8FFFFF6FE08ED00E0F4
:101CE0004FF08040008A00F0010038B14FF0804092
:101CF000008A20F001004FF0804108827047000008
:101D000010B50748008800F0010038B102F0A2F9D0
:101D10000348008820F001000149088010BD000040
:101D2000100400400548008800F0010028B1034875
:101D3000008820F001000149088070471008004029
:101D40000548008800F0200028B10348008820F0F2
:101D5000200001490880704700380140054800888C
:101D600000F0200028B10348008820F0200001493D
:101D700008807047004400400548008800F02000BB
:101D800028B10348008820F02000014908807047EE
:101D900000480040490050EAC12018BF04204A0D05
:101DA00018BF40F0010040F2FF72B2EB515F08BF74
:101DB00040F00200012808BF0520704741000802DA
:101DC00018BF04200A0E18BF40F001004FF07F42F8
:101DD00032EA010108BF40F00200012808BF0520D7
:101DE00070472DE9F0414F1E00EBC7010446D1E9D1
:101DF000000115461E4637F006020DD02A4633462E
:101E000003F02EFE7F1E04EBC703D3E9002303F08B
:101E10007DFB37F00602F1D1022F25D0042F13D01D
:101E2000062F18BFBDE8F0812A46334603F018FE9E
:101E3000D4E90A2303F06AFB2A46334603F010FE76
:101E4000D4E9082303F062FB2A46334603F008FE78
:101E5000D4E9062303F05AFB2A46334603F000FE7A
:101E6000D4E9042303F052FB2A46334603F0F8FD7D
:101E7000D4E9022303F04AFB2A46334603F0F0FD7F
:101E8000D4E90023BDE8F04103F040BB0022134633
:101E90001046014903F0F6BB0000F03F03F036BBEB
:101EA000002213461046114603F0ECBB40F201320B
:101EB00000204FF0E04104F07EBD0000024A002007
:101EC000110704F078BD000001FDFFFF012104F0BF
:101ED000A0BD04F001B90021084604F071B96FF00B
:101EE0005E01080704F095BD2DE9F04D0D4614463E
:101EF0004FF07F41B1EB440F9EBF4FF0FF3129609F
:101F0000BDE8F08D4FF0004040EA0421C4F3C75013
:101F1000783810F01F024A4B4FEA601CC2F12006CD
:101F20007B44C4F3C750A0F178004FEA601003EB84
:101F3000800053F82C3008BFD0E901C612D0D0F889
:101F400004C093402CFA06F73B4387680CFA02FC66
:101F500027FA06F8C06807FA02F2F0404CEA080CCB
:101F600042EA0006A3FB0132ACFB01C0A6FB016103
:101F700001EB0C068E4234BF4FF0010C4FF0000C09
:101F8000C1186144BCF1000F02D0814202D903E0C4
:101F9000814201D2012000E00020104400F1200223
:101FA0004FEA92188006CA0C40EA42304F03C5F847
:101FB000008004F037FA8246384604F04BFA6FF09E
:101FC000120104F026FD0746304604F043FA6FF094
:101FD000250104F01EFD83463946504604F07CF886
:101FE000594604F079F800F500666FF30B06514688
:101FF000304604F037FC394604F034FC594604F00E
:102000009FFB104904F06EFA07460F49304604F072
:1020100069FA394604F060F807460C49304604F086
:1020200061FA394604F058F814F0004F08BFBDE8D3
:10203000F08DC8F1805180F000402960BDE8F08D3E
:10204000FC510000DB0FC92F22AAFD290000C92F77
:1020500030380A2801D2012070470020704700BFA5
:10206000704700002DE9F047074671480078714934
:102070000968884206D000206F4988626C48007861
:102080006C4908606C4807606C4800686A494860A1
:102090000A465168106804F0E5FB0646644800787B
:1020A00038B163480078012803D0614800780228DD
:1020B0000AD10021304604F0E1FA1AD260493046D4
:1020C00004F0D0FB064614E05E49304604F0D6FA30
:1020D00005D25B49304604F0C5FB064609E05A4983
:1020E000304604F0CBF904D25549304603F0F4FFF2
:1020F00006465148C16801618168C1608660006B15
:1021000070BB4D4A9168506904F0ECF94A49086285
:102110000A469168906904F0E5F980464648816A6C
:10212000404603F0D9FF444988620A46D168906866
:1021300004F098FB80464048C169404604F0D2F95B
:102140003D4948620A46916A106A03F0C5FF80461D
:102150003948416A404603F0BFFF3749C86244E04E
:102160003548006B012840D1334AD168906804F0AB
:1021700079FB804630484169404604F0B3F92E4966
:1021800008620A469168906904F0ACF92A498862AD
:102190000846C1684FF0804004F0A4F98246264802
:1021A0008168504604F0CCFA8146234801694846CC
:1021B00003F092FF80462048C169404604F092F93E
:1021C0001D4948620A46916A106A03F085FF8146FC
:1021D0001948416A484603F07FFF80461648C16AA5
:1021E000404603F079FF1449C862184C1248C56A8A
:1021F0002146284604F042FA01D2254608E084F040
:1022000000482946404604F039FA01D284F00045DE
:10221000284604F0CBF8824685F00049484604F091
:10222000C5F88046514601F02DFEBDE8F08700005C
:102230004000002044000020C00100205401002084
:102240000000B44300003443000034C30000704178
:102250002DE9F04104464FF00E4000EB4400B0F190
:10226000506F204655D84FF0FC41B1EB440F1CD2C3
:1022700024F000404FF07E5104F062FA4FF0FF313D
:1022800004F0C7FB054602F021FF14F0004F1DBF0C
:102290002F4F304E80F000402F4F08BF2F4E4FF091
:1022A000404104F01FF9044605E000273E46014680
:1022B00004F018F905462A49284604F013F929497B
:1022C00003F00AFF294604F00DF9274903F004FF43
:1022D000294604F007F9254903F0FEFE294604F0DB
:1022E00001F9234903F0F8FE80462946204604F010
:1022F000F9F8414604F0F6F805463146204603F069
:10230000EBFE294603F0E8FE3946BDE8F04103F054
:10231000E3BE4FF0E441B1EB440F08D9FFF74EFDA7
:10232000042808BFFFF7DBFD2046BDE8F0814FF031
:102330007F41B1EB440F03D2BDE8F041FFF7C6BDCA
:102340000120FEF70BF8BDE8F041FFF7C4BD000027
:102350000000C9BF22AAFDB90000C93F22AAFD3969
:1023600024FE1C3DC78AD83C1E67383D1B93993D0F
:10237000AFAA2A3E2DE9F0474FF0684202EB400336
:102380000C460546B3F1654F3CBF02EB4102B2F18A
:10239000654F80F0CD8000BFC0F3C752C1F3C75373
:1023A000D21A1B2A06DD10F0004F14BF8748884858
:1023B000BDE8F08712F11A0F2FDA11F0004F06D0A6
:1023C00010F0004F0CBF83488348BDE8F0872146DA
:1023D000284603F0F5FE0646FFF7F0FC042808BF88
:1023E000FFF77DFD2846FFF7E9FC05462046FFF78D
:1023F000E5FC04463046FFF7E1FC042D18BF052D2F
:1024000008D1042C18BF052C04D1002804BF0220D9
:10241000FDF7A4FF3046BDE8F0874200B2EB410F64
:1024200025D910F0004F19BF6C4F6D4E6D4F6E4E99
:10243000224685F0004415460A4680F000411046C9
:102440000A1A5200B2F1807F3ED248406749DFF855
:10245000A0A110F0004F18D04FF03F48384604F0CC
:1024600001FA07465146304604F0FCF917E011F036
:10247000004F04BF00263746E2D010F0004F19BFCE
:102480005C4F5D4E5D4F5E4EDAE74FF07C5838464C
:1024900003F022FE07465146304603F01DFE064675
:1024A0004146284604F01EF8214603F015FE8246F8
:1024B0002146404604F016F8294604F041F95146F9
:1024C00003F07EFE044604E02146284603F078FE31
:1024D0000446014604F006F880464A4904F002F832
:1024E000494903F0F9FD414603F0FCFF474903F079
:1024F000F3FD414603F0F6FF454903F0EDFD41468B
:1025000003F0F0FF434903F0E7FD0546414620464E
:1025100003F0E8FF294603F0E5FF314603F0DCFD58
:10252000214603F0D9FD3946BDE8F04703F0D4BD9C
:102530004FF07F42B2EB400F28BFB2EB410F03D206
:10254000BDE8F047FFF7C5BC40EA01035B0008BFE8
:1025500044F0FF410AD0B2EB400F08BFB2EB410F8D
:1025600006D125F0804024F0804105460C4613E753
:10257000B2EB400F12BF5FEA410345F0FF4004F0A9
:1025800000413FF409AFB2EB410F12BF5FEA4002D6
:1025900005F0004044F0FF413FF4FEAE4A0092EAED
:1025A00040033FF5F9AE002AACBF4FF09F464FF015
:1025B0003E56314603F096FF05463146204603F06D
:1025C00091FF044628462146E6E60000DB0FC9BF1E
:1025D000DB0FC93FDB0F4940DB0F49C00000C9BF1B
:1025E00022AAFDB90000C93F22AAFD390060ED3ED4
:1025F000C30ACE37000049C022AA7DBA0000494074
:1026000022AA7D3A2DAD65BD8FB8D53D0FB511BE5F
:1026100061C84C3EA8AAAABE2DE9F041044600BFFD
:1026200024F00040054610488168284603F026FF44
:1026300016D20D4A1168506804F014F907460A488A
:102640008168284603F0BCFD8046394603F04AFF06
:10265000064605484168304604F072F8BDE8F0814E
:1026600001480068FAE700009400002070B53C487B
:10267000007800B970BD02F0A3FE3A4A11693A4AE7
:10268000106903F029FD05464FF0804103F098FDE5
:10269000044636480168204603F0F0FF5DD800216B
:1026A000084601F0EFFB00202D4908703048007803
:1026B00070B94FF4FA7000F0D9FA502002F0E2FB42
:1026C0004FF47A7000F0D2FA01202A49087044E0F1
:1026D00027480078012817D14FF4FA7000F0C6FAA5
:1026E0000A2002F0CFFB4FF47A7000F0BFFA2248C4
:1026F00001F0FAFB02F018FE012020490870204981
:1027000008701C49087028E01948007802280ED18A
:102710004FF4FA7000F0AAFA502002F0B3FB4FF425
:102720007A7000F0A3FA01201249087015E01048F1
:10273000007803280ED14FF4FA7000F097FA0A20BF
:1027400002F0A0FB4FF47A7000F090FA01200949E2
:10275000087002E001200749087000BF8AE7000006
:102760003C00002024000020100000203800002041
:1027700040000020D40000200000A0410000002004
:10278000010000202DE9F84F3E48007808B9BDE867
:10279000F88F3D4805683D483D49097850F821606B
:1027A0003C48007828B93C48056001203949087048
:1027B000EDE739480168284604F054F8824603F0F2
:1027C0005FFC21F00041074602F06EFE814633496E
:1027D000484603F053FF05D23149484603F04EFE08
:1027E00000D2D4E72C4805603146284604F03AF878
:1027F00000902C49009803F041FF05D22A49009827
:1028000004F030F8009009E02849009803F036FE03
:1028100004D22549009803F05FFC00901C48007822
:1028200008B9234C1AE01A480078012802D14FF069
:10283000824413E016480078022801D11D4C0DE0B7
:10284000304603F01DFC21F00041074600221A4BE0
:1028500003F004FA01D2194C00E0154C204603F0B5
:102860000FFC07468846009803F00AFC21F000415F
:1028700082463A46434603F0B7F801D200F020F80A
:1028800000BF84E7F400002054010020E000002095
:1028900040000020FC000020F80000200000B442AE
:1028A00000008743000034430000B443000034C3F9
:1028B0000000A04000002041004065400000A04111
:1028C00010B50021084601F0DDFA4FF4967000F0D3
:1028D000CDF90020134908700120134908701349ED
:1028E000087013480078032813DA11480078401C58
:1028F0000F4908701721192001F0C4FA0D490C4A3C
:10290000127831F8120003F0A5FD044601F01CFB1B
:1029100006E00120084908700021084601F0B2FADB
:1029200010BD0000F4000020000000200100002085
:1029300040000020D6000020F50000202DE9FF5FB8
:1029400066480168006803F0CDFD8146644801686F
:10295000006803F0C7FD824662480168006803F022
:10296000C1FD03905D4801685F48006803F0BAFD4F
:1029700004465B4801685C48006803F0B3FD054607
:10298000584801685848006803F0ACFD06465448B2
:1029900001685248006803F0A5FD029051480168A3
:1029A0004E48006803F09EFD01904E4801684C4877
:1029B000006803F097FD00904FF08040039903F00A
:1029C00091FD804651464FF0804003F08BFD8346D9
:1029D0004FF07E5103F0B4FE0746414603F042FF3C
:1029E0004249086086F000484046029903F074FBB3
:1029F00007464FF0804103F075FD3C49486085F083
:102A000000484046019903F09BFE07464FF0804185
:102A100003F068FD3549886086F000484046029919
:102A200003F08EFE07464FF0804103F05BFD2F4917
:102A3000C8604FF08040039903F054FD804649463A
:102A40004FF0804003F04EFD83464FF07E5103F07F
:102A500077FE0746414603F005FF2449086184F0EC
:102A600000484046009903F037FB07464FF080418D
:102A700003F038FD1D49486185F000484046019942
:102A800003F02AFB07464FF0804103F02BFD174966
:102A9000886184F000484046009903F051FE0746E3
:102AA0004FF0804103F01EFD1049C86151464FF0C0
:102AB000804003F017FD804649464FF0804003F008
:102AC00011FD83464FF07E5103F03AFE0746414622
:102AD00003F0C8FE05490862BDE8FF9F64000020BE
:102AE000680000206C00002060000020F40100203D
:102AF0002DE9F843044602464F486946B0EB420FC1
:102B000009D94FF0E640B0EB420F94BF00204FF0E0
:102B1000FF30009030E0494B22F00040834271D9F1
:102B20004749204603F0DEFC03F0DAFD804603F05F
:102B30003DFC00F0030000904249404603F0D2FC07
:102B400005464149404603F0CDFC06463F49404614
:102B500003F0C8FC07463E49404603F0C3FC21464B
:102B600003F0EEFD394603F07DFE314603F07AFEB8
:102B7000294603F077FE04462546009C002C45DBE1
:102B8000294614F0010F08461CD003F0ABFC0646A2
:102B9000304903F0A7FC304903F0D2FD314603F081
:102BA000A1FC2E4903F098FA314603F09BFC29461C
:102BB00003F098FC294603F08FFA14F0020F1CD0A2
:102BC000BDE8F88303F08EFC0546254903F08AFC36
:102BD000244903F081FA294603F084FC224903F0DA
:102BE0007BFA294603F07EFC4FF07E5103F074FA25
:102BF00014F0020F08BFBDE8F88380F00040BDE884
:102C0000F883FFE71046FFF76FF9B4E76800B0F10B
:102C10007F4F3CBF4FF07E50BDE8F88307D14FF0A7
:102C20000100FDF79BFBBDE8F843FFF754B92846C8
:102C3000BDE8F843FFF74AB9B61F927E490E4946F0
:102C400083F9223F1A61342C0020A23300A0FD3901
:102C50000000C93F336D4C39DA82083CA0AA2ABE75
:102C6000B93AB2BACA9F2A3DDDFFFFBE00B503469E
:102C700003E04FF47A7000F005F8181EA3F1010389
:102C8000F7D100BD00EBC001C9004FF0E022516157
:102C9000002191610521116100BF4FF0E021096918
:102CA00001F480310029F8D004214FF0E0221161B5
:102CB000704700002DE9F04F8DB004460E461546D2
:102CC000606A28B92660012060620DB0BDE8F08F0F
:102CD0004D4B0FCB09AF0FC70A952946606803F02B
:102CE00001FC0746216803F0F7F9206029462846D1
:102CF00003F0F8FB8246616903F0F4FB8046284646
:102D0000E16803F0EFFB02902846216903F0EAFB3B
:102D10000190A16803F0E0F98246029903F0DCF922
:102D20008146414603F0D8F90746A16903F0D4F97A
:102D300005902846616903F0D5FB0746E16803F07A
:102D4000CBF906902846616903F0CCFB0746216960
:102D500003F0C2F90790E169606903F0BDF90890DA
:102D6000216A059803F0B8F907463946059803F03B
:102D700027FA0390216A059803F0AEF90746394611
:102D8000079803F01DFA04903046216803F06AFDAD
:102D900083465946039803F0A5FB0746216803F0D4
:102DA0009BF920605946049803F09CFB0746616834
:102DB00003F092F960604FF07E50039903F052FDEA
:102DC0000746059903F08EFBA0604FF07E500399F3
:102DD00003F048FD0746069903F084FBE060DDE957
:102DE000040103F07FFB0746079903F0A9FC20616B
:102DF0000699049803F076FB0746089903F0A0FCB7
:102E0000606100BF61E70000906A000810B5002211
:102E10000121062000F01AF801220221002000F012
:102E20005FF901220321002000F05AF9002201215C
:102E30000C2000F00BF801220421002000F050F9D2
:102E400001220521002000F04BF910BD2DE9F047CB
:102E500004460E461746032194FBF1F0C11700EB20
:102E600091718910A0EB810189064FEA1168032155
:102E700094FBF1F0C11700EB9171C1F38705204677
:102E800000F06AF83148806940F001002F498861FC
:102E90004FEAB13050F825000F2101FA08F18843BC
:102EA0002B4941F82500032094FBF0F100FB114071
:102EB00088B1032094FBF0F100FB1140401E01217A
:102EC00001FA00F000FA08F0214951F825100143F9
:102ED0001F4840F82510032094FBF0F101208840A2
:102EE0001C49096808431B49086066B9032094FB24
:102EF000F0F1012088401749083109680843154955
:102F0000083108600BE0032094FBF0F101208840B9
:102F100010490C31096808430E490C310860032040
:102F200094FBF0F004280ADC032094FBF0F0801DF1
:102F300000F0FF0949463846FEF70EFC03E0172172
:102F40003846FEF709FCBDE8F0870000001002409B
:102F5000080001400004014010B50446182C12D2AC
:102F6000DFE804F00C12181E242A30363C42484E8A
:102F7000545A60666C72787E848A90960122002191
:102F8000084600F0ADF889E001220021104600F06B
:102F9000A7F883E001220021022000F0A1F87DE0E3
:102FA00001221146002000F09BF877E00122114633
:102FB000104600F095F871E001221146022000F061
:102FC0008FF86BE001220221002000F089F865E013
:102FD00001220221104600F083F85FE00122022165
:102FE000084600F07DF859E001220321002000F09E
:102FF00077F853E001220321104600F071F84DE00C
:1030000001220321022000F06BF847E00122042195
:10301000002000F065F841E001220421104600F094
:103020005FF83BE001220421022000F059F835E06E
:1030300001220521002000F053F82FE00122052194
:10304000104600F04DF829E001220521022000F091
:1030500047F823E001220621002000F041F81DE09E
:1030600001220621104600F03BF817E0012206215C
:10307000022000F035F811E001220721002000F0C5
:103080002FF80BE001220721104600F029F805E097
:1030900001220721022000F023F800BF00BF10BD6D
:1030A00000BF054A128802F04002002AF9D0C2B2DD
:1030B000014B1B1D1A8070470038014010B50246B5
:1030C000064850F82200806801248C4000EA04037E
:1030D0000BB1012010BD0020FCE700000001002022
:1030E00070B5654CA469042585402C43624DAC61E4
:1030F00008295DDA614C54F8204024688E000F25C1
:10310000B540AC435D4D55F820502C601AB1032AF0
:1031100001D0022A0FD10124944044F003048D0011
:10312000AC40564D55F820502D682C43534D55F862
:1031300020502C609FE0012A01D0042A2AD14F4C54
:1031400054F8204024688E000825B5402C434B4D90
:1031500055F820502C60012A0ED1484C54F82040DC
:10316000E46801258D4024EA050301248C401C43BA
:10317000424D55F82050EC60042A7CD13F4C54F865
:103180002040E56801248C40A5433C4C54F8204085
:10319000E56070E0042494408D00AC40374D55F854
:1031A00020502D682C43354D55F820502C6062E09E
:1031B000324C54F820406468A1F10805AE000F2598
:1031C000B540AC432D4D55F820506C601AB1032A20
:1031D00001D0022A11D10124944044F00304A1F14A
:1031E0000805AD00AC40254D55F820506D682C43C6
:1031F000224D55F820506C603DE0012A01D0042A90
:103200002AD11E4C54F820406468A1F10805AE0094
:103210000825B5402C43194D55F820506C60012A03
:103220000CD1174C256801248C4025EA04030124A5
:103230008C401C43114D55F82050EC60042A1AD1E3
:103240000E4C54F82040E46801258D40AC430B4DF2
:1032500055F82050EC600EE004249440A1F10805DC
:10326000AD00AC40054D55F820506D682C43034D22
:1032700055F820506C6070BD001002400001002025
:103280000C08014030B57AB10D4C54F82040E46888
:1032900001258D4024EA050301248C401C43084D80
:1032A00055F82050EC600AE0054C54F82040E468E2
:1032B00001258D40AC43024D55F82050EC6030BDE7
:1032C000000100202DE9FF4F8DB08146654A116A4B
:1032D000D069FFF74FF86449059003F003F90A90AD
:1032E0006048806980F000400490FEF7B1FF5E49BD
:1032F000059003F0F7F80B905A4A1168D068FFF771
:1033000039F85949059003F0EDF8824657490B9872
:1033100003F0E8F80590FFF7EBFB099053490B9891
:1033200003F0E0F8059001F0E7FD08904F490A9896
:1033300003F0D8F80590FFF7DBFB07904B490A989C
:1033400003F0D0F8059001F0D7FD069008990E988B
:1033500003F0C8F8049006990F9803F0C3F80090A2
:10336000099903F0BFF802900799109803F0BAF892
:103370000090099903F0B6F80190029902F0ACFEB2
:103380000390049903F06EFA3749059003F0AAF808
:1033900007463749384603F071F900D2344F3549B2
:1033A000384603F06BF800D2324F3846FFF734F955
:1033B000044621464FF07E5003F054FA39460390FC
:1033C00003F090F805902C480168204603F08AF835
:1033D0000490059902F080FE27490860274A51466B
:1033E0002748FFF767FC2648D0F800B02546264658
:1033F00029464FF07E5003F035FA5946039003F00A
:1034000071F805901F480168284603F06BF8049096
:10341000059902F061FE804631464FF07E5003F080
:1034200021FA4146039003F05DF8059016480168C3
:10343000304603F057F80490059902F04DFE0C90C9
:103440001248C0F800A00F48C0F800800E490C9840
:1034500008600F4807600AA807C889E8070011B08C
:10346000BDE8F08FF4010020E12E654235FA8E3C74
:103470000000C8420000C8C2D00000200AD7A33B09
:10348000A00000208C000020CC000020C8000020FC
:10349000880000204FF07E5007490860002007494F
:1034A00008600749086007490860074988600748BD
:1034B000C860002008757047600000206C00002084
:1034C000680000206400002070000020CDCCCC3DBE
:1034D0000FB400B5A1B02598FE490E9003F002F894
:1034E00025902698FB490E9002F0FCFF2690279825
:1034F000F8490E9002F0F6FF279027980B900146AE
:103500000A9002F0EFFF0D9026980990014608906E
:1035100002F0E8FF0B90259809900146089002F010
:10352000E1FF0A900B9902F0D7FD0C900D9902F083
:10353000D3FD0E9001F0CAFD0F90229800210E904D
:1035400002F000FF0BD1239800210E9002F0FAFE4A
:1035500005D1249800210E9002F0F4FE7ED024982C
:103560000B9001460A9002F0BDFF0D902398099040
:103570000146089002F0B6FF0B9022980990014690
:10358000089002F0AFFF0A900B9902F0A5FD0C9095
:103590000D9902F0A1FD0E9000F080FB2090229882
:1035A0000E90209902F09EFF229023980E90209971
:1035B00002F098FF239024980E90209902F092FF39
:1035C0002490C5490F9802F059FF7DD2C348C069C5
:1035D000099024980890099902F084FF0B90BF4845
:1035E000006A099023980890099902F07BFF0A90DD
:1035F0000B9903F037F90E90B848006A09902298A9
:103600000890099902F06EFF0B90B4488069099008
:1036100024980890099902F065FF0A900B9903F02D
:1036200021F90D90AD488069099023980890099977
:1036300002F058FF0B90A948C069099022980890A1
:10364000099902F04FFF0A900B9903F00BF90C90C7
:10365000A3480E99006802F045FF00E010E30A90CD
:10366000289902F03FFF0B909E4801680B9802F0EA
:1036700033FD9C4908609A480D99006802F032FFBA
:103680000A90289902F02EFF0B90974801680B983A
:1036900002F022FD9449086091480C99006802F0FC
:1036A00021FF0A90289902F01DFF0B908F480168B6
:1036B0000B9802F011FD8D4908608D480E99006845
:1036C00002F010FF0A9000E033E0864801680A9893
:1036D00002F002FD0B90259801460A900B9802F02B
:1036E000FBFC259082480D99006802F0FBFE0A90D1
:1036F0007D4801680A9802F0EFFC0B90269801467D
:103700000A900B9802F0E8FC269079480C99006822
:1037100002F0E8FE0A90754801680A9802F0DCFCA5
:103720000B90279801460A900B9802F0D5FC279041
:1037300061E2279801460B906E48006802F0D2FEC5
:103740000D902698014609906B48006802F0CAFE69
:103750000B906A48006880F0004009902598014667
:103760000890099802F0BEFE0A900B9903F07AF8CF
:103770000C900D9903F076F84FF07C510E9002F00A
:10378000B1FE1B90269801460B905A48006802F043
:10379000A9FE0D902798014609905748006802F04D
:1037A000A1FE0B902598014609905548006802F04B
:1037B00099FE0A900B9902F08FFC0C900D9903F082
:1037C00051F84FF07C510E9002F08CFE1A90259823
:1037D00001460B904748006802F084FE0D90279840
:1037E000014609904548006802F07CFE0B9026983F
:1037F000014609904248006802F074FE0A900B9955
:1038000003F030F80C900D9902F066FC4FF07C51FB
:103810000E9002F067FE1990259801460B903648ED
:10382000006802F05FFE0D9026980146099033482B
:10383000006802F057FE0B90279801460990304827
:10384000006802F04FFE0A900B9902F045FC0C90C4
:103850000D9903F007F84FF07C510E9002F042FEF4
:103860001890274801684FF0804002F03BFE179007
:10387000224801684FF0804002F034FE16901E4846
:1038800001684FF0804002F02DFE15901948016844
:103890004FF0804002F026FE14901948016800683D
:1038A00002F020FE139015480168006802F01AFE2D
:1038B000129011480168006802F014FE11900D4842
:1038C0000168006802F00EFE1090239801460C90EB
:1038D000169817E035FA8E3CCDCCCC3DF401002093
:1038E0005000002054000020580000205C00002000
:1038F0004C0000206C0000206800002064000020C4
:103900006000002002F0EEFD0E901299179802F070
:10391000E9FD0C90229801460890159802F0E2FD0E
:103920000A901199179802F0DDFD09900A9902F0AA
:10393000D3FB0B900C9902F0CFFB0D900E9902F087
:1039400091FF1F90249801460C90169802F0CAFD32
:103950000E901199169802F0C5FD0C9012991698C8
:1039600002F0C0FD0A90239801460590179802F0D6
:10397000B9FD07904FF08140139902F0B3FD039019
:10398000C1480168039802F0ADFD059022980146F8
:103990000190149802F0A6FD03901099169802F079
:1039A000A1FD0290039902F05DFF0490059902F0D9
:1039B00093FB0690079902F055FF0890169902F0C4
:1039C00051FF09900A9902F087FB0B900C9902F0C5
:1039D00083FB0D900E9902F07FFB1E902498014608
:1039E0000C90159802F07EFD0E901199159802F03A
:1039F00079FD0C901299159802F074FD0A902398A5
:103A000001460590149802F06DFD079010991598E5
:103A100002F068FD0590229801460190179802F087
:103A200061FD03904FF08140139902F05BFD01901E
:103A300096480168019802F055FD0290039902F042
:103A40004BFB0490059902F047FB0690079902F0A2
:103A500009FF0890159902F005FF09900A9902F0F4
:103A60003BFB0B900C9902F037FB0D900E9902F086
:103A700033FB1D90239801460C90159802F032FDFF
:103A80000E904FF08140119902F02CFD0A90804871
:103A900001680A9802F026FD0C90229801460890D1
:103AA000169802F01FFD0A904FF08140129902F023
:103AB00019FD089076480168089802F013FD0990F6
:103AC0000A9902F0CFFE0B900C9902F005FB0D90C5
:103AD0000E9902F0C7FE1C901C99084602F002FDE8
:103AE0000D901D99084602F0FDFC0B901E990846AA
:103AF00002F0F8FC09901F99084602F0F3FC0890C8
:103B0000099902F0E9FA0A900B9902F0E5FA0C9093
:103B10000D9902F0E1FA0E9000F0C0F82090DDE976
:103B20001F0102F0DFFC1F9020991E9802F0DAFCC2
:103B30001E9020991D9802F0D5FC1D9020991C988C
:103B400002F0D0FC1C9053481F99006802F0CAFC98
:103B50000E901B9902F0F4FD1B904E481E990068D0
:103B600002F0C0FC0E901A9902F0EAFD1A90494842
:103B70001D99006802F0B6FC0E90199902F0E0FD64
:103B8000199044481C99006802F0ACFC0E901899FA
:103B900002F0D6FD189028991B9802F0A3FC0E9015
:103BA0003D4801680E9802F097FA3B490860289951
:103BB0001A9802F097FC0E90334801680E9802F0B4
:103BC0008BFA314908602899199802F08BFC0E9005
:103BD0002E4801680E9802F07FFA2C490860289957
:103BE000189802F07FFC0E90294801680E9802F0A8
:103BF00073FA2749086026480168006802F072FCE1
:103C00000D9022480168006802F06CFC0B901E4881
:103C10000168006802F066FC09901F4801680068AE
:103C200002F060FC0890099902F056FA0A900B998C
:103C300002F052FA0C900D9902F04EFA0E9000F03C
:103C40002DF8209014482099006802F04BFC12498E
:103C500008600D482099006802F044FC0A49086099
:103C60000A482099006802F03DFC084908600848AD
:103C70002099006802F036FC05490860FEF75EFEF8
:103C800021B05DF814FB00006400002068000020F3
:103C90006C00002048000020600000202DE9F04763
:103CA00004464FF07C51204602F01CFC814625461C
:103CB0002E460C48A0EB660635462946484602F0DB
:103CC00011FC8246294602F00DFC80464FF07F51E0
:103CD00002F036FD0746294602F004FC0546284658
:103CE000BDE8F087DF59375F08B5FDF7D2FD00F07A
:103CF000A1F8FFF78BF801F045FB00224FF4E1310A
:103D0000104601F0B3FA4FF07E50244B244A0121B3
:103D10000090244800F016FA4FF07E501F4B204AC6
:103D200001210090204800F00DFA4FF08040002360
:103D30001E4A194600901E4800F004FAFDF7A2FB47
:103D4000FDF7A4FCFFF7A6FB002211461620FFF7A3
:103D50007DF800220A21012001F0CEF901F004FAD9
:103D60000A2001F08FF817E001F022FA11480068EC
:103D700002F086F9044622460B460FA0FCF752FAE1
:103D80000220032300900B48012102680846FDF73A
:103D90002DFE1420FEF76AFFE6E700000000A040B9
:103DA00000004040580100208C010020CDCC4C3E4A
:103DB000C0010020540100207961773A252E326637
:103DC0000D0A000010B50446A2B20021084600F01A
:103DD000CFFF0948027806210020FFF753FA064872
:103DE000007808B9012000E00020024607210020E9
:103DF000FFF748FA10BD00000000002010B504468F
:103E0000A2B20121002000F0B3FF0948027800218E
:103E10000120FFF737FA0648007808B9012000E0D2
:103E20000020024601210846FFF72CFA10BD0000D1
:103E30000100002010B54FF47A720021084600F00E
:103E400089FE002206211046FFF74AF900220721C9
:103E50001046FFF745F94FF47A720121002000F077
:103E600079FE002211460120FFF73AF900220121D4
:103E70000846FFF735F932220821022000F06AFED9
:103E800010BD000070B505460C46002D08DB012072
:103E900011490870284602F0C5FA1049086007E089
:103EA00000200D490870684202F0BCFA0B49086016
:103EB000002C08DB01200A490870204602F0B2FA03
:103EC0000849086007E0002005490870604202F0D8
:103ED000A9FA0449086070BD0000002058010020C4
:103EE000010000208C01002010B5044600200D497F
:103EF00008610D4908610D4908600D4908600D49C8
:103F000008700D4908706FF009010846FFF7BAFF05
:103F10000A49204602F0E6FA0949086001200949E9
:103F2000087010BD100000202400002004000020B4
:103F300008000020000000200100002000002041B7
:103F4000380000203C00002010B50446002009493C
:103F50000861094908610949086009490860094977
:103F6000204602F0BFFA084908600120074908709E
:103F700010BD0000100000202400002004000020DC
:103F80000800002000002041380000203C000020F4
:103F90002DE9F0410446D4E9000102F063FCA06081
:103FA000206B01282DD1D4E9020102F05BFC05460B
:103FB000616902F097FA2062A168A06902F092FAA2
:103FC000A0624FF08040E16802F08CFA0746A168D9
:103FD00002F0B6FB0646216902F07EF80546E1696B
:103FE00002F080FA6062A16A206A02F075F8064663
:103FF000616A02F071F80546E16A02F06DF8E0626C
:1040000021E0206BF8B9A168606902F06BFA2062C8
:10401000A168A06902F066FA0546A16A02F05CF8A0
:10402000A062D4E9020102F01DFC0546E16902F03C
:1040300059FA6062A16A206A02F04EF80546616A88
:1040400002F04AF8E062E1682161A168E160BDE840
:10405000F081000010B53148007801280CD13049BA
:10406000304A127851F82200FDF7FCFF00202B495E
:10407000087001202C49087001F0A2F92B48006853
:1040800000EB80004000294908602948006800EBE7
:1040900080004000264908602648007830B1234857
:1040A000006802F0BFF92449486006E01F48006834
:1040B000404202F0B7F9204948602048007830B10A
:1040C0001B48006802F0AEF91D49486006E0184838
:1040D0000068404202F0A6F91949486000201349DF
:1040E0000860134908601448FFF752FF1448FFF7AF
:1040F0004FFF114800F02EF8114800F02BF80E4940
:10410000C86A02F053F90446FFF75CFE0C49C86A1E
:1041100002F04CF90446FFF771FE10BDD4000020F8
:10412000E000002040000020F400002004000020F7
:10413000080000200000002058010020010000209D
:104140008C01002010B5029C016342618361C4614F
:1041500010BD000010B504460749E06A02F08EFA6F
:1041600001D80548E0620021E06A02F087F901D831
:104170000020E06210BD0000005043472DE9F04DE3
:104180001D460C4698B0174621F0004123F000432D
:10419000002814BF4FF0010C4FF0000C0CEB440C46
:1041A000FE4A0CEB02064FEA620C66452BD33E003A
:1041B00018BF012606EB45061644F94A964222D35B
:1041C000F84A53EA070C02D0944205D148B918B016
:1041D00000201146BDE8F08D002808BF4FF0000C0C
:1041E00001D04FF0010C0CEB440212F5001F0AD86D
:1041F000002F14BF4FF0010C4FF0000C0CEB4502E8
:1042000012F5001F07D918B03A462B462146BDE8E3
:10421000F04DFDF743BE0022DFF88CA3002CB8BFA1
:10422000534526DADFF884C36345A8BF022220DAAB
:10423000DFF870C39C451CDCDFF874C30CEB235C17
:10424000BCF1140F08DDCCF1340627FA06FC0CFA99
:1042500006F6BE420DD108E05FB9CCF1140623FA90
:1042600006FC0CFA06F69E4203D10CF00102C2F1E4
:10427000020251EA000C19D1002D17DA002C18BFE8
:10428000022A01D0012A07D00220FCF767F818B0F3
:10429000BDE8F04DFDF7FABD0220FCF75FF8FDF731
:1042A000F5FD18B081F00041BDE8F08DB7F1000CCC
:1042B0006CD1534525D104F1804212F5801201BF23
:1042C00000280020B74918B008BFBDE8F08DB548F8
:1042D000884207DC002DA1BF6046294618B0BDE822
:1042E000F08D07E0281E05DA80F0004118B0604626
:1042F000BDE8F08DAF497944D1E9000118B0BDE8BF
:10430000F08DDFF8A0C2634525D1002D1FDA19B169
:10431000514512D1D8B909E0002840F0EC82A24AF8
:10432000214618B062F31E01BDE8F08D0020214641
:1043300018B060F31E01BDE8F08D08DA18B023460E
:10434000BDE8F04D02460020614601F09BB918B06F
:104350002146BDE8F08D514518DAB5F1804F0DD0FA
:10436000A5F1005CBCF1FF5C10D1B4F1000C0DDBD9
:1043700018B06146BDE8F04D00F082BE234618B08B
:104380000246BDE8F04D194601F06ABB060024F074
:10439000004C3BD1D9B1514533D1002C06DD002D65
:1043A000A1BF0020514618B0BDE8F08D002C01DD02
:1043B000002D1BDB002C13DA002D11DB012A4FF03E
:1043C000000014BF78497C4918B0BDE8F08D022A7E
:1043D00018BF002C0AD0012A08D1002C06DA0AE006
:1043E000002CB8BF002D11DA012A04D0002018B02B
:1043F0000146BDE8F08D18B000204FF00041BDE847
:10440000F08DA1F14050B0F17F601AD0012000EB97
:10441000E47050EA020421D0624C521E4FF0000BAF
:10442000104304BF4FF0000B644C654883427CDDB1
:10443000644A654893421FDD884217DB002D25DB67
:1044400037E0002C00DA4AB1022A0CBF01204FF0FD
:10445000FF3018B0BDE8F04D01F09BBA0120FBF72A
:104460007DFF18B0BDE8F04DFDF71ABD4D4A8A42F8
:1044700002DC002D0ADC1CE0814202DA002D18DA91
:1044800004E0484B994220DD002D12DD0220FBF7AD
:1044900065FFFDF70BFD05460E46002253465846C4
:1044A000214601F0DDFA18B066F31E012846BDE88A
:1044B000F08D0220FBF752FFFDF700FD0A46214672
:1044C00018B062F31E01BDE8F08D0022304661464F
:1044D00001F0ECFC80460E466FF0010202F06BFA30
:1044E0004FF05532394B01F0EFFB4246334601F0B5
:1044F000B7FA0022364B01F0E7FB824642463346CC
:1045000004911046194601F0ABFA5246049B01F0A3
:10451000A7FA8A4600904FF0C0422E4B40463146E3
:1045200001F09EFA2C4A2B4B00E027E0CDE9060172
:104530005146009801F094FA82460191274A284B8F
:104540004046314601F08CFA5246019B01F0AEFC28
:1045500082460B4602460591DDE9060100F0D6FFD2
:10456000DDE9062300268846304601F09FFC5246CE
:10457000059B01F0A9FB024600F07EB90020B1F5D1
:10458000801F07DA35223046614602F014FA0646EB
:104590006FF0340000EB215024E00000FFFF1F000B
:1045A000FFFF0F000000F03F0000F07F00004043DD
:1045B00001FCFFFF1E2E00000000F0FF0000F0BF16
:1045C0000000E0410000F043FFFFEF3F5555D53FAD
:1045D0000000E03F4715F73FFE822B6544DF5DF8A2
:1045E0000BAE543EA0F2FF300190C1F3130040F037
:1045F0007F6141F040510291FE498842D8BF0020BE
:1046000004DDFD498142C8BF012001DD0D9008E0B5
:1046100000200D900198401C01900298A0F5801098
:1046200002900299F54878440B910D9900EBC10076
:10463000D0E900230F9330460A920B9901F036FC23
:10464000CDE90601DDE90A2130460F9B00F05EFF4F
:1046500002460B460020EA4901F014F80591024693
:104660000B460090DDE9060101F0FAF91490E548E7
:104670008A464FF0000878440299006812904FF083
:10468000005040EA61010D980F9B01EB804000F55E
:10469000002109910A9A129801F008FC32460B9BFE
:1046A00001F012FB4246534601F0DAF90646029148
:1046B00040465146099B129A01F0D2F9DDE90623E2
:1046C00001F002FB3246029B01F0F0FB059B009AD1
:1046D00001F0C6F90091149A049053461046194609
:1046E00001F0BEF906460246C7480B460291062174
:1046F0007844FDF776FBCDE90510029B3246104663
:10470000194601F0ADF9DDE9053201F0A9F905918D
:104710000646534640461946149A00F0F7FE009BA1
:10472000049A01F09DF93246059B00F0EFFECDE9B9
:104730000510424653461046194601F091F90022F1
:10474000B24B02910A9000F0E1FEDDE9053200F083
:10475000DDFE0E464246AD4B404601F0A7FB029BF4
:104760000A9A01F0A3FBDDE9053201F0ADFA4246F9
:1047700002910A9033461046514601F071F9CDE995
:1047800006015346149A02990A9801F069F98A467B
:104790000290334642460099049801F061F953466D
:1047A000029A00F0B3FE82460B4602460591DDE90F
:1047B000060100F0ABFEDDE9062300208846064630
:1047C00001F074FB5246059B01F07EFA8246099186
:1047D0004FF060428E4B3046414601F041F9049063
:1047E00006918C4A8A4B5046099901F039F9824664
:1047F0000291894A894B3046414601F031F95246CF
:10480000029B00F083FE864B7B440D9A03EBC203B0
:10481000D3E9002300F07AFE0E900791019801F091
:10482000B8F80591DDE9061382460E9A049800F067
:104830006DFE7C4A7A440D9B02EBC303D3E900234F
:104840000093029200F062FE5246059B00F05EFE6D
:104850000026884652463046059B01F027FB009B08
:10486000029A01F023FB069B049A01F01FFB079BB1
:104870000E9A01F029FA024600200B4602903846B3
:10488000294601F0EDF8824601912B46384619463B
:10489000029A01F00BFB3246434601F0E1F8524622
:1048A000019B00F033FE07468A46324643462946BE
:1048B000029801F0D5F805460E463A46534600F0F8
:1048C00025FE594A8846914221DBA8EB020353EAB0
:1048D000000210D12A46334601F0E8FACDE904017E
:1048E000524A534B3846514600F010FEDDE904238E
:1048F00001F0B4F921D20220FBF730FDFDF7D6FA22
:104900000A46214618B062F31E01BDE8F08D494BFE
:1049100028F000429A4210D3474A08EB020353EAB8
:1049200000027FF4C6AD2A46334601F0BFFA3A468C
:10493000534601F093F97FF6BCAD0022019228F0B6
:1049400000403E493E4A01EB2051824223DA481C96
:104950004FF4801121FA00F040443A4AC0F30A5162
:104960007A44394BA1F2FF31CB4020EA0303C0F374
:10497000130040F48010C1F11401C8401268019086
:10498000B8F1000FBCBF404201902846314601F00B
:104990008DFA05460E462A4633463846514600F003
:1049A000B5FD4FF000084246284B4046059101F006
:1049B00057F8CDE90601264A264B4046059901F0F5
:1049C0004FF8009102902A4633464046059901F07F
:1049D0006DFA3A46534601F077F91F4A1F4B01F032
:1049E0003FF8009B029A00F091FD07468846024678
:1049F0000B4635E08E9803007AB60B00662A00005D
:104A00000000F03F9E2A0000CC2900000000084072
:104A100009C7EE3FFD033ADCF5015B14E02F3EBE13
:104A2000A42800006828000000009040FE822B654A
:104A30004715973C00CC904000346F3F01FCFFFFCE
:104A40000000E03FB4270000FFFF0F00432EE63FC9
:104A5000396CA80C615C20BEEF39FAFE422EE63FAD
:104A6000DDE9060100F052FDDDE9062305460E46AC
:104A700001F01CFA3A46434601F026F90F462A4651
:104A8000334600901046194600F0EAFF824602467F
:104A90002E4888460B4605217844FDF7A2F9524678
:104AA000434600F0DDFF2A46334601F00DF980460B
:104AB0008A463B4628463146009A00F0D1FF3B46E5
:104AC000009A00F023FD0691009000224FF08043F1
:104AD0004046514601F0EAF90F460C9042465346D3
:104AE0002846314600F0BCFF3B460C9A00F0CAFD58
:104AF000069B009A01F0DAF92A46334601F0D6F90E
:104B00000022134B01F0E0F8054601980E4601EB38
:104B100000510815002810DC28463146019A01F0A2
:104B20004AFFFDF737F9042808BFFDF7C7F9284603
:104B30003146019A01F03FFF05460B4618B02A4660
:104B400058462146BDE8F04D00F08ABF54260000CB
:104B50000000F03F2DE9F04104460D461646284678
:104B6000E91705EB91718910A5EB8101491CCFB2C2
:104B70005148C0690121A14008434F49C8614F48CD
:104B800090FBF6F0401E4E4951F8241088854720CE
:104B90004B4951F824100885284600F093F8012F5E
:104BA00006D0022F1ED0032F36D0042F69D14DE03E
:104BB000434850F82400008B40F06000404951F811
:104BC000241008833E4850F82400008B40F0080071
:104BD0003B4951F8241008830020394951F824102A
:104BE00088864EE0364850F82400008B40F4C040E0
:104BF000334951F824100883314850F82400008BC1
:104C000040F400602E4951F82410088300202C49FC
:104C100051F82410088734E0294850F82400808B8C
:104C200040F06000264951F824108883244850F849
:104C30002400808B40F00800214951F8241088831B
:104C400000201F4951F8241088871AE01C4850F8AA
:104C50002400808B40F4C040194951F82410888307
:104C6000174850F82400808B40F40060144951F834
:104C7000241088830020124951F82410A1F8400024
:104C800000BF00BF0E4850F82400008C791E8A0037
:104C90000121914008430A4951F82410088408482A
:104CA00050F82400008840F08100054951F8241094
:104CB0000880BDE8F08100000010024040420F0073
:104CC0000C01002010B504460C2C4FD2DFE804F094
:104CD000060C12181E242A30363C424803220021BA
:104CE0000846FEF7FDF941E0032201210020FEF70E
:104CF000F7F93BE0032202210020FEF7F1F935E04D
:104D0000032211460020FEF7EBF92FE003220621D3
:104D10000020FEF7E5F929E0032207210020FEF735
:104D2000DFF923E0032200210120FEF7D9F91DE07D
:104D3000032201210846FEF7D3F917E003220621DA
:104D40000120FEF7CDF911E0032207210120FEF733
:104D5000C7F90BE0032208210120FEF7C1F905E0A5
:104D6000032209210120FEF7BBF900BF00BF10BDDF
:104D70002DE9F84F04460D4617462846E91705EB7E
:104D800091718910A5EB8101491C01F0FF084CF2DB
:104D90005030874200DB0746384850F82400868DA3
:104DA000B8F1010F09D0B8F1020F1DD0B8F1030F0F
:104DB00031D0B8F1040F5DD144E0701C01F032FB3A
:104DC0008346384601F046FB2D49009001F0F8F982
:104DD0008246594601F086FB814601F003FB2749D4
:104DE00051F82410888645E0701C01F01BFB0090F0
:104DF000384601F02FFB8346214901F0E1F9824654
:104E0000009901F06FFB814601F0ECFA1B4951F863
:104E1000241008872EE0701C01F004FB0090384637
:104E200001F018FB8346164901F0CAF98246009941
:104E300001F058FB814601F0D5FA104951F82410D1
:104E4000888717E0701C01F0EDFA0090384601F0F9
:104E500001FB83460A4901F0B3F98246009901F04B
:104E600041FB814601F0BEFA044951F82410A1F833
:104E7000400000BF00BFBDE8F88F00000C0100201B
:104E80000050434770B505464FF4FA606843B421BB
:104E900090FBF1F000F5FA74B4F5FA7F01DA4FF403
:104EA000FA7440F6C410844200DD0446204600F047
:104EB00001F870BD2DE9F0410546284601F0B2FA2F
:104EC00080460B4901F07CF907460A4901F00AFBCC
:104ED000064601F087FA84B24CF25030844200DD7D
:104EE0000446224608210220FFF742FFBDE8F08178
:104EF00000409C46005043472DE9F84304460246D3
:104F000052486946B0EB420F09D94FF0E640B0EB8A
:104F1000420F94BF00204FF0FF30009030E04C4B28
:104F200022F00040834271D94A49204601F0DAFA62
:104F300001F0D6FB804601F039FA00F00300009042
:104F40004549404601F0CEFA05464449404601F045
:104F5000C9FA06464249404601F0C4FA07464149AB
:104F6000404601F0BFFA214601F0EAFB394601F064
:104F700079FC314601F076FC294601F073FC0446C9
:104F80002546009C002C45DB294614F0010F0846FD
:104F90001ED001F0A7FA0546334901F0A3FA3349C0
:104FA00001F09AF8294601F09DFA314901F094F890
:104FB000294601F097FA4FF07E5101F08DF814F078
:104FC000020F08BFBDE8F88380F00040BDE8F88319
:104FD00001F088FA0646274901F084FA264901F0D3
:104FE000AFFB314601F07EFA244901F075F83146F5
:104FF00001F078FA294601F075FA294601F06CF8BB
:1050000014F0020FE0D1BDE8F883FFE71046FCF78B
:105010006BFFB4E76800B0F17F4F09D22846FCF778
:10502000CDFE042808BFFCF75AFF2846BDE8F883E8
:1050300006D10120FBF792F9BDE8F843FCF74BBF1E
:105040002846BDE8F843FCF741BF0000B61F927E3A
:10505000490E494683F9223F1A61342C0020A233BD
:1050600000A0FD390000C93FB93AB2BACA9F2A3D33
:10507000DDFFFFBE336D4C39DA82083CA0AA2ABEA0
:105080002DE9F04106460F4600F02AFE041E0D46AB
:1050900018BF0120284320F00040C0F17F6000F1DC
:1050A000E040C00F0ED0301C18BF0120384320F064
:1050B0000040C0F17F6000F1E040C00F04BF01205C
:1050C000FBF74CF920462946BDE8F08170B505464E
:1050D00001F040FB044620F00040C0F1FF40C00F4B
:1050E00008D025F00040C0F1FF40C00F04BF0120F0
:1050F000FBF734F9204670BD70B504460D461646E0
:105100001748C0690121A14008431549C86105EB52
:1051100085004000401E134951F82410888541F64F
:105120001F40104951F8241008850E4850F82400FB
:10513000008840F001000B4951F82410088009480C
:1051400050F82400808940F00100064951F82410ED
:10515000888104F11C00C1B23046FCF7FDFA70BD35
:10516000001002400C01002010B500200B4908700F
:105170000B4908700B4908700B4908704FF47A709E
:10518000FDF774FD18211920FEF77CFE07490888F9
:1051900001F060F90446FEF7D7FE10BDD4000020F0
:1051A000F4000020F500002040000020D600002080
:1051B00010B50548007800B110BDFDF757FAFDF7AE
:1051C000E1FA00BFF8E70000F50000202DE9F04FFC
:1051D00089B081468A46B9F1000F01D11F4C00E029
:1051E0001F4C4FEA0A1094FBF0FB584600F0E8FB16
:1051F000CDE90401504600F0CCFB07460022194BD4
:1052000000F02EFC05460E46204601F00BF907463D
:1052100000F036FF2A463346CDE9000100F032FAAD
:10522000CDE90201DDE9042300F040FECDE90601ED
:1052300000F03AF908904FF08341089801F052F9D4
:105240000890089801F0CEF800EB0B10064951F8D1
:105250002910088109B0BDE8F08F000000A24A04BF
:1052600000512502000030401801002070B50446AE
:105270000E46154634B91448806940F480401249FE
:10528000886108E01048C06904F1100101228A40D9
:1052900010430D49C861204600F01AF831462046F7
:1052A000FFF794FF094850F82400808942F22C014E
:1052B0000843064951F82410888104F12500C1B241
:1052C0002846FCF749FA70BD001002401801002082
:1052D00010B5044624B1012C0DD0022C21D115E0CB
:1052E000032209210020FDF7FBFE04220A210020F1
:1052F000FDF7F6FE15E0032202210020FDF7F0FE87
:10530000042203210020FDF7EBFE0AE003220A211C
:105310000120FDF7E5FE04220B210120FDF7E0FE50
:1053200000BF00BF10BD000070B51EE000F048F8DF
:10533000104A1169104A106900F0CEFE05464FF080
:10534000804100F03DFF04460C480168204601F012
:1053500095F906D800210846FEF794FD002008497B
:1053600008700A20FDF782FC00BF0548007800287D
:10537000DCD170BD24000020100000203800002087
:105380003C00002070B50B4801680B4801F0AAF8FA
:105390000446084A9168506801F0A4F80546294679
:1053A000204600F00DFF0349C8600846C068034965
:1053B000C86070BD10000020DB0F494024000020B1
:1053C00070B52848007890B12748006801F02AF8A5
:1053D00005462648C168284601F084F8044623485B
:1053E0000169204600F078FE2049086111E01E485E
:1053F000006801F017F805461C48C168284601F00E
:1054000071F8044619480169204601F099F91749D5
:1054100008611748007890B11648006801F002F85A
:1054200005461548C168284601F05CF80446124854
:105430000169204600F050FE0F49086111E00D4857
:10544000006800F0EFFF05460B48C168284601F0F0
:1054500049F8044608480169204601F071F90649F7
:10546000086170BD00000020040000201000002032
:1054700001000020080000202400002010B50029B1
:105480000AD00878002807D005487844FBF7DCFAF2
:10549000002801D0002010BD0248784410BD000053
:1054A0006A1D0000621D000021F00042A2F160525E
:1054B000B2F5801F01F0004328BFD2F17F6C0BD9F9
:1054C0005FEA001C43EAC20242EB507018BF70470B
:1054D00028BF20F001007047B2F5801FBCBF1846FE
:1054E00070474FEA410C1CF5001F02D2084601F03C
:1054F000C0B870B500F05EFB00000089FFF7F6BF92
:105500004FF00040A0F580007047000010B591EA10
:10551000030F48BF83F0004300F1D084841A71EB7D
:10552000030C05D2121943EB0C03001B61EB0C01B9
:10553000DFF824E14FEA1154A4EB135C1EEA430F99
:1055400018BF9EEA445F73D023EA0E03DCF1200EFD
:1055500021EA045143F4801332D322FA0CFE10EBFB
:105560000E0023FA0CFE41EB0E01CCF1200E03FAE3
:105570000EFE10EB0E0051F10001B1F5801FCCF1D1
:10558000200E32D201EB045112FA0EF2BDE81040A7
:1055900058BF7047401C38BF5FEA420218BF7047CF
:1055A000002814BF20F0010041F100014FEA41033F
:1055B00013F5001F38BF7047A1F1C04100F048BB90
:1055C000012A43EB0302ACF1200CDCF11F0E32BFC9
:1055D0004FF0000E23FA0CF310EB030041EB0451E3
:1055E000B4EB115FD0D0A1EB045101F58011490853
:1055F0005FEA300001EB04510ED350F1000038BFD8
:1056000012FA0EFE08D1BDE81040C9E7401C38BFB1
:105610005FEA4202CAD1C3E7BDE810404FEA410346
:1056200013F5001F38BF7047A1F1C04100F010BB57
:105630009EEA445F08D011EA5E0FBDE8104004BF47
:1056400001F0004100207047BDE8104070B500F047
:10565000B1FA00BF64FBBE3E0000E0FF02494FF01C
:10566000000001F076B900BF0000F87F491058BF74
:10567000C1F140415B1058BFC3F140438B42EFF38F
:10568000008070472DE9C04130B4DFF8A0C23CEA89
:10569000111418BF3CEA131400F0EC8081EA0305F2
:1056A0001CEA111444EAD57418BF1CEA131500F063
:1056B000C780A4EB05044FF0004545EAC12145EA47
:1056C000C32341EA505143EA525304F17F74994293
:1056D00004F500344FEAC0204FEAC22208BF9042CE
:1056E00000F09C804FEA13650FF24016765D4FEA9A
:1056F000134506FB05F7C7F1807706FB07F74FEA6E
:10570000D737A7FB03687642C8F58038A7FB06CEDB
:1057100038BFA8F1010807FB08E64FF0000EA6FB12
:10572000028CE6FB03CEDCF1000CCEF1004E38BF5C
:10573000AEF1010EA6FB0C584FF000074FF000052C
:10574000E6FB0E87A1FB08C6A0FB07CE16EB0E06F4
:1057500045F10005E1FB076515F1E04E7EBFA4F5BC
:1057600080345FEA46066D4116F1800745F1000579
:105770004FEA17274FEA066647EA0567A6F1DE46B5
:10578000B6F1805F4FEA15251FD9384624F0010C89
:1057900005EBC471BCF1FE6F01EB0C1102D8F0BC3B
:1057A000BDE8008124425CBF01F5801E9EEAC47FF3
:1057B00002D4F0BCBDE80081244238D4F0BCA1F191
:1057C000C041BDE8004100F043BA4FEAD22242EAAC
:1057D00043524FEAD323A7FB02864FEAD02040EA88
:1057E000415007FB03661EEA0E0F4FEAD12105FB6D
:1057F000026658BFA6EB0056B6EB00564FEA520EB3
:105800004EEAC37E18EB0E0E56EB530EBDD518EBC9
:1058100002085E417F1C55F10005B6E74FF4801584
:105820004FF000074FF000064FF00008ADE7F0BC66
:105830004FF0000001F1C04101F00041BDE80081DE
:1058400011EA0C1F0CEA131500D00CE013EA0C1F30
:1058500000F025804FF00000F0BC81EA030101F068
:105860000041BDE80081F0BCBDE8004181EA0301D0
:1058700000F0EEB9F0BCBDE8004170B500F09AF957
:10588000097EFC3E00F007B881EA03014FF00000FA
:1058900001F00041704781EA030100F0D9B9F0BC82
:1058A000BDE800414FF0000021497047FFFDFBF9C2
:1058B000F7F5F4F2F0EEEDEBE9E8E6E4E3E1E0DE43
:1058C000DDDBDAD8D7D5D4D3D1D0CFCDCCCBCAC8B5
:1058D000C7C6C5C4C2C1C0BFBEBDBCBBBAB9B8B7DC
:1058E000B6B5B4B3B2B1B0AFAEADACABAAA9A8A8CF
:1058F000A7A6A5A4A3A3A2A1A09F9F9E9D9C9C9B9D
:105900009A99999897979695959493939291919047
:105910008F8F8E8E8D8C8C8B8B8A898988888787D8
:105920008685858484838382828181800000FF074D
:105930000000F87F4FEA41034FEA5353A3F5806319
:10594000D3F11E03C8BFD3F1210C0CDD4FF0004290
:1059500042EAC12242EA505232FA03FC8CEAE17C6C
:10596000ACEBE1707047102BC4BF0020704703F50B
:10597000787CBCF1FF3F04D06FF0004282EA210046
:10598000704770B500F016F94992248000207047E6
:10599000F2E710F0004248BF4042B0FA80F310FA3C
:1059A00003F10AD0C3F11D0303F580634FEA4150B0
:1059B00002EB035202EBD12170474FF00000704719
:1059C000B0FA80F310FA03F10AD0C3F11D0303F516
:1059D00080634FEA41504FEA035202EBD1217047F6
:1059E0004FF000007047000051EA030C17D41CF57B
:1059F000801F58BFBCF5801F00F10680994218BF78
:105A0000704708BF9042704707D711F5801F58BFF5
:105A100013F5801F19D499427047894270471CF5CD
:105A2000801F08D5BCF5801FF7D58B4218BF704783
:105A300008BF824270474FF4001C1CEB410F38BF77
:105A40001CEB430F01D28B42704770B500F0B2F8E7
:105A5000922449004FF000514FF08053FFF706BEEB
:105A6000DFF848C170B51CEA111E1EBF1CEA1315F1
:105A70009EEA0C0F95EA0C0F00F06F8081EA030498
:105A800023EA4C134EEAD47E21EA4C1141F48011F2
:105A900043F48013AE44A1FB024CA0FB0365AEF1BE
:105AA0007F7E361955EB0C05A1FB034C4CF100032E
:105AB000A0FB021C16EB0C06654153F100030942E2
:105AC00018BF46F0010613F4007F0BD14FEA0331F3
:105AD0004FEA0530340341EA155140EA16506FF0A1
