:020000040800F2
:100000008006002089010008910100089301000882
:100010009501000897010008990100080000000000
:100020000000000000000000000000009B0100082C
:100030009D010008000000009F010008A1010008C8
:10004000A3010008A3010008A3010008A301000800
:10005000A3010008A30100083902000851020008AA
:10006000690200088102000899020008A301000843
:10007000A3010008A3010008A3010008A3010008D0
:10008000A3010008A3010008A3010008A3010008C0
:10009000A3010008A3010008A3010008B1020008A1
:1000A000A3010008A3010008A3010008A3010008A0
:1000B000550600087506000891060008A30100080F
:1000C000A3010008A3010008A3010008A301000880
:1000D000A3010008AD060008C9060008E5060008EF
:1000E000A3010008A3010008A301000800F002F822
:1000F00000F03AF80AA090E8000C82448344AAF188
:100100000107DA4501D100F02FF8AFF2090EBAE885
:100110000F0013F0010F18BFFB1A43F0010318473B
:100120001C0F00003C0F0000103A24BF78C878C1B3
:10013000FAD8520724BF30C830C144BF04680C60ED
:10014000704700000023002400250026103A28BF35
:1001500078C1FBD8520728BF30C148BF0B60704739
:100160001FB51FBD10B510BD00F038F81146FFF7E0
:10017000F7FF00F0B9FB00F056F803B4FFF7F2FF09
:1001800003BC00F0BDFA0000094880470948004759
:10019000FEE7FEE7FEE7FEE7FEE7FEE7FEE7FEE737
:1001A000FEE7FEE704480549054A064B7047000094
:1001B000F5050008ED000008800000208006002002
:1001C000800200208002002070477047704770470F
:1001D00070470000004870471C0000207546FFF77C
:1001E000F9FFAE4605006946534620F007008546F4
:1001F00018B020B5FFF7D6FFBDE820404FF000064D
:100200004FF000074FF000084FF0000B21F00701FE
:10021000AC46ACE8C009ACE8C009ACE8C009ACE841
:10022000C0098D46704710B50446AFF300802046E4
:10023000BDE81040FFF7A1BF0448006800F00100CE
:1002400010B101200149086070470000140401400A
:100250000448006800F0020010B102200149086063
:1002600070470000140401400448006800F00400D6
:1002700010B10420014908607047000014040140D7
:100280000448006800F0080010B108200149086027
:1002900070470000140401400448006800F010009A
:1002A00010B110200149086070470000140401409B
:1002B0001548006800F0200010B1202012490860A5
:1002C0001148006800F0400010B140200E4908605D
:1002D0000D48006800F0800010B180200A490860D5
:1002E0000948006800F4807018B14FF48070064926
:1002F00008600548006800F4007018B14FF4007001
:1003000001490860704700001404014070B50024E2
:100310000EE00021204600F0C7F8002504E0002090
:1003200000F0E3F8681CC5B2802DF8DB601CC4B295
:10033000082CEEDB70BD10B502220821012000F070
:10034000E1F902220921012000F0DCF90122082153
:10035000104600F0A9FA01220921104600F0A4FA83
:1003600010BD70B50546002413E08020204100EA4E
:1003700005020921012000F097FA01220821104608
:1003800000F092FA00220821012000F08DFA601C92
:10039000C4B2082CE9DB01220821104600F084FADF
:1003A00000220821012000F07FFA70BD10B5012263
:1003B0000921104600F078FA01220821104600F0C9
:1003C00073FA00220921012000F06EFA00220821B0
:1003D000012000F069FA10BD10B5002209210120AA
:1003E00000F062FA01220821104600F05DFA0122B5
:1003F0000921104600F058FA10BD70B5002406E03F
:10040000002500E06D1CB5F57A7FFBD3641CB4F5C4
:100410007A7FF5D3FFF78FFFAE2000F056F8D52096
:1004200000F053F8802000F050F8A82000F04DF8BC
:100430003F2000F04AF8D32000F047F8002000F0F9
:1004400044F8402000F041F8A12000F03EF8C82018
:1004500000F03BF8DA2000F038F8122000F035F810
:10046000812000F032F8CF2000F02FF8D92000F0E2
:100470002CF8F12000F029F8DB2000F026F83020DD
:1004800000F023F8A42000F020F8A62000F01DF8CA
:100490008D2000F01AF8142000F017F8AF2000F0BB
:1004A00014F8FFF733FF70BD70B505460C4645F0F4
:1004B000B00000F00AF8102141EA141000F005F82D
:1004C00004F00F0000F001F870BD10B50446FFF70E
:1004D0006DFF7820FFF745FF0020FFF742FF204621
:1004E000FFF73FFFFFF778FF10BD10B50446FFF799
:1004F0005DFF7820FFF735FF4020FFF732FF2046F1
:10050000FFF72FFFFFF768FF10BD10B500F002F8EE
:1005100010BD00000CB50020019000903348006829
:1005200040F480303149086000BF3048006800F472
:10053000003000900198401C0190009818B9019873
:10054000B0F5A06FF1D12948006800F4003010B177
:100550000120009001E0002000900098012843D184
:100560002348006840F010002149086008460068F0
:1005700020F0030008600846006840F002000860B0
:100580001A4840681949486008464068486008466B
:10059000406840F4806048600846406820F47C1061
:1005A00048600846406840F4E81048600846006823
:1005B00040F08070086000BF0C48006800F00070D8
:1005C0000028F9D00948406820F003000749486036
:1005D0000846406840F00200486000BF0348406899
:1005E00000F00C000828F9D10CBD000000100240FA
:1005F0000020024010B51348006840F00100114986
:10060000086008464068104908400E49486008469E
:1006100000680E4908400B4908600846006820F44D
:10062000802008600846406820F4FE0048604FF4CF
:100630001F008860FFF769FF4FF000600449086001
:1006400010BD0000001002400000FFF8FFFFF6FEA2
:1006500008ED00E04FF08040008A00F0010038B162
:100660004FF08040008A20F001004FF08041088266
:10067000704700000548008800F0010028B10348D9
:10068000008820F0010001490880704710040040F4
:100690000548008800F0010028B10348008820F0D8
:1006A0000100014908807047100800400548008893
:1006B00000F0200028B10348008820F02000014904
:1006C00008807047003801400548008800F020008D
:1006D00028B10348008820F02000014908807047B5
:1006E000004400400548008800F0200028B103487D
:1006F000008820F020000149088070470048004031
:1007000000BF704770B5654CA469042585402C4333
:10071000624DAC6108295DDA614C54F820402468D0
:100720008E000F25B540AC435D4D55F820502C6030
:100730001AB1032A01D0022A0FD10124944044F0B7
:1007400003048D00AC40564D55F820502D682C43C5
:10075000534D55F820502C609FE0012A01D0042A07
:100760002AD14F4C54F8204024688E000825B5400B
:100770002C434B4D55F820502C60012A0ED1484C8B
:1007800054F82040E46801258D4024EA0503012443
:100790008C401C43424D55F82050EC60042A7CD11B
:1007A0003F4C54F82040E56801248C40A5433C4C64
:1007B00054F82040E56070E0042494408D00AC4083
:1007C000374D55F820502D682C43354D55F82050A5
:1007D0002C6062E0324C54F820406468A1F10805B6
:1007E000AE000F25B540AC432D4D55F820506C6040
:1007F0001AB1032A01D0022A11D10124944044F0F5
:100800000304A1F10805AD00AC40254D55F820507A
:100810006D682C43224D55F820506C603DE0012A54
:1008200001D0042A2AD11E4C54F820406468A1F15A
:100830000805AE000825B5402C43194D55F8205049
:100840006C60012A0CD1174C256801248C4025EAE4
:10085000040301248C401C43114D55F82050EC60DA
:10086000042A1AD10E4C54F82040E46801258D402A
:10087000AC430B4D55F82050EC600EE0042494403E
:10088000A1F10805AD00AC40054D55F820506D684C
:100890002C43034D55F820506C6070BD0010024091
:1008A000040000200C08014030B57AB10D4C54F81A
:1008B0002040E46801258D4024EA050301248C4092
:1008C0001C43084D55F82050EC600AE0054C54F8E4
:1008D0002040E46801258D40AC43024D55F820507E
:1008E000EC6030BD04000020FFF787FD00F022F827
:1008F00047F2305000F002F800BFFEE710B50446A2
:10090000A2B20021084600F035F909480278062114
:100910000020FFF7C9FF0648007808B9012000E071
:100920000020024607210020FFF7BEFF10BD000097
:100930000000002010B54FF47A720021084600F044
:100940000BF8002206211046FFF7DCFE00220721EB
:100950001046FFF7D7FE10BD2DE9F04104460D46C5
:1009600016462846E91705EB91718910A5EB810120
:10097000491CCFB25148C0690121A14008434F49E9
:10098000C8614F4890FBF6F0401E4E4951F82410C4
:10099000888547204B4951F824100885284600F0E7
:1009A00093F8012F06D0022F1ED0032F36D0042F2C
:1009B00069D14DE0434850F82400008B40F06000BE
:1009C000404951F8241008833E4850F82400008B19
:1009D00040F008003B4951F82410088300203949B1
:1009E00051F8241088864EE0364850F82400008BD9
:1009F00040F4C040334951F824100883314850F87E
:100A00002400008B40F400602E4951F82410088324
:100A100000202C4951F82410088734E0294850F868
:100A20002400808B40F06000264951F82410888310
:100A3000244850F82400808B40F00800214951F8E8
:100A40002410888300201F4951F8241088871AE059
:100A50001C4850F82400808B40F4C040194951F8DC
:100A600024108883174850F82400808B40F40060DD
:100A7000144951F8241088830020124951F8241099
:100A8000A1F8400000BF00BF0E4850F82400008CC1
:100A9000791E8A000121914008430A4951F8241027
:100AA0000884084850F82400008840F08100054977
:100AB00051F824100880BDE8F081000000100240C9
:100AC00040420F001000002010B504460C2C4FD2FD
:100AD000DFE804F0060C12181E242A30363C424887
:100AE000032200210846FFF70DFE41E00322012109
:100AF0000020FFF707FE3BE0032202210020FFF762
:100B000001FE35E0032211460020FFF7FBFD2FE038
:100B1000032206210020FFF7F5FD29E0032207212B
:100B20000020FFF7EFFD23E0032200210120FFF763
:100B3000E9FD1DE0032201210846FFF7E3FD17E070
:100B4000032206210120FFF7DDFD11E0032207212A
:100B50000120FFF7D7FD0BE0032208210120FFF75A
:100B6000D1FD05E0032209210120FFF7CBFD00BFE5
:100B700000BF10BD2DE9F84F04460D461746284624
:100B8000E91705EB91718910A5EB8101491C01F072
:100B9000FF084CF25030874200DB0746384850F8D7
:100BA0002400868DB8F1010F09D0B8F1020F1DD0D5
:100BB000B8F1030F31D0B8F1040F5DD144E0701CDF
:100BC00000F044F98346384600F058F92D4900906A
:100BD00000F05AF88246594600F064F9814600F068
:100BE00015F9274951F82410888645E0701C00F05B
:100BF0002DF90090384600F041F98346214900F074
:100C000043F88246009900F04DF9814600F0FEF865
:100C10001B4951F8241008872EE0701C00F016F9CB
:100C20000090384600F02AF98346164900F02CF867
:100C30008246009900F036F9814600F0E7F8104945
:100C400051F82410888717E0701C00F0FFF800901E
:100C5000384600F013F983460A4900F015F8824639
:100C6000009900F01FF9814600F0D0F8044951F8CE
:100C70002410A1F8400000BF00BFBDE8F88F0000BD
:100C800010000020005043474FF47F0C1CEAD012A4
:100C90001EBF1CEAD11392EA0C0F93EA0C0F00F06E
:100CA000858090EA010F48BF42F4807240F4000C46
:100CB00041F400002CF07F4120F07F4000B58142DC
:100CC000A2EB03020FF2081CACEB504EC0F1000087
:100CD0009EF800E04FEA4E0E00FB0EFC38BF4900C4
:100CE0004FEA2C1C02F5FA020CFB0EF34FEACE1E63
:100CF0004FEA112C4FEAC1210EEB635E42EB224218
:100D00000EFB0CFC4FEA1C5300FB03114FEA112CA5
:100D10004FEA01310EFB0CFC4FEADC4C00FB0C11DE
:100D2000C14228BF09184CEB03335DF804EB10EB0C
:100D3000410143EBC250B2F57C0F38BF704729D553
:100D400012F0F00F1CBF00F1C04000F000407047EF
:100D5000008182838485868788898B8C8D8E8F9194
:100D60009293959697999A9C9D9FA0A2A3A5A7A8B8
:100D7000AAACAEB0B2B3B5B7B9BCBEC0C2C5C7C9E4
:100D8000CCCED1D4D7D9DCDFE2E6E9ECF0F3F7FA48
:100D9000FE0000004FEA400C0CF1807CBCF17E4F5D
:100DA00028BF7047B0F1C04000F043B990EA010F8E
:100DB0000CEAD11348BF42F48072624538BF6345E4
:100DC00007D213F47F0F16D080EA010000F0004034
:100DD000704710B500F0E7F8097EFC3E00F005B85A
:100DE00080EA010000F00040704780EA010000F056
:100DF000004000F01EB912F47F0F04BF0248704794
:100E000080EA010000F015B90000C07FC10DD1F1EA
:100E10009E0206DB4FEA002343F0004323FA02F070
:100E20007047004207D54FEA4001B1F1FE4F02D2B0
:100E30004FF00000704710B500F0B5F849922480DB
:100E4000002070476FEA20007047000010F000415A
:100E500048BF4042B0FA80F310FA03F2C3F19D0399
:100E60000BD051EAC35101EB1220530638BF704733
:100E700000F1010008BF20F001007047B0FA80F3D4
:100E800010FA03F2C3F19D030AD0D90501EB122039
:100E9000530638BF704700F1010008BF20F0010081
:100EA000704700004FF47F0C1CEAD0121EBF1CEAF2
:100EB000D11392EA0C0F93EA0C0F00F0478090EAEE
:100EC000010F48BF42F480724FF0004C4CEA002002
:100ED0004CEA012102EB0302A0FB0113A2F5000280
:100EE000002918BF43F001035B0028BF4FEA33031A
:100EF00042EB22425FEA132C4CEBC2502EBFBCEBFC
:100F0000436FB2F57C0F70474FEA036CBCF1004FA2
:100F100008BF20F00100B2F57C0F38BF70470BD539
:100F200082F0FF0212F5803FC8BF704700F1C04059
:100F3000D8BF00F00040704700F5000C5FEA4C0C91
:100F400048BF7047B0F1C04000F073B890EA010F9D
:100F50000CEAD11348BF42F48072624538BF634542
:100F600004D280EA010000F00040704710B500F0A4
:100F70001AF800BF8900013E00F007B800F009B878
:100F80005FEA410C5FEA1C6C08D080EA010000F0C7
:100F900050B85FEA400C5FEA1C6CF6D14FF000409D
:100FA000A0F5800070470EF1020E2EF0030E5EF8E1
:100FB000044B244204D44FEA4102B2F17F4F11D8CE
:100FC0004FEA4003B3F17F4F0CD80ED14FEAD07CEB
:100FD000B2F17F4F0CEB4C0C0CF1020C08BF4CEB48
:100FE000D17C04E04FF0080C01E04FEAD17C0CEB1F
:100FF0004C0324FA03F404F00704B4F1040C06D201
:101000000EEB840CBDE810404CF0010C6047DFE8AB
:101010000CF0070802024FF00040A0F5800010BD60
:101020000846420018BFD2F1807288BF00F000402D
:1010300010BDFF2141EAD050C00570475C10000888
:10104000000000201C0000002801000878100008A3
:101050001C0000206406000044010008000000009D
:1010600000080140000C0140001001400000004059
:081070000004004000080040EC
:04000005080000ED02
:00000001FF
