:020000040800F2
:1000000018080020A1010008A9010008AB010008A0
:10001000AD010008AF010008B101000800000000B8
:10002000000000000000000000000000B301000814
:10003000B501000800000000B7010008B901000880
:10004000BB010008BB010008BB010008BB010008A0
:10005000BB010008BB01000819120008311200089A
:1000600049120008851200089D120008BB01000813
:10007000BB010008BB010008BB010008BB01000870
:10008000BB010008BB010008BB010008BB01000860
:10009000BB010008BB010008BB010008D912000821
:1000A000BB010008BB010008BB010008BB01000840
:1000B000791C0008991C0008BD1C0008BB01000841
:1000C000BB010008BB010008BB010008BB01000820
:1000D000BB010008D91C0008F51C0008111D000810
:1000E000BB010008BB010008BB01000800F002F8DA
:1000F00000F047F80AA090E8000C82448344AAF17B
:100100000107DA4501D100F03CF8AFF2090EBAE878
:100110000F0013F0010F18BFFB1A43F0010318473B
:100120000C6900002C690000103A24BF78C878C11F
:10013000FAD8520724BF30C830C144BF04680C60ED
:10014000704700000023002400250026103A28BF35
:1001500078C1FBD8520728BF30C148BF0B60704739
:10016000662906F01E80002070471FB500F0FEFAD9
:1001700004000020002104F0ABFDE0601FBD10B5BD
:1001800010BD00F013FC1146FFF7EFFF03F03AFB40
:1001900000F031FC03B4FFF7F2FF03BC01F02BFFCA
:1001A0000948804709480047FEE7FEE7FEE7FEE70B
:1001B000FEE7FEE7FEE7FEE7FEE7FEE70448054947
:1001C000054A064B70470000191C0008ED000008A6
:1001D000180200201808002018040020180400202D
:1001E000704700000FB4044910B503AA029800F04C
:1001F000ABFA10BC5DF814FBC00000202DE9F047FD
:100200004FF0000A89460446C0F820A02046E16865
:100210008847002876D0252806D0D4E901219047C8
:10022000206A401C2062F1E7E168204600258847EB
:10023000C4F81CA006460027C4F818A02A2E09D02E
:10024000304601F0D1FE38B304EB8708303EC8F8E1
:10025000186019E059F8041B204604EB87029161ED
:10026000E1688847012F064618D1E069002820DAA6
:1002700025F020051DE0D8F8180000EB800006EB03
:1002800040003038C8F818002046E1688847064624
:1002900001F0AAFE0028EED1012F0AD02E2E08D19F
:1002A0002046E16888477F1C0646022F45F020055E
:1002B000C4DBA069002803DA404245F00105A061D3
:1002C000E80701D025F01005B6B1A6F141001928C4
:1002D00002D8203645F400654A463146204625605E
:1002E0004D46FFF73DFF58B1012806D0ED1D25F022
:1002F000070000F1080989E704E005F1040985E732
:1003000030468AE7206ABDE8F0877047704770473B
:10031000704710B500F02EFA006810BD10B5044605
:1003200000F028FA046010BD70472DE9FF4F0C461D
:100330001E464FF0FF378BB0D2E90001DDF8608038
:100340000A908A46C1F30A5505B93D460021084680
:100350004FF00000BAF1000F00F4400005DA00EBA6
:1003600080004FF4400101EA50004FEA9059B9F182
:10037000010F00DDB9460A9850EA4A000ED044F653
:100380001050A5F2FF3545432F14B8F1000F1ED0D1
:100390007542291E1EDDC9F100021CE0B8F1010FF3
:1003A0004FF0000001D0302103E0F24305E021547A
:1003B000401CB042FBDB30460022002121540B9947
:1003C000C1F80880C1E900200FB0BDE8F08FBD1B67
:1003D0006D1CDEE74A4600DA694206A800F06CFAB6
:1003E00006AB93E8070003AB83E8070050460A9981
:1003F00000F04AFB8DE80700A0F500501F38009080
:100400000398002D0ADD42F21F014A4608440023EA
:1004100003A90390684600F0B3FD09E0A0F5005081
:100420004A461F38002303A90390684600F0BDFD2B
:100430008DE807000004000C03D04FF0FF304108A6
:1004400000E01046B8F1000F03D0002200921546DC
:100450001EE0751E05D400F091F9303262556D1E14
:10046000F9D5B3460122084302D000227F1C04E0E4
:100470002078302801D100227F1E002A099784D0DD
:100480001DE0112D07DA00F079F9303262556D1C4C
:1004900050EA0102F5D1084302D00098C8B10EE03D
:1004A0000021681E05E0235C625C63542254401EF8
:1004B000491C8142F7DBAB46A81B401E0990002077
:1004C00004F80B000B98099AC0F80880C0E9002BCB
:1004D0007AE711264FF0000857E72DE9F04F8846DC
:1004E0000446D21D22F0070191B0D1E90001CDE907
:1004F0000A0101F01BFC02460B98C00F01D02D2011
:1005000007E02068810701D52B2002E0202101EAC5
:10051000C000032A099001D0072A05DB03464146A3
:10052000204600F089F90BE12078800601D5E069CA
:1005300000E00620B8F1650F814606D0B8F1660FDD
:1005400018D0B8F1670F70D131E00020B9F1110F68
:10055000009001DB112301E009F101030AAA01A9BE
:100560000CA8FFF7E2FEDDE90C70002609F1010599
:10057000834647E001204B4600904FF000470AAA0F
:1005800001A90CA8FFF7D1FEDDE90DB00C995D467D
:10059000002610B909F101000D18B9EB050003D4CC
:1005A000C0F1FF3609F10105A5EB09002BE0B9F117
:1005B000010F01DA4FF001090020B9F1110F00908D
:1005C000484601DD112300E003460AAA01A90CA850
:1005D000FFF7ABFEDDE90C704D4600268346207820
:1005E00000070AD4AB4500DA5D4601A8012D04DD01
:1005F000411911F8011C302907D04F4502DA17F1D3
:10060000040F04DA012082460FE06D1EEEE7002F92
:1006100002DCED1B3E4403E0781CA84200DD7D1C9B
:10062000B81B00F1010A4FF000472078000703D4FF
:10063000AA4501DB4FF0FF3A0021B7F1004F0DF161
:1006400043088DF8431024D002202B23002F01DA19
:100650007F422D230A21021EA0F1010000DC5FB1C0
:1006600097FBF1FC97FBF1F201FB1C7C17460CF1A8
:10067000300C08F801CDEEE7A8F1010003702188E5
:10068000090501D5452100E06521A0F1010800F828
:10069000011C09980FA9A1EB0807FF1D00B101205B
:1006A000411901EBEA70A1693844081A401EA061A3
:1006B0002078C00602D42046AFF30080099828B104
:1006C000D4E901219047206A401C20622078C006AE
:1006D00022D52046AFF300801EE0002E04DBB34598
:1006E00002DD01A8805D00E03020D4E901219047BF
:1006F000206A401C2062761CAAF101005FEA000A11
:100700000AD100F033F8C0680168405CD4E90121E7
:100710009047206A401C2062281EA5F10105DCDC00
:1007200007E0D4E9012118F8010B9047206A401C2A
:100730002062381EA7F10107F3DC2046AFF30080EA
:10074000032011B041E60000074B70B50D467B4415
:1007500000F05FF80446284600F020F910B14FF091
:10076000FF3070BD204670BD172400000048704760
:10077000D401002000487047B401002030B5B0F12A
:100780000A024FEA900E71F100034EEA817EB0EB4F
:100790000E0061EB91014FEA101E4EEA017E10EB54
:1007A0000E0041EB11114FEA102E4EEA016E10EBD4
:1007B0000E0041EB11214FEA104E4EEA014E10EBB4
:1007C0000E0041EB1141401841F100014FEAD00009
:1007D00040EA41704FEAD10110EB80054FEA8104F5
:1007E00044EA907444EB01046D1944EB0404521B79
:1007F000A3414FF0000348BF0A3200D530BD401C72
:1008000041F1000130BD000001694A1C0261087815
:10081000704700B58FB0CDE9013100210591054940
:100820007944CDE9031011466846FFF7E7FC0FB0A5
:1008300000BD0000E5FFFFFF2DE9F0411F46044623
:1008400003260168072A01F4006004DB08B116A53D
:1008500005E016A503E008B115A500E015A521F0F7
:1008600010002060A069C01EA0610FB1401EA061F1
:100870002046AFF300804FB1D4E9012138469047BC
:10088000206A401C2062C01C206206E0206AFAE751
:10089000D4E9012115F8010B9047761EF8D22046C5
:1008A000AFF30080BDE8F0814E414E006E616E00F6
:1008B000494E4600696E66002DE9F04781461646AE
:1008C0008AB0354878440DC88DE80D003248784428
:1008D000801C03AC0DC884E80D0041F69B30084431
:1008E000372190FBF1F290FBF1F5A5F1800501FBBA
:1008F00012041B3C02D56442012000E00020DFF816
:1009000098A080460027FA44AAF1BE0A0EE0E0074C
:100910000AD03246684607EB470101230AEB810102
:1009200000F043FB8DE8070064107F1C002CEED123
:10093000194F7F44AE3F19E0E80715D007EB0410CC
:100940000DF1180A90E80E008AE80E00C068F04227
:1009500001D1981908903246012306A903A800F096
:1009600024FB03AB83E807006D10641C002DE3D16A
:100970004FF0010332466946B8F1000F03A802D0D8
:1009800000F0FEFA01E000F010FBC9E90001C9F82F
:1009900008200AB0BDE8F0874C610000007B00F041
:1009A0008000704700487047B40100207546FFF78B
:1009B000F9FFAE4605006946534620F0070085461C
:1009C00018B020B5FFF7FAFBBDE820404FF0000655
:1009D0004FF000074FF000084FF0000B21F0070127
:1009E000AC46ACE8C009ACE8C009ACE8C009ACE86A
:1009F000C0098D46704710B50446AFF3008020460D
:100A0000BDE81040FFF7C6BB4FF0013C50F8042B87
:100A100051F8043B9A4221D1A2EB0C03934313EA11
:100A2000CC1317D150F8042B51F8043B9A4215D13E
:100A3000A2EB0C03934313EACC130BD150F8042B15
:100A400051F8043B9A4209D1A2EB0C03934313EAF9
:100A5000CC13DBD04FF00000704700BFD01A01BAB2
:100A6000B1FA81F101F0180122FA01F0CB40C1F195
:100A70002001DBB2C0B2C01A2CFA01F3D11A9143A3
:100A800011EAC311E6D170475FEA400C08BF91F04C
:100A9000000F4FEA8C234FEAC12243EA51514FEA3B
:100AA0001C5018BF00F5F0404FEA300018BF41F06D
:100AB00000415FEA6C5C00F02980BCF1FF3F08BF99
:100AC00040F080407047130C06BF12044FF0100C2A
:100AD0004FF0000C130E04BF12020CF1080C130FA0
:100AE00004BF12010CF1040C930F04BF92000CF12F
:100AF000020CD30F04BF52000CF1010C11464FF051
:100B00000002A0F11F00A0EB0C00704711F0004F95
:100B100008BF704731F000413FF4D5AF0B0C06BF62
:100B200009044FF0100C4FF0000C0B0E04BF09022B
:100B30000CF1080C0B0F04BF09010CF1040C8B0F16
:100B400004BF89000CF1020CCB0F04BF49000CF16B
:100B5000010CCCF12003A0EB0C0022FA03F302FA03
:100B60000CF241EA030100F10100704720F07F4CD4
:100B700080EA030023F07F47ACEB070303F57C53C7
:100B800000F0004003F1FF032DE980494FEA154BC7
:100B900009B44FEA144325EA0B4E24EA03480FF246
:100BA000042606EB132749083E785FEA320203FB6E
:100BB0000667C7F5000707FB06F64FEA54374FEA0A
:100BC000D64606F1020607FB066CCCF1005C4FEA44
:100BD0001C472CEA074C07FB06F40CFB06F504EB5C
:100BE00015464FEA961634BF00204FF000404FEAFA
:100BF000D13706FB07FC4FEA1C4C0CFB0BF7D21B52
:100C000003FB0CF761EB07010CFB0EF7B0EB0740A1
:100C100072EB17420CFB08F734BFA2EB0742B2EBB2
:100C2000074261EB17414FEA0C444FEA910706FB7C
:100C300007FC4FEA1C4C0CFB0BF7B0EBC74072EB08
:100C4000573203FB0CF734BFA2EBC742B2EBC742EB
:100C500061EB57310CFB0EF7B0EBC70072EB57722C
:100C60000CFB08F734BFA2EBC702B2EBC70261EB83
:100C70005771039F4FEA816141EA921104EBCC0462
:100C80004FEAD1374FEA826206FB07FC42EA901234
:100C90004FEA80604FEA1C4C0CFB0BF7D21B03FBA6
:100CA0000CF761EB07010CFB0EF7B0EB074072EBA2
:100CB00017420CFB08F734BFA2EB0742B2EB074226
:100CC00061EB17414FEA8C554FEA910704EB9C24E6
:100CD00006FB07FC4FEA1C4C0CFB0BF7B0EBC740C4
:100CE00072EB573203FB0CF734BFA2EBC742B2EBF7
:100CF000C74261EB57310CFB0EF7B0EBC70072EB4C
:100D000057720CFB08F734BFA2EBC702B2EBC70265
:100D100061EB577115EB4C254FEA816141EA921165
:100D20004FEA82624FEAD13742EA901206FB07FC93
:100D300044F100044FEA80604FEA1C4C0CFB0BF7B7
:100D4000D21B03FB0CF761EB07010CFB0EF7B0EBBA
:100D5000074072EB17420CFB08F734BFA2EB0742C7
:100D6000B2EB074261EB174115EB1C154FEA8131DD
:100D700041EA92414FEA823242EA90424FEA8030A1
:100D80004FEA0C7644F1000448EA03434EEA0B486C
:100D90004FF0000EB2EB080C71EB030724BF624664
:100DA00039464EEB0E0E4FF0000B001852414941F0
:100DB0004BEB0B0BB2EB080C71EB03077BF1000B59
:100DC00024BF624639464EEB0E0E4FF0000B001862
:100DD000524149414BEB0B0BB2EB080C71EB030793
:100DE0007BF1000B24BF624639464EEB0E0E51EAF2
:100DF000020718BF46F0010616EB0E7655F1000209
:100E000054F1000103D5BDE88901BDE80088BDE8C3
:100E10008901BDE80048B619524141EB0101A3F137
:100E20000103704780807F7E7D7C7B7A797877763E
:100E300076757473727171706F6E6E6D6C6C6B6AB7
:100E40006A69686867666665646463636261616055
:100E5000605F5F5E5E5D5D5C5C5B5B5A5A595958D2
:100E6000585757565655555554545353525252513C
:100E7000515050504F4F4F4E4E4D4D4D4C4C4C4B92
:100E80004B4B4A4A4A4949494848484747474746D9
:100E90004646454545444444444343434342424215
:100EA00042414141002B9C4630D477002BD01CB5E9
:100EB0004FEA370703B44FF010004FF01001BAF1BA
:100EC000000F06D0BCF1000FDCBF40F0080040F07E
:100ED00008014FF000000FBCBDE810400BF1010B02
:100EE000BBF1010F08BF5FEA170722BF12F1010231
:100EF00011F101014FF0004143F1000300F0004007
:100F000043EA00007047F9D35708D0E746EA06469F
:100F100013F1400F4FEA16461FDD13F1200FDFBF1C
:100F200016430A46002120335B42BED0C3F120079E
:100F300046EA064602FA07F74FEA164646EA070669
:100F4000C3F1200722FA03F201FA07F721FA03F1AD
:100F50004FF0000342EA0702A7E746EA020646EA24
:100F600006464FEA164646EA0106BCBF46EA064672
:100F7000360C4FF000034FF000024FF0000194E7F1
:100F80002DE9804C9A46934670B491E8380007C822
:100F900031EA400C48BF34EA430C03D5FFF7E6FDC5
:100FA000FFF780FFF0BCBDE8008C2DE9804C9A462D
:100FB000934670B491E8380007C810F0804F08BF1E
:100FC00013F0804F03D100F005F8FFF76BFFF0BC82
:100FD000BDE8008C20F07F4780EA030023F07F4CBF
:100FE00007EB0C03A3F57C5300F00040A3F1FE03D4
:100FF00092F0000F00F0B38095F0000F00F07780C2
:101000002DE901494FEA11404FEA144621EA004810
:1010100000FB06FC24EA064708FB06F607FB08F877
:1010200000FB07F718EB06484CEB164C4FEA124B47
:1010300018EB07484FEA15464CEB174022EA0B4ED7
:101040000BFB06FC25EA06470EFB06F607FB0EFE29
:101050000BFB07F71EEB064E4CEB164C4FF0000651
:101060001EEB074E4CEB174B18EB0B0840F1000042
:1010700018EB0E0B58EB000840F100008F1A4FF0F0
:1010800000013CBFC943661B14BFB5EB040C002133
:101090003CBFC943F61B4FEA17444EEA8E0E27EABF
:1010A00004454FEA1C4704FB07622CEA074C05FB8A
:1010B00007F70CFB05F604FB0CFC16EB074642EBAE
:1010C000174216EB0C4642EB1C421BEB060658EB94
:1010D0000202414146EA9E0601D5BDE80189B619E2
:1010E000524141EB0101A3F10103BDE801894FEA3F
:1010F00014454FEA114724EA054621EA074C05FB4F
:1011000007F406FB07F70CFB06F105FB0CFC11EBE3
:10111000074144EB17444FEA124711EB0C4144EBF3
:101120001C4422EA074C05FB07F206FB07F70CFB01
:1011300006F605FB0CFC16EB074642EB174216EBD6
:101140000C4642EB1C456A1854F1000148BF704739
:10115000B619524141EB0101A3F10103704795F02B
:10116000000F37D04FEA11424FEA144721EA0246F6
:1011700024EA074C02FB07F106FB07F70CFB06F419
:1011800002FB0CFC14EB074441EB17414FEA1547F7
:1011900014EB0C4441EB1C4125EA074C02FB07F51C
:1011A00006FB07F70CFB06F602FB0CFC16EB0746EA
:1011B00045EB174516EB0C4645EB1C42121951F155
:1011C000000148BF7047B619524141EB0101A3F13C
:1011D000010370474FEA14454FEA114724EA0546D8
:1011E00021EA074C05FB07F106FB07F70CFB06F2AB
:1011F0004FF0000605FB0CFC12EB074241EB1741D8
:1012000012EB0C4251EB1C4148BF7047921841EB66
:101210000101A3F1010370470448006800F00100D8
:1012200010B101200149086070470000140401401A
:101230000448006800F0020010B102200149086073
:10124000704700001404014010B50C48006800F01D
:10125000040090B10321002001F094FC28B108485B
:101260000068401E0649086004E005480068401C0C
:101270000349086004200149086010BD14040140BE
:10128000040000200448006800F0080010B10820A5
:1012900001490860704700001404014010B50C4873
:1012A000006800F0100090B10521002001F06AFCF8
:1012B00028B108480068401C0649086004E0054859
:1012C0000068401E0349086010200149086010BDF5
:1012D000140401400800002010B58CB04348006899
:1012E00000F0200010B12020404908603F4800680D
:1012F00000F0400010B140203C4908603B480068C5
:1013000000F0800000285DD000F030F93848B0F9D6
:10131000000004F0B1FC04464FF08D4104F07AFB6C
:1013200009903448B0F9000004F0A6FC04464FF0E0
:101330008D4104F06FFB0A902F48B0F9000004F0D3
:101340009BFC04464FF08D4104F064FB0B902B484E
:10135000B0F9000004F090FC0446294904F05AFB5F
:1013600006902848B0F9000004F086FC04462449A1
:1013700004F050FB07902448B0F9000004F07CFC16
:1013800004461F4904F046FB089020480290DDE91E
:101390000701CDE90001069B09A807C801F026FE58
:1013A00006A90EC903A801F01BFD1949039808609E
:1013B00018490498086018490598086080200B496E
:1013C000086000BF0948006800F4807018B14FF44D
:1013D0008070064908600548006800F4007018B184
:1013E0004FF40070014908600CB010BD14040140B6
:1013F000C4000020C6000020C8000020CA00002051
:1014000033338341CC000020CE0000200AD7A33B19
:10141000E8000020EC000020F000002010B50222BF
:101420000A21012001F0C0FB02220B21012001F062
:10143000BBFB01220B21104601F088FC01220A218E
:10144000104601F083FC10BD10B501220B2110469F
:1014500001F07CFC01220A21104601F077FC0022F9
:101460000A21012001F072FC10BD70B50025012297
:101470000B21104601F06AFC002412E001220A212F
:10148000104601F063FC0B21012001F07BFB10B141
:1014900080202041054300220A21012001F056FC52
:1014A000641C082CEADB284670BD70B50546002494
:1014B00019E080202041284028B101220B2110464C
:1014C00001F044FC04E000220B21012001F03EFC6D
:1014D00001220A21104601F039FC00220A210120D4
:1014E00001F034FC641C082CE3DB70BD10B5012254
:1014F0000B21104601F02AFC01220A21104601F0BE
:1015000025FC00220B21012001F020FC00220A21F1
:10151000012001F01BFC10BD10B500220B210120A1
:1015200001F014FC01220A21104601F00FFC0122F7
:101530000B21104601F00AFC10BD10B50024012259
:101540000B21104601F002FC01220A21104601F095
:10155000FDFB0B21012001F015FB044600220A21AE
:10156000012001F0F3FB204610BD000070B53B20C8
:1015700000F072F804463C2000F06EF8054645EA9B
:10158000042000B2214908803D2000F065F804469F
:101590003E2000F061F8054645EA042000B21C49EF
:1015A00008803F2000F058F80446402000F054F82E
:1015B000054645EA042000B216490880432000F0A1
:1015C0004BF80446442000F047F8054645EA04205D
:1015D00000B211490880452000F03EF8044646203C
:1015E00000F03AF8054645EA042000B20B490880AD
:1015F000472000F031F80446482000F02DF8054659
:1016000045EA042000B20649088070BDC4000020ED
:10161000C6000020C8000020CA000020CC00002026
:10162000CE00002010B502216B2000F035F82721F4
:10163000192000F031F800211A2000F02DF81821AF
:101640001B2000F029F800211C2000F025F80121C2
:10165000382000F021F810BD70B50446FFF746FFB2
:10166000D020FFF722FFFFF768FF2046FFF71DFF9E
:10167000FFF763FFFFF750FFFFF738FFD120FFF7B9
:1016800014FFFFF75AFFFFF7F0FE0546FFF7DCFEF9
:10169000FFF742FF284670BD70B505460C46FFF7C0
:1016A00025FFD020FFF701FFFFF747FF2846FFF790
:1016B000FCFEFFF742FF2046FFF7F7FEFFF73DFF76
:1016C000FFF72AFF70BD0000014607238B431A0273
:1016D000054B18684FF6FF0318401043034B18439F
:1016E000014B1860704700000CED00E00000FA05A7
:1016F00070B505460C460420FFF7E6FF0E48005D76
:1017000000F0010646EA0510C1B20B48015520461B
:10171000E21704EBD2625211A4EB421301229A4069
:101720002146E31704EBD3635B119B0003F1E02335
:10173000C3F8002170BD000000E400E070B5002493
:101740000EE00021204600F0D1F8002504E0002042
:1017500000F0DDF9681CC5B2802DF8DB601CC4B256
:10176000082CEEDB70BD10B502220821012001F02B
:101770001BFA02220921012001F016FA0122082198
:10178000104601F0E3FA01220921104601F0DEFAC9
:1017900010BD70B50546002413E08020204100EA0A
:1017A00005020921012001F0D1FA01220821104689
:1017B00001F0CCFA00220821012001F0C7FA601CD8
:1017C000C4B2082CE9DB01220821104601F0BEFA60
:1017D00000220821012001F0B9FA70BD10B50122E4
:1017E0000921104601F0B2FA01220821104601F049
:1017F000ADFA00220921012001F0A8FA00220821F7
:10180000012001F0A3FA10BD10B50022092101202A
:1018100001F09CFA01220821104601F097FA0122FA
:101820000921104601F092FA10BD70B5002406E0BF
:10183000002500E06D1CB5F57A7FFBD3641CB4F580
:101840007A7FF5D3FFF78FFFAE2000F050F9D52057
:1018500000F04DF9802000F04AF9A82000F047F987
:101860003F2000F044F9D32000F041F9002000F0BF
:101870003EF9402000F03BF9A12000F038F9C820E3
:1018800000F035F9DA2000F032F9122000F02FF9DB
:10189000812000F02CF9CF2000F029F9D92000F0A8
:1018A00026F9F12000F023F9DB2000F020F93020A8
:1018B00000F01DF9A42000F01AF9A62000F017F995
:1018C0008D2000F014F9142000F011F9AF2000F081
:1018D0000EF9FFF733FF70BD10B50246012000E09E
:1018E00050430B1EA1F10101FAD110BD70B50546A0
:1018F0000C4645F0B00000F0FAF8102141EA14104F
:1019000000F0F5F804F00F0000F0F1F870BD0000F1
:101910002DE9F04105460E461746721ED206110EFD
:101920006A1E5206100EFFF7E1FF002409E0A7F13E
:101930002001134A02EB0111085D00F0E8F8601C79
:10194000C4B2082CF3DB721ED206110E6A1E0123EC
:1019500003EB4202D0B2FFF7C9FF00240BE0A7F16E
:101960002001074A02EB011204F10801505C00F06B
:10197000CEF8601CC4B2082CF1DBBDE8F081000099
:10198000F46200082DE9FF4F87B00C4691469A4655
:10199000DDF850B0484604F033F90590584603F09E
:1019A00039FC07463A460B4600201A4902F026F950
:1019B00005460E46059804F05FF98046494604F056
:1019C000E9FA074603F086FF2A463346CDE90001CF
:1019D00003F070FCCDE9020103F0D6FB04905346FE
:1019E0002146059A079800F03BF804EB0A00401CDA
:1019F000C1B209A2079800F066F804EB0A00801C47
:101A0000C1B25B46049A079800F008F80BB0BDE835
:101A1000F08F0000000024402E0000002DE9F04768
:101A200080460E4617461D46002415E0281B411E21
:101A30000A20FFF751FFB7FBF0F00A21B0FBF1F2EB
:101A400001FB120000F130093019C1B24A4640468C
:101A5000FFF75EFF601CC4B2AC42E7DBBDE8F08775
:101A60002DE9F0478146884615461E46002D06DBC7
:101A70002B2241464846FFF74BFF2F4605E02D221B
:101A800041464846FFF744FF6F42002417E0301BF1
:101A9000411E0A20FFF720FFB7FBF0F00A21B0FB40
:101AA000F1F201FB120000F1300A08EB0400401CC7
:101AB000C1B252464846FFF72BFF601CC4B2B44285
:101AC000E5DBBDE8F0872DE9F04107460E461546F7
:101AD000002407E02A5D3019C1B23846FFF718FF2D
:101AE000601CC4B2285D0028F4D1BDE8F08110B5B7
:101AF0000446FFF773FE7820FFF74BFE0020FFF748
:101B000048FE2046FFF745FEFFF77EFE10BD10B5EC
:101B10000446FFF763FE7820FFF73BFE4020FFF707
:101B200038FE2046FFF735FEFFF76EFE10BD10B5FC
:101B300000F002F810BD00000CB5002001900090EC
:101B40003348006840F480303149086000BF3048B5
:101B5000006800F4003000900198401C019000984B
:101B600018B90198B0F5A06FF1D12948006800F4C8
:101B7000003010B10120009001E00020009000989A
:101B8000012843D12348006840F010002149086033
:101B90000846006820F0030008600846006840F02E
:101BA000020008601A4840681949486008464068C1
:101BB00048600846406840F48060486008464068D5
:101BC00020F47C1048600846406840F4E810486003
:101BD0000846006840F08070086000BF0C4800684C
:101BE00000F000700028F9D00948406820F0030098
:101BF000074948600846406840F00200486000BF5E
:101C00000348406800F00C000828F9D10CBD000022
:101C1000001002400020024010B51348006840F058
:101C200001001149086008464068104908400E4903
:101C30004860084600680E4908400B49086008469D
:101C4000006820F4802008600846406820F4FE0008
:101C500048604FF41F008860FFF769FF4FF0006095
:101C60000449086010BD0000001002400000FFF8A9
:101C7000FFFFF6FE08ED00E04FF08040008A00F024
:101C8000010038B14FF08040008A20F001004FF091
:101C9000804108827047000010B50748008800F0B6
:101CA000010038B101F020FF0348008820F0010056
:101CB0000149088010BD000010040040054800885C
:101CC00000F0010028B10348008820F0010001491C
:101CD00008807047100800400548008800F0200088
:101CE00028B10348008820F020000149088070478F
:101CF000003801400548008800F0200028B1034862
:101D0000008820F02000014908807047004400400E
:101D10000548008800F0200028B10348008820F022
:101D2000200001490880704700480040490050EAFF
:101D3000C12018BF04204A0D18BF40F0010040F236
:101D4000FF72B2EB515F08BF40F00200012808BFEC
:101D5000052070474100080218BF04200A0E18BF72
:101D600040F001004FF07F4232EA010108BF40F02D
:101D70000200012808BF052070472DE9F0414F1EE1
:101D800000EBC7010446D1E9000115461E4637F0B5
:101D900006020DD02A46334603F08CFA7F1E04EB70
:101DA000C703D3E9002302F0DBFF37F00602F1D1CD
:101DB000022F25D0042F13D0062F18BFBDE8F081C5
:101DC0002A46334603F076FAD4E90A2302F0C8FF24
:101DD0002A46334603F06EFAD4E9082302F0C0FF26
:101DE0002A46334603F066FAD4E9062302F0B8FF28
:101DF0002A46334603F05EFAD4E9042302F0B0FF2A
:101E00002A46334603F056FAD4E9022302F0A8FF2B
:101E10002A46334603F04EFAD4E90023BDE8F041E8
:101E200002F09EBF002213461046014903F054B849
:101E30000000F03F02F094BF002213461046114606
:101E400003F04AB840F2013200204FF0E04104F0C4
:101E5000DCB90000024A0020110704F0D6B90000E6
:101E600001FDFFFF012104F0FEB903F05FBD002179
:101E7000084603F0CFBD6FF05E01080704F0F3B928
:101E80002DE9F04D0D4614464FF07F41B1EB440F64
:101E90009EBF4FF0FF312960BDE8F08D4FF000404C
:101EA00040EA0421C4F3C750783810F01F024A4BAF
:101EB0004FEA601CC2F120067B44C4F3C750A0F176
:101EC00078004FEA601003EB800053F82C3008BF15
:101ED000D0E901C612D0D0F804C093402CFA06F71E
:101EE0003B4387680CFA02FC27FA06F8C06807FA39
:101EF00002F2F0404CEA080C42EA0006A3FB013271
:101F0000ACFB01C0A6FB016101EB0C068E4234BFA5
:101F10004FF0010C4FF0000CC1186144BCF1000FF0
:101F200002D0814202D903E0814201D2012000E0C7
:101F30000020104400F120024FEA92188006CA0CDB
:101F400040EA42304F03C5F8008003F095FE824618
:101F5000384603F0A9FE6FF0120104F084F9074639
:101F6000304603F0A1FE6FF0250104F07CF98346B2
:101F70003946504603F0DAFC594603F0D7FC00F529
:101F800000666FF30B065146304604F095F839466B
:101F900004F092F8594603F0FDFF104903F0CCFE1F
:101FA00007460F49304603F0C7FE394603F0BEFC32
:101FB00007460C49304603F0BFFE394603F0B6FC35
:101FC00014F0004F08BFBDE8F08DC8F1805180F0DB
:101FD00000402960BDE8F08DBC4A0000DB0FC92F2E
:101FE00022AAFD290000C92F30380A2801D2012079
:101FF00070470020704700BF704700002DE9F04196
:1020000004464FF00E4000EB4400B0F1506F204604
:1020100055D84FF0FC41B1EB440F1CD224F00040E6
:102020004FF07E5103F0B6FF4FF0FF3104F01BF983
:10203000054602F051FD14F0004F1DBF2F4F304EEA
:1020400080F000402F4F08BF2F4E4FF0404103F06B
:1020500073FE044605E000273E46014603F06CFE91
:1020600005462A49284603F067FE294903F05EFC2D
:10207000294603F061FE274903F058FC294603F086
:102080005BFE254903F052FC294603F055FE234927
:1020900003F04CFC80462946204603F04DFE4146A5
:1020A00003F04AFE05463146204603F03FFC294630
:1020B00003F03CFC3946BDE8F04103F037BC4FF07B
:1020C000E441B1EB440F08D9FFF744FE042808BFF0
:1020D000FFF7D1FE2046BDE8F0814FF07F41B1EB24
:1020E000440F03D2BDE8F041FFF7BCBE0120FEF76C
:1020F00015F9BDE8F041FFF7BABE00000000C9BF06
:1021000022AAFDB90000C93F22AAFD3924FE1C3DC8
:10211000C78AD83C1E67383D1B93993DAFAA2A3E1B
:102120002DE9F0474FF0684202EB40030C460546AC
:10213000B3F1654F3CBF02EB4102B2F1654F80F055
:10214000CD8000BFC0F3C752C1F3C753D21A1B2AB8
:1021500006DD10F0004F14BF87488848BDE8F087BF
:1021600012F11A0F2FDA11F0004F06D010F0004FC5
:102170000CBF83488348BDE8F0872146284603F01A
:1021800049FC0646FFF7E6FD042808BFFFF773FE8B
:102190002846FFF7DFFD05462046FFF7DBFD044636
:1021A0003046FFF7D7FD042D18BF052D08D1042CAC
:1021B00018BF052C04D1002804BF0220FEF7AEF89A
:1021C0003046BDE8F0874200B2EB410F25D910F050
:1021D000004F19BF6C4F6D4E6D4F6E4E224685F00D
:1021E000004415460A4680F0004110460A1A520083
:1021F000B2F1807F3ED248406749DFF8A0A110F0DD
:10220000004F18D04FF03F48384603F055FF0746BF
:102210005146304603F050FF17E011F0004F04BF65
:1022200000263746E2D010F0004F19BF5C4F5D4EDC
:102230005D4F5E4EDAE74FF07C58384603F076FB90
:1022400007465146304603F071FB06464146284694
:1022500003F072FD214603F069FB824621464046A9
:1022600003F06AFD294603F095FE514603F0D2FBC8
:10227000044604E02146284603F0CCFB0446014610
:1022800003F05AFD80464A4903F056FD494903F0E0
:102290004DFB414603F050FD474903F047FB4146E3
:1022A00003F04AFD454903F041FB414603F044FD7C
:1022B000434903F03BFB05464146204603F03CFD05
:1022C000294603F039FD314603F030FB214603F087
:1022D0002DFB3946BDE8F04703F028BB4FF07F42A5
:1022E000B2EB400F28BFB2EB410F03D2BDE8F0477D
:1022F000FFF7BBBD40EA01035B0008BF44F0FF41AC
:102300000AD0B2EB400F08BFB2EB410F06D125F067
:10231000804024F0804105460C4613E7B2EB400FA5
:1023200012BF5FEA410345F0FF4004F000413FF473
:1023300009AFB2EB410F12BF5FEA400205F0004067
:1023400044F0FF413FF4FEAE4A0092EA40033FF5FD
:10235000F9AE002AACBF4FF09F464FF03E563146D3
:1023600003F0EAFC05463146204603F0E5FC04464E
:1023700028462146E6E60000DB0FC9BFDB0FC93F58
:10238000DB0F4940DB0F49C00000C9BF22AAFDB9DD
:102390000000C93F22AAFD390060ED3EC30ACE37D6
:1023A000000049C022AA7DBA0000494022AA7D3A15
:1023B0002DAD65BD8FB8D53D0FB511BE61C84C3E82
:1023C000A8AAAABE2DE9F041044600BF24F00040AF
:1023D000054610488168284603F07AFC16D20D4A5B
:1023E0001168506803F068FE07460A48816828466D
:1023F00003F010FB8046394603F09EFC0646054874
:102400004168304603F0C6FDBDE8F0810148006830
:10241000FAE700005C0000202DE9FF5F66480168D4
:10242000006803F089FC814664480168006803F095
:1024300083FC824662480168006803F07DFC0390DB
:102440005D4801685F48006803F076FC04465B481D
:1024500001685C48006803F06FFC05465848016855
:102460005848006803F068FC064654480168524822
:10247000006803F061FC0290514801684E48006812
:1024800003F05AFC01904E4801684C48006803F084
:1024900053FC00904FF08040039903F04DFC8046C0
:1024A00051464FF0804003F047FC83464FF07E5189
:1024B00003F070FD0746414603F0FEFD4249086007
:1024C00086F000484046029903F030FA07464FF084
:1024D000804103F031FC3C49486085F000484046AB
:1024E000019903F057FD07464FF0804103F024FCAB
:1024F0003549886086F000484046029903F04AFD5D
:1025000007464FF0804103F017FC2F49C8604FF099
:102510008040039903F010FC804649464FF080400C
:1025200003F00AFC83464FF07E5103F033FD07466B
:10253000414603F0C1FD2449086184F0004840464B
:10254000009903F0F3F907464FF0804103F0F4FBE4
:102550001D49486185F000484046019903F0E6F9BD
:1025600007464FF0804103F0E7FB1749886184F08C
:1025700000484046009903F00DFD07464FF08041AA
:1025800003F0DAFB1049C86151464FF0804003F078
:10259000D3FB804649464FF0804003F0CDFB834695
:1025A0004FF07E5103F0F6FC0746414603F084FDF0
:1025B00005490862BDE8FF9F2C0000203000002084
:1025C0003400002028000020900100202DE9F8436D
:1025D000044602464F486946B0EB420F09D94FF016
:1025E000E640B0EB420F94BF00204FF0FF30009068
:1025F00030E0494B22F00040834271D947492046E0
:1026000003F09AFB03F096FC804603F0F9FA00F021
:10261000030000904249404603F08EFB05464149C5
:10262000404603F089FB06463F49404603F084FBE1
:1026300007463E49404603F07FFB214603F0AAFCD3
:10264000394603F039FD314603F036FD294603F0E3
:1026500033FD04462546009C002C45DB294614F03A
:10266000010F08461CD003F067FB0646304903F013
:1026700063FB304903F08EFC314603F05DFB2E49CD
:1026800003F054F9314603F057FB294603F054FB9D
:10269000294603F04BF914F0020F1CD0BDE8F88373
:1026A00003F04AFB0546254903F046FB244903F0A5
:1026B0003DF9294603F040FB224903F037F929464A
:1026C00003F03AFB4FF07E5103F030F914F0020FA3
:1026D00008BFBDE8F88380F00040BDE8F883FFE75D
:1026E0001046FFF7CDFBB4E76800B0F17F4F3CBF69
:1026F0004FF07E50BDE8F88307D14FF00100FDF7A1
:102700000DFEBDE8F843FFF7B2BB2846BDE8F8432D
:10271000FFF7A8BBB61F927E490E494683F9223FB8
:102720001A61342C0020A23300A0FD390000C93FFB
:10273000336D4C39DA82083CA0AA2ABEB93AB2BA43
:10274000CA9F2A3DDDFFFFBE00B5034603E04FF4FC
:102750007A7000F005F8181EA3F10103F7D100BD4F
:1027600000EBC001C9004FF0E022516100219161EE
:102770000521116100BF4FF0E021096901F48031AA
:102780000029F8D004214FF0E022116170470000C9
:102790002DE9F04F8DB004460E461546606A28B903
:1027A0002660012060620DB0BDE8F08F4D4B0FCB6D
:1027B00009AF0FC70A952946606803F0BDFA0746BE
:1027C000216803F0B3F820602946284603F0B4FAE4
:1027D0008246616903F0B0FA80462846E16803F05A
:1027E000ABFA02902846216903F0A6FA0190A1688D
:1027F00003F09CF88246029903F098F8814641461E
:1028000003F094F80746A16903F090F80590284674
:10281000616903F091FA0746E16803F087F80690D2
:102820002846616903F088FA0746216903F07EF8BB
:102830000790E169606903F079F80890216A0598CA
:1028400003F074F807463946059803F0E3F803905F
:10285000216A059803F06AF807463946079803F09D
:10286000D9F804903046216803F026FC8346594687
:10287000039803F061FA0746216803F057F82060D7
:102880005946049803F058FA0746616803F04EF879
:1028900060604FF07E50039903F00EFC07460599E7
:1028A00003F04AFAA0604FF07E50039903F004FC55
:1028B0000746069903F040FAE060DDE9040103F001
:1028C0003BFA0746079903F065FB206106990498D7
:1028D00003F032FA0746089903F05CFB606100BF21
:1028E00061E70000E462000810B500220121062023
:1028F00000F010F801220321002000F055F9002219
:1029000001210C2000F006F801220521002000F032
:102910004BF910BD2DE9F04704460E46174603213A
:1029200094FBF1F0C11700EB91718910A0EB8101CC
:1029300089064FEA1168032194FBF1F0C11700EBFF
:102940009171C1F38705204600F06AF8314880692B
:1029500040F001002F4988614FEAB13050F825005E
:102960000F2101FA08F188432B4941F82500032083
:1029700094FBF0F100FB114088B1032094FBF0F1CF
:1029800000FB1140401E012101FA00F000FA08F09E
:10299000214951F8251001431F4840F82510032014
:1029A00094FBF0F1012088401C49096808431B4949
:1029B000086066B9032094FBF0F1012088401749B4
:1029C0000831096808431549083108600BE0032005
:1029D00094FBF0F10120884010490C31096808434C
:1029E0000E490C310860032094FBF0F004280ADC47
:1029F000032094FBF0F0801D00F0FF0949463846A3
:102A0000FEF776FE03E017213846FEF771FEBDE8BB
:102A1000F08700000010024008000140000401405F
:102A200010B50446182C12D2DFE804F00C12181E60
:102A3000242A30363C42484E545A60666C72787E86
:102A4000848A909601220021084600F0ADF889E0C2
:102A500001220021104600F0A7F883E001220021A6
:102A6000022000F0A1F87DE001221146002000F0D4
:102A70009BF877E001221146104600F095F871E0CE
:102A800001221146022000F08FF86BE001220221A2
:102A9000002000F089F865E001220221104600F0D4
:102AA00083F85FE001220221084600F07DF859E03A
:102AB00001220321002000F077F853E001220321D6
:102AC000104600F071F84DE001220321022000F0D1
:102AD0006BF847E001220421002000F065F841E096
:102AE00001220421104600F05FF83BE0012204219E
:102AF000022000F059F835E001220521002000F005
:102B000053F82FE001220521104600F04DF829E08E
:102B100001220521022000F047F823E001220621CE
:102B2000002000F041F81DE001220621104600F0CF
:102B30003BF817E001220621022000F035F811E0F1
:102B400001220721002000F02FF80BE001220721CD
:102B5000104600F029F805E001220721022000F0CC
:102B600023F800BF00BF10BD00BF054A128802F065
:102B70004002002AF9D0C2B2014B1B1D1A807047D7
:102B80000038014010B50246064850F8220080681F
:102B900001248C4000EA04030BB1012010BD002089
:102BA000FCE700009C00002070B5654CA46904257A
:102BB00085402C43624DAC6108295DDA614C54F8C4
:102BC000204024688E000F25B540AC435D4D55F87C
:102BD00020502C601AB1032A01D0022A0FD10124FF
:102BE000944044F003048D00AC40564D55F82050FD
:102BF0002D682C43534D55F820502C609FE0012A3E
:102C000001D0042A2AD14F4C54F8204024688E0069
:102C10000825B5402C434B4D55F820502C60012A17
:102C20000ED1484C54F82040E46801258D4024EA38
:102C3000050301248C401C43424D55F82050EC60A4
:102C4000042A7CD13F4C54F82040E56801248C4094
:102C5000A5433C4C54F82040E56070E004249440C7
:102C60008D00AC40374D55F820502D682C43354D24
:102C700055F820502C6062E0324C54F820406468D3
:102C8000A1F10805AE000F25B540AC432D4D55F818
:102C900020506C601AB1032A01D0022A11D10124FC
:102CA000944044F00304A1F10805AD00AC40254D6B
:102CB00055F820506D682C43224D55F820506C601B
:102CC0003DE0012A01D0042A2AD11E4C54F82040AC
:102CD0006468A1F10805AE000825B5402C43194DE4
:102CE00055F820506C60012A0CD1174C256801243E
:102CF0008C4025EA040301248C401C43114D55F8F7
:102D00002050EC60042A1AD10E4C54F82040E4689C
:102D100001258D40AC430B4D55F82050EC600EE082
:102D200004249440A1F10805AD00AC40054D55F8D0
:102D300020506D682C43034D55F820506C6070BDD9
:102D4000001002409C0000200C08014030B57AB110
:102D50000D4C54F82040E46801258D4024EA050319
:102D600001248C401C43084D55F82050EC600AE0CB
:102D7000054C54F82040E46801258D40AC43024DD9
:102D800055F82050EC6030BD9C00002010B50122A9
:102D90000C211046FFF708FF01220D211046FFF716
:102DA00003FF01220E211046FFF7FEFE01220F2134
:102DB0001046FFF7F9FE012208210020FFF7F4FE7C
:102DC00001220D210220FFF7EFFE01220E21022039
:102DD000FFF7EAFE01220F210220FFF7E5FE10BDFA
:102DE0002DE9FF4F8DB08146654A116AD069FFF722
:102DF00097F96449059002F09FFF0A906048806946
:102E000080F000400490FFF7F9F85E49059002F069
:102E100093FF0B905A4A1168D068FFF781F959491E
:102E2000059002F089FF824657490B9802F084FF13
:102E30000590FFF7CBFB099053490B9802F07CFFFC
:102E4000059001F05FFD08904F490A9802F074FF69
:102E50000590FFF7BBFB07904B490A9802F06CFF07
:102E6000059001F04FFD069008990E9802F064FF5E
:102E7000049006990F9802F05FFF0090099902F004
:102E80005BFF02900799109802F056FF0090099995
:102E900002F052FF0190029902F048FD039004995C
:102EA00003F00AF93749059002F046FF0746374913
:102EB000384603F00DF800D2344F3549384602F059
:102EC00007FF00D2324F3846FFF77CFA044621460E
:102ED0004FF07E5003F0F0F83946039002F02CFFDB
:102EE00005902C480168204602F026FF04900599C1
:102EF00002F01CFD27490860274A51462748FFF782
:102F000047FC2648D0F800B02546264629464FF013
:102F10007E5003F0D1F85946039002F00DFF059062
:102F20001F480168284602F007FF0490059902F047
:102F3000FDFC804631464FF07E5003F0BDF841461F
:102F4000039002F0F9FE059016480168304602F041
:102F5000F3FE0490059902F0E9FC0C901248C0F8C9
:102F600000A00F48C0F800800E490C9808600F4878
:102F700007600AA807C889E8070011B0BDE8F08F0C
:102F800090010020E12E654235FA8E3C0000A042FF
:102F90000000A0C2980000200AD7A33B68000020D0
:102FA00054000020940000209000002050000020D9
:102FB0004FF07E5007490860002007490860074924
:102FC000086007490860074988600748C860002012
:102FD00008757047280000203400002030000020D1
:102FE0002C00002038000020CDCCCC3D0FB400B523
:102FF000A1B02598FE490E9002F09EFE25902698DD
:10300000FB490E9002F098FE26902798F8490E9002
:1030100002F092FE279027980B9001460A9002F04A
:103020008BFE0D90269809900146089002F084FED0
:103030000B90259809900146089002F07DFE0A90B9
:103040000B9902F073FC0C900D9902F06FFC0E903E
:1030500001F042FD0F90229800210E9002F09CFD9D
:103060000BD1239800210E9002F096FD05D12498F3
:1030700000210E9002F090FD7ED024980B90014626
:103080000A9002F059FE0D9023980990014608908D
:1030900002F052FE0B90229809900146089002F02F
:1030A0004BFE0A900B9902F041FC0C900D9902F036
:1030B0003DFC0E9000F080FB209022980E9020990D
:1030C00002F03AFE229023980E90209902F034FEEE
:1030D000239024980E90209902F02EFE2490C5494A
:1030E0000F9802F0F5FD7DD2C348C069099024987D
:1030F0000890099902F020FE0B90BF48006A0990E1
:1031000023980890099902F017FE0A900B9902F093
:10311000D3FF0E90B848006A099022980890099948
:1031200002F00AFE0B90B448806909902498089038
:10313000099902F001FE0A900B9902F0BDFF0D9073
:10314000AD488069099023980890099902F0F4FD30
:103150000B90A948C069099022980890099902F03B
:10316000EBFD0A900B9902F0A7FF0C90A3480E9973
:10317000006802F0E1FD00E010E30A90289902F0F7
:10318000DBFD0B909E4801680B9802F0CFFB9C4939
:1031900008609A480D99006802F0CEFD0A902899BF
:1031A00002F0CAFD0B90974801680B9802F0BEFB35
:1031B0009449086091480C99006802F0BDFD0A909E
:1031C000289902F0B9FD0B908F4801680B9802F026
:1031D000ADFB8D4908608D480E99006802F0ACFD8A
:1031E0000A9000E033E0864801680A9802F09EFBEE
:1031F0000B90259801460A900B9802F097FB2590BA
:1032000082480D99006802F097FD0A907D48016898
:103210000A9802F08BFB0B90269801460A900B98B7
:1032200002F084FB269079480C99006802F084FD36
:103230000A90754801680A9802F078FB0B9027986D
:1032400001460A900B9802F071FB279061E22798E3
:1032500001460B906E48006802F06EFD0D902698B6
:10326000014609906B48006802F066FD0B906A48C1
:10327000006880F000400990259801460890099860
:1032800002F05AFD0A900B9902F016FF0C900D996E
:1032900002F012FF4FF07C510E9002F04DFD1B909A
:1032A000269801460B905A48006802F045FD0D90A3
:1032B0002798014609905748006802F03DFD0B90A1
:1032C0002598014609905548006802F035FD0A909E
:1032D0000B9902F02BFB0C900D9902F0EDFE4FF0D4
:1032E0007C510E9002F028FD1A90259801460B9013
:1032F0004748006802F020FD0D902798014609908C
:103300004548006802F018FD0B9026980146099088
:103310004248006802F010FD0A900B9902F0CCFEC2
:103320000C900D9902F002FB4FF07C510E9002F0D0
:1033300003FD1990259801460B903648006802F06D
:10334000FBFC0D902698014609903348006802F076
:10335000F3FC0B902798014609903048006802F072
:10336000EBFC0A900B9902F0E1FA0C900D9902F037
:10337000A3FE4FF07C510E9002F0DEFC189027481F
:1033800001684FF0804002F0D7FC17902248016896
:103390004FF0804002F0D0FC16901E4801684FF0BC
:1033A000804002F0C9FC1590194801684FF0804038
:1033B00002F0C2FC149019480168006802F0BCFCDD
:1033C000139015480168006802F0B6FC129011488D
:1033D0000168006802F0B0FC11900D4801680068B7
:1033E00002F0AAFC1090239801460C90169817E062
:1033F00035FA8E3CCDCCCC3D900100201800002049
:103400001C000020200000202400002014000020C8
:1034100034000020300000202C0000202800002074
:1034200002F08AFC0E901299179802F085FC0C901D
:10343000229801460890159802F07EFC0A90119996
:10344000179802F079FC09900A9902F06FFA0B9034
:103450000C9902F06BFA0D900E9902F02DFE1F9060
:10346000249801460C90169802F066FC0E90119973
:10347000169802F061FC0C901299169802F05CFC10
:103480000A90239801460590179802F055FC079082
:103490004FF08140139902F04FFC0390C14801683E
:1034A000039802F049FC0590229801460190149877
:1034B00002F042FC03901099169802F03DFC029035
:1034C000039902F0F9FD0490059902F02FFA069095
:1034D000079902F0F1FD0890169902F0EDFD0990B0
:1034E0000A9902F023FA0B900C9902F01FFA0D9042
:1034F0000E9902F01BFA1E90249801460C90159824
:1035000002F01AFC0E901199159802F015FC0C901F
:103510001299159802F010FC0A9023980146059024
:10352000149802F009FC07901099159802F004FC19
:103530000590229801460190179802F0FDFB039038
:103540004FF08140139902F0F7FB01909648016813
:10355000019802F0F1FB0290039902F0E7F9049060
:10356000059902F0E3F90690079902F0A5FD08908D
:10357000159902F0A1FD09900A9902F0D7F90B9074
:103580000C9902F0D3F90D900E9902F0CFF91D902D
:10359000239801460C90159802F0CEFB0E904FF048
:1035A0008140119902F0C8FB0A90804801680A988E
:1035B00002F0C2FB0C90229801460890169802F087
:1035C000BBFB0A904FF08140129902F0B5FB0890C6
:1035D00076480168089802F0AFFB09900A9902F05A
:1035E0006BFD0B900C9902F0A1F90D900E9902F071
:1035F00063FD1C901C99084602F09EFB0D901D99DE
:10360000084602F099FB0B901E99084602F094FBC5
:1036100009901F99084602F08FFB0890099902F063
:1036200085F90A900B9902F081F90C900D9902F03E
:103630007DF90E9000F0C0F82090DDE91F0102F046
:103640007BFB1F9020991E9802F076FB1E9020991C
:103650001D9802F071FB1D9020991C9802F06CFBE4
:103660001C9053481F99006802F066FB0E901B994E
:1036700002F090FC1B904E481E99006802F05CFB23
:103680000E901A9902F086FC1A9049481D9900681C
:1036900002F052FB0E90199902F07CFC19904448FC
:1036A0001C99006802F048FB0E90189902F072FC19
:1036B000189028991B9802F03FFB0E903D48016836
:1036C0000E9802F033F93B49086028991A9802F0E5
:1036D00033FB0E90334801680E9802F027F9314908
:1036E00008602899199802F027FB0E902E4801686F
:1036F0000E9802F01BF92C4908602899189802F0DE
:103700001BFB0E90294801680E9802F00FF927491B
:10371000086026480168006802F00EFB0D90224800
:103720000168006802F008FB0B901E480168006801
:1037300002F002FB09901F480168006802F0FCFAE1
:103740000890099902F0F2F80A900B9902F0EEF84D
:103750000C900D9902F0EAF80E9000F02DF82090F0
:1037600014482099006802F0E7FA124908600D48F1
:103770002099006802F0E0FA0A4908600A48209996
:10378000006802F0D9FA08490860084820990068E2
:1037900002F0D2FA05490860FEF73EFE21B05DF85E
:1037A00014FB00002C00002030000020340000201A
:1037B00010000020280000202DE9F04704464FF0BB
:1037C0007C51204602F0B8FA814625462E460C4828
:1037D000A0EB660635462946484602F0ADFA824619
:1037E000294602F0A9FA80464FF07F5102F0D2FB41
:1037F0000746294602F0A0FA05462846BDE8F087AC
:10380000DF59375F1FB5FEF710F800F0B7F8FFF784
:103810006BF800224FF4E131104601F0FBF92A4821
:103820002A4B1A4601210090294800F0CBF926487E
:10383000264B1A4601210090264800F0C3F94FF0AC
:103840007C5000234FF0804219460090224800F03F
:10385000B9F9FFF79BFAFDF7E1FDFDF7E3FEFFF78E
:10386000A7FB002211461620FFF754F800220A2178
:10387000012001F047F925E01848006802F02AF815
:1038800004460D461648006802F024F806460F4626
:103890001448006802F01EF8804642460B4612A00B
:1038A000CDE90067CDE90245FCF79CFC022003232B
:1038B00000900C48012102680846FEF763F81420C6
:1038C000FEF742FFD8E700000000A04000002041C2
:1038D000F4000020280100205C010020E800002006
:1038E000EC000020F00000207961773A252E326646
:1038F000202070697463683A252E326620726F6CDE
:103900006C3A252E32660D0A0000000010B5044600
:10391000A2B20021084600F06BFF09480278062198
:103920000020FFF713FA0648007808B9012000E0EC
:103930000020024607210020FFF708FA10BD000012
:103940000000002010B50446A2B20121002000F0C2
:103950004FFF0948027800210120FFF7F7F90648D8
:10396000007808B9012000E0002002460121084645
:10397000FFF7ECF910BD00000100002010B54FF476
:103980007A720021084600F025FE0022062110462A
:10399000FFF70AF9002207211046FFF705F94FF457
:1039A0007A720121002000F015FE0022114601204C
:1039B000FFF7FAF8002201210846FFF7F5F810BDDD
:1039C00070B505460C46002D08DB01201149087032
:1039D000284602F051F91049086007E000200D491F
:1039E0000870684202F048F90B490860002C08DBB7
:1039F00001200A490870204602F03EF90849086093
:103A000007E0002005490870604202F035F90449DA
:103A1000086070BD00000020F400002001000020BC
:103A2000280100202DE9F0410446D4E9000102F00C
:103A300043FBA060206B01282DD1D4E9020102F0E4
:103A40003BFB0546616902F077F92062A168A06935
:103A500002F072F9A0624FF08040E16802F06CF968
:103A60000746A16802F096FA0646216901F05EFF5A
:103A70000546E16902F060F96062A16A206A01F01E
:103A800055FF0646616A01F051FF0546E16A01F003
:103A90004DFFE06221E0206BF8B9A168606902F097
:103AA0004BF92062A168A06902F046F90546A16AB7
:103AB00001F03CFFA062D4E9020102F0FDFA0546E4
:103AC000E16902F039F96062A16A206A01F02EFF13
:103AD0000546616A01F02AFFE062E1682161A168A0
:103AE000E160BDE8F081000070B52D482D49086007
:103AF0002D48006848600846FFF794FF2949C86AC6
:103B000002F07EF806462748C06A80F00045284645
:103B100002F076F804463146FFF752FF234800785A
:103B200030B12348006802F0A7F82249486006E057
:103B30001F480068404202F09FF81E4948601E4836
:103B4000007830B11D48006802F096F81C494860C2
:103B500006E01A480068404202F08EF818494860B2
:103B6000002013490860154908601248FFF75AFF02
:103B70001348FFF757FF0F4800F02CF8104800F0EB
:103B800029F80C49C86A02F03BF80446FFF7BEFE6C
:103B90000B49C86A02F034F80446FFF7D3FE70BD43
:103BA0000000A0C15C010020F00000200000002007
:103BB00004000020F4000020010000200800002084
:103BC0002801002010B5029C016342618361C46139
:103BD00010BD000010B504460749E06A02F078F90C
:103BE00001D80548E0620021E06A02F071F801D8CE
:103BF0000020E06210BD0000005043472DE9F04D69
:103C00001D460C4698B0174621F0004123F00043B2
:103C1000002814BF4FF0010C4FF0000C0CEB440CCB
:103C2000FE4A0CEB02064FEA620C66452BD33E00BF
:103C300018BF012606EB45061644F94A964222D3E0
:103C4000F84A53EA070C02D0944205D148B918B09B
:103C500000201146BDE8F08D002808BF4FF0000C91
:103C600001D04FF0010C0CEB440212F5001F0AD8F2
:103C7000002F14BF4FF0010C4FF0000C0CEB45026D
:103C800012F5001F07D918B03A462B462146BDE869
:103C9000F04DFEF7CFB80022DFF88CA3002CB8BFA0
:103CA000534526DADFF884C36345A8BF022220DA31
:103CB000DFF870C39C451CDCDFF874C30CEB235C9D
:103CC000BCF1140F08DDCCF1340627FA06FC0CFA1F
:103CD00006F6BE420DD108E05FB9CCF1140623FA16
:103CE00006FC0CFA06F69E4203D10CF00102C2F16A
:103CF000020251EA000C19D1002D17DA002C18BF6E
:103D0000022A01D0012A07D00220FCF707FB18B0D5
:103D1000BDE8F04DFEF786B80220FCF7FFFAFEF78B
:103D200081F818B081F00041BDE8F08DB7F1000CCA
:103D30006CD1534525D104F1804212F5801201BFA8
:103D400000280020B74918B008BFBDE8F08DB5487D
:103D5000884207DC002DA1BF6046294618B0BDE8A7
:103D6000F08D07E0281E05DA80F0004118B06046AB
:103D7000BDE8F08DAF497944D1E9000118B0BDE844
:103D8000F08DDFF8A0C2634525D1002D1FDA19B1EF
:103D9000514512D1D8B909E0002840F0EC82A24A7E
:103DA000214618B062F31E01BDE8F08D00202146C7
:103DB00018B060F31E01BDE8F08D08DA18B0234694
:103DC000BDE8F04D02460020614601F085B818B00C
:103DD0002146BDE8F08D514518DAB5F1804F0DD080
:103DE000A5F1005CBCF1FF5C10D1B4F1000C0DDB5F
:103DF00018B06146BDE8F04D00F048BE234618B04B
:103E00000246BDE8F04D194601F054BA060024F010
:103E1000004C3BD1D9B1514533D1002C06DD002DEA
:103E2000A1BF0020514618B0BDE8F08D002C01DD87
:103E3000002D1BDB002C13DA002D11DB012A4FF0C3
:103E4000000014BF78497C4918B0BDE8F08D022A03
:103E500018BF002C0AD0012A08D1002C06DA0AE08B
:103E6000002CB8BF002D11DA012A04D0002018B0B0
:103E70000146BDE8F08D18B000204FF00041BDE8CC
:103E8000F08DA1F14050B0F17F601AD0012000EB1D
:103E9000E47050EA020421D0624C521E4FF0000B35
:103EA000104304BF4FF0000B644C654883427CDD37
:103EB000644A654893421FDD884217DB002D25DBED
:103EC00037E0002C00DA4AB1022A0CBF01204FF083
:103ED000FF3018B0BDE8F04D01F085B90120FCF7C6
:103EE0001DFA18B0BDE8F04DFDF7A6BF4D4A8A4255
:103EF00002DC002D0ADC1CE0814202DA002D18DA17
:103F000004E0484B994220DD002D12DD0220FCF731
:103F100005FAFDF797FF05460E4600225346584620
:103F2000214601F0C7F918B066F31E012846BDE826
:103F3000F08D0220FCF7F2F9FDF78CFF0A462146CE
:103F400018B062F31E01BDE8F08D002230466146D4
:103F500001F0D6FB80460E466FF0010202F055F9E3
:103F60004FF05532394B01F0D9FA4246334601F051
:103F7000A1F90022364B01F0D1FA8246424633467F
:103F800004911046194601F095F95246049B01F040
:103F900091F98A4600904FF0C0422E4B4046314680
:103FA00001F088F92C4A2B4B00E027E0CDE906010F
:103FB0005146009801F07EF982460191274A284B2C
:103FC0004046314601F076F95246019B01F098FBDC
:103FD00082460B4602460591DDE9060100F0C0FE6F
:103FE000DDE9062300268846304601F089FB52466B
:103FF000059B01F093FA024600F07EB90020B1F56E
:10400000801F07DA35223046614602F0FEF8064688
:104010006FF0340000EB215024E00000FFFF1F0090
:10402000FFFF0F000000F03F0000F07F0000404362
:1040300001FCFFFFF62B00000000F0FF0000F0BFC6
:104040000000E0410000F043FFFFEF3F5555D53F32
:104050000000E03F4715F73FFE822B6544DF5DF827
:104060000BAE543EA0F2FF300190C1F3130040F0BC
:104070007F6141F040510291FE498842D8BF002043
:1040800004DDFD498142C8BF012001DD0D9008E03B
:1040900000200D900198401C01900298A0F580101E
:1040A00002900299F54878440B910D9900EBC100FC
:1040B000D0E900230F9330460A920B9901F020FBC0
:1040C000CDE90601DDE90A2130460F9B00F048FEEC
:1040D00002460B460020EA4900F0FEFE059102462A
:1040E0000B460090DDE9060101F0E4F81490E54884
:1040F0008A464FF0000878440299006812904FF009
:10410000005040EA61010D980F9B01EB804000F5E3
:10411000002109910A9A129801F0F2FA32460B9B9B
:1041200001F0FCF94246534601F0C4F806460291FC
:1041300040465146099B129A01F0BCF8DDE906237E
:1041400001F0ECF93246029B01F0DAFA059B009A85
:1041500001F0B0F80091149A0490534610461946A5
:1041600001F0A8F806460246C7480B460291062110
:104170007844FDF702FECDE90510029B3246104659
:10418000194601F097F8DDE9053201F093F8059141
:104190000646534640461946149A00F0E1FD009B3E
:1041A000049A01F087F83246059B00F0D9FDCDE96D
:1041B0000510424653461046194601F07BF800228E
:1041C000B24B02910A9000F0CBFDDDE9053200F020
:1041D000C7FD0E464246AD4B404601F091FA029BA8
:1041E0000A9A01F08DFADDE9053201F097F94246AD
:1041F00002910A9033461046514601F05BF8CDE932
:1042000006015346149A02990A9801F053F88A4617
:104210000290334642460099049801F04BF8534609
:10422000029A00F09DFD82460B4602460591DDE9AB
:10423000060100F095FDDDE90623002088460646CC
:1042400001F05EFA5246059B01F068F98246099139
:104250004FF060428E4B3046414601F02BF80490FF
:1042600006918C4A8A4B5046099901F023F8824600
:104270000291894A894B3046414601F01BF852466B
:10428000029B00F06DFD864B7B440D9A03EBC2034D
:10429000D3E9002300F064FD0E900791019800F02F
:1042A000A2FF0591DDE9061382460E9A049800F0FC
:1042B00057FD7C4A7A440D9B02EBC303D3E90023EC
:1042C0000093029200F04CFD5246059B00F048FD21
:1042D0000026884652463046059B01F011FA009BA5
:1042E000029A01F00DFA069B049A01F009FA079B65
:1042F0000E9A01F013F9024600200B460290384650
:10430000294600F0D7FF824601912B4638461946D0
:10431000029A01F0F5F93246434600F0CBFF5246CF
:10432000019B00F01DFD07468A463246434629465A
:10433000029800F0BFFF05460E463A46534600F08D
:104340000FFD594A8846914221DBA8EB020353EA4C
:10435000000210D12A46334601F0D2F9CDE904011A
:10436000524A534B3846514600F0FAFCDDE904232B
:1043700001F09EF821D20220FBF7D0FFFDF762FD8D
:104380000A46214618B062F31E01BDE8F08D494B84
:1043900028F000429A4210D3474A08EB020353EA3E
:1043A00000027FF4C6AD2A46334601F0A9F93A4629
:1043B000534601F07DF87FF6BCAD0022019228F053
:1043C00000403E493E4A01EB2051824223DA481C1C
:1043D0004FF4801121FA00F040443A4AC0F30A51E8
:1043E0007A44394BA1F2FF31CB4020EA0303C0F3FA
:1043F000130040F48010C1F11401C840126801900C
:10440000B8F1000FBCBF404201902846314601F090
:1044100077F905460E462A4633463846514600F09F
:104420009FFC4FF000084246284B4046059100F0A3
:1044300041FFCDE90601264A264B4046059900F08A
:1044400039FF009102902A4633464046059901F013
:1044500057F93A46534601F061F81F4A1F4B00F0E6
:1044600029FF009B029A00F07BFC07468846024623
:104470000B4635E08E9803007AB60B003E2800000C
:104480000000F03F76280000A4270000000008404C
:1044900009C7EE3FFD033ADCF5015B14E02F3EBE99
:1044A0007C2600004026000000009040FE822B6524
:1044B0004715973C00CC904000346F3F01FCFFFF54
:1044C0000000E03F8C250000FFFF0F00432EE63F79
:1044D000396CA80C615C20BEEF39FAFE422EE63F33
:1044E000DDE9060100F03CFCDDE9062305460E4649
:1044F00001F006F93A46434601F010F80F462A4605
:10450000334600901046194600F0D4FE824602461B
:104510002E4888460B4605217844FDF72EFC52466E
:10452000434600F0C7FE2A46334600F0F7FF8046B8
:104530008A463B4628463146009A00F0BBFE3B4681
:10454000009A00F00DFC0691009000224FF080438D
:104550004046514601F0D4F80F460C90424653466F
:104560002846314600F0A6FE3B460C9A00F0B4FC0B
:10457000069B009A01F0C4F82A46334601F0C0F8C1
:104580000022134B00F0CAFF054601980E4601EBCE
:1045900000510815002810DC28463146019A01F028
:1045A00034FEFDF7C3FB042808BFFDF753FC284683
:1045B0003146019A01F029FE05460B4618B02A46FD
:1045C00058462146BDE8F04D00F074BE2C24000092
:1045D0000000F03F2DE9F04104460D4616462846FE
:1045E000E91705EB91718910A5EB8101491CCFB248
:1045F0005148C0690121A14008434F49C8614F4853
:1046000090FBF6F0401E4E4951F824108885472053
:104610004B4951F824100885284600F093F8012FE3
:1046200006D0022F1ED0032F36D0042F69D14DE0C3
:10463000434850F82400008B40F06000404951F896
:10464000241008833E4850F82400008B40F00800F6
:104650003B4951F8241008830020394951F82410AF
:1046600088864EE0364850F82400008B40F4C04065
:10467000334951F824100883314850F82400008B46
:1046800040F400602E4951F82410088300202C4982
:1046900051F82410088734E0294850F82400808B12
:1046A00040F06000264951F824108883244850F8CF
:1046B0002400808B40F00800214951F824108883A1
:1046C00000201F4951F8241088871AE01C4850F830
:1046D0002400808B40F4C040194951F8241088838D
:1046E000174850F82400808B40F40060144951F8BA
:1046F000241088830020124951F82410A1F84000AA
:1047000000BF00BF0E4850F82400008C791E8A00BC
:104710000121914008430A4951F8241008840848AF
:1047200050F82400008840F08100054951F8241019
:104730000880BDE8F08100000010024040420F00F8
:10474000A800002010B504460C2C4FD2DFE804F07E
:10475000060C12181E242A30363C4248032200213F
:104760000846FEF721FA41E0032201210020FEF76E
:104770001BFA3BE0032202210020FEF715FA35E088
:10478000032211460020FEF70FFA2FE00322062134
:104790000020FEF709FA29E0032207210020FEF796
:1047A00003FA23E0032200210120FEF7FDF91DE0BA
:1047B000032201210846FEF7F7F917E0032206213C
:1047C0000120FEF7F1F911E0032207210120FEF795
:1047D000EBF90BE0032208210120FEF7E5F905E0E3
:1047E000032209210120FEF7DFF900BF00BF10BD41
:1047F0002DE9F84F04460D4617462846E91705EB04
:1048000091718910A5EB8101491C01F0FF084CF260
:104810005030874200DB0746384850F82400868D28
:10482000B8F1010F09D0B8F1020F1DD0B8F1030F94
:1048300031D0B8F1040F5DD144E0701C01F01CFAD6
:104840008346384601F030FA2D49009001F0E2F835
:104850008246594601F070FA814601F0EDF9274988
:1048600051F82410888645E0701C01F005FA00908C
:10487000384601F019FA8346214901F0CBF8824607
:10488000009901F059FA814601F0D6F91B4951F817
:10489000241008872EE0701C01F0EEF900903846D5
:1048A00001F002FA8346164901F0B4F882460099F5
:1048B00001F042FA814601F0BFF9104951F8241085
:1048C000888717E0701C01F0D7F90090384601F096
:1048D000EBF983460A4901F09DF88246009901F000
:1048E0002BFA814601F0A8F9044951F82410A1F8E7
:1048F000400000BF00BFBDE8F88F0000A800002006
:10490000005043472DE9F8430446024652486946A1
:10491000B0EB420F09D94FF0E640B0EB420F94BF25
:1049200000204FF0FF30009030E04C4B22F0004070
:10493000834271D94A49204601F0FEF901F0FAFAA2
:10494000804601F05DF900F00300009045494046C3
:1049500001F0F2F905464449404601F0EDF90646FA
:104960004249404601F0E8F907464149404601F016
:10497000E3F9214601F00EFB394601F09DFB31467B
:1049800001F09AFB294601F097FB04462546009C5E
:10499000002C45DB294614F0010F08461ED001F01B
:1049A000CBF90546334901F0C7F9334900F0BEFFA2
:1049B000294601F0C1F9314900F0B8FF294601F05C
:1049C000BBF94FF07E5100F0B1FF14F0020F08BFA9
:1049D000BDE8F88380F00040BDE8F88301F0ACF951
:1049E0000646274901F0A8F9264901F0D3FA3146D5
:1049F00001F0A2F9244900F099FF314601F09CF939
:104A0000294601F099F9294600F090FF14F0020FB1
:104A1000E0D1BDE8F883FFE71046FDF731FAB4E7CF
:104A20006800B0F17F4F09D22846FDF793F90428BA
:104A300008BFFDF720FA2846BDE8F88306D101201B
:104A4000FBF76CFCBDE8F843FDF711BA2846BDE85A
:104A5000F843FDF707BA0000B61F927E490E49469B
:104A600083F9223F1A61342C0020A23300A0FD39C3
:104A70000000C93FB93AB2BACA9F2A3DDDFFFFBE66
:104A8000336D4C39DA82083CA0AA2ABE2DE9F041E8
:104A900006460F4600F04EFD041E0D4618BF0120CD
:104AA000284320F00040C0F17F6000F1E040C00FDB
:104AB0000ED0301C18BF0120384320F00040C0F158
:104AC0007F6000F1E040C00F04BF0120FBF726FC2F
:104AD00020462946BDE8F08170B5054601F064FA2C
:104AE000044620F00040C0F1FF40C00F08D025F080
:104AF0000040C0F1FF40C00F04BF0120FBF70EFCD7
:104B0000204670BD70B504460D4616461748C0696C
:104B10000121A14008431549C86105EB850040000B
:104B2000401E134951F82410888541F61F40104952
:104B300051F8241008850E4850F82400008840F0F1
:104B400001000B4951F824100880094850F824004E
:104B5000808940F00100064951F82410888104F151
:104B60001C00C1B23046FCF7C3FD70BD001002400E
:104B7000A80000202DE9F04F89B081468A46B9F19E
:104B8000000F01D11F4C00E01F4C4FEA0A1094FBAC
:104B9000F0FB584600F03EFBCDE90401504600F022
:104BA00022FB07460022194B00F084FB05460E4607
:104BB000204601F061F8074600F08CFE2A46334695
:104BC000CDE9000100F088F9CDE90201DDE9042317
:104BD00000F096FDCDE9060100F090F808904FF046
:104BE0008341089801F0A8F80890089801F024F88B
:104BF00000EB0B10064951F82910088109B0BDE8F7
:104C0000F08F000000A24A0400512502000030404D
:104C1000B400002070B504460E46154634B9144859
:104C2000806940F480401249886108E01048C069FA
:104C300004F1100101228A4010430D49C861204649
:104C400000F01AF831462046FFF794FF094850F863
:104C50002400808942F22C010843064951F82410AF
:104C6000888104F12500C1B22846FCF741FD70BDE2
:104C700000100240B400002010B5044624B1012CFD
:104C80000DD0022C21D115E0032209210020FDF7CF
:104C90008BFF04220A210020FDF786FF15E0032286
:104CA00002210020FDF780FF042203210020FDF7F0
:104CB0007BFF0AE003220A210120FDF775FF042291
:104CC0000B210120FDF770FF00BF00BF10BD0000E9
:104CD00010B500290AD00878002807D00548784484
:104CE000FBF792FE002801D0002010BD0248784456
:104CF00010BD00006E1D0000661D000021F0004286
:104D0000A2F16052B2F5801F01F0004328BFD2F13A
:104D10007F6C0BD95FEA001C43EAC20242EB507081
:104D200018BF704728BF20F001007047B2F5801F00
:104D3000BCBF184670474FEA410C1CF5001F02D259
:104D4000084601F0C0B870B500F05EFB00000089B5
:104D5000FFF7F6BF4FF00040A0F58000704700005D
:104D600010B591EA030F48BF83F0004300F1D084EF
:104D7000841A71EB030C05D2121943EB0C03001BD0
:104D800061EB0C01DFF824E14FEA1154A4EB135C52
:104D90001EEA430F18BF9EEA445F73D023EA0E0356
:104DA000DCF1200E21EA045143F4801332D322FABD
:104DB0000CFE10EB0E0023FA0CFE41EB0E01CCF1C1
:104DC000200E03FA0EFE10EB0E0051F10001B1F5BA
:104DD000801FCCF1200E32D201EB045112FA0EF2F8
:104DE000BDE8104058BF7047401C38BF5FEA420220
:104DF00018BF7047002814BF20F0010041F10001E6
:104E00004FEA410313F5001F38BF7047A1F1C041BD
:104E100000F048BB012A43EB0302ACF1200CDCF1AB
:104E20001F0E32BF4FF0000E23FA0CF310EB0300FD
:104E300041EB0451B4EB115FD0D0A1EB045101F56B
:104E4000801149085FEA300001EB04510ED350F1A4
:104E5000000038BF12FA0EFE08D1BDE81040C9E7C5
:104E6000401C38BF5FEA4202CAD1C3E7BDE8104028
:104E70004FEA410313F5001F38BF7047A1F1C0414D
:104E800000F010BB9EEA445F08D011EA5E0FBDE857
:104E9000104004BF01F0004100207047BDE8104001
:104EA00070B500F0B1FA00BF64FBBE3E0000E0FF49
:104EB00002494FF0000001F076B900BF0000F87F12
:104EC000491058BFC1F140415B1058BFC3F1404386
:104ED0008B42EFF3008070472DE9C04130B4DFF81A
:104EE000A0C23CEA111418BF3CEA131400F0EC8095
:104EF00081EA03051CEA111444EAD57418BF1CEAC0
:104F0000131500F0C780A4EB05044FF0004545EAF7
:104F1000C12145EAC32341EA505143EA525304F107
:104F20007F74994204F500344FEAC0204FEAC22250
:104F300008BF904200F09C804FEA13650FF24016C4
:104F4000765D4FEA134506FB05F7C7F1807706FB50
:104F500007F74FEAD737A7FB03687642C8F58038D2
:104F6000A7FB06CE38BFA8F1010807FB08E64FF003
:104F7000000EA6FB028CE6FB03CEDCF1000CCEF1AA
:104F8000004E38BFAEF1010EA6FB0C584FF00007E3
:104F90004FF00005E6FB0E87A1FB08C6A0FB07CE7D
:104FA00016EB0E0645F10005E1FB076515F1E04E35
:104FB0007EBFA4F580345FEA46066D4116F1800796
:104FC00045F100054FEA17274FEA066647EA0567ED
:104FD000A6F1DE46B6F1805F4FEA15251FD93846A7
:104FE00024F0010C05EBC471BCF1FE6F01EB0C1158
:104FF00002D8F0BCBDE8008124425CBF01F5801EF0
:105000009EEAC47F02D4F0BCBDE80081244238D4BB
:10501000F0BCA1F1C041BDE8004100F043BA4FEA45
:10502000D22242EA43524FEAD323A7FB02864FEA39
:10503000D02040EA415007FB03661EEA0E0F4FEAFC
:10504000D12105FB026658BFA6EB0056B6EB005611
:105050004FEA520E4EEAC37E18EB0E0E56EB530E7D
:10506000BDD518EB02085E417F1C55F10005B6E77F
:105070004FF480154FF000074FF000064FF0000886
:10508000ADE7F0BC4FF0000001F1C04101F000417C
:10509000BDE8008111EA0C1F0CEA131500D00CE0EA
:1050A00013EA0C1F00F025804FF00000F0BC81EAED
:1050B000030101F00041BDE80081F0BCBDE8004102
:1050C00081EA030100F0EEB9F0BCBDE8004170B523
:1050D00000F09AF9097EFC3E00F007B881EA03016E
:1050E0004FF0000001F00041704781EA030100F039
:1050F000D9B9F0BCBDE800414FF00000214970472C
:10510000FFFDFBF9F7F5F4F2F0EEEDEBE9E8E6E48C
:10511000E3E1E0DEDDDBDAD8D7D5D4D3D1D0CFCD13
:10512000CCCBCAC8C7C6C5C4C2C1C0BFBEBDBCBB4C
:10513000BAB9B8B7B6B5B4B3B2B1B0AFAEADACAB47
:10514000AAA9A8A8A7A6A5A4A3A3A2A1A09F9F9E21
:105150009D9C9C9B9A9999989797969595949393D3
:10516000929191908F8F8E8E8D8C8C8B8B8A89896A
:1051700088888787868585848483838282818180ED
:105180000000FF070000F87F4FEA41034FEA535346
:10519000A3F58063D3F11E03C8BFD3F1210C0CDD4E
:1051A0004FF0004242EAC12242EA505232FA03FC76
:1051B0008CEAE17CACEBE1707047102BC4BF00209F
:1051C000704703F5787CBCF1FF3F04D06FF00042DC
:1051D00082EA2100704770B500F016F949922480E8
:1051E00000207047F2E710F0004248BF4042B0FA9A
:1051F00080F310FA03F10AD0C3F11D0303F58063B5
:105200004FEA415002EB035202EBD12170474FF0BD
:1052100000007047B0FA80F310FA03F10AD0C3F12E
:105220001D0303F580634FEA41504FEA035202EB3E
:10523000D12170474FF000007047000051EA030C85
:1052400017D41CF5801F58BFBCF5801F00F10680E5
:10525000994218BF704708BF9042704707D711F5B1
:10526000801F58BF13F5801F19D499427047894297
:1052700070471CF5801F08D5BCF5801FF7D58B4201
:1052800018BF704708BF824270474FF4001C1CEBE8
:10529000410F38BF1CEB430F01D28B42704770B5F2
:1052A00000F0B2F8922449004FF000514FF08053C3
:1052B000FFF706BEDFF848C170B51CEA111E1EBF1D
:1052C0001CEA13159EEA0C0F95EA0C0F00F06F8094
:1052D00081EA030423EA4C134EEAD47E21EA4C11FE
:1052E00041F4801143F48013AE44A1FB024CA0FBB7
:1052F0000365AEF17F7E361955EB0C05A1FB034C1F
:105300004CF10003A0FB021C16EB0C06654153F1A7
:105310000003094218BF46F0010613F4007F0BD1C9
:105320004FEA03314FEA0530340341EA155140EAB0
:1053300016506FF003020AE04FEAC3214FEAC5207E
:10534000F40241EA555140EA56506FF0020202EB76
:105350002E4201EB025585EACE710AD05FEA440C79
:1053600018BF24F0004450F1000041F1000120EA90
:10537000D47040F2FE7C624500D270BDA84214BFDA
:105380004FF080444FF04044002E08BF0024BEF18F
:10539000806FA8BFA1F1C041BDE8704080F282805B
:1053A0004FF0000001F1C04101F0004170479EEA5A
:1053B0000C0F0CEA131518BF95EA0C0F06D04FF02E
:1053C000000081EA030E0EF0004170BD00F01CF8F1
:1053D0008900013E00F007B800F009B84FEA430C1D
:1053E0005FEA5C5C08D081EA030100F05BB84FEA39
:1053F000410C5FEA5C5CF6D14FF000000149704758
:105400000000FF070000F87F0EF1020E2EF0030EE1
:105410005EF8046B364205D4012A43EB030515F50B
:10542000001F12D8012841EB010C1CF5001F0CD8FD
:105430000ED14FEAD17C15F5001F0CEB4C0C0CF192
:10544000020C08BF4CEBD37C04E04FF0080C01E0E9
:105450004FEAD37C0CEB4C0526FA05F606F007065E
:10546000B6F1040C06D20EEB860CBDE870404CF091
:10547000010C6047DFE80CF0090B02024FF000411D
:105480004FF00000A1F5002170BD1946104601281B
:1054900051EB010418BFD4F5001484BF002001F0C3
:1054A000004170BD0808A0F500114FEA31017047B6
:1054B00053EA010C17D41CF5801F58BFBCF5801FA0
:1054C00000F106808B4218BF704708BF82427047C8
:1054D00007D713F5801F58BF11F5801F19D48B42D1
:1054E00070479B4270471CF5801F08D5BCF5801F94
:1054F000F7D5994218BF704708BF904270474FF4E4
:10550000001C1CEB430F38BF1CEB410F01D299422A
:1055100070470FB40CBC03BCFFF7C1BE91EA030F88
:1055200010B581F000413FF523AC83F0004300F05B
:10553000EFB800002DE9F04101F5801CBCF5001F1B
:10554000C0F2C3804FEA115C21EA0C510CF1FD0C52
:1055500041F480115FEA5C0C0CF5C07C01D3400083
:1055600049413DA4890241EA905187028E0E0A0CFE
:10557000A45D04FB04F602FB06F6C6F14046A4FB5C
:105580000662F60D46EA422606FB06F4A4FB01235A
:105590005242C3F1404338BF5B1EA6FB02420024C7
:1055A000E6FB0324D20B42EA4446A6FB0623A1FBFA
:1055B00002E2A3FB07E4A4184FF0000252F100023C
:1055C000E3FB01426442C2F1404E38BFAEF1010E2E
:1055D000A6FB04234FF00002E6FB0E32A2FB0346BB
:1055E0004FF00004B61954F10004E2FB0264A1FB81
:1055F00006E6A4FB07E816EB08064FF0000858F192
:105600000008E4FB01687642C8F1405838BFA8F1B1
:105610000108A2FB06E4A3FB08E52D194FF00004E6
:1056200054F10004E2FB0854A1FB05E6A7FB04E8E3
:1056300018EB06084FF0000656F10006E1FB048661
:1056400018F1200556F10006A809A8F11B08B109B8
:1056500008F03F08B8F10A0F40EA86601CD901EB58
:105660000C51BDE8F08100BFFCF5EEE8E2DDD8D3D7
:10567000CFCBC7C3C0BDB9B6B4B1AEACA9A7A5A3C3
:10568000A19F9D9B9A9896959392908F8D8C8B89D4
:105690008887868584838281A0FB006800FB01F2F5
:1056A00008EB4208B8EB872807D5341858EB0104FB
:1056B000D5D5401C51F10001D1E7341A78EB010433
:1056C000CDD4401E71F10001C9E75FEA4C0C5FEADE
:1056D0009C5C0DD105D34FF0000001F00041BDE806
:1056E000F081BDE8F04170B5FFF78EFE6DDBFFBEC7
:1056F000BDE8F0414FF00000004970470000F87F1E
:1057000010B591EA030F48BF83F000433FF530AB7B
:10571000841A71EB030C07D212198CF0004C43EB86
:105720000C03001B61EB0C01DFF8A4E14FEA1154FC
:10573000A4EB135C1EEA430F18BF9EEA445F00F01F
:10574000B08023EA6E03524221EA0451C3EB6E0398
:1057500038BF5B1EDCF1200E25D322FA0CFE10EBC5
:105760000E0043FA0CFE41EB0E01CCF1200E03FAC1
:105770000EFE10EB0E0051F10001CCF1200E29D4E9
:1057800012FA0EF201EB0451BDE8104058BF704709
:10579000401C1CBFB2F1004F704700280CBF491CD1
:1057A00020F00100704712EB020E43EB030218BF1A
:1057B0004FF0010E4EEA4202ACF1200CDCF11E0E5D
:1057C00054D943FA0CFE10EB0E0051F1FF31CCF12D
:1057D0001E0ED5D50EF1010E12FA0EFE404141EB20
:1057E000010101EB445C5FEA5C5C10D910EBDE70F8
:1057F00001EB045138BFBEF1004FBDE8104018BFA7
:10580000704700280CBF491C20F00100704730D2BF
:105810004FEAD42C11F5001124F400641BD0B1FA26
:1058200081F20B3AA41AA41ED2F12003914030FA5F
:1058300003F31943904001EBCC71002C01EB0451B0
:10584000BDE81040A8BF704701F1C0414FF0000013
:1058500001F000417047B0FA80F310FA03F100D173
:1058600010BDE41A173C4805C90AE4E701EB0451EE
:1058700010BD491001EB0451BDE810404FEA300063
:1058800002E04FF0000170474A0008BF0042F8D024
:10589000B2F5001F28BF704701F000414FF0000033
:1058A00070479EEA445F07D011EA5E0FBDE81040E2
:1058B00004BF002100207047BDE8104070B5FFF71D
:1058C000A3FD00BF40DFF63E83F000411046704765
:1058D0000000E0FF43004FEAD30C4FEA3C0C43408A
:1058E0001FBF40070CF1605113F0FE4F70471CF0D2
:1058F000006F03D100200CF0004170470CF0004312
:1059000043EA507010B540EACC0000F096FA00BFB0
:10591000000000924FEA0001FFF7C4BD4FF00041C4
:105920004FF00000A1F500217047000090EA010F40
:1059300048BF81F0004100F1C683421A3CBF801A83
:1059400089184FEAD0524FF07F4C1CEA410FA2EB6E
:10595000D15318BF9CEA026F00F03B804FF0004C1F
:105960004CEA00204CEA012121FA03FC10EB0C0C5C
:105970001ED202F1FF325FEA1C2040EBC25038BF5A
:1059800070471CF07F0F4FEA400C18BFBCF17F4FEF
:1059900038BF7047C3F12003994008BF20F00100D1
:1059A000BCF17F4F38BF7047A0F1C04000F08BBA08
:1059B0004FEA3C00000A40EBC25028BF1CF0FF0F2A
:1059C0004FEA400CE6D018BFBCF17F4F38BF70479C
:1059D000EAE79CEA026F05D010EA5C0F08BF00F00E
:1059E0000040704710B500F028FA00BF64FBBE3ECF
:1059F000014800F0D8BB00BF0000C07F401058BF76
:105A0000C0F14040491058BFC1F140418142EFF31D
:105A1000008070474FF47F0C1CEAD0121EBF1CEAB6
:105A2000D11392EA0C0F93EA0C0F00F0858090EAF4
:105A3000010F48BF42F4807240F4000C41F40000B2
:105A40002CF07F4120F07F4000B58142A2EB0302A1
:105A50000FF2081CACEB504EC0F100009EF800E0C5
:105A60004FEA4E0E00FB0EFC38BF49004FEA2C1CDB
:105A700002F5FA020CFB0EF34FEACE1E4FEA112C90
:105A80004FEAC1210EEB635E42EB22420EFB0CFC9F
:105A90004FEA1C5300FB03114FEA112C4FEA01316E
:105AA0000EFB0CFC4FEADC4C00FB0C11C14228BF82
:105AB00009184CEB03335DF804EB10EB410143EBA9
:105AC000C250B2F57C0F38BF704729D512F0F00FE5
:105AD0001CBF00F1C04000F000407047008182838D
