:020000040800F2
:1000000028070020A1010008A9010008AB01000891
:10001000AD010008AF010008B101000800000000B8
:10002000000000000000000000000000B301000814
:10003000B501000800000000B7010008B901000880
:10004000BB010008BB010008BB010008BB010008A0
:10005000BB010008BB010008F911000811120008DB
:1000600029120008651200087D120008BB01000873
:10007000BB010008BB010008BB010008BB01000870
:10008000BB010008BB010008BB010008BB01000860
:10009000BB010008BB010008BB010008B912000841
:1000A000BB010008BB010008BB010008BB01000840
:1000B000651B0008851B0008A91B0008BB01000880
:1000C000BB010008BB010008BB010008BB01000820
:1000D000BB010008C51B0008E11B0008FD1B000850
:1000E000BB010008BB010008BB01000800F002F8DA
:1000F00000F047F80AA090E8000C82448344AAF17B
:100100000107DA4501D100F03CF8AFF2090EBAE878
:100110000F0013F0010F18BFFB1A43F0010318473B
:100120000440000024400000103A24BF78C878C181
:10013000FAD8520724BF30C830C144BF04680C60ED
:10014000704700000023002400250026103A28BF35
:1001500078C1FBD8520728BF30C148BF0B60704739
:10016000662903F0CE86002070471FB500F0F2FA32
:1001700004000020002102F0E1FEE0601FBD10B588
:1001800010BD00F003FC1146FFF7EFFF02F0D0F9BD
:1001900000F021FC03B4FFF7F2FF03BC01F0B7FD50
:1001A0000948804709480047FEE7FEE7FEE7FEE70B
:1001B000FEE7FEE7FEE7FEE7FEE7FEE70448054947
:1001C000054A064B70470000051B0008ED000008BB
:1001D00028010020280700202803002028030020F1
:1001E000704700000FB4044910B503AA029800F04C
:1001F0009FFA10BC5DF814FB340000202DE9F04795
:100200004FF0000A89460446C0F820A02046E16865
:100210008847002876D0252806D0D4E901219047C8
:10022000206A401C2062F1E7E168204600258847EB
:10023000C4F81CA006460027C4F818A02A2E09D02E
:10024000304601F05DFD38B304EB8708303EC8F856
:10025000186019E059F8041B204604EB87029161ED
:10026000E1688847012F064618D1E069002820DAA6
:1002700025F020051DE0D8F8180000EB800006EB03
:1002800040003038C8F818002046E1688847064624
:1002900001F036FD0028EED1012F0AD02E2E08D114
:1002A0002046E16888477F1C0646022F45F020055E
:1002B000C4DBA069002803DA404245F00105A061D3
:1002C000E80701D025F01005B6B1A6F141001928C4
:1002D00002D8203645F400654A463146204625605E
:1002E0004D46FFF73DFF58B1012806D0ED1D25F022
:1002F000070000F1080989E704E005F1040985E732
:1003000030468AE7206ABDE8F0877047704770473B
:10031000704770472DE9FF4F0C461E464FF0FF37E0
:100320008BB0D2E90001DDF860800A908A46C1F303
:100330000A5505B93D46002108464FF00000BAF1C4
:10034000000F00F4400005DA00EB80004FF440019C
:1003500001EA50004FEA9059B9F1010F00DDB946AA
:100360000A9850EA4A000ED044F61050A5F2FF3524
:1003700045432F14B8F1000F1ED07542291E1EDD13
:10038000C9F100021CE0B8F1010F4FF0000001D0EC
:10039000302103E0F24305E02154401CB042FBDB76
:1003A00030460022002121540B99C1F80880C1E990
:1003B00000200FB0BDE8F08FBD1B6D1CDEE74A4684
:1003C00000DA694206A800F067FA06AB93E8070076
:1003D00003AB83E8070050460A9900F045FB8DE81F
:1003E0000700A0F500501F3800900398002D0ADD8B
:1003F00042F21F014A460844002303A903906846BD
:1004000000F0AEFD09E0A0F500504A461F38002379
:1004100003A90390684600F0B8FD8DE807000004CA
:10042000000C03D04FF0FF30410800E01046B8F157
:10043000000F03D00022009215461EE0751E05D461
:1004400000F08CF9303262556D1EF9D5B3460122A9
:10045000084302D000227F1C04E02078302801D11C
:1004600000227F1E002A099784D01DE0112D07DA93
:1004700000F074F9303262556D1C50EA0102F5D17A
:10048000084302D00098C8B10EE00021681E05E0C4
:10049000235C625C63542254401E491C8142F7DB9A
:1004A000AB46A81B401E0990002004F80B000B98D7
:1004B000099AC0F80880C0E9002B7AE711264FF0AE
:1004C000000857E72DE9F04F88460446D21D22F078
:1004D000070191B0D1E90001CDE90A0101F09CFBCF
:1004E00002460B98C00F01D02D2007E0206881073D
:1004F00001D52B2002E0202101EAC000032A099047
:1005000001D0072A05DB03464146204600F084F966
:100510000BE12078800601D5E06900E00620B8F103
:10052000650F814606D0B8F1660F18D0B8F1670F95
:1005300070D131E00020B9F1110F009001DB1123DF
:1005400001E009F101030AAA01A90CA8FFF7E2FEE4
:10055000DDE90C70002609F10105834647E0012022
:100560004B4600904FF000470AAA01A90CA8FFF7DC
:10057000D1FEDDE90DB00C995D46002610B909F1F8
:1005800001000D18B9EB050003D4C0F1FF3609F1E5
:100590000105A5EB09002BE0B9F1010F01DA4FF0DD
:1005A00001090020B9F1110F0090484601DD112327
:1005B00000E003460AAA01A90CA8FFF7ABFEDDE99B
:1005C0000C704D4600268346207800070AD4AB45C0
:1005D00000DA5D4601A8012D04DD411911F8011C66
:1005E000302907D04F4502DA17F1040F04DA012051
:1005F00082460FE06D1EEEE7002F02DCED1B3E444D
:1006000003E0781CA84200DD7D1CB81B00F1010A44
:100610004FF000472078000703D4AA4501DB4FF0D4
:10062000FF3A0021B7F1004F0DF143088DF8431058
:1006300024D002202B23002F01DA7F422D230A2110
:10064000021EA0F1010000DC5FB197FBF1FC97FBFB
:10065000F1F201FB1C7C17460CF1300C08F801CDBF
:10066000EEE7A8F1010003702188090501D54521B5
:1006700000E06521A0F1010800F8011C09980FA90C
:10068000A1EB0807FF1D00B10120411901EBEA7041
:10069000A1693844081A401EA0612078C00602D41F
:1006A0002046AFF30080099828B1D4E90121904792
:1006B000206A401C20622078C00622D52046AFF375
:1006C00000801EE0002E04DBB34502DD01A8805D42
:1006D00000E03020D4E901219047206A401C2062CC
:1006E000761CAAF101005FEA000A0AD100F032F894
:1006F000C0680168405CD4E901219047206A401C31
:100700002062281EA5F10105DCDC07E0D4E9012107
:1007100018F8010B9047206A401C2062381EA7F190
:100720000107F3DC2046AFF30080032011B041E65F
:10073000074B70B50D467B4400F05BF80446284635
:1007400000F01CF910B14FF0FF3070BD204670BDB5
:100750007F1B000000487047E400002030B5B0F176
:100760000A024FEA900E71F100034EEA817EB0EB6F
:100770000E0061EB91014FEA101E4EEA017E10EB74
:100780000E0041EB11114FEA102E4EEA016E10EBF4
:100790000E0041EB11214FEA104E4EEA014E10EBD4
:1007A0000E0041EB1141401841F100014FEAD00029
:1007B00040EA41704FEAD10110EB80054FEA810415
:1007C00044EA907444EB01046D1944EB0404521B99
:1007D000A3414FF0000348BF0A3200D530BD401C92
:1007E00041F1000130BD000001694A1C0261087836
:1007F000704700B58FB0CDE9013100210591054961
:100800007944CDE9031011466846FFF7F7FC0FB0B5
:1008100000BD0000E5FFFFFF2DE9F0411F46044643
:1008200003260168072A01F4006004DB08B116A55D
:1008300005E016A503E008B115A500E015A521F017
:1008400010002060A069C01EA0610FB1401EA06111
:100850002046AFF300804FB1D4E9012138469047DC
:10086000206A401C2062C01C206206E0206AFAE771
:10087000D4E9012115F8010B9047761EF8D22046E5
:10088000AFF30080BDE8F0814E414E006E616E0016
:10089000494E4600696E66002DE9F04781461646CE
:1008A0008AB0354878440DC88DE80D003248784448
:1008B000801C03AC0DC884E80D0041F69B30084451
:1008C000372190FBF1F290FBF1F5A5F1800501FBDA
:1008D00012041B3C02D56442012000E00020DFF836
:1008E00098A080460027FA44AAF1BE0A0EE0E0076D
:1008F0000AD03246684607EB470101230AEB810123
:1009000000F043FB8DE8070064107F1C002CEED143
:10091000194F7F44AE3F19E0E80715D007EB0410EC
:100920000DF1180A90E80E008AE80E00C068F04247
:1009300001D1981908903246012306A903A800F0B6
:1009400024FB03AB83E807006D10641C002DE3D18A
:100950004FF0010332466946B8F1000F03A802D0F8
:1009600000F0FEFA01E000F010FBC9E90001C9F84F
:1009700008200AB0BDE8F08764380000007B00F072
:100980008000704700487047C40000207546FFF79C
:10099000F9FFAE4605006946534620F0070085463C
:1009A00018B020B5FFF70AFCBDE820404FF0000664
:1009B0004FF000074FF000084FF0000B21F0070147
:1009C000AC46ACE8C009ACE8C009ACE8C009ACE88A
:1009D000C0098D46704710B50446AFF3008020462D
:1009E000BDE81040FFF7D6BB4FF0013C50F8042B98
:1009F00051F8043B9A4221D1A2EB0C03934313EA32
:100A0000CC1317D150F8042B51F8043B9A4215D15E
:100A1000A2EB0C03934313EACC130BD150F8042B35
:100A200051F8043B9A4209D1A2EB0C03934313EA19
:100A3000CC13DBD04FF00000704700BFD01A01BAD2
:100A4000B1FA81F101F0180122FA01F0CB40C1F1B5
:100A50002001DBB2C0B2C01A2CFA01F3D11A9143C3
:100A600011EAC311E6D170475FEA400C08BF91F06C
:100A7000000F4FEA8C234FEAC12243EA51514FEA5B
:100A80001C5018BF00F5F0404FEA300018BF41F08D
:100A900000415FEA6C5C00F02980BCF1FF3F08BFB9
:100AA00040F080407047130C06BF12044FF0100C4A
:100AB0004FF0000C130E04BF12020CF1080C130FC0
:100AC00004BF12010CF1040C930F04BF92000CF14F
:100AD000020CD30F04BF52000CF1010C11464FF071
:100AE0000002A0F11F00A0EB0C00704711F0004FB6
:100AF00008BF704731F000413FF4D5AF0B0C06BF83
:100B000009044FF0100C4FF0000C0B0E04BF09024B
:100B10000CF1080C0B0F04BF09010CF1040C8B0F36
:100B200004BF89000CF1020CCB0F04BF49000CF18B
:100B3000010CCCF12003A0EB0C0022FA03F302FA23
:100B40000CF241EA030100F10100704720F07F4CF4
:100B500080EA030023F07F47ACEB070303F57C53E7
:100B600000F0004003F1FF032DE980494FEA154BE7
:100B700009B44FEA144325EA0B4E24EA03480FF266
:100B8000042606EB132749083E785FEA320203FB8E
:100B90000667C7F5000707FB06F64FEA54374FEA2A
:100BA000D64606F1020607FB066CCCF1005C4FEA64
:100BB0001C472CEA074C07FB06F40CFB06F504EB7C
:100BC00015464FEA961634BF00204FF000404FEA1A
:100BD000D13706FB07FC4FEA1C4C0CFB0BF7D21B72
:100BE00003FB0CF761EB07010CFB0EF7B0EB0740C2
:100BF00072EB17420CFB08F734BFA2EB0742B2EBD3
:100C0000074261EB17414FEA0C444FEA910706FB9C
:100C100007FC4FEA1C4C0CFB0BF7B0EBC74072EB28
:100C2000573203FB0CF734BFA2EBC742B2EBC7420B
:100C300061EB57310CFB0EF7B0EBC70072EB57724C
:100C40000CFB08F734BFA2EBC702B2EBC70261EBA3
:100C50005771039F4FEA816141EA921104EBCC0482
:100C60004FEAD1374FEA826206FB07FC42EA901254
:100C70004FEA80604FEA1C4C0CFB0BF7D21B03FBC6
:100C80000CF761EB07010CFB0EF7B0EB074072EBC2
:100C900017420CFB08F734BFA2EB0742B2EB074246
:100CA00061EB17414FEA8C554FEA910704EB9C2406
:100CB00006FB07FC4FEA1C4C0CFB0BF7B0EBC740E4
:100CC00072EB573203FB0CF734BFA2EBC742B2EB17
:100CD000C74261EB57310CFB0EF7B0EBC70072EB6C
:100CE00057720CFB08F734BFA2EBC702B2EBC70286
:100CF00061EB577115EB4C254FEA816141EA921186
:100D00004FEA82624FEAD13742EA901206FB07FCB3
:100D100044F100044FEA80604FEA1C4C0CFB0BF7D7
:100D2000D21B03FB0CF761EB07010CFB0EF7B0EBDA
:100D3000074072EB17420CFB08F734BFA2EB0742E7
:100D4000B2EB074261EB174115EB1C154FEA8131FD
:100D500041EA92414FEA823242EA90424FEA8030C1
:100D60004FEA0C7644F1000448EA03434EEA0B488C
:100D70004FF0000EB2EB080C71EB030724BF624684
:100D800039464EEB0E0E4FF0000B00185241494110
:100D90004BEB0B0BB2EB080C71EB03077BF1000B79
:100DA00024BF624639464EEB0E0E4FF0000B001882
:100DB000524149414BEB0B0BB2EB080C71EB0307B3
:100DC0007BF1000B24BF624639464EEB0E0E51EA12
:100DD000020718BF46F0010616EB0E7655F1000229
:100DE00054F1000103D5BDE88901BDE80088BDE8E4
:100DF0008901BDE80048B619524141EB0101A3F158
:100E00000103704780807F7E7D7C7B7A797877765E
:100E100076757473727171706F6E6E6D6C6C6B6AD7
:100E20006A69686867666665646463636261616075
:100E3000605F5F5E5E5D5D5C5C5B5B5A5A595958F2
:100E4000585757565655555554545353525252515C
:100E5000515050504F4F4F4E4E4D4D4D4C4C4C4BB2
:100E60004B4B4A4A4A4949494848484747474746F9
:100E70004646454545444444444343434342424235
:100E800042414141002B9C4630D477002BD01CB509
:100E90004FEA370703B44FF010004FF01001BAF1DA
:100EA000000F06D0BCF1000FDCBF40F0080040F09E
:100EB00008014FF000000FBCBDE810400BF1010B22
:100EC000BBF1010F08BF5FEA170722BF12F1010251
:100ED00011F101014FF0004143F1000300F0004027
:100EE00043EA00007047F9D35708D0E746EA0646C0
:100EF00013F1400F4FEA16461FDD13F1200FDFBF3D
:100F000016430A46002120335B42BED0C3F12007BE
:100F100046EA064602FA07F74FEA164646EA070689
:100F2000C3F1200722FA03F201FA07F721FA03F1CD
:100F30004FF0000342EA0702A7E746EA020646EA44
:100F400006464FEA164646EA0106BCBF46EA064692
:100F5000360C4FF000034FF000024FF0000194E711
:100F60002DE9804C9A46934670B491E8380007C842
:100F700031EA400C48BF34EA430C03D5FFF7E6FDE5
:100F8000FFF780FFF0BCBDE8008C2DE9804C9A464D
:100F9000934670B491E8380007C810F0804F08BF3E
:100FA00013F0804F03D100F005F8FFF76BFFF0BCA2
:100FB000BDE8008C20F07F4780EA030023F07F4CDF
:100FC00007EB0C03A3F57C5300F00040A3F1FE03F4
:100FD00092F0000F00F0B38095F0000F00F07780E2
:100FE0002DE901494FEA11404FEA144621EA004831
:100FF00000FB06FC24EA064708FB06F607FB08F898
:1010000000FB07F718EB06484CEB164C4FEA124B67
:1010100018EB07484FEA15464CEB174022EA0B4EF7
:101020000BFB06FC25EA06470EFB06F607FB0EFE49
:101030000BFB07F71EEB064E4CEB164C4FF0000671
:101040001EEB074E4CEB174B18EB0B0840F1000062
:1010500018EB0E0B58EB000840F100008F1A4FF010
:1010600000013CBFC943661B14BFB5EB040C002153
:101070003CBFC943F61B4FEA17444EEA8E0E27EADF
:1010800004454FEA1C4704FB07622CEA074C05FBAA
:1010900007F70CFB05F604FB0CFC16EB074642EBCE
:1010A000174216EB0C4642EB1C421BEB060658EBB4
:1010B0000202414146EA9E0601D5BDE80189B61902
:1010C000524141EB0101A3F10103BDE801894FEA5F
:1010D00014454FEA114724EA054621EA074C05FB6F
:1010E00007F406FB07F70CFB06F105FB0CFC11EB04
:1010F000074144EB17444FEA124711EB0C4144EB14
:101100001C4422EA074C05FB07F206FB07F70CFB21
:1011100006F605FB0CFC16EB074642EB174216EBF6
:101120000C4642EB1C456A1854F1000148BF704759
:10113000B619524141EB0101A3F10103704795F04B
:10114000000F37D04FEA11424FEA144721EA024616
:1011500024EA074C02FB07F106FB07F70CFB06F439
:1011600002FB0CFC14EB074441EB17414FEA154717
:1011700014EB0C4441EB1C4125EA074C02FB07F53C
:1011800006FB07F70CFB06F602FB0CFC16EB07460A
:1011900045EB174516EB0C4645EB1C42121951F175
:1011A000000148BF7047B619524141EB0101A3F15C
:1011B000010370474FEA14454FEA114724EA0546F8
:1011C00021EA074C05FB07F106FB07F70CFB06F2CB
:1011D0004FF0000605FB0CFC12EB074241EB1741F8
:1011E00012EB0C4251EB1C4148BF7047921841EB87
:1011F0000101A3F1010370470448006800F00100F9
:1012000010B101200149086070470000140401403A
:101210000448006800F0020010B102200149086093
:10122000704700001404014010B50C48006800F03D
:10123000040090B10321002001F04CF828B10848C7
:101240000068401E0649086004E005480068401C2C
:101250000349086004200149086010BD14040140DE
:10126000040000200448006800F0080010B10820C5
:1012700001490860704700001404014010B50C4893
:10128000006800F0100090B10521002001F022F864
:1012900028B108480068401C0649086004E0054879
:1012A0000068401E0349086010200149086010BD15
:1012B00014040140080000202DE9FF5F7D4800680C
:1012C00000F0200010B120207A49086079480068B9
:1012D00000F0400010B14020764908607548006871
:1012E00000F0800000287DD000F0B0F97248B0F91D
:1012F000000002F029FC019002F08EFA4FF06632F5
:101300006E4BCDE9020101F011FF06466C4A6D4BB0
:1013100002F08EF804460D466B48006802F07CFA35
:10132000804622462B4601F051FE824601F01CFE0B
:10133000654908606548B0F9000002F005FC0190BD
:1013400002F06AFA80464FF066325C4B01F0EEFE26
:101350005B4A5C4BCDE9020102F06AF806460F4693
:101360005B48006802F058FA824632463B4601F07C
:101370002DFE044601F0F8FD554908605548B0F9C6
:10138000000002F0E1FB019002F046FA4FF06632F5
:101390004A4BCDE9020101F0C9FE8046484A494B5B
:1013A00002F046F804460D464B48006802F034FA55
:1013B000064622462B4601F009FE824601F0D4FD86
:1013C000454908604548B0F9000002F0BDFB83467E
:1013D0004348B0F9000002F0B7FB5946039002F011
:1013E000B5FA00E052E0824602F016FA804600F0BC
:1013F00091FC06463B4A3C4B02F01AF8044601F0C9
:10140000B3FD3A4908603548B0F9000002F09CFB92
:1014100083463748B0F9000002F096FB5946039026
:1014200002F094FA824602F0F7F9804600F072FC6E
:1014300081F0004106462B4A2B4B01F0F9FF044690
:1014400001F092FD2B4908602948B0F9000002F034
:101450007BFB83462248B0F9000002F075FB594639
:10146000039002F073FA824602F0D6F9804600F04B
:1014700051FC06461B4A1C4B01F0DAFF044601F002
:1014800073FD1D49086080200A490860094800680A
:1014900000F4807018B14FF4807006490860054868
:1014A000006800F4007018B14FF400700149086042
:1014B000BDE8FF9F140401403E00002066663040F6
:1014C0007B14AE47E17A743F4400002040000020C6
:1014D00048000020420000204C0000203C0000207A
:1014E0003A000020D9CEF753E3A54C40500000202D
:1014F00038000020540000205800002010B50222BF
:101500000A21012000F0F8FE02220B21012000F048
:10151000F3FE01220B21104600F0C0FF01220A2138
:10152000104600F0BBFF10BD10B501220B21104684
:1015300000F0B4FF01220A21104600F0AFFF0022A4
:101540000A21012000F0AAFF10BD70B5002501227C
:101550000B21104600F0A2FF002412E001220A2114
:10156000104600F09BFF0B21012000F0B3FE10B1EC
:1015700080202041054300220A21012000F08EFF37
:10158000641C082CEADB284670BD70B505460024B3
:1015900019E080202041284028B101220B2110466B
:1015A00000F07CFF04E000220B21012000F076FF18
:1015B00001220A21104600F071FF00220A210120B9
:1015C00000F06CFF641C082CE3DB70BD10B5012239
:1015D0000B21104600F062FF01220A21104600F0A4
:1015E0005DFF00220B21012000F058FF00220A219C
:1015F000012000F053FF10BD10B500220B21012087
:1016000000F04CFF01220A21104600F047FF0122A2
:101610000B21104600F042FF10BD10B5002401223E
:101620000B21104600F03AFF01220A21104600F07B
:1016300035FF0B21012000F04DFE044600220A2157
:10164000012000F02BFF204610BD000070B53B20AC
:1016500000F072F804463C2000F06EF8054645EABA
:10166000042000B2214908803D2000F065F80446BE
:101670003E2000F061F8054645EA042000B21C490E
:1016800008803F2000F058F80446402000F054F84D
:10169000054645EA042000B216490880432000F0C0
:1016A0004BF80446442000F047F8054645EA04207C
:1016B00000B211490880452000F03EF8044646205B
:1016C00000F03AF8054645EA042000B20B490880CC
:1016D000472000F031F80446482000F02DF8054678
:1016E00045EA042000B20649088070BD3800002099
:1016F0003A0000203C0000203E0000204000002076
:101700004200002010B502216B2000F035F827219F
:10171000192000F031F800211A2000F02DF81821CE
:101720001B2000F029F800211C2000F025F80121E1
:10173000382000F021F810BD70B50446FFF746FFD1
:10174000D020FFF722FFFFF768FF2046FFF71DFFBD
:10175000FFF763FFFFF750FFFFF738FFD120FFF7D8
:1017600014FFFFF75AFFFFF7F0FE0546FFF7DCFE18
:10177000FFF742FF284670BD70B505460C46FFF7DF
:1017800025FFD020FFF701FFFFF747FF2846FFF7AF
:10179000FCFEFFF742FF2046FFF7F7FEFFF73DFF95
:1017A000FFF72AFF70BD0000014607238B431A0292
:1017B000054B18684FF6FF0318401043034B1843BE
:1017C000014B1860704700000CED00E00000FA05C6
:1017D00070B505460C460420FFF7E6FF0E48005D95
:1017E00000F0010646EA0510C1B20B48015520463B
:1017F000E21704EBD2625211A4EB421301229A4089
:101800002146E31704EBD3635B119B0003F1E02354
:10181000C3F8002170BD000000E400E070B50024B2
:101820000EE00021204600F0C7F8002504E000206B
:1018300000F0E3F8681CC5B2802DF8DB601CC4B270
:10184000082CEEDB70BD10B502220821012000F04B
:1018500053FD02220921012000F04EFD0122082142
:10186000104600F01BFE01220921104600F016FE72
:1018700010BD70B50546002413E08020204100EA29
:1018800005020921012000F009FE0122082110466D
:1018900000F004FE00220821012000F0FFFD601C82
:1018A000C4B2082CE9DB01220821104600F0F6FD45
:1018B00000220821012000F0F1FD70BD10B50122C9
:1018C0000921104600F0EAFD01220821104600F02F
:1018D000E5FD00220921012000F0E0FD00220821A1
:1018E000012000F0DBFD10BD10B500220921012010
:1018F00000F0D4FD01220821104600F0CFFD0122A6
:101900000921104600F0CAFD10BD70B5002406E0A4
:10191000002500E06D1CB5F57A7FFBD3641CB4F59F
:101920007A7FF5D3FFF78FFFAE2000F056F8D52071
:1019300000F053F8802000F050F8A82000F04DF897
:101940003F2000F04AF8D32000F047F8002000F0D4
:1019500044F8402000F041F8A12000F03EF8C820F3
:1019600000F03BF8DA2000F038F8122000F035F8EB
:10197000812000F032F8CF2000F02FF8D92000F0BD
:101980002CF8F12000F029F8DB2000F026F83020B8
:1019900000F023F8A42000F020F8A62000F01DF8A5
:1019A0008D2000F01AF8142000F017F8AF2000F096
:1019B00014F8FFF733FF70BD70B505460C4645F0CF
:1019C000B00000F00AF8102141EA141000F005F808
:1019D00004F00F0000F001F870BD10B50446FFF7E9
:1019E0006DFF7820FFF745FF0020FFF742FF2046FC
:1019F000FFF73FFFFFF778FF10BD10B50446FFF774
:101A00005DFF7820FFF735FF4020FFF732FF2046CB
:101A1000FFF72FFFFFF768FF10BD10B500F002F8C9
:101A200010BD00000CB50020019000903348006804
:101A300040F480303149086000BF3048006800F44D
:101A4000003000900198401C0190009818B901984E
:101A5000B0F5A06FF1D12948006800F4003010B152
:101A60000120009001E0002000900098012843D15F
:101A70002348006840F010002149086008460068CB
:101A800020F0030008600846006840F0020008608B
:101A90001A48406819494860084640684860084646
:101AA000406840F4806048600846406820F47C103C
:101AB00048600846406840F4E810486008460068FE
:101AC00040F08070086000BF0C48006800F00070B3
:101AD0000028F9D00948406820F003000749486011
:101AE0000846406840F00200486000BF0348406874
:101AF00000F00C000828F9D10CBD000000100240D5
:101B00000020024010B51348006840F00100114960
:101B1000086008464068104908400E494860084679
:101B200000680E4908400B4908600846006820F428
:101B3000802008600846406820F4FE0048604FF4AA
:101B40001F008860FFF769FF4FF0006004490860DC
:101B500010BD0000001002400000FFF8FFFFF6FE7D
:101B600008ED00E04FF08040008A00F0010038B13D
:101B70004FF08040008A20F001004FF08041088241
:101B80007047000010B50748008800F0010038B128
:101B900000F038FE0348008820F001000149088069
:101BA00010BD0000100400400548008800F001004E
:101BB00028B10348008820F00100014908807047DF
:101BC000100800400548008800F0200028B10348B4
:101BD000008820F02000014908807047003801404B
:101BE0000548008800F0200028B10348008820F054
:101BF00020000149088070470044004005480088E3
:101C000000F0200028B10348008820F0200001499E
:101C10000880704700480040490050EAC12018BFC2
:101C200004204A0D18BF40F0010040F2FF72B2EBF1
:101C3000515F08BF40F00200012808BF052070472F
:101C40002DE9F0414F1E00EBC7010446D1E9000128
:101C500015461E4637F006020DD02A46334601F0DF
:101C6000E7FB7F1E04EBC703D3E9002301F0AEF9C5
:101C700037F00602F1D1022F25D0042F13D0062F02
:101C800018BFBDE8F0812A46334601F0D1FBD4E904
:101C90000A2301F09BF92A46334601F0C9FBD4E937
:101CA000082301F093F92A46334601F0C1FBD4E939
:101CB000062301F08BF92A46334601F0B9FBD4E93B
:101CC000042301F083F92A46334601F0B1FBD4E93D
:101CD000022301F07BF92A46334601F0A9FBD4E93F
:101CE0000023BDE8F04101F071B9012202F03DB9D5
:101CF000024A0020110702F038B9000001FDFFFF81
:101D000030380A2801D2012070470020704700BFF8
:101D1000704700002DE9F84F04460D4621F00040C1
:101D200000917349814211DC7249884201DC06D17D
:101D30002CB120462946BDE8F84FFFF7D6BF6E48C4
:101D4000002DCCBF6D496E49BDE8F88F6D498142C9
:101D500011DD6D498142D8BF4FF0FF366DDD204661
:101D60002946FFF759FF042808BFFFF7C1FF2046A7
:101D70002946BDE8F88F6549654F25F00045814249
:101D800033DD6449814219DD002632464FF080433D
:101D90002046294601F01AF980468A46012220464B
:101DA000294602F0E2F800223B4601F04BFC424695
:101DB000534601F0BBF904460D463EE001260022E1
:101DC000BA463B462046294601F000F980460F46B8
:101DD000002253462046294601F034FC42463B4649
:101DE00001F0A4F904460D4627E04B4981421BDD72
:101DF000DFF828A10226002253462046294601F09A
:101E000017FB00223B4601F0E1F880460F46002216
:101E100053462046294601F015FC42463B4601F058
:101E200085F904460D4608E0032622462B4600208D
:101E30003B4901F07BF904460D4622462B461046ED
:101E4000194601F0F5FA8B46824602460B4601F030
:101E5000EFFA07460246334888460B460621784487
:101E6000FFF7EEFE52465B4601F0E2FA82462E484C
:101E70008B463A46434605217844FFF7E1FE3A4651
:101E8000434601F0D5FA02460B46002E504659460D
:101E90000CDA01F09BF822462B4601F0C9FA01B09A
:101EA00022462B46BDE8F04F01F0C0BB01F08EF892
:101EB00022462B4601F0BCFA1C4A7A4402EBC603C8
:101EC000D3E9002301F0BEFB22462B4601F0BAFB0A
:101ED000174A7A4402EBC603D3E9002301F0A6FBBC
:101EE000009A002AB8BF81F00041BDE8F88F0000D9
:101EF000000010440000F07F182D4454FB21F93FEE
:101F0000FB21F9BF0000DC3F0000203E0000F33F52
:101F10000000F03F0000E63F008003400000F83F73
:101F20000000F0BFFE210000BC2100005A2100008B
:101F30002221000000B5034603E04FF47A7000F060
:101F400005F8181EA3F10103F7D100BD00EBC00195
:101F5000C9004FF0E022516100219161052111611A
:101F600000BF4FF0E021096901F480310029F8D069
:101F700004214FF0E0221161704770B5044600253E
:101F8000092C56D2DFE804F055050F19232D3741EF
:101F90004B000C21012000F09DF9012801D1012501
:101FA00000E0002545E00D21012000F093F9012813
:101FB00001D1012500E000253BE00E21012000F0C9
:101FC00089F9012801D1012500E0002531E00F2128
:101FD000012000F07FF9012801D1012500E0002552
:101FE00027E00821002000F075F9012801D1012522
:101FF00000E000251DE00D21022000F06BF9012812
:1020000001D1012500E0002513E00E21022000F09F
:1020100061F9012801D1012500E0002509E00F2127
:10202000022000F057F9012801D1012500E0002528
:1020300000BF00BF284670BD10B500220121062058
:1020400000F010F801220321002000F055F90022D1
:1020500001210C2000F006F801220521002000F0EB
:102060004BF910BD2DE9F04704460E4617460321F3
:1020700094FBF1F0C11700EB91718910A0EB810185
:1020800089064FEA1168032194FBF1F0C11700EBB8
:102090009171C1F38705204600F06AF831488069E4
:1020A00040F001002F4988614FEAB13050F8250017
:1020B0000F2101FA08F188432B4941F8250003203C
:1020C00094FBF0F100FB114088B1032094FBF0F188
:1020D00000FB1140401E012101FA00F000FA08F057
:1020E000214951F8251001431F4840F825100320CD
:1020F00094FBF0F1012088401C49096808431B4902
:10210000086066B9032094FBF0F10120884017496C
:102110000831096808431549083108600BE00320BD
:1021200094FBF0F10120884010490C310968084304
:102130000E490C310860032094FBF0F004280ADCFF
:10214000032094FBF0F0801D00F0FF09494638465B
:10215000FFF73EFB03E017213846FFF739FBBDE8E8
:10216000F087000000100240080001400004014018
:1021700010B50446182C12D2DFE804F00C12181E19
:10218000242A30363C42484E545A60666C72787E3F
:10219000848A909601220021084600F0ADF889E07B
:1021A00001220021104600F0A7F883E0012200215F
:1021B000022000F0A1F87DE001221146002000F08D
:1021C0009BF877E001221146104600F095F871E087
:1021D00001221146022000F08FF86BE0012202215B
:1021E000002000F089F865E001220221104600F08D
:1021F00083F85FE001220221084600F07DF859E0F3
:1022000001220321002000F077F853E0012203218E
:10221000104600F071F84DE001220321022000F089
:102220006BF847E001220421002000F065F841E04E
:1022300001220421104600F05FF83BE00122042156
:10224000022000F059F835E001220521002000F0BD
:1022500053F82FE001220521104600F04DF829E047
:1022600001220521022000F047F823E00122062187
:10227000002000F041F81DE001220621104600F088
:102280003BF817E001220621022000F035F811E0AA
:1022900001220721002000F02FF80BE00122072186
:1022A000104600F029F805E001220721022000F085
:1022B00023F800BF00BF10BD00BF054A128802F01E
:1022C0004002002AF9D0C2B2014B1B1D1A80704790
:1022D0000038014010B50246064850F822008068D8
:1022E00001248C4000EA04030BB1012010BD002042
:1022F000FCE700001000002070B5654CA4690425BF
:1023000085402C43624DAC6108295DDA614C54F87C
:10231000204024688E000F25B540AC435D4D55F834
:1023200020502C601AB1032A01D0022A0FD10124B7
:10233000944044F003048D00AC40564D55F82050B5
:102340002D682C43534D55F820502C609FE0012AF6
:1023500001D0042A2AD14F4C54F8204024688E0022
:102360000825B5402C434B4D55F820502C60012AD0
:102370000ED1484C54F82040E46801258D4024EAF1
:10238000050301248C401C43424D55F82050EC605D
:10239000042A7CD13F4C54F82040E56801248C404D
:1023A000A5433C4C54F82040E56070E00424944080
:1023B0008D00AC40374D55F820502D682C43354DDD
:1023C00055F820502C6062E0324C54F8204064688C
:1023D000A1F10805AE000F25B540AC432D4D55F8D1
:1023E00020506C601AB1032A01D0022A11D10124B5
:1023F000944044F00304A1F10805AD00AC40254D24
:1024000055F820506D682C43224D55F820506C60D3
:102410003DE0012A01D0042A2AD11E4C54F8204064
:102420006468A1F10805AE000825B5402C43194D9C
:1024300055F820506C60012A0CD1174C25680124F6
:102440008C4025EA040301248C401C43114D55F8AF
:102450002050EC60042A1AD10E4C54F82040E46855
:1024600001258D40AC430B4D55F82050EC600EE03B
:1024700004249440A1F10805AD00AC40054D55F889
:1024800020506D682C43034D55F820506C6070BD92
:1024900000100240100000200C08014030B57AB155
:1024A0000D4C54F82040E46801258D4024EA0503D2
:1024B00001248C401C43084D55F82050EC600AE084
:1024C000054C54F82040E46801258D40AC43024D92
:1024D00055F82050EC6030BD1000002010B50122EE
:1024E0000C211046FFF708FF01220D211046FFF7CF
:1024F00003FF01220E211046FFF7FEFE01220F21ED
:102500001046FFF7F9FE012208210020FFF7F4FE34
:1025100001220D210220FFF7EFFE01220E210220F1
:10252000FFF7EAFE01220F210220FFF7E5FE10BDB2
:102530001FB5FFF7EAF900F09FF8FFF77DFD0022D5
:102540004FF4E131104600F09BFC1F481F4B1A4628
:10255000012100901E4800F0A1F91B481B4B1A46B0
:10256000012100901B4800F099F9FFF7B7FFFEF733
:10257000C5FFFFF7C7F8002211461620FFF772FDCE
:1025800000220A21012000F029FB1CE0124800680B
:1025900001F042F904460D461048006801F03CF98C
:1025A00006460F460E48006801F036F9804642465E
:1025B0000B460CA0CDE90067CDE90245FDF712FE00
:1025C0001420FFF7B7FCE1E70000A0400000204125
:1025D0005C000020900000205000002054000020EB
:1025E000580000207961773A252E326620207069E4
:1025F0007463683A252E326620726F6C6C3A252E11
:1026000032660D0A0000000010B50446A2B2002197
:10261000084600F059FA0948027806210020FFF721
:102620003DFF0648007808B9012000E0002002467E
:1026300007210020FFF732FF10BD0000000000203E
:1026400010B50446A2B20121002000F03DFA09486D
:10265000027800210120FFF721FF0648007808B921
:10266000012000E00020024601210846FFF716FF86
:1026700010BD00000100002010B54FF47A72002157
:10268000084600F013F9002206211046FFF734FE39
:10269000002207211046FFF72FFE4FF47A72012126
:1026A000002000F003F9002211460120FFF724FE6C
:1026B000002201210846FFF71FFE10BD70B5054638
:1026C0000C46002D08DB012011490870284601F056
:1026D0003BFA1049086007E000200D490870684285
:1026E00001F032FA0B490860002C08DB01200A498E
:1026F0000870204601F028FA0849086007E0002029
:1027000005490870604201F01FFA0449086070BD75
:10271000000000205C00002001000020900000204C
:102720002DE9F0410446D4E9000101F075FBA060F9
:10273000206B01282DD1D4E9020101F06DFB054683
:10274000616901F061FA2062A168A06901F05CFA98
:10275000A0624FF08040E16801F056FA0746A16898
:1027600001F04FFB0646216901F082F80546E16958
:1027700001F04AFA6062A16A206A01F079F806461F
:10278000616A01F075F80546E16A01F071F8E062EE
:1027900021E0206BF8B9A168606901F035FA206288
:1027A000A168A06901F030FA0546A16A01F060F85D
:1027B000A062D4E9020101F02FFB0546E16901F0B6
:1027C00023FA6062A16A206A01F052F80546616A44
:1027D00001F04EF8E062E1682161A168E16008491A
:1027E000E06A01F0DDFA01D80548E0620021E06A04
:1027F00001F0D6F901D80020E062BDE8F0810000C8
:102800000050434710B500F021FA1E48007830B15F
:102810001D48006801F098F91C49486006E01A4814
:102820000068404201F090F9184948601848007863
:1028300030B11848006801F087F91749486006E090
:1028400014480068404201F07FF9134948600020B5
:102850000D4908600F4908600C48FFF761FF0E48FA
:10286000FFF75EFF0949C86A01F032F90446FFF735
:10287000CBFE0949C86A01F02BF90446FFF7E0FED8
:1028800010BD000000000020040000205C000020BB
:1028900001000020080000209000002010B5029CDC
:1028A000016342618361C46110BD00002DE9F04104
:1028B00004460D4616462846E91705EB9171891026
:1028C000A5EB8101491CCFB25148C0690121A1404B
:1028D00008434F49C8614F4890FBF6F0401E4E49EF
:1028E00051F82410888547204B4951F82410088559
:1028F000284600F093F8012F06D0022F1ED0032F98
:1029000036D0042F69D14DE0434850F82400008BA5
:1029100040F06000404951F8241008833E4850F8C8
:102920002400008B40F008003B4951F82410088334
:102930000020394951F8241088864EE0364850F876
:102940002400008B40F4C040334951F82410088320
:10295000314850F82400008B40F400602E4951F8B3
:102960002410088300202C4951F82410088734E0F3
:10297000294850F82400808B40F06000264951F827
:1029800024108883244850F82400808B40F00800ED
:10299000214951F82410888300201F4951F8241040
:1029A00088871AE01C4850F82400808B40F4C0400F
:1029B000194951F824108883174850F82400808B57
:1029C00040F40060144951F8241088830020124913
:1029D00051F82410A1F8400000BF00BF0E4850F885
:1029E0002400008C791E8A000121914008430A4985
:1029F00051F824100884084850F82400008840F05A
:102A00008100054951F824100880BDE8F0810000DC
:102A10000010024040420F001C00002010B5044688
:102A20000C2C4FD2DFE804F0060C12181E242A30BA
:102A3000363C4248032200210846FFF75DFC41E096
:102A4000032201210020FFF757FC3BE00322022173
:102A50000020FFF751FC35E0032211460020FFF76C
:102A60004BFC2FE0032206210020FFF745FC29E064
:102A7000032207210020FFF73FFC23E0032200216F
:102A80000120FFF739FC1DE0032201210846FFF772
:102A900033FC17E0032206210120FFF72DFC11E093
:102AA000032207210120FFF727FC0BE00322082166
:102AB0000120FFF721FC05E0032209210120FFF797
:102AC0001BFC00BF00BF10BD2DE9F84F04460D46AA
:102AD00017462846E91705EB91718910A5EB81018E
:102AE000491C01F0FF084CF25030874200DB0746DA
:102AF000384850F82400868DB8F1010F09D0B8F19C
:102B0000020F1DD0B8F1030F31D0B8F1040F5DD121
:102B100044E0701C01F018F88346384601F02CF8A8
:102B20002D49009000F012FF8246594601F06CF8E2
:102B3000814600F0E9FF274951F82410888645E0D6
:102B4000701C01F001F80090384601F015F883463A
:102B5000214900F0FBFE8246009901F055F88146BC
:102B600000F0D2FF1B4951F8241008872EE0701C9A
:102B700000F0EAFF0090384600F0FEFF8346164959
:102B800000F0E4FE8246009901F03EF8814600F034
:102B9000BBFF104951F82410888717E0701C00F023
:102BA000D3FF0090384600F0E7FF83460A4900F063
:102BB000CDFE8246009901F027F8814600F0A4FF7F
:102BC000044951F82410A1F8400000BF00BFBDE83F
:102BD000F88F00001C0000200050434770B50446E9
:102BE0000D4616461748C0690121A1400843154902
:102BF000C86105EB85004000401E134951F82410C0
:102C0000888541F61F40104951F8241008850E4868
:102C100050F82400008840F001000B4951F82410BE
:102C20000880094850F82400808940F001000649D6
:102C300051F82410888104F11C00C1B23046FEF71F
:102C4000C7FD70BD001002401C00002010B504201C
:102C5000FFF793F940B90520FFF78FF920B96421F8
:102C60000846FFF72BFDB9E00420FFF786F940B9CD
:102C70000520FFF782F920B178216420FFF71EFDBF
:102C8000ACE00420FFF779F940B10520FFF775F9B2
:102C900020B964217820FFF711FD9FE00320FFF7A2
:102CA0006CF940B10420FFF768F920B982215A205D
:102CB000FFF704FD92E00520FFF75FF940B9062019
:102CC000FFF75BF920B95A218220FFF7F7FC85E076
:102CD0000320FFF752F940B90420FFF74EF920B165
:102CE00082215A20FFF7EAFC78E00520FFF745F93A
:102CF00040B10620FFF741F920B95A218220FFF7A1
:102D0000DDFC6BE00220FFF738F940B90320FFF744
:102D100034F920B996215020FFF7D0FC5EE0062060
:102D2000FFF72BF940B90720FFF727F920B9502109
:102D30009620FFF7C3FC51E00220FFF71EF940B9CF
:102D40000320FFF71AF920B196215020FFF7B6FCB7
:102D500044E00620FFF711F940B10720FFF70DF915
:102D600020B950219620FFF7A9FC37E00120FFF79A
:102D700004F940B90220FFF700F920B9B4213C2042
:102D8000FFF79CFC2AE00720FFF7F7F840B908207E
:102D9000FFF7F3F820B93C21B420FFF78FFC1DE0CA
:102DA0000120FFF7EAF840B90220FFF7E6F820B16A
:102DB000B4212820FFF782FC10E00720FFF7DDF8A0
:102DC00040B10820FFF7D9F820B92821B420FFF737
:102DD00075FC03E064210846FFF770FC10BD00009D
:102DE0002DE9F04F89B081468A46B9F1000F01D133
:102DF0001F4C00E01F4C4FEA0A1094FBF0FB5846B2
:102E000000F003FBCDE90401504600F0E7FA074665
:102E10000022194B00F00CFB05460E46204600F040
:102E200093FE074600F0F8FC2A463346CDE9000140
:102E300000F07CF9CDE90201DDE9042300F002FC99
:102E4000CDE9060100F090F808904FF08341089812
:102E500000F0DAFE0890089800F056FE00EB0B1028
:102E6000064951F82910088109B0BDE8F08F00002B
:102E700000A24A0400512502000030402800002032
:102E800070B504460E46154634B91448806940F4BE
:102E900080401249886108E01048C06904F11001BF
:102EA00001228A4010430D49C861204600F01AF8FB
:102EB00031462046FFF794FF094850F824008089E6
:102EC00042F22C010843064951F82410888104F18C
:102ED0002500C1B22846FEF77BFC70BD0010024001
:102EE0002800002010B5044624B1012C0DD0022C7E
:102EF00021D115E0032209210020FFF7FDF904226A
:102F00000A210020FFF7F8F915E003220221002032
:102F1000FFF7F2F9042203210020FFF7EDF90AE0A0
:102F200003220A210120FFF7E7F904220B210120E7
:102F3000FFF7E2F900BF00BF10BD000010B5002987
:102F40000AD00878002807D005487844FDF74CFDE2
:102F5000002801D0002010BD0248784410BD0000B8
:102F6000FA110000F211000021F00042A2F16052BB
:102F7000B2F5801F01F0004328BFD2F17F6C0BD95E
:102F80005FEA001C43EAC20242EB507018BF704770
:102F900028BF20F001007047B2F5801FBCBF184663
:102FA00070474FEA410C1CF5001F02D2084600F0A2
:102FB000F2BE70B500F0E6FA00000089FFF7F6BF38
:102FC0004FF00040A0F580007047000010B591EA76
:102FD000030F48BF83F0004300F13C83841A71EB78
:102FE000030C05D2121943EB0C03001B61EB0C011F
:102FF000DFF824E14FEA1154A4EB135C1EEA430FFF
:1030000018BF9EEA445F73D023EA0E03DCF1200E62
:1030100021EA045143F4801332D322FA0CFE10EB60
:103020000E0023FA0CFE41EB0E01CCF1200E03FA48
:103030000EFE10EB0E0051F10001B1F5801FCCF136
:10304000200E32D201EB045112FA0EF2BDE810400C
:1030500058BF7047401C38BF5FEA420218BF704734
:10306000002814BF20F0010041F100014FEA4103A4
:1030700013F5001F38BF7047A1F1C04100F0D0BA6E
:10308000012A43EB0302ACF1200CDCF11F0E32BF2E
:103090004FF0000E23FA0CF310EB030041EB045148
:1030A000B4EB115FD0D0A1EB045101F580114908B8
:1030B0005FEA300001EB04510ED350F1000038BF3D
:1030C00012FA0EFE08D1BDE81040C9E7401C38BF17
:1030D0005FEA4202CAD1C3E7BDE810404FEA4103AC
:1030E00013F5001F38BF7047A1F1C04100F098BA36
:1030F0009EEA445F08D011EA5E0FBDE8104004BFAD
:1031000001F0004100207047BDE8104070B500F0AC
:1031100039FA00BF64FBBE3E0000E0FF02494FF0F9
:10312000000000F0F0BE00BF0000F87F2DE9C041B4
:1031300030B4DFF8A0C23CEA111418BF3CEA131403
:1031400000F0EC8081EA03051CEA111444EAD5740E
:1031500018BF1CEA131500F0C780A4EB05044FF05C
:10316000004545EAC12145EAC32341EA505143EAFB
:10317000525304F17F74994204F500344FEAC020A1
:103180004FEAC22208BF904200F09C804FEA1365CC
:103190000FF24016765D4FEA134506FB05F7C7F1BF
:1031A000807706FB07F74FEAD737A7FB036876421D
:1031B000C8F58038A7FB06CE38BFA8F1010807FB89
:1031C00008E64FF0000EA6FB028CE6FB03CEDCF116
:1031D000000CCEF1004E38BFAEF1010EA6FB0C582C
:1031E0004FF000074FF00005E6FB0E87A1FB08C675
:1031F000A0FB07CE16EB0E0645F10005E1FB0765C7
:1032000015F1E04E7EBFA4F580345FEA46066D41BD
:1032100016F1800745F100054FEA17274FEA0666C9
:1032200047EA0567A6F1DE46B6F1805F4FEA15254D
:103230001FD9384624F0010C05EBC471BCF1FE6FB8
:1032400001EB0C1102D8F0BCBDE8008124425CBF48
:1032500001F5801E9EEAC47F02D4F0BCBDE8008167
:10326000244238D4F0BCA1F1C041BDE8004100F0D7
:10327000D7B94FEAD22242EA43524FEAD323A7FBFF
:1032800002864FEAD02040EA415007FB03661EEA5F
:103290000E0F4FEAD12105FB026658BFA6EB005680
:1032A000B6EB00564FEA520E4EEAC37E18EB0E0EF6
:1032B00056EB530EBDD518EB02085E417F1C55F14D
:1032C0000005B6E74FF480154FF000074FF00006F9
:1032D0004FF00008ADE7F0BC4FF0000001F1C04135
:1032E00001F00041BDE8008111EA0C1F0CEA131542
:1032F00000D00CE013EA0C1F00F025804FF0000016
:10330000F0BC81EA030101F00041BDE80081F0BC9E
:10331000BDE8004181EA030100F082B9F0BCBDE8DC
:10332000004170B500F02EF9097EFC3E00F007B8B0
:1033300081EA03014FF0000001F00041704781EA8B
:10334000030100F06DB9F0BCBDE800414FF0000092
:1033500021497047FFFDFBF9F7F5F4F2F0EEEDEBD4
:10336000E9E8E6E4E3E1E0DEDDDBDAD8D7D5D4D383
:10337000D1D0CFCDCCCBCAC8C7C6C5C4C2C1C0BFCF
:10338000BEBDBCBBBAB9B8B7B6B5B4B3B2B1B0AFD5
:10339000AEADACABAAA9A8A8A7A6A5A4A3A3A2A1B9
:1033A000A09F9F9E9D9C9C9B9A9999989797969574
:1033B00095949393929191908F8F8E8E8D8C8C8B10
:1033C0008B8A898988888787868585848483838298
:1033D000828181800000FF070000F87F10F000422A
:1033E00048BF4042B0FA80F310FA03F10AD0C3F1AB
:1033F0001D0303F580634FEA415002EB035202EBD9
:10340000D12170474FF000007047B0FA80F310FAF6
:1034100003F10AD0C3F11D0303F580634FEA415065
:103420004FEA035202EBD12170474FF00000704782
:10343000DFF848C170B51CEA111E1EBF1CEA131547
:103440009EEA0C0F95EA0C0F00F06F8081EA0304EE
:1034500023EA4C134EEAD47E21EA4C1141F4801148
:1034600043F48013AE44A1FB024CA0FB0365AEF114
:103470007F7E361955EB0C05A1FB034C4CF1000384
:10348000A0FB021C16EB0C06654153F10003094238
:1034900018BF46F0010613F4007F0BD14FEA033149
:1034A0004FEA0530340341EA155140EA16506FF0F7
:1034B00003020AE04FEAC3214FEAC520F40241EAC1
:1034C000555140EA56506FF0020202EB2E4201EBDA
:1034D000025585EACE710AD05FEA440C18BF24F089
:1034E000004450F1000041F1000120EAD47040F2A4
:1034F000FE7C624500D270BDA84214BF4FF08044EC
:103500004FF04044002E08BF0024BEF1806FA8BFDA
:10351000A1F1C041BDE8704080F282804FF0000010
:1035200001F1C04101F0004170479EEA0C0F0CEA26
:10353000131518BF95EA0C0F06D04FF0000081EA72
:10354000030E0EF0004170BD00F01CF88900013E32
:1035500000F007B800F009B84FEA430C5FEA5C5C82
:1035600008D081EA030100F05BB84FEA410C5FEA42
:103570005C5CF6D14FF00000014970470000FF0786
:103580000000F87F0EF1020E2EF0030E5EF8046BC1
:10359000364205D4012A43EB030515F5001F12D866
:1035A000012841EB010C1CF5001F0CD80ED14FEA8D
:1035B000D17C15F5001F0CEB4C0C0CF1020C08BF74
:1035C0004CEBD37C04E04FF0080C01E04FEAD37CD5
:1035D0000CEB4C0526FA05F606F00706B6F1040CCE
:1035E00006D20EEB860CBDE870404CF0010C604733
:1035F000DFE80CF0090B02024FF000414FF0000031
:10360000A1F5002170BD19461046012851EB0104B7
:1036100018BFD4F5001484BF002001F0004170BD34
:103620000808A0F500114FEA3101704791EA030F35
:1036300010B581F000413FF5D1AC83F0004300F0BC
:1036400009B8000010B591EA030F48BF83F00043AA
:103650003FF5C4AC841A71EB030C07D212198CF03D
:10366000004C43EB0C03001B61EB0C01DFF8A4E101
:103670004FEA1154A4EB135C1EEA430F18BF9EEAF5
:10368000445F00F0B08023EA6E03524221EA045105
:10369000C3EB6E0338BF5B1EDCF1200E25D322FA8C
:1036A0000CFE10EB0E0043FA0CFE41EB0E01CCF1C8
:1036B000200E03FA0EFE10EB0E0051F10001CCF1CA
:1036C000200E29D412FA0EF201EB0451BDE810408D
:1036D00058BF7047401C1CBFB2F1004F7047002814
:1036E0000CBF491C20F00100704712EB020E43EBA7
:1036F000030218BF4FF0010E4EEA4202ACF1200C5B
:10370000DCF11E0E54D943FA0CFE10EB0E0051F101
:10371000FF31CCF11E0ED5D50EF1010E12FA0EFEC0
:10372000404141EB010101EB445C5FEA5C5C10D974
:1037300010EBDE7001EB045138BFBEF1004FBDE865
:10374000104018BF704700280CBF491C20F0010032
:10375000704730D24FEAD42C11F5001124F40064E4
:103760001BD0B1FA81F20B3AA41AA41ED2F12003A5
:10377000914030FA03F31943904001EBCC71002CD7
:1037800001EB0451BDE81040A8BF704701F1C041F2
:103790004FF0000001F000417047B0FA80F310FADA
:1037A00003F100D110BDE41A173C4805C90AE4E74B
:1037B00001EB045110BD491001EB0451BDE810406C
:1037C0004FEA300002E04FF0000170474A0008BFA6
:1037D0000042F8D0B2F5001F28BF704701F0004149
:1037E0004FF0000070479EEA445F07D011EA5E0F79
:1037F000BDE8104004BF002100207047BDE8104024
:1038000070B5FFF7BFFE00BF40DFF63E83F000411A
:10381000104670470000E0FF43004FEAD30C4FEA28
:103820003C0C43401FBF40070CF1605113F0FE4FAA
:1038300070471CF0006F03D100200CF0004170476E
:103840000CF0004343EA507010B540EACC0000F0A1
:103850005CFA00BF000000924FEA0001FFF7E0BEF3
:103860004FF000414FF00000A1F50021704700002B
:1038700090EA010F48BF81F0004100F1D482421A62
:103880003CBF801A89184FEAD0524FF07F4C1CEA97
:10389000410FA2EBD15318BF9CEA026F00F03B80AE
:1038A0004FF0004C4CEA00204CEA012121FA03FCC5
:1038B00010EB0C0C1ED202F1FF325FEA1C2040EB31
:1038C000C25038BF70471CF07F0F4FEA400C18BF42
:1038D000BCF17F4F38BF7047C3F12003994008BF48
:1038E00020F00100BCF17F4F38BF7047A0F1C0400D
:1038F00000F051BA4FEA3C00000A40EBC25028BF2A
:103900001CF0FF0F4FEA400CE6D018BFBCF17F4F10
:1039100038BF7047EAE79CEA026F05D010EA5C0FF7
:1039200008BF00F00040704710B500F0EEF900BF8E
:1039300064FBBE3E401058BFC0F14040491058BF24
:10394000C1F140418142EFF3008070474FF47F0C9A
:103950001CEAD0121EBF1CEAD11392EA0C0F93EAA4
:103960000C0F00F0858090EA010F48BF42F480728E
:1039700040F4000C41F400002CF07F4120F07F4027
:1039800000B58142A2EB03020FF2081CACEB504ED3
:10399000C0F100009EF800E04FEA4E0E00FB0EFC66
:1039A00038BF49004FEA2C1C02F5FA020CFB0EF35B
:1039B0004FEACE1E4FEA112C4FEAC1210EEB635E97
:1039C00042EB22420EFB0CFC4FEA1C5300FB03119E
:1039D0004FEA112C4FEA01310EFB0CFC4FEADC4C94
:1039E00000FB0C11C14228BF09184CEB03335DF8F2
:1039F00004EB10EB410143EBC250B2F57C0F38BF32
:103A0000704729D512F0F00F1CBF00F1C04000F044
:103A100000407047008182838485868788898B8CEB
:103A20008D8E8F919293959697999A9C9D9FA0A227
:103A3000A3A5A7A8AAACAEB0B2B3B5B7B9BCBEC077
:103A4000C2C5C7C9CCCED1D4D7D9DCDFE2E6E9EC18
:103A5000F0F3F7FAFE0000004FEA400C0CF1807C16
:103A6000BCF17E4F28BF7047B0F1C04000F093B961
:103A700090EA010F0CEAD11348BF42F4807262450C
:103A800038BF634507D213F47F0F16D080EA0100D8
:103A900000F00040704710B500F037F9097EFC3E99
:103AA00000F005B880EA010000F00040704780EAAD
:103AB000010000F0004000F06EB912F47F0F04BF67
:103AC0000248704780EA010000F065B90000C07F3D
:103AD00041000B0ED3F19E0208D950F400034FEAC7
:103AE000032323FA02F048BF4042704710B500F0AC
:103AF0000CF900BF49922480002070476FF000420B
:103B000082EA200070470000C10DD1F19E0206DB61
:103B10004FEA002343F0004323FA02F070470042CB
:103B200007D54FEA4001B1F1FE4F02D24FF000003D
:103B3000704710B500F0E9F84992248000207047E2
:103B40006FEA20007047000010F0004148BF40427B
:103B5000B0FA80F310FA03F2C3F19D030BD051EADF
:103B6000C35101EB1220530638BF704700F101002A
:103B700008BF20F001007047B0FA80F310FA03F29A
:103B8000C3F19D030AD0D90501EB1220530638BFBB
:103B9000704700F1010008BF20F0010070470000ED
:103BA00050EA010C00F113801CF5000F58BFBCF562
:103BB000000F01D48842704707D710F5000F58BF97
:103BC00011F5000F15D488427047894270471CF5E3
:103BD000000F04D5BCF5000FF7D5814270474FF0B8
:103BE000807C1CEB400F38BF1CEB410F01D281429F
:103BF000704710B500F089F8922449004FF000504A
:103C00004FF08051FFF796BE4FF47F0C1CEAD012A4
:103C10001EBF1CEAD11392EA0C0F93EA0C0F00F0BE
:103C2000478090EA010F48BF42F480724FF0004C89
:103C30004CEA00204CEA012102EB0302A0FB011335
:103C4000A2F50002002918BF43F001035B0028BF62
:103C50004FEA330342EB22425FEA132C4CEBC25093
:103C60002EBFBCEB436FB2F57C0F70474FEA036C7D
:103C7000BCF1004F08BF20F00100B2F57C0F38BF47
:103C800070470BD582F0FF0212F5803FC8BF704726
:103C900000F1C040D8BF00F00040704700F5000CB4
:103CA0005FEA4C0C48BF7047B0F1C04000F073B8F9
:103CB00090EA010F0CEAD11348BF42F480726245CA
:103CC00038BF634504D280EA010000F0004070472D
:103CD00010B500F01AF800BF8900013E00F007B8E7
:103CE00000F009B85FEA410C5FEA1C6C08D080EA7A
:103CF000010000F050B85FEA400C5FEA1C6CF6D19E
:103D00004FF00040A0F5800070470EF1020E2EF03B
:103D1000030E5EF8044B244204D44FEA4102B2F190
:103D20007F4F11D84FEA4003B3F17F4F0CD80ED12B
:103D30004FEAD07CB2F17F4F0CEB4C0C0CF1020C33
:103D400008BF4CEBD17C04E04FF0080C01E04FEAD7
:103D5000D17C0CEB4C0324FA03F404F00704B4F117
:103D6000040C06D20EEB840CBDE810404CF0010CA4
:103D70006047DFE80CF0070802024FF00040A0F5B2
:103D8000800010BD0846420018BFD2F1807288BF83
:103D900000F0004010BDFF2141EAD050C00570473F
:103DA00051EA000C00F113801CF5000F58BFBCF560
:103DB000000F01D48142704707D711F5000F58BF9B
:103DC00010F5000F15D481427047894270471CF5E9
:103DD000000F04D5BCF5000FF7D5884270474FF0AF
:103DE000807C1CEB410F38BF1CEB400F01D2884296
:103DF000704780EA010081EA000180EA0100FFF7D4
:103E0000F8BE80F0004090EA010F7FF538AD81F0F8
:103E1000004100F008B8000090EA010F48BF81F0AF
:103E200000413FF52CAD421A04D882F00042A0EBCD
:103E3000020011444FEAD0524FF07F4C1CEA410F70
:103E4000A2EBD15318BF9CEA026F4AD04FF0004C4E
:103E50004CEA00204CEA012121FA03FCB0EB0C0CE7
:103E60000FD412F0FE0F36D05FEA4C001DD50012C1
:103E700040EBC25038BF70471CF03F0F18BF70476F
:103E80000BE0A2F101025FEA1C2040EBC25038BFF8
:103E900070471CF07F0F18BF7047C3F12003994093
:103EA00014BF401E20F00100704780084FEA122323
:103EB00008BF7047B0FA80FCA2EB0C02CCF1280CD2
:103EC00060FA0CF093EA122F04BF00EBC250704767
:103ED0004FEAC3707047130A5FEADC1008BF7047EF
:103EE000F6E79CEA026F04D010EA5C0F08BF0020DE
:103EF000704710B5FFF709FF40DFF63E81F0004044
:103F00007047FCF7DFBA0CF00F03092B08BF08203D
:103F100000F059800A2B0BD0082B18BF704708BF40
:103F20001CF0400F0AD04FF000004FF00001704726
:103F30001CF0400F18BF4FF0004070471CF0100FEE
:103F400008D020F0704300F07F4242EAD3014FEAEC
:103F50004370704700F0604021F07F4242EA000267
:103F600001F07F4040EA727070474FF0FF0C4CF454
:103F7000E06C1CEA11531CBF9CEA030C9445C2BFC1
:103F8000DA4201EB02517047002B0DD0BCF1000F5B
:103F90000FD0002A01F00041A4BF41F0E04141F000
:103FA0007F614FF00000704701F000414FF00000CA
:103FB000704750EA01334FF09B0C18BF4CF0806CF7
:103FC0007FF4ACA870471CF4801F11D01CF4E02FC4
:103FD00003D06FEACC31490070474FF04050EFF307
:103FE000008222F0704242EA000282F300887047A9
:103FF0004FF00000704700004FBB610567ACDD3F2C
:10400000182D4454FB21E93F9BF681D20B73EF3FFF
:10401000182D4454FB21F93FE2652F227F2B7A3C77
:10402000075C143326A6813CBDCBF07A8807703C30
:10403000075C143326A6913CC4EB98999999C9BFA3
:10404000711623FEC671BCBF6D9A74AFF2B0B3BFD8
:104050009AFDDE522DDEADBF2F6C6A2C44B4A2BF98
:104060000D5555555555D53FFF8300922449C23F04
:104070006E204CC5CD45B73F513DD0A0660DB13F38
:10408000EB0D76244B7BA93F11DA22E33AAD903F4A
:1040900002400000000000A00000000005400000F9
:1040A000000000C8000000000C4000000000409C20
:1040B00000000000194000000020BCBE000000000D
:1040C00034400000BFC91B8E00000004B540000052
:1040D000504BCFD06607E2CF010000006C410000DA
:1040E0003E8251AADFEEA73401000000D942000051
:1040F000DCB5A0E23A301F97FFFFFFFFB445000098
:10410000FD25A0C8E9A3C14FFFFFFFFFFF3F00004F
:104110000000008000000000FF3F00000000008061
:104120000000000060410008000000205C0000006A
:1041300028010008BC4100085C000020CC060000FB
:10414000440100081C00000043000000F8FFFFFFCE
:104150000C0000000E0000000F0000002E00000008
:10416000010100000000000000000000000000004D
:1041700000080140000C0140001001400000004018
:1041800000040040000800400038014000440040A6
:104190000048004000000000000000000000000097
:1041A000000000000000000000000000000000000F
:0C41B00000000000000000000000000003
:04000005080000ED02
:00000001FF
