:020000040800F2
:1000000018080020A1010008A9010008AB010008A0
:10001000AD010008AF010008B101000800000000B8
:10002000000000000000000000000000B301000814
:10003000B501000800000000B7010008B901000880
:10004000BB010008BB010008BB010008BB010008A0
:10005000BB010008BB01000819120008311200089A
:1000600049120008851200089D120008BB01000813
:10007000BB010008BB010008BB010008BB01000870
:10008000BB010008BB010008BB010008BB01000860
:10009000BB010008BB010008BB010008D912000821
:1000A000BB010008BB010008BB010008BB01000840
:1000B000851A0008A51A0008C91A0008BB01000823
:1000C000BB010008BB010008BB010008BB01000820
:1000D000BB010008E51A0008011B00081D1B0008F1
:1000E000BB010008BB010008BB01000800F002F8DA
:1000F00000F047F80AA090E8000C82448344AAF17B
:100100000107DA4501D100F03CF8AFF2090EBAE878
:100110000F0013F0010F18BFFB1A43F0010318473B
:10012000C8510000E8510000103A24BF78C878C1D7
:10013000FAD8520724BF30C830C144BF04680C60ED
:10014000704700000023002400250026103A28BF35
:1001500078C1FBD8520728BF30C148BF0B60704739
:10016000662904F0EC87002070471FB500F0FEFA06
:1001700004000020002103F021FFE0601FBD10B546
:1001800010BD00F013FC1146FFF7EFFF03F0CCF9B0
:1001900000F031FC03B4FFF7F2FF03BC01F0BDFD3A
:1001A0000948804709480047FEE7FEE7FEE7FEE70B
:1001B000FEE7FEE7FEE7FEE7FEE7FEE70448054947
:1001C000054A064B70470000251A0008ED0000089C
:1001D000180200201808002018040020180400202D
:1001E000704700000FB4044910B503AA029800F04C
:1001F000ABFA10BC5DF814FBC00000202DE9F047FD
:100200004FF0000A89460446C0F820A02046E16865
:100210008847002876D0252806D0D4E901219047C8
:10022000206A401C2062F1E7E168204600258847EB
:10023000C4F81CA006460027C4F818A02A2E09D02E
:10024000304601F063FD38B304EB8708303EC8F850
:10025000186019E059F8041B204604EB87029161ED
:10026000E1688847012F064618D1E069002820DAA6
:1002700025F020051DE0D8F8180000EB800006EB03
:1002800040003038C8F818002046E1688847064624
:1002900001F03CFD0028EED1012F0AD02E2E08D10E
:1002A0002046E16888477F1C0646022F45F020055E
:1002B000C4DBA069002803DA404245F00105A061D3
:1002C000E80701D025F01005B6B1A6F141001928C4
:1002D00002D8203645F400654A463146204625605E
:1002E0004D46FFF73DFF58B1012806D0ED1D25F022
:1002F000070000F1080989E704E005F1040985E732
:1003000030468AE7206ABDE8F0877047704770473B
:10031000704710B500F02EFA006810BD10B5044605
:1003200000F028FA046010BD70472DE9FF4F0C461D
:100330001E464FF0FF378BB0D2E90001DDF8608038
:100340000A908A46C1F30A5505B93D460021084680
:100350004FF00000BAF1000F00F4400005DA00EBA6
:1003600080004FF4400101EA50004FEA9059B9F182
:10037000010F00DDB9460A9850EA4A000ED044F653
:100380001050A5F2FF3545432F14B8F1000F1ED0D1
:100390007542291E1EDDC9F100021CE0B8F1010FF3
:1003A0004FF0000001D0302103E0F24305E021547A
:1003B000401CB042FBDB30460022002121540B9947
:1003C000C1F80880C1E900200FB0BDE8F08FBD1B67
:1003D0006D1CDEE74A4600DA694206A800F06CFAB6
:1003E00006AB93E8070003AB83E8070050460A9981
:1003F00000F04AFB8DE80700A0F500501F38009080
:100400000398002D0ADD42F21F014A4608440023EA
:1004100003A90390684600F0B3FD09E0A0F5005081
:100420004A461F38002303A90390684600F0BDFD2B
:100430008DE807000004000C03D04FF0FF304108A6
:1004400000E01046B8F1000F03D0002200921546DC
:100450001EE0751E05D400F091F9303262556D1E14
:10046000F9D5B3460122084302D000227F1C04E0E4
:100470002078302801D100227F1E002A099784D0DD
:100480001DE0112D07DA00F079F9303262556D1C4C
:1004900050EA0102F5D1084302D00098C8B10EE03D
:1004A0000021681E05E0235C625C63542254401EF8
:1004B000491C8142F7DBAB46A81B401E0990002077
:1004C00004F80B000B98099AC0F80880C0E9002BCB
:1004D0007AE711264FF0000857E72DE9F04F8846DC
:1004E0000446D21D22F0070191B0D1E90001CDE907
:1004F0000A0101F021FB02460B98C00F01D02D200C
:1005000007E02068810701D52B2002E0202101EAC5
:10051000C000032A099001D0072A05DB03464146A3
:10052000204600F089F90BE12078800601D5E069CA
:1005300000E00620B8F1650F814606D0B8F1660FDD
:1005400018D0B8F1670F70D131E00020B9F1110F68
:10055000009001DB112301E009F101030AAA01A9BE
:100560000CA8FFF7E2FEDDE90C70002609F1010599
:10057000834647E001204B4600904FF000470AAA0F
:1005800001A90CA8FFF7D1FEDDE90DB00C995D467D
:10059000002610B909F101000D18B9EB050003D4CC
:1005A000C0F1FF3609F10105A5EB09002BE0B9F117
:1005B000010F01DA4FF001090020B9F1110F00908D
:1005C000484601DD112300E003460AAA01A90CA850
:1005D000FFF7ABFEDDE90C704D4600268346207820
:1005E00000070AD4AB4500DA5D4601A8012D04DD01
:1005F000411911F8011C302907D04F4502DA17F1D3
:10060000040F04DA012082460FE06D1EEEE7002F92
:1006100002DCED1B3E4403E0781CA84200DD7D1C9B
:10062000B81B00F1010A4FF000472078000703D4FF
:10063000AA4501DB4FF0FF3A0021B7F1004F0DF161
:1006400043088DF8431024D002202B23002F01DA19
:100650007F422D230A21021EA0F1010000DC5FB1C0
:1006600097FBF1FC97FBF1F201FB1C7C17460CF1A8
:10067000300C08F801CDEEE7A8F1010003702188E5
:10068000090501D5452100E06521A0F1010800F828
:10069000011C09980FA9A1EB0807FF1D00B101205B
:1006A000411901EBEA70A1693844081A401EA061A3
:1006B0002078C00602D42046AFF30080099828B104
:1006C000D4E901219047206A401C20622078C006AE
:1006D00022D52046AFF300801EE0002E04DBB34598
:1006E00002DD01A8805D00E03020D4E901219047BF
:1006F000206A401C2062761CAAF101005FEA000A11
:100700000AD100F033F8C0680168405CD4E90121E7
:100710009047206A401C2062281EA5F10105DCDC00
:1007200007E0D4E9012118F8010B9047206A401C2A
:100730002062381EA7F10107F3DC2046AFF30080EA
:10074000032011B041E60000074B70B50D467B4415
:1007500000F05FF80446284600F020F910B14FF091
:10076000FF3070BD204670BD3B210000004870473F
:10077000D401002000487047B401002030B5B0F12A
:100780000A024FEA900E71F100034EEA817EB0EB4F
:100790000E0061EB91014FEA101E4EEA017E10EB54
:1007A0000E0041EB11114FEA102E4EEA016E10EBD4
:1007B0000E0041EB11214FEA104E4EEA014E10EBB4
:1007C0000E0041EB1141401841F100014FEAD00009
:1007D00040EA41704FEAD10110EB80054FEA8104F5
:1007E00044EA907444EB01046D1944EB0404521B79
:1007F000A3414FF0000348BF0A3200D530BD401C72
:1008000041F1000130BD000001694A1C0261087815
:10081000704700B58FB0CDE9013100210591054940
:100820007944CDE9031011466846FFF7E7FC0FB0A5
:1008300000BD0000E5FFFFFF2DE9F0411F46044623
:1008400003260168072A01F4006004DB08B116A53D
:1008500005E016A503E008B115A500E015A521F0F7
:1008600010002060A069C01EA0610FB1401EA061F1
:100870002046AFF300804FB1D4E9012138469047BC
:10088000206A401C2062C01C206206E0206AFAE751
:10089000D4E9012115F8010B9047761EF8D22046C5
:1008A000AFF30080BDE8F0814E414E006E616E00F6
:1008B000494E4600696E66002DE9F04781461646AE
:1008C0008AB0354878440DC88DE80D003248784428
:1008D000801C03AC0DC884E80D0041F69B30084431
:1008E000372190FBF1F290FBF1F5A5F1800501FBBA
:1008F00012041B3C02D56442012000E00020DFF816
:1009000098A080460027FA44AAF1BE0A0EE0E0074C
:100910000AD03246684607EB470101230AEB810102
:1009200000F043FB8DE8070064107F1C002CEED123
:10093000194F7F44AE3F19E0E80715D007EB0410CC
:100940000DF1180A90E80E008AE80E00C068F04227
:1009500001D1981908903246012306A903A800F096
:1009600024FB03AB83E807006D10641C002DE3D16A
:100970004FF0010332466946B8F1000F03A802D0D8
:1009800000F0FEFA01E000F010FBC9E90001C9F82F
:1009900008200AB0BDE8F087084A0000007B00F09C
:1009A0008000704700487047B40100207546FFF78B
:1009B000F9FFAE4605006946534620F0070085461C
:1009C00018B020B5FFF7FAFBBDE820404FF0000655
:1009D0004FF000074FF000084FF0000B21F0070127
:1009E000AC46ACE8C009ACE8C009ACE8C009ACE86A
:1009F000C0098D46704710B50446AFF3008020460D
:100A0000BDE81040FFF7C6BB4FF0013C50F8042B87
:100A100051F8043B9A4221D1A2EB0C03934313EA11
:100A2000CC1317D150F8042B51F8043B9A4215D13E
:100A3000A2EB0C03934313EACC130BD150F8042B15
:100A400051F8043B9A4209D1A2EB0C03934313EAF9
:100A5000CC13DBD04FF00000704700BFD01A01BAB2
:100A6000B1FA81F101F0180122FA01F0CB40C1F195
:100A70002001DBB2C0B2C01A2CFA01F3D11A9143A3
:100A800011EAC311E6D170475FEA400C08BF91F04C
:100A9000000F4FEA8C234FEAC12243EA51514FEA3B
:100AA0001C5018BF00F5F0404FEA300018BF41F06D
:100AB00000415FEA6C5C00F02980BCF1FF3F08BF99
:100AC00040F080407047130C06BF12044FF0100C2A
:100AD0004FF0000C130E04BF12020CF1080C130FA0
:100AE00004BF12010CF1040C930F04BF92000CF12F
:100AF000020CD30F04BF52000CF1010C11464FF051
:100B00000002A0F11F00A0EB0C00704711F0004F95
:100B100008BF704731F000413FF4D5AF0B0C06BF62
:100B200009044FF0100C4FF0000C0B0E04BF09022B
:100B30000CF1080C0B0F04BF09010CF1040C8B0F16
:100B400004BF89000CF1020CCB0F04BF49000CF16B
:100B5000010CCCF12003A0EB0C0022FA03F302FA03
:100B60000CF241EA030100F10100704720F07F4CD4
:100B700080EA030023F07F47ACEB070303F57C53C7
:100B800000F0004003F1FF032DE980494FEA154BC7
:100B900009B44FEA144325EA0B4E24EA03480FF246
:100BA000042606EB132749083E785FEA320203FB6E
:100BB0000667C7F5000707FB06F64FEA54374FEA0A
:100BC000D64606F1020607FB066CCCF1005C4FEA44
:100BD0001C472CEA074C07FB06F40CFB06F504EB5C
:100BE00015464FEA961634BF00204FF000404FEAFA
:100BF000D13706FB07FC4FEA1C4C0CFB0BF7D21B52
:100C000003FB0CF761EB07010CFB0EF7B0EB0740A1
:100C100072EB17420CFB08F734BFA2EB0742B2EBB2
:100C2000074261EB17414FEA0C444FEA910706FB7C
:100C300007FC4FEA1C4C0CFB0BF7B0EBC74072EB08
:100C4000573203FB0CF734BFA2EBC742B2EBC742EB
:100C500061EB57310CFB0EF7B0EBC70072EB57722C
:100C60000CFB08F734BFA2EBC702B2EBC70261EB83
:100C70005771039F4FEA816141EA921104EBCC0462
:100C80004FEAD1374FEA826206FB07FC42EA901234
:100C90004FEA80604FEA1C4C0CFB0BF7D21B03FBA6
:100CA0000CF761EB07010CFB0EF7B0EB074072EBA2
:100CB00017420CFB08F734BFA2EB0742B2EB074226
:100CC00061EB17414FEA8C554FEA910704EB9C24E6
:100CD00006FB07FC4FEA1C4C0CFB0BF7B0EBC740C4
:100CE00072EB573203FB0CF734BFA2EBC742B2EBF7
:100CF000C74261EB57310CFB0EF7B0EBC70072EB4C
:100D000057720CFB08F734BFA2EBC702B2EBC70265
:100D100061EB577115EB4C254FEA816141EA921165
:100D20004FEA82624FEAD13742EA901206FB07FC93
:100D300044F100044FEA80604FEA1C4C0CFB0BF7B7
:100D4000D21B03FB0CF761EB07010CFB0EF7B0EBBA
:100D5000074072EB17420CFB08F734BFA2EB0742C7
:100D6000B2EB074261EB174115EB1C154FEA8131DD
:100D700041EA92414FEA823242EA90424FEA8030A1
:100D80004FEA0C7644F1000448EA03434EEA0B486C
:100D90004FF0000EB2EB080C71EB030724BF624664
:100DA00039464EEB0E0E4FF0000B001852414941F0
:100DB0004BEB0B0BB2EB080C71EB03077BF1000B59
:100DC00024BF624639464EEB0E0E4FF0000B001862
:100DD000524149414BEB0B0BB2EB080C71EB030793
:100DE0007BF1000B24BF624639464EEB0E0E51EAF2
:100DF000020718BF46F0010616EB0E7655F1000209
:100E000054F1000103D5BDE88901BDE80088BDE8C3
:100E10008901BDE80048B619524141EB0101A3F137
:100E20000103704780807F7E7D7C7B7A797877763E
:100E300076757473727171706F6E6E6D6C6C6B6AB7
:100E40006A69686867666665646463636261616055
:100E5000605F5F5E5E5D5D5C5C5B5B5A5A595958D2
:100E6000585757565655555554545353525252513C
:100E7000515050504F4F4F4E4E4D4D4D4C4C4C4B92
:100E80004B4B4A4A4A4949494848484747474746D9
:100E90004646454545444444444343434342424215
:100EA00042414141002B9C4630D477002BD01CB5E9
:100EB0004FEA370703B44FF010004FF01001BAF1BA
:100EC000000F06D0BCF1000FDCBF40F0080040F07E
:100ED00008014FF000000FBCBDE810400BF1010B02
:100EE000BBF1010F08BF5FEA170722BF12F1010231
:100EF00011F101014FF0004143F1000300F0004007
:100F000043EA00007047F9D35708D0E746EA06469F
:100F100013F1400F4FEA16461FDD13F1200FDFBF1C
:100F200016430A46002120335B42BED0C3F120079E
:100F300046EA064602FA07F74FEA164646EA070669
:100F4000C3F1200722FA03F201FA07F721FA03F1AD
:100F50004FF0000342EA0702A7E746EA020646EA24
:100F600006464FEA164646EA0106BCBF46EA064672
:100F7000360C4FF000034FF000024FF0000194E7F1
:100F80002DE9804C9A46934670B491E8380007C822
:100F900031EA400C48BF34EA430C03D5FFF7E6FDC5
:100FA000FFF780FFF0BCBDE8008C2DE9804C9A462D
:100FB000934670B491E8380007C810F0804F08BF1E
:100FC00013F0804F03D100F005F8FFF76BFFF0BC82
:100FD000BDE8008C20F07F4780EA030023F07F4CBF
:100FE00007EB0C03A3F57C5300F00040A3F1FE03D4
:100FF00092F0000F00F0B38095F0000F00F07780C2
:101000002DE901494FEA11404FEA144621EA004810
:1010100000FB06FC24EA064708FB06F607FB08F877
:1010200000FB07F718EB06484CEB164C4FEA124B47
:1010300018EB07484FEA15464CEB174022EA0B4ED7
:101040000BFB06FC25EA06470EFB06F607FB0EFE29
:101050000BFB07F71EEB064E4CEB164C4FF0000651
:101060001EEB074E4CEB174B18EB0B0840F1000042
:1010700018EB0E0B58EB000840F100008F1A4FF0F0
:1010800000013CBFC943661B14BFB5EB040C002133
:101090003CBFC943F61B4FEA17444EEA8E0E27EABF
:1010A00004454FEA1C4704FB07622CEA074C05FB8A
:1010B00007F70CFB05F604FB0CFC16EB074642EBAE
:1010C000174216EB0C4642EB1C421BEB060658EB94
:1010D0000202414146EA9E0601D5BDE80189B619E2
:1010E000524141EB0101A3F10103BDE801894FEA3F
:1010F00014454FEA114724EA054621EA074C05FB4F
:1011000007F406FB07F70CFB06F105FB0CFC11EBE3
:10111000074144EB17444FEA124711EB0C4144EBF3
:101120001C4422EA074C05FB07F206FB07F70CFB01
:1011300006F605FB0CFC16EB074642EB174216EBD6
:101140000C4642EB1C456A1854F1000148BF704739
:10115000B619524141EB0101A3F10103704795F02B
:10116000000F37D04FEA11424FEA144721EA0246F6
:1011700024EA074C02FB07F106FB07F70CFB06F419
:1011800002FB0CFC14EB074441EB17414FEA1547F7
:1011900014EB0C4441EB1C4125EA074C02FB07F51C
:1011A00006FB07F70CFB06F602FB0CFC16EB0746EA
:1011B00045EB174516EB0C4645EB1C42121951F155
:1011C000000148BF7047B619524141EB0101A3F13C
:1011D000010370474FEA14454FEA114724EA0546D8
:1011E00021EA074C05FB07F106FB07F70CFB06F2AB
:1011F0004FF0000605FB0CFC12EB074241EB1741D8
:1012000012EB0C4251EB1C4148BF7047921841EB66
:101210000101A3F1010370470448006800F00100D8
:1012200010B101200149086070470000140401401A
:101230000448006800F0020010B102200149086073
:10124000704700001404014010B50C48006800F01D
:10125000040090B10321002001F026FB28B10848CA
:101260000068401E0649086004E005480068401C0C
:101270000349086004200149086010BD14040140BE
:10128000040000200448006800F0080010B10820A5
:1012900001490860704700001404014010B50C4873
:1012A000006800F0100090B10521002001F0FCFA68
:1012B00028B108480068401C0649086004E0054859
:1012C0000068401E0349086010200149086010BDF5
:1012D000140401400800002010B58CB04348006899
:1012E00000F0200010B12020404908603F4800680D
:1012F00000F0400010B140203C4908603B480068C5
:1013000000F0800000285DD000F030F93848B0F9D6
:10131000000003F07FFC04464FF08D4103F048FBD2
:1013200009903448B0F9000003F074FC04464FF013
:101330008D4103F03DFB0A902F48B0F9000003F007
:1013400069FC04464FF08D4103F032FB0B902B48B3
:10135000B0F9000003F05EFC0446294903F028FBC5
:1013600006902848B0F9000003F054FC04462449D4
:1013700003F01EFB07902448B0F9000003F04AFC7C
:1013800004461F4903F014FB089020480290DDE951
:101390000701CDE90001069B09A807C801F0B8FCC8
:1013A00006A90EC903A801F0ADFB1949039808600E
:1013B00018490498086018490598086080200B496E
:1013C000086000BF0948006800F4807018B14FF44D
:1013D0008070064908600548006800F4007018B184
:1013E0004FF40070014908600CB010BD14040140B6
:1013F000C4000020C6000020C8000020CA00002051
:1014000033338341CC000020CE0000200AD7A33B19
:10141000E8000020EC000020F000002010B50222BF
:101420000A21012001F052FA02220B21012001F0D1
:101430004DFA01220B21104601F01AFB01220A216C
:10144000104601F015FB10BD10B501220B2110460E
:1014500001F00EFB01220A21104601F009FB0022D7
:101460000A21012001F004FB10BD70B50025012206
:101470000B21104601F0FCFA002412E001220A219F
:10148000104601F0F5FA0B21012001F00DFA10B120
:1014900080202041054300220A21012001F0E8FAC2
:1014A000641C082CEADB284670BD70B50546002494
:1014B00019E080202041284028B101220B2110464C
:1014C00001F0D6FA04E000220B21012001F0D0FA4D
:1014D00001220A21104601F0CBFA00220A21012044
:1014E00001F0C6FA641C082CE3DB70BD10B50122C4
:1014F0000B21104601F0BCFA01220A21104601F02E
:10150000B7FA00220B21012001F0B2FA00220A21D1
:10151000012001F0ADFA10BD10B500220B21012011
:1015200001F0A6FA01220A21104601F0A1FA0122D7
:101530000B21104601F09CFA10BD10B500240122C9
:101540000B21104601F094FA01220A21104601F005
:101550008FFA0B21012001F0A7F9044600220A218D
:10156000012001F085FA204610BD000070B53B2037
:1015700000F072F804463C2000F06EF8054645EA9B
:10158000042000B2214908803D2000F065F804469F
:101590003E2000F061F8054645EA042000B21C49EF
:1015A00008803F2000F058F80446402000F054F82E
:1015B000054645EA042000B216490880432000F0A1
:1015C0004BF80446442000F047F8054645EA04205D
:1015D00000B211490880452000F03EF8044646203C
:1015E00000F03AF8054645EA042000B20B490880AD
:1015F000472000F031F80446482000F02DF8054659
:1016000045EA042000B20649088070BDC4000020ED
:10161000C6000020C8000020CA000020CC00002026
:10162000CE00002010B502216B2000F035F82721F4
:10163000192000F031F800211A2000F02DF81821AF
:101640001B2000F029F800211C2000F025F80121C2
:10165000382000F021F810BD70B50446FFF746FFB2
:10166000D020FFF722FFFFF768FF2046FFF71DFF9E
:10167000FFF763FFFFF750FFFFF738FFD120FFF7B9
:1016800014FFFFF75AFFFFF7F0FE0546FFF7DCFEF9
:10169000FFF742FF284670BD70B505460C46FFF7C0
:1016A00025FFD020FFF701FFFFF747FF2846FFF790
:1016B000FCFEFFF742FF2046FFF7F7FEFFF73DFF76
:1016C000FFF72AFF70BD0000014607238B431A0273
:1016D000054B18684FF6FF0318401043034B18439F
:1016E000014B1860704700000CED00E00000FA05A7
:1016F00070B505460C460420FFF7E6FF0E48005D76
:1017000000F0010646EA0510C1B20B48015520461B
:10171000E21704EBD2625211A4EB421301229A4069
:101720002146E31704EBD3635B119B0003F1E02335
:10173000C3F8002170BD000000E400E070B5002493
:101740000EE00021204600F0C7F8002504E000204C
:1017500000F0E3F8681CC5B2802DF8DB601CC4B251
:10176000082CEEDB70BD10B502220821012001F02B
:10177000ADF802220921012001F0A8F80122082178
:10178000104601F075F901220921104601F070F9A7
:1017900010BD70B50546002413E08020204100EA0A
:1017A00005020921012001F063F9012208211046F8
:1017B00001F05EF900220821012001F059F9601CB6
:1017C000C4B2082CE9DB01220821104601F050F9CF
:1017D00000220821012001F04BF970BD10B5012253
:1017E0000921104601F044F901220821104601F0B8
:1017F0003FF900220921012001F03AF900220821D5
:10180000012001F035F910BD10B500220921012099
:1018100001F02EF901220821104601F029F90122D8
:101820000921104601F024F910BD70B5002406E02E
:10183000002500E06D1CB5F57A7FFBD3641CB4F580
:101840007A7FF5D3FFF78FFFAE2000F056F8D52052
:1018500000F053F8802000F050F8A82000F04DF878
:101860003F2000F04AF8D32000F047F8002000F0B5
:1018700044F8402000F041F8A12000F03EF8C820D4
:1018800000F03BF8DA2000F038F8122000F035F8CC
:10189000812000F032F8CF2000F02FF8D92000F09E
:1018A0002CF8F12000F029F8DB2000F026F8302099
:1018B00000F023F8A42000F020F8A62000F01DF886
:1018C0008D2000F01AF8142000F017F8AF2000F077
:1018D00014F8FFF733FF70BD70B505460C4645F0B0
:1018E000B00000F00AF8102141EA141000F005F8E9
:1018F00004F00F0000F001F870BD10B50446FFF7CA
:101900006DFF7820FFF745FF0020FFF742FF2046DC
:10191000FFF73FFFFFF778FF10BD10B50446FFF754
:101920005DFF7820FFF735FF4020FFF732FF2046AC
:10193000FFF72FFFFFF768FF10BD10B500F002F8AA
:1019400010BD00000CB500200190009033480068E5
:1019500040F480303149086000BF3048006800F42E
:10196000003000900198401C0190009818B901982F
:10197000B0F5A06FF1D12948006800F4003010B133
:101980000120009001E0002000900098012843D140
:101990002348006840F010002149086008460068AC
:1019A00020F0030008600846006840F0020008606C
:1019B0001A48406819494860084640684860084627
:1019C000406840F4806048600846406820F47C101D
:1019D00048600846406840F4E810486008460068DF
:1019E00040F08070086000BF0C48006800F0007094
:1019F0000028F9D00948406820F0030007494860F2
:101A00000846406840F00200486000BF0348406854
:101A100000F00C000828F9D10CBD000000100240B5
:101A20000020024010B51348006840F00100114941
:101A3000086008464068104908400E49486008465A
:101A400000680E4908400B4908600846006820F409
:101A5000802008600846406820F4FE0048604FF48B
:101A60001F008860FFF769FF4FF0006004490860BD
:101A700010BD0000001002400000FFF8FFFFF6FE5E
:101A800008ED00E04FF08040008A00F0010038B11E
:101A90004FF08040008A20F001004FF08041088222
:101AA0007047000010B50748008800F0010038B109
:101AB00001F0A2FE0348008820F0010001490880DF
:101AC00010BD0000100400400548008800F001002F
:101AD00028B10348008820F00100014908807047C0
:101AE000100800400548008800F0200028B1034895
:101AF000008820F02000014908807047003801402C
:101B00000548008800F0200028B10348008820F034
:101B100020000149088070470044004005480088C3
:101B200000F0200028B10348008820F0200001497F
:101B30000880704700480040490050EAC12018BFA3
:101B400004204A0D18BF40F0010040F2FF72B2EBD2
:101B5000515F08BF40F00200012808BF0520704710
:101B60004100080218BF04200A0E18BF40F001000F
:101B70004FF07F4232EA010108BF40F00200012825
:101B800008BF05207047012103F00DBB02F09CBE89
:101B90000021084602F00CBF6FF05E01080703F059
:101BA00002BB00002DE9F04D0D4614464FF07F4179
:101BB000B1EB440F9EBF4FF0FF312960BDE8F08DBF
:101BC0004FF0004040EA0421C4F3C750783810F0C9
:101BD0001F024A4B4FEA601CC2F120067B44C4F34B
:101BE000C750A0F178004FEA601003EB800053F873
:101BF0002C3008BFD0E901C612D0D0F804C0934001
:101C00002CFA06F73B4387680CFA02FC27FA06F821
:101C1000C06807FA02F2F0404CEA080C42EA0006FB
:101C2000A3FB0132ACFB01C0A6FB016101EB0C067A
:101C30008E4234BF4FF0010C4FF0000CC1186144CC
:101C4000BCF1000F02D0814202D903E0814201D2EF
:101C5000012000E00020104400F120024FEA921819
:101C60008006CA0C40EA42304F03C5F8008002F0FB
:101C7000D1FF8246384602F0E5FF6FF0120103F013
:101C800092FA0746304602F0DDFF6FF0250103F0BF
:101C90008AFA83463946504602F016FE594602F04B
:101CA00013FE00F500666FF30B065146304603F055
:101CB000D1F9394603F0CEF9594603F039F9104904
:101CC00003F008F807460F49304603F003F8394699
:101CD00002F0FAFD07460C49304602F0FBFF394698
:101CE00002F0F2FD14F0004F08BFBDE8F08DC8F11E
:101CF000805180F000402960BDE8F08D543600002E
:101D0000DB0FC92F22AAFD290000C92F30380A286D
:101D100001D2012070470020704700BF70470000CB
:101D20002DE9F04104464FF00E4000EB4400B0F1C5
:101D3000506F204655D84FF0FC41B1EB440F1CD2F8
:101D400024F000404FF07E5103F0F2F84FF0FF31E5
:101D500003F029FA054602F035F814F0004F1DBFD4
:101D60002F4F304E80F000402F4F08BF2F4E4FF0C6
:101D7000404102F0AFFF044605E000273E46014621
:101D800002F0A8FF05462A49284602F0A3FF294988
:101D900002F09AFD294602F09DFF274902F094FDCA
:101DA000294602F097FF254902F08EFD294602F0F0
:101DB00091FF234902F088FD80462946204602F023
:101DC00089FF414602F086FF05463146204602F073
:101DD0007BFD294602F078FD3946BDE8F04102F06E
:101DE00073BD4FF0E441B1EB440F08D9FFF7B8FEE3
:101DF000042808BFFFF7D0FE2046BDE8F0814FF071
:101E00007F41B1EB440F03D2BDE8F041FFF7BBBE09
:101E10000120FEF783FABDE8F041FFF7B9BE0000EC
:101E20000000C9BF22AAFDB90000C93F22AAFD399E
:101E300024FE1C3DC78AD83C1E67383D1B93993D44
:101E4000AFAA2A3E2DE9F0474FF0684202EB40036B
:101E50000C460546B3F1654F3CBF02EB4102B2F1BF
:101E6000654F80F0CD8000BFC0F3C752C1F3C753A8
:101E7000D21A1B2A06DD10F0004F14BF874888488D
:101E8000BDE8F08712F11A0F2FDA11F0004F06D0DB
:101E900010F0004F0CBF83488348BDE8F08721460F
:101EA000284602F085FD0646FFF75AFE042808BFC3
:101EB000FFF772FE2846FFF753FE05462046FFF760
:101EC0004FFE04463046FFF74BFE042D18BF052D8C
:101ED00008D1042C18BF052C04D1002804BF02200F
:101EE000FEF71CFA3046BDE8F0874200B2EB410F26
:101EF00025D910F0004F19BF6C4F6D4E6D4F6E4ECF
:101F0000224685F0004415460A4680F000411046FE
:101F10000A1A5200B2F1807F3ED248406749DFF88A
:101F2000A0A110F0004F18D04FF03F48384603F002
:101F300091F807465146304603F08CF817E011F04F
:101F4000004F04BF00263746E2D010F0004F19BF03
:101F50005C4F5D4E5D4F5E4EDAE74FF07C58384681
:101F600002F0B2FC07465146304602F0ADFC064690
:101F70004146284602F0AEFE214602F0A5FC82460C
:101F80002146404602F0A6FE294602F0D1FF514606
:101F900002F00EFD044604E02146284602F008FD4A
:101FA0000446014602F096FE80464A4902F092FE3F
:101FB000494902F089FC414602F08CFE474902F093
:101FC00083FC414602F086FE454902F07DFC414615
:101FD00002F080FE434902F077FC05464146204668
:101FE00002F078FE294602F075FE314602F06CFCE4
:101FF000214602F069FC3946BDE8F04702F064BCB6
:102000004FF07F42B2EB400F28BFB2EB410F03D23B
:10201000BDE8F047FFF7BABD40EA01035B0008BF27
:1020200044F0FF410AD0B2EB400F08BFB2EB410FC2
:1020300006D125F0804024F0804105460C4613E788
:10204000B2EB400F12BF5FEA410345F0FF4004F0DE
:1020500000413FF409AFB2EB410F12BF5FEA40020B
:1020600005F0004044F0FF413FF4FEAE4A0092EA22
:1020700040033FF5F9AE002AACBF4FF09F464FF04A
:102080003E56314602F026FE05463146204602F015
:1020900021FE044628462146E6E60000DB0FC9BFC4
:1020A000DB0FC93FDB0F4940DB0F49C00000C9BF50
:1020B00022AAFDB90000C93F22AAFD390060ED3E09
:1020C000C30ACE37000049C022AA7DBA00004940A9
:1020D00022AA7D3A2DAD65BD8FB8D53D0FB511BE95
:1020E00061C84C3EA8AAAABE2DE9F041044600BF33
:1020F00024F00040054610488168284602F0B6FDED
:1021000016D20D4A1168506802F0A4FF07460A482B
:102110008168284602F04CFC8046394602F0DAFD20
:10212000064605484168304602F002FFBDE8F081EE
:1021300001480068FAE700005C0000202DE9FF5F1D
:1021400066480168006802F0C5FD81466448016880
:10215000006802F0BFFD824662480168006802F034
:10216000B9FD03905D4801685F48006802F0B2FD68
:1021700004465B4801685C48006802F0ABFD054618
:10218000584801685848006802F0A4FD06465448C3
:1021900001685248006802F09DFD029051480168B4
:1021A0004E48006802F096FD01904E4801684C4888
:1021B000006802F08FFD00904FF08040039902F01C
:1021C00089FD804651464FF0804002F083FD8346F2
:1021D0004FF07E5102F0ACFE0746414602F03AFF56
:1021E0004249086086F000484046029902F06CFBC4
:1021F00007464FF0804102F06DFD3C49486085F094
:1022000000484046019902F093FE07464FF0804196
:1022100002F060FD3549886086F00048404602992A
:1022200002F086FE07464FF0804102F053FD2F4931
:10223000C8604FF08040039902F04CFD804649464B
:102240004FF0804002F046FD83464FF07E5102F091
:102250006FFE0746414602F0FDFE2449086184F006
:1022600000484046009902F02FFB07464FF080419E
:1022700002F030FD1D49486185F000484046019953
:1022800002F022FB07464FF0804102F023FD174980
:10229000886184F000484046009902F049FE0746F4
:1022A0004FF0804102F016FD1049C86151464FF0D1
:1022B000804002F00FFD804649464FF0804002F01A
:1022C00009FD83464FF07E5102F032FE074641463B
:1022D00002F0C0FE05490862BDE8FF9F2C00002007
:1022E0003000002034000020280000209001002051
:1022F0002DE9F843044602464F486946B0EB420FC9
:1023000009D94FF0E640B0EB420F94BF00204FF0E8
:10231000FF30009030E0494B22F00040834271D9F9
:102320004749204602F0D6FC02F0D2FD804602F07A
:1023300035FC00F0030000904249404602F0CAFC20
:1023400005464149404602F0C5FC06463F49404625
:1023500002F0C0FC07463E49404602F0BBFC214665
:1023600002F0E6FD394602F075FE314602F072FEDB
:10237000294602F06FFE04462546009C002C45DBF2
:10238000294614F0010F08461CD002F0A3FC0646B3
:10239000304902F09FFC304902F0CAFD314602F09C
:1023A00099FC2E4902F090FA314602F093FC29463E
:1023B00002F090FC294602F087FA14F0020F1CD0BC
:1023C000BDE8F88302F086FC0546254902F082FC50
:1023D000244902F079FA294602F07CFC224902F0F5
:1023E00073FA294602F076FC4FF07E5102F06CFA47
:1023F00014F0020F08BFBDE8F88380F00040BDE88C
:10240000F883FFE71046FFF7CDFBB4E76800B0F1B3
:102410007F4F3CBF4FF07E50BDE8F88307D14FF0AF
:102420000100FDF77BFFBDE8F843FFF7B1BB28468D
:10243000BDE8F843FFF7A7BBB61F927E490E494699
:1024400083F9223F1A61342C0020A23300A0FD3909
:102450000000C93F336D4C39DA82083CA0AA2ABE7D
:10246000B93AB2BACA9F2A3DDDFFFFBE00B50346A6
:1024700003E04FF47A7000F005F8181EA3F1010391
:10248000F7D100BD00EBC001C9004FF0E02251615F
:10249000002191610521116100BF4FF0E021096920
:1024A00001F480310029F8D004214FF0E0221161BD
:1024B000704700002DE9F04F8DB004460E461546DA
:1024C000606A28B92660012060620DB0BDE8F08F17
:1024D0004D4B0FCB09AF0FC70A952946606802F034
:1024E000F9FB0746216802F0EFF9206029462846EB
:1024F00002F0F0FB8246616902F0ECFB8046284660
:10250000E16802F0E7FB02902846216902F0E2FB55
:102510000190A16802F0D8F98246029902F0D4F93C
:102520008146414602F0D0F90746A16902F0CCF994
:1025300005902846616902F0CDFB0746E16802F08C
:10254000C3F906902846616902F0C4FB0746216979
:1025500002F0BAF90790E169606902F0B5F90890F4
:10256000216A059802F0B0F907463946059802F04D
:102570001FFA0390216A059802F0A6F9074639462A
:10258000079802F015FA04903046216802F062FDC7
:1025900083465946039802F09DFB0746216802F0E6
:1025A00093F920605946049802F094FB074661684D
:1025B00002F08AF960604FF07E50039902F04AFD04
:1025C0000746059902F086FBA0604FF07E50039904
:1025D00002F040FD0746069902F07CFBE060DDE971
:1025E000040102F077FB0746079902F0A1FC206185
:1025F0000699049802F06EFB0746089902F098FCD1
:10260000606100BF61E700002452000810B500229D
:102610000121062000F010F801220321002000F023
:1026200055F9002201210C2000F006F801220521B5
:10263000002000F04BF910BD2DE9F04704460E468E
:102640001746032194FBF1F0C11700EB917189103B
:10265000A0EB810189064FEA1168032194FBF1F098
:10266000C11700EB9171C1F38705204600F06AF8AD
:102670003148806940F001002F4988614FEAB1304C
:1026800050F825000F2101FA08F188432B4941F841
:102690002500032094FBF0F100FB114088B10320DA
:1026A00094FBF0F100FB1140401E012101FA00F003
:1026B00000FA08F0214951F8251001431F4840F85D
:1026C0002510032094FBF0F1012088401C49096883
:1026D00008431B49086066B9032094FBF0F1012010
:1026E00088401749083109680843154908310860CE
:1026F0000BE0032094FBF0F10120884010490C31DD
:10270000096808430E490C310860032094FBF0F07F
:1027100004280ADC032094FBF0F0801D00F0FF0980
:1027200049463846FEF7E4FF03E017213846FEF736
:10273000DFFFBDE8F0870000001002400800014004
:102740000004014010B50446182C12D2DFE804F052
:102750000C12181E242A30363C42484E545A6066E9
:102760006C72787E848A909601220021084600F0DF
:10277000ADF889E001220021104600F0A7F883E0BF
:1027800001220021022000F0A1F87DE00122114683
:10279000002000F09BF877E001221146104600F07F
:1027A00095F871E001221146022000F08FF86BE0ED
:1027B00001220221002000F089F865E001220221B7
:1027C000104600F083F85FE001220221084600F085
:1027D0007DF859E001220321002000F077F853E052
:1027E00001220321104600F071F84DE0012203217F
:1027F000022000F06BF847E001220421002000F0E5
:1028000065F841E001220421104600F05FF83BE04A
:1028100001220421022000F059F835E001220521AF
:10282000002000F053F82FE001220521104600F0AF
:102830004DF829E001220521022000F047F823E0AD
:1028400001220621002000F041F81DE001220621AE
:10285000104600F03BF817E001220621022000F0AC
:1028600035F811E001220721002000F02FF80BE0DD
:1028700001220721104600F029F805E00122072176
:10288000022000F023F800BF00BF10BD00BF054AC2
:10289000128802F04002002AF9D0C2B2014B1B1D7F
:1028A0001A8070470038014010B50246064850F8BB
:1028B0002200806801248C4000EA04030BB101204F
:1028C00010BD0020FCE700009C00002070B5654CA6
:1028D000A469042585402C43624DAC6108295DDA6A
:1028E000614C54F8204024688E000F25B540AC435D
:1028F0005D4D55F820502C601AB1032A01D0022AF0
:102900000FD10124944044F003048D00AC40564D97
:1029100055F820502D682C43534D55F820502C600D
:102920009FE0012A01D0042A2AD14F4C54F82040BC
:1029300024688E000825B5402C434B4D55F8205097
:102940002C60012A0ED1484C54F82040E46801253F
:102950008D4024EA050301248C401C43424D55F868
:102960002050EC60042A7CD13F4C54F82040E568AC
:1029700001248C40A5433C4C54F82040E56070E0B5
:10298000042494408D00AC40374D55F820502D68FC
:102990002C43354D55F820502C6062E0324C54F8F1
:1029A00020406468A1F10805AE000F25B540AC4396
:1029B0002D4D55F820506C601AB1032A01D0022A1F
:1029C00011D10124944044F00304A1F10805AD00A5
:1029D000AC40254D55F820506D682C43224D55F8DC
:1029E00020506C603DE0012A01D0042A2AD11E4CFF
:1029F00054F820406468A1F10805AE000825B540F0
:102A00002C43194D55F820506C60012A0CD1174CFD
:102A1000256801248C4025EA040301248C401C43D2
:102A2000114D55F82050EC60042A1AD10E4C54F880
:102A30002040E46801258D40AC430B4D55F82050F3
:102A4000EC600EE004249440A1F10805AD00AC4018
:102A5000054D55F820506D682C43034D55F8205016
:102A60006C6070BD001002409C0000200C0801400A
:102A700030B57AB10D4C54F82040E46801258D4002
:102A800024EA050301248C401C43084D55F82050CE
:102A9000EC600AE0054C54F82040E46801258D40C4
:102AA000AC43024D55F82050EC6030BD9C00002036
:102AB00010B501220C211046FFF708FF01220D215D
:102AC0001046FFF703FF01220E211046FFF7FEFE1E
:102AD00001220F211046FFF7F9FE012208210020F4
:102AE000FFF7F4FE01220D210220FFF7EFFE012285
:102AF0000E210220FFF7EAFE01220F210220FFF73C
:102B0000E5FE10BD2DE9FF4F8DB08146654A116A83
:102B1000D069FFF797F96449059002F0DBF80A9055
:102B20006048806980F000400490FFF7F9F85E4942
:102B3000059002F0CFF80B905A4A1168D068FFF761
:102B400081F95949059002F0C5F8824657490B981A
:102B500002F0C0F80590FFF7CBFB099053490B98A2
:102B600002F0B8F8059001F069F808904F490A980A
:102B700002F0B0F80590FFF7BBFB07904B490A98AD
:102B800002F0A8F8059001F059F8069008990E98FF
:102B900002F0A0F8049006990F9802F09BF80090BC
:102BA000099902F097F802900799109802F092F8AC
:102BB0000090099902F08EF80190029901F084FECC
:102BC0000390049902F046FA3749059002F082F822
:102BD00007463749384602F049F900D2344F3549A3
:102BE000384602F043F800D2324F3846FFF77CFAFD
:102BF000044621464FF07E5002F02CFA39460390ED
:102C000002F068F805902C480168204602F062F84E
:102C10000490059901F058FE27490860274A51465B
:102C20002748FFF747FC2648D0F800B0254626463F
:102C300029464FF07E5002F00DFA5946039002F0FB
:102C400049F805901F480168284602F043F80490AF
:102C5000059901F039FE804631464FF07E5002F072
:102C6000F9F94146039002F035F8059016480168DD
:102C7000304602F02FF80490059901F025FE0C90E3
:102C80001248C0F800A00F48C0F800800E490C9808
:102C900008600F4807600AA807C889E8070011B054
:102CA000BDE8F08F90010020E12E654235FA8E3CA0
:102CB0000000A0420000A0C2980000200AD7A33B59
:102CC00068000020540000209400002090000020A4
:102CD000500000204FF07E5007490860002007494F
:102CE0000860074908600749086007498860074885
:102CF000C8600020087570472800002034000020BC
:102D0000300000202C00002038000020CDCCCC3D2D
:102D10000FB400B5A1B02598FE490E9001F0DAFF7E
:102D200025902698FB490E9001F0D4FF2690279815
:102D3000F8490E9001F0CEFF279027980B9001469E
:102D40000A9001F0C7FF0D9026980990014608905F
:102D500001F0C0FF0B90259809900146089001F002
:102D6000B9FF0A900B9901F0AFFD0C900D9901F09D
:102D7000ABFD0E9001F026F80F90229800210E90E6
:102D800001F0D8FE0BD1239800210E9001F0D2FE65
:102D900005D1249800210E9001F0CCFE7ED024981D
:102DA0000B9001460A9001F095FF0D902398099031
:102DB0000146089001F08EFF0B9022980990014681
:102DC000089001F087FF0A900B9901F07DFD0C90AF
:102DD0000D9901F079FD0E9000F080FB2090229873
:102DE0000E90209901F076FF229023980E90209962
:102DF00001F070FF239024980E90209901F06AFF53
:102E00002490C5490F9801F031FF7DD2C348C069B5
:102E1000099024980890099901F05CFF0B90BF4835
:102E2000006A099023980890099901F053FF0A90CD
:102E30000B9902F00FF90E90B848006A0990229899
:102E40000890099901F046FF0B90B44880690990F9
:102E500024980890099901F03DFF0A900B9902F01F
:102E6000F9F80D90AD488069099023980890099968
:102E700001F030FF0B90A948C06909902298089092
:102E8000099901F027FF0A900B9902F0E3F80C90E2
:102E9000A3480E99006801F01DFF00E010E30A90BE
:102EA000289901F017FF0B909E4801680B9801F0DC
:102EB0000BFD9C4908609A480D99006801F00AFFD3
:102EC0000A90289901F006FF0B90974801680B982B
:102ED00001F0FAFC9449086091480C99006801F0EF
:102EE000F9FE0A90289901F0F5FE0B908F480168D1
:102EF0000B9801F0E9FC8D4908608D480E99006837
:102F000001F0E8FE0A9000E033E0864801680A9884
:102F100001F0DAFC0B90259801460A900B9801F01D
:102F2000D3FC259082480D99006801F0D3FE0A90E9
:102F30007D4801680A9801F0C7FC0B90269801466D
:102F40000A900B9801F0C0FC269079480C99006813
:102F500001F0C0FE0A90754801680A9801F0B4FCBF
:102F60000B90279801460A900B9801F0ADFC279032
:102F700061E2279801460B906E48006801F0AAFEB6
:102F80000D902698014609906B48006801F0A2FE5A
:102F90000B906A48006880F000400990259801462F
:102FA0000890099801F096FE0A900B9902F052F8E9
:102FB0000C900D9902F04EF84FF07C510E9001F0FC
:102FC00089FE1B90269801460B905A48006801F034
:102FD00081FE0D902798014609905748006801F03E
:102FE00079FE0B902598014609905548006801F03C
:102FF00071FE0A900B9901F067FC0C900D9902F09C
:1030000029F84FF07C510E9001F064FE1A9025983B
:1030100001460B904748006801F05CFE0D90279830
:10302000014609904548006801F054FE0B9026982F
:10303000014609904248006801F04CFE0A900B9945
:1030400002F008F80C900D9901F03EFC4FF07C5115
:103050000E9001F03FFE1990259801460B903648DE
:10306000006801F037FE0D9026980146099033481C
:10307000006801F02FFE0B90279801460990304818
:10308000006801F027FE0A900B9901F01DFC0C90DE
:103090000D9901F0DFFF4FF07C510E9001F01AFE08
:1030A0001890274801684FF0804001F013FE1790F8
:1030B000224801684FF0804001F00CFE16901E4837
:1030C00001684FF0804001F005FE15901948016835
:1030D0004FF0804001F0FEFD14901948016800682F
:1030E00001F0F8FD139015480168006801F0F2FD49
:1030F000129011480168006801F0ECFD11900D4834
:103100000168006801F0E6FD1090239801460C90DC
:10311000169817E035FA8E3CCDCCCC3D90010020BE
:10312000180000201C0000202000002024000020A7
:103130001400002034000020300000202C0000206B
:103140002800002001F0C6FD0E901299179801F09A
:10315000C1FD0C90229801460890159801F0BAFD27
:103160000A901199179801F0B5FD09900A9901F09C
:10317000ABFB0B900C9901F0A7FB0D900E9901F0A1
:1031800069FF1F90249801460C90169801F0A2FD4B
:103190000E901199169801F09DFD0C9012991698B9
:1031A00001F098FD0A90239801460590179801F0C8
:1031B00091FD07904FF08140139901F08BFD039032
:1031C000C1480168039801F085FD059022980146E9
:1031D0000190149801F07EFD03901099169801F06B
:1031E00079FD0290039901F035FF0490059901F0F3
:1031F0006BFB0690079901F02DFF0890169901F0DE
:1032000029FF09900A9901F05FFB0B900C9901F0DE
:103210005BFB0D900E9901F057FB1E902498014620
:103220000C90159801F056FD0E901199159801F02B
:1032300051FD0C901299159801F04CFD0A902398BD
:1032400001460590149801F045FD079010991598D6
:1032500001F040FD0590229801460190179801F079
:1032600039FD03904FF08140139901F033FD019037
:1032700096480168019801F02DFD0290039901F034
:1032800023FB0490059901F01FFB0690079901F0BC
:10329000E1FE0890159901F0DDFE09900A9901F010
:1032A00013FB0B900C9901F00FFB0D900E9901F0A0
:1032B0000BFB1D90239801460C90159801F00AFD18
:1032C0000E904FF08140119901F004FD0A90804862
:1032D00001680A9801F0FEFC0C90229801460890C3
:1032E000169801F0F7FC0A904FF08140129901F016
:1032F000F1FC089076480168089801F0EBFC099011
:103300000A9901F0A7FE0B900C9901F0DDFA0D90DF
:103310000E9901F09FFE1C901C99084601F0DAFC02
:103320000D901D99084601F0D5FC0B901E9908469A
:1033300001F0D0FC09901F99084601F0CBFC0890E1
:10334000099901F0C1FA0A900B9901F0BDFA0C90AD
:103350000D9901F0B9FA0E9000F0C0F82090DDE967
:103360001F0101F0B7FC1F9020991E9801F0B2FCDC
:103370001E9020991D9801F0ADFC1D9020991C987D
:1033800001F0A8FC1C9053481F99006801F0A2FCB2
:103390000E901B9901F0CCFD1B904E481E990068C1
:1033A00001F098FC0E901A9901F0C2FD1A9049485C
:1033B0001D99006801F08EFC0E90199901F0B8FD7E
:1033C000199044481C99006801F084FC0E901899EB
:1033D00001F0AEFD189028991B9801F07BFC0E902F
:1033E0003D4801680E9801F06FFA3B490860289942
:1033F0001A9801F06FFC0E90334801680E9801F0A6
:1034000063FA314908602899199801F063FC0E901D
:103410002E4801680E9801F057FA2C490860289947
:10342000189801F057FC0E90294801680E9801F099
:103430004BFA2749086026480168006801F04AFCF9
:103440000D9022480168006801F044FC0B901E4872
:103450000168006801F03EFC09901F48016800689F
:1034600001F038FC0890099901F02EFA0A900B99A6
:1034700001F02AFA0C900D9901F026FA0E9000F056
:103480002DF8209014482099006801F023FC12497F
:1034900008600D482099006801F01CFC0A4908608A
:1034A0000A482099006801F015FC0849086008489E
:1034B0002099006801F00EFC05490860FEF73EFE09
:1034C00021B05DF814FB00002C000020300000202B
:1034D0003400002010000020280000202DE9F047D3
:1034E00004464FF07C51204601F0F4FB814625460E
:1034F0002E460C48A0EB660635462946484601F0A4
:10350000E9FB8246294601F0E5FB80464FF07F51FA
:1035100001F00EFD0746294601F0DCFB0546284672
:10352000BDE8F087DF59375F1FB5FEF77EF900F081
:10353000ADF8FFF76BF800224FF4E131104600F0D0
:10354000DFFC2548254B1A4601210090244800F055
:10355000C1F92148214B1A4601210090214800F071
:10356000B9F94FF07C5000234FF08042194600908B
:103570001D4800F0AFF9FFF79BFAFDF74FFFFEF78C
:1035800051F8FFF7A7FB002211461620FFF754F869
:1035900000220A21012000F02BFC1CE013480068E7
:1035A00001F066F904460D461148006801F060F923
:1035B00006460F460F48006801F05AF98046424619
:1035C0000B460DA0CDE90067CDE90245FCF70AFEE8
:1035D0001420FEF74BFFE1E70000A040000020416F
:1035E000F4000020280100205C010020E8000020F9
:1035F000EC000020F00000207961773A252E326639
:10360000202070697463683A252E326620726F6CD0
:103610006C3A252E32660D0A0000000010B50446F3
:10362000A2B20021084600F07FFA0948027806217C
:103630000020FFF71DFA0648007808B9012000E0D5
:103640000020024607210020FFF712FA10BD0000FB
:103650000000002010B50446A2B20121002000F0B5
:1036600063FA0948027800210120FFF701FA0648B1
:10367000007808B9012000E0002002460121084638
:10368000FFF7F6F910BD00000100002010B54FF45F
:103690007A720021084600F039F90022062110460E
:1036A000FFF714F9002207211046FFF70FF94FF436
:1036B0007A720121002000F029F900221146012030
:1036C000FFF704F9002201210846FFF7FFF810BDBB
:1036D00070B505460C46002D08DB01201149087025
:1036E000284601F097FA1049086007E000200D49CC
:1036F0000870684201F08EFA0B490860002C08DB64
:1037000001200A490870204601F084FA084908603F
:1037100007E0002005490870604201F07BFA044987
:10372000086070BD00000020F400002001000020AF
:10373000280100202DE9F0410446D4E9000101F000
:1037400089FCA060206B01282DD1D4E9020101F091
:1037500081FC0546616901F0BDFA2062A168A0699B
:1037600001F0B8FAA0624FF08040E16801F0B2FACF
:103770000746A16801F0DCFB0646216901F0A4F8C8
:103780000546E16901F0A6FA6062A16A206A01F0CB
:103790009BF80646616A01F097F80546E16A01F078
:1037A00093F8E06221E0206BF8B9A168606901F04C
:1037B00091FA2062A168A06901F08CFA0546A16A1D
:1037C00001F082F8A062D4E9020101F043FC054651
:1037D000E16901F07FFA6062A16A206A01F074F881
:1037E0000546616A01F070F8E062E1682161A16854
:1037F000E160BDE8F081000070B52D482D490860FA
:103800002D48006848600846FFF794FF2949C86AB8
:1038100001F0C4F906462748C06A80F000452846F2
:1038200001F0BCF904463146FFF752FF2348007807
:1038300030B12348006801F0EDF92249486006E004
:103840001F480068404201F0E5F91E4948601E48E3
:10385000007830B11D48006801F0DCF91C4948606F
:1038600006E01A480068404201F0D4F9184948605F
:10387000002013490860154908601248FFF75AFFF5
:103880001348FFF757FF0F4800F02CF8104800F0DE
:1038900029F80C49C86A01F081F90446FFF7BEFE19
:1038A0000B49C86A01F07AF90446FFF7D3FE70BDF0
:1038B0000000A0C15C010020F000002000000020FA
:1038C00004000020F4000020010000200800002077
:1038D0002801002010B5029C016342618361C4612C
:1038E00010BD000010B504460749E06A01F0BEFAB9
:1038F00001D80548E0620021E06A01F0B7F901D87B
:103900000020E06210BD0000005043472DE9F04167
:1039100004460D4616462846E91705EB91718910B5
:10392000A5EB8101491CCFB25148C0690121A140DA
:1039300008434F49C8614F4890FBF6F0401E4E497E
:1039400051F82410888547204B4951F824100885E8
:10395000284600F093F8012F06D0022F1ED0032F27
:1039600036D0042F69D14DE0434850F82400008B35
:1039700040F06000404951F8241008833E4850F858
:103980002400008B40F008003B4951F824100883C4
:103990000020394951F8241088864EE0364850F806
:1039A0002400008B40F4C040334951F824100883B0
:1039B000314850F82400008B40F400602E4951F843
:1039C0002410088300202C4951F82410088734E083
:1039D000294850F82400808B40F06000264951F8B7
:1039E00024108883244850F82400808B40F008007D
:1039F000214951F82410888300201F4951F82410D0
:103A000088871AE01C4850F82400808B40F4C0409E
:103A1000194951F824108883174850F82400808BE6
:103A200040F40060144951F82410888300201249A2
:103A300051F82410A1F8400000BF00BF0E4850F814
:103A40002400008C791E8A000121914008430A4914
:103A500051F824100884084850F82400008840F0E9
:103A60008100054951F824100880BDE8F08100006C
:103A70000010024040420F00A800002010B504468C
:103A80000C2C4FD2DFE804F0060C12181E242A304A
:103A9000363C4248032200210846FEF717FF41E06A
:103AA000032201210020FEF711FF3BE00322022147
:103AB0000020FEF70BFF35E0032211460020FEF741
:103AC00005FF2FE0032206210020FEF7FFFE29E07C
:103AD000032207210020FEF7F9FE23E00322002144
:103AE0000120FEF7F3FE1DE0032201210846FEF748
:103AF000EDFE17E0032206210120FEF7E7FE11E0AC
:103B0000032207210120FEF7E1FE0BE0032208213A
:103B10000120FEF7DBFE05E0032209210120FEF76C
:103B2000D5FE00BF00BF10BD2DE9F84F04460D467D
:103B300017462846E91705EB91718910A5EB81011D
:103B4000491C01F0FF084CF25030874200DB074669
:103B5000384850F82400868DB8F1010F09D0B8F12B
:103B6000020F1DD0B8F1030F31D0B8F1040F5DD1B1
:103B700044E0701C01F04EF88346384601F062F8CC
:103B80002D49009000F014FF8246594601F0A2F83A
:103B9000814601F01FF8274951F82410888645E036
:103BA000701C01F037F80090384601F04BF883465E
:103BB000214900F0FDFE8246009901F08BF8814614
:103BC00001F008F81B4951F8241008872EE0701CFA
:103BD00001F020F80090384601F034F88346164989
:103BE00000F0E6FE8246009901F074F8814600F08C
:103BF000F1FF104951F82410888717E0701C01F07C
:103C000009F80090384601F01DF883460A4900F093
:103C1000CFFE8246009901F05DF8814600F0DAFFA0
:103C2000044951F82410A1F8400000BF00BFBDE8CE
:103C3000F88F0000A8000020005043472DE9F8430A
:103C40000446024652486946B0EB420F09D94FF08C
:103C5000E640B0EB420F94BF00204FF0FF300090E1
:103C600030E04C4B22F00040834271D94A49204653
:103C700001F030F801F02CF9804600F08FFF00F0E1
:103C8000030000904549404601F024F805464449A8
:103C9000404601F01FF806464249404601F01AF836
:103CA00007464149404601F015F8214601F040F928
:103CB000394601F0CFF9314601F0CCF9294601F03F
:103CC000C9F904462546009C002C45DB294614F022
:103CD000010F08461ED000F0FDFF0546334900F0F5
:103CE000F9FF334900F0F0FD294600F0F3FF3149B8
:103CF00000F0EAFD294600F0EDFF4FF07E5100F0A4
:103D0000E3FD14F0020F08BFBDE8F88380F0004027
:103D1000BDE8F88300F0DEFF0646274900F0DAFF31
:103D2000264901F005F9314600F0D4FF244900F09E
:103D3000CBFD314600F0CEFF294600F0CBFF2946EF
:103D400000F0C2FD14F0020FE0D1BDE8F883FFE7F8
:103D50001046FDF727FFB4E76800B0F17F4F09D2A6
:103D60002846FDF7FDFE042808BFFDF715FF28468D
:103D7000BDE8F88306D10120FCF7D0FABDE8F8438E
:103D8000FDF706BF2846BDE8F843FDF7FCBE00007E
:103D9000B61F927E490E494683F9223F1A61342CA0
:103DA0000020A23300A0FD390000C93FB93AB2BAE1
:103DB000CA9F2A3DDDFFFFBE336D4C39DA82083CD5
:103DC000A0AA2ABE70B5054601F0BCF8044620F052
:103DD0000040C0F1FF40C00F08D025F00040C0F106
:103DE000FF40C00F04BF0120FCF798FA204670BDC9
:103DF00070B504460D4616461748C0690121A1401A
:103E000008431549C86105EB85004000401E134971
:103E100051F82410888541F61F40104951F82410AC
:103E200008850E4850F82400008840F001000B4936
:103E300051F824100880094850F82400808940F087
:103E40000100064951F82410888104F11C00C1B218
:103E50003046FDF74DFC70BD00100240A800002068
:103E60002DE9F04F89B081468A46B9F1000F01D1A2
:103E70001F4C00E01F4C4FEA0A1094FBF0FB584621
:103E800000F0FBFACDE90401504600F0DFFA0746E6
:103E90000022194B00F004FB05460E46204600F0B8
:103EA000B9FE074600F0E4FC2A463346CDE900019E
:103EB00000F074F9CDE90201DDE9042300F0EEFB26
:103EC000CDE9060100F090F808904FF08341089882
:103ED00000F000FF0890089800F07CFE00EB0B104B
:103EE000064951F82910088109B0BDE8F08F00009B
:103EF00000A24A040051250200003040B400002016
:103F000070B504460E46154634B91448806940F42D
:103F100080401249886108E01048C06904F110012E
:103F200001228A4010430D49C861204600F01AF86A
:103F300031462046FFF794FF094850F82400808955
:103F400042F22C010843064951F82410888104F1FB
:103F50002500C1B22846FDF7CBFB70BD0010024022
:103F6000B400002010B5044624B1012C0DD0022C61
:103F700021D115E0032209210020FEF7A7FC04222D
:103F80000A210020FEF7A2FC15E0032202210020F6
:103F9000FEF79CFC042203210020FEF797FC0AE0B8
:103FA00003220A210120FEF791FC04220B210120AB
:103FB000FEF78CFC00BF00BF10BD000010B500294B
:103FC0000AD00878002807D005487844FCF71CFD83
:103FD000002801D0002010BD0248784410BD000028
:103FE0003E1300003613000021F00042A2F160529F
:103FF000B2F5801F01F0004328BFD2F17F6C0BD9CE
:104000005FEA001C43EAC20242EB507018BF7047DF
:1040100028BF20F001007047B2F5801FBCBF1846D2
:1040200070474FEA410C1CF5001F02D2084600F011
:1040300018BF70B500F0DEFA00000089FFF7F6BF88
:104040004FF00040A0F580007047000010B591EAE5
:10405000030F48BF83F0004300F12883841A71EBFB
:10406000030C05D2121943EB0C03001B61EB0C018E
:10407000DFF824E14FEA1154A4EB135C1EEA430F6E
:1040800018BF9EEA445F73D023EA0E03DCF1200ED2
:1040900021EA045143F4801332D322FA0CFE10EBD0
:1040A0000E0023FA0CFE41EB0E01CCF1200E03FAB8
:1040B0000EFE10EB0E0051F10001B1F5801FCCF1A6
:1040C000200E32D201EB045112FA0EF2BDE810407C
:1040D00058BF7047401C38BF5FEA420218BF7047A4
:1040E000002814BF20F0010041F100014FEA410314
:1040F00013F5001F38BF7047A1F1C04100F0C8BAE6
:10410000012A43EB0302ACF1200CDCF11F0E32BF9D
:104110004FF0000E23FA0CF310EB030041EB0451B7
:10412000B4EB115FD0D0A1EB045101F58011490827
:104130005FEA300001EB04510ED350F1000038BFAC
:1041400012FA0EFE08D1BDE81040C9E7401C38BF86
:104150005FEA4202CAD1C3E7BDE810404FEA41031B
:1041600013F5001F38BF7047A1F1C04100F090BAAD
:104170009EEA445F08D011EA5E0FBDE8104004BF1C
:1041800001F0004100207047BDE8104070B500F01C
:1041900031FA00BF64FBBE3E0000E0FF2DE9C041E4
:1041A00030B4DFF8A0C23CEA111418BF3CEA131483
:1041B00000F0EC8081EA03051CEA111444EAD5748E
:1041C00018BF1CEA131500F0C780A4EB05044FF0DC
:1041D000004545EAC12145EAC32341EA505143EA7B
:1041E000525304F17F74994204F500344FEAC02021
:1041F0004FEAC22208BF904200F09C804FEA13654C
:104200000FF24016765D4FEA134506FB05F7C7F13E
:10421000807706FB07F74FEAD737A7FB036876429C
:10422000C8F58038A7FB06CE38BFA8F1010807FB08
:1042300008E64FF0000EA6FB028CE6FB03CEDCF195
:10424000000CCEF1004E38BFAEF1010EA6FB0C58AB
:104250004FF000074FF00005E6FB0E87A1FB08C6F4
:10426000A0FB07CE16EB0E0645F10005E1FB076546
:1042700015F1E04E7EBFA4F580345FEA46066D413D
:1042800016F1800745F100054FEA17274FEA066649
:1042900047EA0567A6F1DE46B6F1805F4FEA1525CD
:1042A0001FD9384624F0010C05EBC471BCF1FE6F38
:1042B00001EB0C1102D8F0BCBDE8008124425CBFC8
:1042C00001F5801E9EEAC47F02D4F0BCBDE80081E7
:1042D000244238D4F0BCA1F1C041BDE8004100F057
:1042E000D7B94FEAD22242EA43524FEAD323A7FB7F
:1042F00002864FEAD02040EA415007FB03661EEADF
:104300000E0F4FEAD12105FB026658BFA6EB0056FF
:10431000B6EB00564FEA520E4EEAC37E18EB0E0E75
:1043200056EB530EBDD518EB02085E417F1C55F1CC
:104330000005B6E74FF480154FF000074FF0000678
:104340004FF00008ADE7F0BC4FF0000001F1C041B4
:1043500001F00041BDE8008111EA0C1F0CEA1315C1
:1043600000D00CE013EA0C1F00F025804FF0000095
:10437000F0BC81EA030101F00041BDE80081F0BC1E
:10438000BDE8004181EA030100F082B9F0BCBDE85C
:10439000004170B500F02EF9097EFC3E00F007B830
:1043A00081EA03014FF0000001F00041704781EA0B
:1043B000030100F06DB9F0BCBDE800414FF0000012
:1043C00021497047FFFDFBF9F7F5F4F2F0EEEDEB54
:1043D000E9E8E6E4E3E1E0DEDDDBDAD8D7D5D4D303
:1043E000D1D0CFCDCCCBCAC8C7C6C5C4C2C1C0BF4F
:1043F000BEBDBCBBBAB9B8B7B6B5B4B3B2B1B0AF55
:10440000AEADACABAAA9A8A8A7A6A5A4A3A3A2A138
:10441000A09F9F9E9D9C9C9B9A99999897979695F3
:1044200095949393929191908F8F8E8E8D8C8C8B8F
:104430008B8A898988888787868585848483838217
:10444000828181800000FF070000F87F10F00042A9
:1044500048BF4042B0FA80F310FA03F10AD0C3F12A
:104460001D0303F580634FEA415002EB035202EB58
:10447000D12170474FF000007047B0FA80F310FA76
:1044800003F10AD0C3F11D0303F580634FEA4150E5
:104490004FEA035202EBD12170474FF00000704702
:1044A000DFF848C170B51CEA111E1EBF1CEA1315C7
:1044B0009EEA0C0F95EA0C0F00F06F8081EA03046E
:1044C00023EA4C134EEAD47E21EA4C1141F48011C8
:1044D00043F48013AE44A1FB024CA0FB0365AEF194
:1044E0007F7E361955EB0C05A1FB034C4CF1000304
:1044F000A0FB021C16EB0C06654153F100030942B8
:1045000018BF46F0010613F4007F0BD14FEA0331C8
:104510004FEA0530340341EA155140EA16506FF076
:1045200003020AE04FEAC3214FEAC520F40241EA40
:10453000555140EA56506FF0020202EB2E4201EB59
:10454000025585EACE710AD05FEA440C18BF24F008
:10455000004450F1000041F1000120EAD47040F223
:10456000FE7C624500D270BDA84214BF4FF080446B
:104570004FF04044002E08BF0024BEF1806FA8BF5A
:10458000A1F1C041BDE8704080F282804FF0000090
:1045900001F1C04101F0004170479EEA0C0F0CEAA6
:1045A000131518BF95EA0C0F06D04FF0000081EAF2
:1045B000030E0EF0004170BD00F01CF88900013EB2
:1045C00000F007B800F009B84FEA430C5FEA5C5C02
:1045D00008D081EA030100F05BB84FEA410C5FEAC2
:1045E0005C5CF6D14FF00000014970470000FF0706
:1045F0000000F87F0EF1020E2EF0030E5EF8046B41
:10460000364205D4012A43EB030515F5001F12D8E5
:10461000012841EB010C1CF5001F0CD80ED14FEA0C
:10462000D17C15F5001F0CEB4C0C0CF1020C08BFF3
:104630004CEBD37C04E04FF0080C01E04FEAD37C54
:104640000CEB4C0526FA05F606F00706B6F1040C4D
:1046500006D20EEB860CBDE870404CF0010C6047B2
:10466000DFE80CF0090B02024FF000414FF00000B0
:10467000A1F5002170BD19461046012851EB010437
:1046800018BFD4F5001484BF002001F0004170BDB4
:104690000808A0F500114FEA3101704710B591EA02
:1046A000030F48BF83F000433FF5D8AC841A71EB89
:1046B000030C07D212198CF0004C43EB0C03001BC7
:1046C00061EB0C01DFF8A4E14FEA1154A4EB135C99
:1046D0001EEA430F18BF9EEA445F00F0B08023EA51
:1046E0006E03524221EA0451C3EB6E0338BF5B1ED6
:1046F000DCF1200E25D322FA0CFE10EB0E0043FA5B
:104700000CFE41EB0E01CCF1200E03FA0EFE10EB75
:104710000E0051F10001CCF1200E29D412FA0EF254
:1047200001EB0451BDE8104058BF7047401C1CBF4E
:10473000B2F1004F704700280CBF491C20F0010067
:10474000704712EB020E43EB030218BF4FF0010E4D
:104750004EEA4202ACF1200CDCF11E0E54D943FAB1
:104760000CFE10EB0E0051F1FF31CCF11E0ED5D531
:104770000EF1010E12FA0EFE404141EB010101EB78
:10478000445C5FEA5C5C10D910EBDE7001EB045115
:1047900038BFBEF1004FBDE8104018BF7047002879
:1047A0000CBF491C20F00100704730D24FEAD42CD6
:1047B00011F5001124F400641BD0B1FA81F20B3A18
:1047C000A41AA41ED2F12003914030FA03F3194336
:1047D000904001EBCC71002C01EB0451BDE810407E
:1047E000A8BF704701F1C0414FF0000001F0004147
:1047F0007047B0FA80F310FA03F100D110BDE41A4B
:10480000173C4805C90AE4E701EB045110BD491003
:1048100001EB0451BDE810404FEA300002E04FF0D8
:10482000000170474A0008BF0042F8D0B2F5001FEF
:1048300028BF704701F000414FF0000070479EEA2A
:10484000445F07D011EA5E0FBDE8104004BF0021AD
:1048500000207047BDE8104070B5FFF7CBFE00BFE9
:1048600040DFF63E83F00041104670470000E0FF55
:1048700043004FEAD30C4FEA3C0C43401FBF4007B4
:104880000CF1605113F0FE4F70471CF0006F03D124
:1048900000200CF0004170470CF0004343EA5070D8
:1048A00010B540EACC0000F096FA00BF000000927C
:1048B0004FEA0001FFF7ECBE4FF000414FF000005F
:1048C000A1F500217047000090EA010F48BF81F078
:1048D000004100F1C683421A3CBF801A89184FEA92
:1048E000D0524FF07F4C1CEA410FA2EBD15318BFBE
:1048F0009CEA026F00F03B804FF0004C4CEA002035
:104900004CEA012121FA03FC10EB0C0C1ED202F13F
:10491000FF325FEA1C2040EBC25038BF70471CF0EA
:104920007F0F4FEA400C18BFBCF17F4F38BF704774
:10493000C3F12003994008BF20F00100BCF17F4F74
:1049400038BF7047A0F1C04000F08BBA4FEA3C007E
:10495000000A40EBC25028BF1CF0FF0F4FEA400C8A
:10496000E6D018BFBCF17F4F38BF7047EAE79CEA3A
:10497000026F05D010EA5C0F08BF00F000407047DE
:1049800010B500F028FA00BF64FBBE3E014800F0FD
:10499000D8BB00BF0000C07F401058BFC0F14040EE
:1049A000491058BFC1F140418142EFF30080704788
:1049B0004FF47F0C1CEAD0121EBF1CEAD11392EAFE
:1049C0000C0F93EA0C0F00F0858090EA010F48BFAE
:1049D00042F4807240F4000C41F400002CF07F415E
:1049E00020F07F4000B58142A2EB03020FF2081CC9
:1049F000ACEB504EC0F100009EF800E04FEA4E0EC6
:104A000000FB0EFC38BF49004FEA2C1C02F5FA02ED
:104A10000CFB0EF34FEACE1E4FEA112C4FEAC121D8
:104A20000EEB635E42EB22420EFB0CFC4FEA1C5382
:104A300000FB03114FEA112C4FEA01310EFB0CFC75
:104A40004FEADC4C00FB0C11C14228BF09184CEBAB
:104A500003335DF804EB10EB410143EBC250B2F5B8
:104A60007C0F38BF704729D512F0F00F1CBF00F142
:104A7000C04000F0004070470081828384858687B3
:104A800088898B8C8D8E8F919293959697999A9C0D
:104A90009D9FA0A2A3A5A7A8AAACAEB0B2B3B5B77C
:104AA000B9BCBEC0C2C5C7C9CCCED1D4D7D9DCDF52
:104AB000E2E6E9ECF0F3F7FAFE0000004FEA400C02
:104AC0000CF1807CBCF17E4F28BF7047B0F1C04034
:104AD00000F0C7B990EA010F0CEAD11348BF42F4C5
:104AE0008072624538BF634507D213F47F0F16D03A
:104AF00080EA010000F00040704710B500F06BF94B
:104B0000097EFC3E00F005B880EA010000F000409C
:104B1000704780EA010000F0004000F0A2B912F4F2
:104B20007F0F04BF0248704780EA010000F099B986
:104B30000000C07F50EA010C00F113801CF5000F4B
:104B400058BFBCF5000F01D48842704707D710F555
:104B5000000F58BF11F5000F15D4884270478942E5
:104B600070471CF5000F04D5BCF5000FF7D5814246
:104B700070474FF0807C1CEB400F38BF1CEB410F9F
:104B800001D28142704710B500F025F99224490006
:104B90004FF000504FF08051FFF7FEBE41000B0E6A
:104BA000D3F19E0208D950F400034FEA032323FAFD
:104BB00002F048BF4042704710B500F00CF900BF4A
:104BC00049922480002070476FF0004282EA200062
:104BD00070470000C10DD1F19E0206DB4FEA0023B1
:104BE00043F0004323FA02F07047004207D54FEA32
:104BF0004001B1F1FE4F02D24FF00000704710B5F6
:104C000000F0E9F849922480002070476FEA200004
:104C10007047000010F0004148BF4042B0FA80F3F6
:104C200010FA03F2C3F19D030BD051EAC35101EB1B
:104C30001220530638BF704700F1010008BF20F072
:104C400001007047B0FA80F310FA03F2C3F19D033C
:104C50000AD0D90501EB1220530638BF704700F186
:104C6000010008BF20F001007047000050EA010C6D
:104C700000F113801CF5000F58BFBCF5000F01D4E4
:104C80008842704707D710F5000F58BF11F5000F85
:104C900015D488427047894270471CF5000F04D52F
:104CA000BCF5000FF7D5814270474FF0807C1CEBBC
:104CB000400F38BF1CEB410F01D28142704710B545
:104CC00000F089F8922449004FF000504FF08051D5
:104CD000FFF762BE4FF47F0C1CEAD0121EBF1CEA25
:104CE000D11392EA0C0F93EA0C0F00F0478090EA80
:104CF000010F48BF42F480724FF0004C4CEA002094
:104D00004CEA012102EB0302A0FB0113A2F5000211
:104D1000002918BF43F001035B0028BF4FEA3303AB
:104D200042EB22425FEA132C4CEBC2502EBFBCEB8D
:104D3000436FB2F57C0F70474FEA036CBCF1004F34
:104D400008BF20F00100B2F57C0F38BF70470BD5CB
:104D500082F0FF0212F5803FC8BF704700F1C040EB
:104D6000D8BF00F00040704700F5000C5FEA4C0C23
:104D700048BF7047B0F1C04000F073B890EA010F2F
:104D80000CEAD11348BF42F48072624538BF6345D4
:104D900004D280EA010000F00040704710B500F036
:104DA0001AF800BF8900013E00F007B800F009B80A
:104DB0005FEA410C5FEA1C6C08D080EA010000F059
:104DC00050B85FEA400C5FEA1C6CF6D14FF000402F
:104DD000A0F5800070470EF1020E2EF0030E5EF873
:104DE000044B244204D44FEA4102B2F17F4F11D860
:104DF0004FEA4003B3F17F4F0CD80ED14FEAD07C7D
:104E0000B2F17F4F0CEB4C0C0CF1020C08BF4CEBD9
:104E1000D17C04E04FF0080C01E04FEAD17C0CEBB0
:104E20004C0324FA03F404F00704B4F1040C06D292
:104E30000EEB840CBDE810404CF0010C6047DFE83D
:104E40000CF0070802024FF00040A0F5800010BDF2
:104E50000846420018BFD2F1807288BF00F00040BF
:104E600010BDFF2141EAD050C005704751EA000C47
:104E700000F113801CF5000F58BFBCF5000F01D4E2
:104E80008142704707D711F5000F58BF10F5000F8A
:104E900015D481427047894270471CF5000F04D534
:104EA000BCF5000FF7D5884270474FF0807C1CEBB3
:104EB000410F38BF1CEB400F01D28842704780EA97
:104EC000010081EA000180EA0100FFF7F8BE00005E
:104ED0005FEA400C5FEA1C6CBCF17F0314D4D3F191
:104EE000170240F31C804FF0010C0CFA02FCACF1ED
:104EF00001030340B3EB5C0220EA030008BF10EAA1
:104F00000C0F88BF60447047B3F1FF3F28BF5FEAD2
:104F1000002C00F0004088BF40F07E507047BCF18C
:104F2000FF0FB8BF704710B5FFF755FF40DBB6BEA7
:104F300080F0004090EA010F7FF5CDAC81F0004198
:104F400000F08FB84FEAD051002988BFD1F1FF029D
:104F500040F2758001F17D014FEA002070B54908EB
:104F600040F0004038BF40080EA2430E040CD25C53
:104F700002FB02F304FB03F3C3F14043A3FB02541F
:104F8000ED0D45EA442202FB02F3A0FB03546D42FF
:104F9000C4F1404438BF641EA2FB05350023E2FB88
:104FA0000453EA0B42EA4342A0FB023212F14004EE
:104FB000A2F12103E40903F07F031F2B32D904EB94
:104FC000C15070BDFEFAF7F3F0ECE9E6E4E1DEDC97
:104FD000D9D7D4D2D0CECCCAC8C6C4C2C1BFBDBC3A
:104FE000BAB9B7B6B4B3B2B0AFAEACABAAA9A8A7C2
:104FF000A6A4A3A2A1A09F9E9E9D9C9B9A999897D0
:10500000979695949393929190908F8E8E8D8C8C91
:105010008B8A8A8989888787868685848483838228
:105020008281818004FB04F6B6EB004603D5E6429C
:1050300048BF641CC3E7A64258BF641CBFE711F019
:10504000FF0F02D100F00040704710B5FFF7C3FE1C
:105050007FDBFFBE90EA010F48BF81F000413FF5C2
:105060003AAC421A04D882F00042A0EB020011448C
:105070004FEAD0524FF07F4C1CEA410FA2EBD153C4
:1050800018BF9CEA026F4AD04FF0004C4CEA002057
:105090004CEA012121FA03FCB0EB0C0C0FD412F006
:1050A000FE0F36D05FEA4C001DD5001240EBC25017
:1050B00038BF70471CF03F0F18BF70470BE0A2F1DC
:1050C00001025FEA1C2040EBC25038BF70471CF061
:1050D0007F0F18BF7047C3F12003994014BF401ED3
:1050E00020F00100704780084FEA122308BF704784
:1050F000B0FA80FCA2EB0C02CCF1280C60FA0CF0A8
:1051000093EA122F04BF00EBC25070474FEAC370FE
:105110007047130A5FEADC1008BF7047F6E79CEAA5
:10512000026F04D010EA5C0F08BF0020704710B572
:10513000FFF751FE40DFF63E81F000407047FBF77D
:10514000CCB90CF00F03092B08BF082000F05180E8
:105150000A2B0BD0082B18BF704708BF1CF0400F5C
:105160000AD04FF000004FF0000170471CF0400FD4
:1051700018BF4FF0004070471CF0100F08D020F00F
:10518000704300F07F4242EAD3014FEA4370704718
:1051900000F0604021F07F4242EA000201F07F40CF
:1051A00040EA727070474FF0FF0212EAD0521CBF03
:1051B00092F0FF038B42C2BFD14200EBC150704757
:1051C000002A0AD0002B0BD0002900F00040A4BF19
:1051D00040F0FE4040F40000704700F0004070478F
:1051E00043024FF00B0C18BF4CF0806C7FF4CEAB39
:1051F00070471CF4801F11D01CF4E02F03D06FEA1D
:10520000CC31490070474FF04050EFF3008222F05C
:10521000704242EA000282F3008870474FF00000BB
:10522000704700000000803F000000000000000008
:105230000000803F000000006E83F9A22915444E53
:10524000D15727FCC0DD34F5999562DB4190433C92
:10525000AB6351FE02400000000000A0000000000F
:1052600005400000000000C8000000000C400000E5
:105270000000409C00000000194000000020BCBE5F
:105280000000000034400000BFC91B8E0000000475
:10529000B5400000504BCFD06607E2CF01000000C0
:1052A0006C4100003E8251AADFEEA73401000000ED
:1052B000D9420000DCB5A0E23A301F97FFFFFFFFA4
:1052C000B4450000FD25A0C8E9A3C14FFFFFFFFFC3
:1052D000FF3F00000000008000000000FF3F0000D2
:1052E000000000800000000024530008000000209F
:1052F000F40000002801000818540008F400002001
:1053000024070000440100081C00000043000000C6
:10531000F8FFFFFF0C0000000E0000000F0000006F
:105320002E0000000101000000000000000000004D
:10533000000000000AD7A33D000070416F12033A3D
:105340000000000000000000000000000000803F9E
:105350000000000000000000000000006F12833A0F
:105360009A99993E00000000CDCCCC3D0000000091
:10537000000000000000000000000000000000002D
:105380000000403F3333733F0000484200000000FC
:1053900000000000CDCCCC3D00000000000000006B
:1053A000CDCCCC3D6F12833A6F12033B9A99993E54
:1053B00000000000000000000000000000000000ED
:1053C00000080140000C01400010014000000040B6
:1053D0000004004000080040003801400044004044
:1053E0000048004000000000000000000000000035
:1053F00000000000000000000000000000000000AD
:10540000000000000000000000000000000000009C
:08541000000000000000000094
:04000005080000ED02
:00000001FF
