:020000040800F2
:1000000070080020E1010008E9010008EB01000888
:10001000ED010008EF010008F101000800000000F8
:10002000000000000000000000000000F3010008D4
:10003000F501000800000000F7010008F9010008C0
:10004000FB010008FB010008FB010008FB010008A0
:10005000FB010008FB01000859120008711200089A
:1000600089120008C5120008DD120008FB01000813
:10007000FB010008FB010008FB010008FB01000870
:10008000FB010008FB010008FB010008FB01000860
:10009000FB010008FB010008FB0100081913000820
:1000A000FB010008FB010008FB010008FB01000840
:1000B000B91C0008D91C0008FD1C0008FB01000841
:1000C000FB010008FB010008FB010008FB01000820
:1000D000FB010008191D0008351D0008511D00080E
:1000E000FB010008FB010008FB01000800F002F81A
:1000F00000F067F80AA090E8000C82448344AAF15B
:100100000107DA4501D100F05CF8AFF2090EBAE858
:100110000F0013F0010F18BFFB1A43F0010318473B
:10012000BC6C0000DC6C00000A444FF0000C10F8BE
:10013000013B13F0070408BF10F8014B1D1108BF65
:1001400010F8015B641E05D010F8016B641E01F805
:10015000016BF9D113F0080F1EBF10F8014BAD1C55
:100160000C1B09D16D1E58BF01F801CBFAD505E073
:1001700014F8016B01F8016B6D1EF9D59142D6D3CD
:10018000704700000023002400250026103A28BFF5
:1001900078C1FBD8520728BF30C148BF0B607047F9
:1001A000662906F0D681002070471FB500F0FEFAE0
:1001B00004000020002104F063FFE0601FBD10B5C3
:1001C00010BD00F013FC1146FFF7EFFF03F030FC09
:1001D00000F031FC03B4FFF7F2FF03BC01F02BFF8A
:1001E0000948804709480047FEE7FEE7FEE7FEE7CB
:1001F000FEE7FEE7FEE7FEE7FEE7FEE70448054907
:10020000054A064B70470000591C0008ED00000825
:10021000700200207008002070040020700400208C
:10022000704700000FB4044910B503AA029800F00B
:10023000ABFA10BC5DF814FB1C0100202DE9F0475F
:100240004FF0000A89460446C0F820A02046E16825
:100250008847002876D0252806D0D4E90121904788
:10026000206A401C2062F1E7E168204600258847AB
:10027000C4F81CA006460027C4F818A02A2E09D0EE
:10028000304601F0D1FE38B304EB8708303EC8F8A1
:10029000186019E059F8041B204604EB87029161AD
:1002A000E1688847012F064618D1E069002820DA66
:1002B00025F020051DE0D8F8180000EB800006EBC3
:1002C00040003038C8F818002046E16888470646E4
:1002D00001F0AAFE0028EED1012F0AD02E2E08D15F
:1002E0002046E16888477F1C0646022F45F020051E
:1002F000C4DBA069002803DA404245F00105A06193
:10030000E80701D025F01005B6B1A6F14100192883
:1003100002D8203645F400654A463146204625601D
:100320004D46FFF73DFF58B1012806D0ED1D25F0E1
:10033000070000F1080989E704E005F1040985E7F1
:1003400030468AE7206ABDE8F087704770477047FB
:10035000704710B500F02EFA006810BD10B50446C5
:1003600000F028FA046010BD70472DE9FF4F0C46DD
:100370001E464FF0FF378BB0D2E90001DDF86080F8
:100380000A908A46C1F30A5505B93D460021084640
:100390004FF00000BAF1000F00F4400005DA00EB66
:1003A00080004FF4400101EA50004FEA9059B9F142
:1003B000010F00DDB9460A9850EA4A000ED044F613
:1003C0001050A5F2FF3545432F14B8F1000F1ED091
:1003D0007542291E1EDDC9F100021CE0B8F1010FB3
:1003E0004FF0000001D0302103E0F24305E021543A
:1003F000401CB042FBDB30460022002121540B9907
:10040000C1F80880C1E900200FB0BDE8F08FBD1B26
:100410006D1CDEE74A4600DA694206A800F06CFA75
:1004200006AB93E8070003AB83E8070050460A9940
:1004300000F04AFB8DE80700A0F500501F3800903F
:100440000398002D0ADD42F21F014A4608440023AA
:1004500003A90390684600F0B3FD09E0A0F5005041
:100460004A461F38002303A90390684600F0BDFDEB
:100470008DE807000004000C03D04FF0FF30410866
:1004800000E01046B8F1000F03D00022009215469C
:100490001EE0751E05D400F091F9303262556D1ED4
:1004A000F9D5B3460122084302D000227F1C04E0A4
:1004B0002078302801D100227F1E002A099784D09D
:1004C0001DE0112D07DA00F079F9303262556D1C0C
:1004D00050EA0102F5D1084302D00098C8B10EE0FD
:1004E0000021681E05E0235C625C63542254401EB8
:1004F000491C8142F7DBAB46A81B401E0990002037
:1005000004F80B000B98099AC0F80880C0E9002B8A
:100510007AE711264FF0000857E72DE9F04F88469B
:100520000446D21D22F0070191B0D1E90001CDE9C6
:100530000A0101F01BFC02460B98C00F01D02D20D0
:1005400007E02068810701D52B2002E0202101EA85
:10055000C000032A099001D0072A05DB0346414663
:10056000204600F089F90BE12078800601D5E0698A
:1005700000E00620B8F1650F814606D0B8F1660F9D
:1005800018D0B8F1670F70D131E00020B9F1110F28
:10059000009001DB112301E009F101030AAA01A97E
:1005A0000CA8FFF7E2FEDDE90C70002609F1010559
:1005B000834647E001204B4600904FF000470AAACF
:1005C00001A90CA8FFF7D1FEDDE90DB00C995D463D
:1005D000002610B909F101000D18B9EB050003D48C
:1005E000C0F1FF3609F10105A5EB09002BE0B9F1D7
:1005F000010F01DA4FF001090020B9F1110F00904D
:10060000484601DD112300E003460AAA01A90CA80F
:10061000FFF7ABFEDDE90C704D46002683462078DF
:1006200000070AD4AB4500DA5D4601A8012D04DDC0
:10063000411911F8011C302907D04F4502DA17F192
:10064000040F04DA012082460FE06D1EEEE7002F52
:1006500002DCED1B3E4403E0781CA84200DD7D1C5B
:10066000B81B00F1010A4FF000472078000703D4BF
:10067000AA4501DB4FF0FF3A0021B7F1004F0DF121
:1006800043088DF8431024D002202B23002F01DAD9
:100690007F422D230A21021EA0F1010000DC5FB180
:1006A00097FBF1FC97FBF1F201FB1C7C17460CF168
:1006B000300C08F801CDEEE7A8F1010003702188A5
:1006C000090501D5452100E06521A0F1010800F8E8
:1006D000011C09980FA9A1EB0807FF1D00B101201B
:1006E000411901EBEA70A1693844081A401EA06163
:1006F0002078C00602D42046AFF30080099828B1C4
:10070000D4E901219047206A401C20622078C0066D
:1007100022D52046AFF300801EE0002E04DBB34557
:1007200002DD01A8805D00E03020D4E9012190477E
:10073000206A401C2062761CAAF101005FEA000AD0
:100740000AD100F033F8C0680168405CD4E90121A7
:100750009047206A401C2062281EA5F10105DCDCC0
:1007600007E0D4E9012118F8010B9047206A401CEA
:100770002062381EA7F10107F3DC2046AFF30080AA
:10078000032011B041E60000074B70B50D467B44D5
:1007900000F05FF80446284600F020F910B14FF051
:1007A000FF3070BD204670BD5726000000487047DE
:1007B00030020020004870471002002030B5B0F130
:1007C0000A024FEA900E71F100034EEA817EB0EB0F
:1007D0000E0061EB91014FEA101E4EEA017E10EB14
:1007E0000E0041EB11114FEA102E4EEA016E10EB94
:1007F0000E0041EB11214FEA104E4EEA014E10EB74
:100800000E0041EB1141401841F100014FEAD000C8
:1008100040EA41704FEAD10110EB80054FEA8104B4
:1008200044EA907444EB01046D1944EB0404521B38
:10083000A3414FF0000348BF0A3200D530BD401C31
:1008400041F1000130BD000001694A1C02610878D5
:10085000704700B58FB0CDE9013100210591054900
:100860007944CDE9031011466846FFF7E7FC0FB065
:1008700000BD0000E5FFFFFF2DE9F0411F460446E3
:1008800003260168072A01F4006004DB08B116A5FD
:1008900005E016A503E008B115A500E015A521F0B7
:1008A00010002060A069C01EA0610FB1401EA061B1
:1008B0002046AFF300804FB1D4E90121384690477C
:1008C000206A401C2062C01C206206E0206AFAE711
:1008D000D4E9012115F8010B9047761EF8D2204685
:1008E000AFF30080BDE8F0814E414E006E616E00B6
:1008F000494E4600696E66002DE9F047814616466E
:100900008AB0354878440DC88DE80D0032487844E7
:10091000801C03AC0DC884E80D0041F69B300844F0
:10092000372190FBF1F290FBF1F5A5F1800501FB79
:1009300012041B3C02D56442012000E00020DFF8D5
:1009400098A080460027FA44AAF1BE0A0EE0E0070C
:100950000AD03246684607EB470101230AEB8101C2
:1009600000F043FB8DE8070064107F1C002CEED1E3
:10097000194F7F44AE3F19E0E80715D007EB04108C
:100980000DF1180A90E80E008AE80E00C068F042E7
:1009900001D1981908903246012306A903A800F056
:1009A00024FB03AB83E807006D10641C002DE3D12A
:1009B0004FF0010332466946B8F1000F03A802D098
:1009C00000F0FEFA01E000F010FBC9E90001C9F8EF
:1009D00008200AB0BDE8F087BC640000007B00F08E
:1009E0008000704700487047100200207546FFF7EE
:1009F000F9FFAE4605006946534620F007008546DC
:100A000018B020B5FFF7FAFBBDE820404FF0000614
:100A10004FF000074FF000084FF0000B21F00701E6
:100A2000AC46ACE8C009ACE8C009ACE8C009ACE829
:100A3000C0098D46704710B50446AFF300802046CC
:100A4000BDE81040FFF7C6BB4FF0013C50F8042B47
:100A500051F8043B9A4221D1A2EB0C03934313EAD1
:100A6000CC1317D150F8042B51F8043B9A4215D1FE
:100A7000A2EB0C03934313EACC130BD150F8042BD5
:100A800051F8043B9A4209D1A2EB0C03934313EAB9
:100A9000CC13DBD04FF00000704700BFD01A01BA72
:100AA000B1FA81F101F0180122FA01F0CB40C1F155
:100AB0002001DBB2C0B2C01A2CFA01F3D11A914363
:100AC00011EAC311E6D170475FEA400C08BF91F00C
:100AD000000F4FEA8C234FEAC12243EA51514FEAFB
:100AE0001C5018BF00F5F0404FEA300018BF41F02D
:100AF00000415FEA6C5C00F02980BCF1FF3F08BF59
:100B000040F080407047130C06BF12044FF0100CE9
:100B10004FF0000C130E04BF12020CF1080C130F5F
:100B200004BF12010CF1040C930F04BF92000CF1EE
:100B3000020CD30F04BF52000CF1010C11464FF010
:100B40000002A0F11F00A0EB0C00704711F0004F55
:100B500008BF704731F000413FF4D5AF0B0C06BF22
:100B600009044FF0100C4FF0000C0B0E04BF0902EB
:100B70000CF1080C0B0F04BF09010CF1040C8B0FD6
:100B800004BF89000CF1020CCB0F04BF49000CF12B
:100B9000010CCCF12003A0EB0C0022FA03F302FAC3
:100BA0000CF241EA030100F10100704720F07F4C94
:100BB00080EA030023F07F47ACEB070303F57C5387
:100BC00000F0004003F1FF032DE980494FEA154B87
:100BD00009B44FEA144325EA0B4E24EA03480FF206
:100BE000042606EB132749083E785FEA320203FB2E
:100BF0000667C7F5000707FB06F64FEA54374FEACA
:100C0000D64606F1020607FB066CCCF1005C4FEA03
:100C10001C472CEA074C07FB06F40CFB06F504EB1B
:100C200015464FEA961634BF00204FF000404FEAB9
:100C3000D13706FB07FC4FEA1C4C0CFB0BF7D21B11
:100C400003FB0CF761EB07010CFB0EF7B0EB074061
:100C500072EB17420CFB08F734BFA2EB0742B2EB72
:100C6000074261EB17414FEA0C444FEA910706FB3C
:100C700007FC4FEA1C4C0CFB0BF7B0EBC74072EBC8
:100C8000573203FB0CF734BFA2EBC742B2EBC742AB
:100C900061EB57310CFB0EF7B0EBC70072EB5772EC
:100CA0000CFB08F734BFA2EBC702B2EBC70261EB43
:100CB0005771039F4FEA816141EA921104EBCC0422
:100CC0004FEAD1374FEA826206FB07FC42EA9012F4
:100CD0004FEA80604FEA1C4C0CFB0BF7D21B03FB66
:100CE0000CF761EB07010CFB0EF7B0EB074072EB62
:100CF00017420CFB08F734BFA2EB0742B2EB0742E6
:100D000061EB17414FEA8C554FEA910704EB9C24A5
:100D100006FB07FC4FEA1C4C0CFB0BF7B0EBC74083
:100D200072EB573203FB0CF734BFA2EBC742B2EBB6
:100D3000C74261EB57310CFB0EF7B0EBC70072EB0B
:100D400057720CFB08F734BFA2EBC702B2EBC70225
:100D500061EB577115EB4C254FEA816141EA921125
:100D60004FEA82624FEAD13742EA901206FB07FC53
:100D700044F100044FEA80604FEA1C4C0CFB0BF777
:100D8000D21B03FB0CF761EB07010CFB0EF7B0EB7A
:100D9000074072EB17420CFB08F734BFA2EB074287
:100DA000B2EB074261EB174115EB1C154FEA81319D
:100DB00041EA92414FEA823242EA90424FEA803061
:100DC0004FEA0C7644F1000448EA03434EEA0B482C
:100DD0004FF0000EB2EB080C71EB030724BF624624
:100DE00039464EEB0E0E4FF0000B001852414941B0
:100DF0004BEB0B0BB2EB080C71EB03077BF1000B19
:100E000024BF624639464EEB0E0E4FF0000B001821
:100E1000524149414BEB0B0BB2EB080C71EB030752
:100E20007BF1000B24BF624639464EEB0E0E51EAB1
:100E3000020718BF46F0010616EB0E7655F10002C8
:100E400054F1000103D5BDE88901BDE80088BDE883
:100E50008901BDE80048B619524141EB0101A3F1F7
:100E60000103704780807F7E7D7C7B7A79787776FE
:100E700076757473727171706F6E6E6D6C6C6B6A77
:100E80006A69686867666665646463636261616015
:100E9000605F5F5E5E5D5D5C5C5B5B5A5A59595892
:100EA00058575756565555555454535352525251FC
:100EB000515050504F4F4F4E4E4D4D4D4C4C4C4B52
:100EC0004B4B4A4A4A494949484848474747474699
:100ED00046464545454444444443434343424242D5
:100EE00042414141002B9C4630D477002BD01CB5A9
:100EF0004FEA370703B44FF010004FF01001BAF17A
:100F0000000F06D0BCF1000FDCBF40F0080040F03D
:100F100008014FF000000FBCBDE810400BF1010BC1
:100F2000BBF1010F08BF5FEA170722BF12F10102F0
:100F300011F101014FF0004143F1000300F00040C6
:100F400043EA00007047F9D35708D0E746EA06465F
:100F500013F1400F4FEA16461FDD13F1200FDFBFDC
:100F600016430A46002120335B42BED0C3F120075E
:100F700046EA064602FA07F74FEA164646EA070629
:100F8000C3F1200722FA03F201FA07F721FA03F16D
:100F90004FF0000342EA0702A7E746EA020646EAE4
:100FA00006464FEA164646EA0106BCBF46EA064632
:100FB000360C4FF000034FF000024FF0000194E7B1
:100FC0002DE9804C9A46934670B491E8380007C8E2
:100FD00031EA400C48BF34EA430C03D5FFF7E6FD85
:100FE000FFF780FFF0BCBDE8008C2DE9804C9A46ED
:100FF000934670B491E8380007C810F0804F08BFDE
:1010000013F0804F03D100F005F8FFF76BFFF0BC41
:10101000BDE8008C20F07F4780EA030023F07F4C7E
:1010200007EB0C03A3F57C5300F00040A3F1FE0393
:1010300092F0000F00F0B38095F0000F00F0778081
:101040002DE901494FEA11404FEA144621EA0048D0
:1010500000FB06FC24EA064708FB06F607FB08F837
:1010600000FB07F718EB06484CEB164C4FEA124B07
:1010700018EB07484FEA15464CEB174022EA0B4E97
:101080000BFB06FC25EA06470EFB06F607FB0EFEE9
:101090000BFB07F71EEB064E4CEB164C4FF0000611
:1010A0001EEB074E4CEB174B18EB0B0840F1000002
:1010B00018EB0E0B58EB000840F100008F1A4FF0B0
:1010C00000013CBFC943661B14BFB5EB040C0021F3
:1010D0003CBFC943F61B4FEA17444EEA8E0E27EA7F
:1010E00004454FEA1C4704FB07622CEA074C05FB4A
:1010F00007F70CFB05F604FB0CFC16EB074642EB6E
:10110000174216EB0C4642EB1C421BEB060658EB53
:101110000202414146EA9E0601D5BDE80189B619A1
:10112000524141EB0101A3F10103BDE801894FEAFE
:1011300014454FEA114724EA054621EA074C05FB0E
:1011400007F406FB07F70CFB06F105FB0CFC11EBA3
:10115000074144EB17444FEA124711EB0C4144EBB3
:101160001C4422EA074C05FB07F206FB07F70CFBC1
:1011700006F605FB0CFC16EB074642EB174216EB96
:101180000C4642EB1C456A1854F1000148BF7047F9
:10119000B619524141EB0101A3F10103704795F0EB
:1011A000000F37D04FEA11424FEA144721EA0246B6
:1011B00024EA074C02FB07F106FB07F70CFB06F4D9
:1011C00002FB0CFC14EB074441EB17414FEA1547B7
:1011D00014EB0C4441EB1C4125EA074C02FB07F5DC
:1011E00006FB07F70CFB06F602FB0CFC16EB0746AA
:1011F00045EB174516EB0C4645EB1C42121951F115
:10120000000148BF7047B619524141EB0101A3F1FB
:10121000010370474FEA14454FEA114724EA054697
:1012200021EA074C05FB07F106FB07F70CFB06F26A
:101230004FF0000605FB0CFC12EB074241EB174197
:1012400012EB0C4251EB1C4148BF7047921841EB26
:101250000101A3F1010370470448006800F0010098
:1012600010B10120014908607047000014040140DA
:101270000448006800F0020010B102200149086033
:10128000704700001404014010B50C48006800F0DD
:10129000040090B10321002001F0B4FD28B10848FA
:1012A0000068401E0649086004E005480068401CCC
:1012B0000349086004200149086010BD140401407E
:1012C000040000200448006800F0080010B1082065
:1012D00001490860704700001404014010B50C4833
:1012E000006800F0100090B10521002001F08AFD97
:1012F00028B108480068401C0649086004E0054819
:101300000068401E0349086010200149086010BDB4
:10131000140401400800002010B58CB04348006858
:1013200000F0200010B12020404908603F480068CC
:1013300000F0400010B140203C4908603B48006884
:1013400000F0800000285DD000F030F93848B0F996
:10135000000004F069FE04464FF08D4104F032FDB8
:1013600009903448B0F9000004F05EFE04464FF0E6
:101370008D4104F027FD0A902F48B0F9000004F0D9
:1013800053FE04464FF08D4104F01CFD0B902B489A
:10139000B0F9000004F048FE0446294904F012FDAB
:1013A00006902848B0F9000004F03EFE04462449A7
:1013B00004F008FD07902448B0F9000004F034FE62
:1013C00004461F4904F0FEFC089020480290DDE925
:1013D0000701CDE90001069B09A807C801F01CFF21
:1013E00006A90EC903A801F011FE19490398086067
:1013F00018490498086018490598086080200B492E
:10140000086000BF0948006800F4807018B14FF40C
:101410008070064908600548006800F4007018B143
:101420004FF40070014908600CB010BD1404014075
:10143000200100202201002024010020260100209C
:1014400033338341280100202A0100200AD7A33B1F
:1014500044010020480100204C01002010B5022268
:101460000A21012001F0E0FC02220B21012001F001
:10147000DBFC01220B21104601F0A8FD01220A210C
:10148000104601F0A3FD10BD10B501220B2110463E
:1014900001F09CFD01220A21104601F097FD002277
:1014A0000A21012001F092FD10BD70B50025012236
:1014B0000B21104601F08AFD002412E001220A21CE
:1014C000104601F083FD0B21012001F09BFC10B1BF
:1014D00080202041054300220A21012001F076FDF1
:1014E000641C082CEADB284670BD70B50546002454
:1014F00019E080202041284028B101220B2110460C
:1015000001F064FD04E000220B21012001F05EFDEA
:1015100001220A21104601F059FD00220A21012072
:1015200001F054FD641C082CE3DB70BD10B50122F2
:101530000B21104601F04AFD01220A21104601F05C
:1015400045FD00220B21012001F040FD00220A216F
:10155000012001F03BFD10BD10B500220B21012040
:1015600001F034FD01220A21104601F02FFD012275
:101570000B21104601F02AFD10BD10B500240122F8
:101580000B21104601F022FD01220A21104601F034
:101590001DFD0B21012001F035FC044600220A212B
:1015A000012001F013FD204610BD000070B53B2066
:1015B00000F072F804463C2000F06EF8054645EA5B
:1015C000042000B2214908803D2000F065F804465F
:1015D0003E2000F061F8054645EA042000B21C49AF
:1015E00008803F2000F058F80446402000F054F8EE
:1015F000054645EA042000B216490880432000F061
:101600004BF80446442000F047F8054645EA04201C
:1016100000B211490880452000F03EF804464620FB
:1016200000F03AF8054645EA042000B20B4908806C
:10163000472000F031F80446482000F02DF8054618
:1016400045EA042000B20649088070BD2001002050
:101650002201002024010020260100202801002072
:101660002A01002010B502216B2000F035F8272157
:10167000192000F031F800211A2000F02DF818216F
:101680001B2000F029F800211C2000F025F8012182
:10169000382000F021F810BD70B50446FFF746FF72
:1016A000D020FFF722FFFFF768FF2046FFF71DFF5E
:1016B000FFF763FFFFF750FFFFF738FFD120FFF779
:1016C00014FFFFF75AFFFFF7F0FE0546FFF7DCFEB9
:1016D000FFF742FF284670BD70B505460C46FFF780
:1016E00025FFD020FFF701FFFFF747FF2846FFF750
:1016F000FCFEFFF742FF2046FFF7F7FEFFF73DFF36
:10170000FFF72AFF70BD0000014607238B431A0232
:10171000054B18684FF6FF0318401043034B18435E
:10172000014B1860704700000CED00E00000FA0566
:1017300070B505460C460420FFF7E6FF0E48005D35
:1017400000F0010646EA0510C1B20B4801552046DB
:10175000E21704EBD2625211A4EB421301229A4029
:101760002146E31704EBD3635B119B0003F1E023F5
:10177000C3F8002170BD000000E400E070B5002453
:101780000EE00021204600F0D1F8002504E0002002
:1017900000F0DDF9681CC5B2802DF8DB601CC4B216
:1017A000082CEEDB70BD10B502220821012001F0EB
:1017B0003BFB02220921012001F036FB0122082116
:1017C000104601F003FC01220921104601F0FEFB46
:1017D00010BD70B50546002413E08020204100EACA
:1017E00005020921012001F0F1FB01220821104628
:1017F00001F0ECFB00220821012001F0E7FB601C56
:10180000C4B2082CE9DB01220821104601F0DEFBFE
:1018100000220821012001F0D9FB70BD10B5012282
:101820000921104601F0D2FB01220821104601F0E7
:10183000CDFB00220921012001F0C8FB0022082174
:10184000012001F0C3FB10BD10B5002209210120C9
:1018500001F0BCFB01220821104601F0B7FB012278
:101860000921104601F0B2FB10BD70B5002406E05E
:10187000002500E06D1CB5F57A7FFBD3641CB4F540
:101880007A7FF5D3FFF78FFFAE2000F050F9D52017
:1018900000F04DF9802000F04AF9A82000F047F947
:1018A0003F2000F044F9D32000F041F9002000F07F
:1018B0003EF9402000F03BF9A12000F038F9C820A3
:1018C00000F035F9DA2000F032F9122000F02FF99B
:1018D000812000F02CF9CF2000F029F9D92000F068
:1018E00026F9F12000F023F9DB2000F020F9302068
:1018F00000F01DF9A42000F01AF9A62000F017F955
:101900008D2000F014F9142000F011F9AF2000F040
:101910000EF9FFF733FF70BD10B50246012000E05D
:1019200050430B1EA1F10101FAD110BD70B505465F
:101930000C4645F0B00000F0FAF8102141EA14100E
:1019400000F0F5F804F00F0000F0F1F870BD0000B1
:101950002DE9F04105460E461746721ED206110EBD
:101960006A1E5206100EFFF7E1FF002409E0A7F1FE
:101970002001134A02EB0111085D00F0E8F8601C39
:10198000C4B2082CF3DB721ED206110E6A1E0123AC
:1019900003EB4202D0B2FFF7C9FF00240BE0A7F12E
:1019A0002001074A02EB011204F10801505C00F02B
:1019B000CEF8601CC4B2082CF1DBBDE8F081000059
:1019C000A46600082DE9FF4F87B00C4691469A4661
:1019D000DDF850B0484604F0EBFA0590584603F0A5
:1019E000F1FD07463A460B4600201A4902F030FA4C
:1019F00005460E46059804F017FB8046494604F05C
:101A0000A1FC074604F03EF92A463346CDE9000121
:101A100003F028FECDE9020103F08EFD0490534649
:101A20002146059A079800F03BF804EB0A00401C99
:101A3000C1B209A2079800F066F804EB0A00801C06
:101A4000C1B25B46049A079800F008F80BB0BDE8F5
:101A5000F08F0000000024402E0000002DE9F04728
:101A600080460E4617461D46002415E0281B411EE1
:101A70000A20FFF751FFB7FBF0F00A21B0FBF1F2AB
:101A800001FB120000F130093019C1B24A4640464C
:101A9000FFF75EFF601CC4B2AC42E7DBBDE8F08735
:101AA0002DE9F0478146884615461E46002D06DB87
:101AB0002B2241464846FFF74BFF2F4605E02D22DB
:101AC00041464846FFF744FF6F42002417E0301BB1
:101AD000411E0A20FFF720FFB7FBF0F00A21B0FB00
:101AE000F1F201FB120000F1300A08EB0400401C87
:101AF000C1B252464846FFF72BFF601CC4B2B44245
:101B0000E5DBBDE8F0872DE9F04107460E461546B6
:101B1000002407E02A5D3019C1B23846FFF718FFEC
:101B2000601CC4B2285D0028F4D1BDE8F08110B576
:101B30000446FFF773FE7820FFF74BFE0020FFF707
:101B400048FE2046FFF745FEFFF77EFE10BD10B5AC
:101B50000446FFF763FE7820FFF73BFE4020FFF7C7
:101B600038FE2046FFF735FEFFF76EFE10BD10B5BC
:101B700000F002F810BD00000CB5002001900090AC
:101B80003348006840F480303149086000BF304875
:101B9000006800F4003000900198401C019000980B
:101BA00018B90198B0F5A06FF1D12948006800F488
:101BB000003010B10120009001E00020009000985A
:101BC000012843D12348006840F0100021490860F3
:101BD0000846006820F0030008600846006840F0EE
:101BE000020008601A484068194948600846406881
:101BF00048600846406840F4806048600846406895
:101C000020F47C1048600846406840F4E8104860C2
:101C10000846006840F08070086000BF0C4800680B
:101C200000F000700028F9D00948406820F0030057
:101C3000074948600846406840F00200486000BF1D
:101C40000348406800F00C000828F9D10CBD0000E2
:101C5000001002400020024010B51348006840F018
:101C600001001149086008464068104908400E49C3
:101C70004860084600680E4908400B49086008465D
:101C8000006820F4802008600846406820F4FE00C8
:101C900048604FF41F008860FFF769FF4FF0006055
:101CA0000449086010BD0000001002400000FFF869
:101CB000FFFFF6FE08ED00E04FF08040008A00F0E4
:101CC000010038B14FF08040008A20F001004FF051
:101CD000804108827047000010B50748008800F076
:101CE000010038B102F020F80348008820F001001C
:101CF0000149088010BD000010040040054800881C
:101D000000F0010028B10348008820F001000149DB
:101D100008807047100800400548008800F0200047
:101D200028B10348008820F020000149088070474E
:101D3000003801400548008800F0200028B1034821
:101D4000008820F0200001490880704700440040CE
:101D50000548008800F0200028B10348008820F0E2
:101D6000200001490880704700480040490050EABF
:101D7000C12018BF04204A0D18BF40F0010040F2F6
:101D8000FF72B2EB515F08BF40F00200012808BFAC
:101D9000052070474100080218BF04200A0E18BF32
:101DA00040F001004FF07F4232EA010108BF40F0ED
:101DB0000200012808BF052070472DE9F0414F1EA1
:101DC00000EBC7010446D1E9000115461E4637F075
:101DD00006020DD02A46334603F044FC7F1E04EB76
:101DE000C703D3E9002303F093F937F00602F1D1DA
:101DF000022F25D0042F13D0062F18BFBDE8F08185
:101E00002A46334603F02EFCD4E90A2303F080F976
:101E10002A46334603F026FCD4E9082303F078F978
:101E20002A46334603F01EFCD4E9062303F070F97A
:101E30002A46334603F016FCD4E9042303F068F97C
:101E40002A46334603F00EFCD4E9022303F060F97E
:101E50002A46334603F006FCD4E90023BDE8F041EE
:101E600003F056B9002213461046014903F00CBA9C
:101E70000000F03F03F04CB9002213461046114613
:101E800003F002BA40F2013200204FF0E04104F0CA
:101E900094BB0000024A0020110704F08EBB000032
:101EA00001FDFFFF012104F0B6BB03F017BF0021C5
:101EB000084603F087BF6FF05E01080704F0ABBB74
:101EC0002DE9F04D0D4614464FF07F41B1EB440F24
:101ED0009EBF4FF0FF312960BDE8F08D4FF000400C
:101EE00040EA0421C4F3C750783810F01F024A4B6F
:101EF0004FEA601CC2F120067B44C4F3C750A0F136
:101F000078004FEA601003EB800053F82C3008BFD4
:101F1000D0E901C612D0D0F804C093402CFA06F7DD
:101F20003B4387680CFA02FC27FA06F8C06807FAF8
:101F300002F2F0404CEA080C42EA0006A3FB013230
:101F4000ACFB01C0A6FB016101EB0C068E4234BF65
:101F50004FF0010C4FF0000CC1186144BCF1000FB0
:101F600002D0814202D903E0814201D2012000E087
:101F70000020104400F120024FEA92188006CA0C9B
:101F800040EA42304F03C5F8008004F04DF8824625
:101F9000384604F061F86FF0120104F03CFB07468C
:101FA000304604F059F86FF0250104F034FB834605
:101FB0003946504603F092FE594603F08FFE00F575
:101FC00000666FF30B065146304604F04DFA394671
:101FD00004F04AFA594604F0B5F9104904F084F8BF
:101FE00007460F49304604F07FF8394603F076FE85
:101FF00007460C49304604F077F8394603F06EFE88
:1020000014F0004F08BFBDE8F08DC8F1805180F09A
:1020100000402960BDE8F08D2C4E0000DB0FC92F79
:1020200022AAFD290000C92F30380A2801D2012038
:1020300070470020704700BF704700002DE9F0474F
:10204000064615480660154800681349486008466A
:1020500001F008FE124C1048C56A2146284604F0DB
:102060000FF901D2254608E084F00047294638469A
:1020700004F006F901D284F00045284603F098FFE9
:10208000814685F00048404603F092FF07464946E6
:1020900001F092FDBDE8F087B80100204C0100205E
:1020A0000000A0412DE9F04104464FF00E4000EB46
:1020B0004400B0F1506F204655D84FF0FC41B1EBD1
:1020C000440F1CD224F000404FF07E5104F03AF946
:1020D0004FF0FF3104F09FFA054602F027FE14F09E
:1020E000004F1DBF2F4F304E80F000402F4F08BFD4
:1020F0002F4E4FF0404103F0F7FF044605E0002764
:102100003E46014603F0F0FF05462A49284603F003
:10211000EBFF294903F0E2FD294603F0E5FF2749DB
:1021200003F0DCFD294603F0DFFF254903F0D6FD6F
:10213000294603F0D9FF234903F0D0FD8046294604
:10214000204603F0D1FF414603F0CEFF054631465D
:10215000204603F0C3FD294603F0C0FD3946BDE823
:10216000F04103F0BBBD4FF0E441B1EB440F08D99F
:10217000FFF710FE042808BFFFF79DFE2046BDE8CC
:10218000F0814FF07F41B1EB440F03D2BDE8F04145
:10219000FFF788BE0120FEF7E1F8BDE8F041FFF748
:1021A00086BE00000000C9BF22AAFDB90000C93FD9
:1021B00022AAFD3924FE1C3DC78AD83C1E67383D43
:1021C0001B93993DAFAA2A3E2DE9F0474FF0684294
:1021D00002EB40030C460546B3F1654F3CBF02EBF2
:1021E0004102B2F1654F80F0CD8000BFC0F3C7520D
:1021F000C1F3C753D21A1B2A06DD10F0004F14BFDB
:1022000087488848BDE8F08712F11A0F2FDA11F0DD
:10221000004F06D010F0004F0CBF83488348BDE844
:10222000F0872146284603F0CDFD0646FFF7B2FDB4
:10223000042808BFFFF73FFE2846FFF7ABFD054621
:102240002046FFF7A7FD04463046FFF7A3FD042D07
:1022500018BF052D08D1042C18BF052C04D1002867
:1022600004BF0220FEF77AF83046BDE8F08742004E
:10227000B2EB410F25D910F0004F19BF6C4F6D4ED6
:102280006D4F6E4E224685F0004415460A4680F09A
:10229000004110460A1A5200B2F1807F3ED24840F7
:1022A0006749DFF8A0A110F0004F18D04FF03F4869
:1022B000384604F0D9F807465146304604F0D4F8C1
:1022C00017E011F0004F04BF00263746E2D010F0AF
:1022D000004F19BF5C4F5D4E5D4F5E4EDAE74FF029
:1022E0007C58384603F0FAFC07465146304603F066
:1022F000F5FC06464146284603F0F6FE214603F06B
:10230000EDFC82462146404603F0EEFE294604F0ED
:1023100019F8514603F056FD044604E021462846CC
:1023200003F050FD0446014603F0DEFE80464A49B4
:1023300003F0DAFE494903F0D1FC414603F0D4FE34
:10234000474903F0CBFC414603F0CEFE454903F07C
:10235000C5FC414603F0C8FE434903F0BFFC0546F7
:102360004146204603F0C0FE294603F0BDFE31463B
:1023700003F0B4FC214603F0B1FC3946BDE8F04758
:1023800003F0ACBC4FF07F42B2EB400F28BFB2EB82
:10239000410F03D2BDE8F047FFF787BD40EA0103D4
:1023A0005B0008BF44F0FF410AD0B2EB400F08BF0A
:1023B000B2EB410F06D125F0804024F08041054664
:1023C0000C4613E7B2EB400F12BF5FEA410345F042
:1023D000FF4004F000413FF409AFB2EB410F12BFE0
:1023E0005FEA400205F0004044F0FF413FF4FEAEDA
:1023F0004A0092EA40033FF5F9AE002AACBF4FF025
:102400009F464FF03E56314603F06EFE054631467C
:10241000204603F069FE044628462146E6E6000011
:10242000DB0FC9BFDB0FC93FDB0F4940DB0F49C0E2
:102430000000C9BF22AAFDB90000C93F22AAFD3988
:102440000060ED3EC30ACE37000049C022AA7DBA23
:102450000000494022AA7D3A2DAD65BD8FB8D53D1B
:102460000FB511BE61C84C3EA8AAAABE2DE9F04125
:10247000044600BF24F00040054610488168284605
:1024800003F0FEFD16D20D4A1168506803F0ECFF10
:1024900007460A488168284603F094FC804639467E
:1024A00003F022FE064605484168304603F04AFF25
:1024B000BDE8F08101480068FAE700008C000020C8
:1024C00070B51248007800B970BD02F07BFD104A6B
:1024D0001169104A106903F001FC05464FF0804174
:1024E00003F070FC04460C480168204603F0C8FE67
:1024F00009D80021084601F05FFB0020034908705D
:1025000001200649087000BFDEE700003C00002003
:10251000240000201000002038000020CC00002003
:102520002DE9F0472C48007808B9BDE8F0872B4822
:1025300004682B482B49097850F821502A48007824
:1025400028B92A480460012027490870EDE7274888
:102550000168204603F088FF824603F093FB21F0D8
:102560000041074602F0A2FD06462149304603F02D
:1025700087FE05D21F49304603F082FD00D2D4E722
:102580001A4804602946204603F06EFF81461A4926
:10259000484603F075FE05D21849484603F064FF2B
:1025A000814609E01649484603F06AFD04D2134902
:1025B000484603F093FB8146484603F063FB21F055
:1025C0000041074600220F4B03F010F801D200F043
:1025D0001BF800BFA9E70000EC0000204C01002020
:1025E000D80000203D000020F4000020F000002072
:1025F0000000B44200008743000034430000B443AD
:10260000000034C30000144010B50021084601F05A
:10261000D3FA4FF4967000F0CDF9002013490870FA
:1026200001201349087013490870134800780328E3
:1026300013DA3221084601F0BFFA10490E4A127827
:1026400031F8120003F008FD044601F0E7FA0A48E9
:102650000078401C0849087006E00120084908700D
:102660000021084601F0A8FA10BD0000EC0000208F
:1026700000000020010000203D000020CE000020CE
:10268000ED0000202DE9FF5F66480168006803F057
:102690002BFD814664480168006803F025FD8246F1
:1026A00062480168006803F01FFD03905D480168FF
:1026B0005F48006803F018FD04465B4801685C4809
:1026C000006803F011FD0546584801685848006845
:1026D00003F00AFD0646544801685248006803F0BA
:1026E00003FD0290514801684E48006803F0FCFC6D
:1026F00001904E4801684C48006803F0F5FC0090DA
:102700004FF08040039903F0EFFC804651464FF0B4
:10271000804003F0E9FC83464FF07E5103F012FE47
:102720000746414603F0A0FE4249086086F0004893
:102730004046029903F0D2FA07464FF0804103F079
:10274000D3FC3C49486085F000484046019903F0BD
:10275000F9FD07464FF0804103F0C6FC354988601B
:1027600086F000484046029903F0ECFD07464FF022
:10277000804103F0B9FC2F49C8604FF080400399B5
:1027800003F0B2FC804649464FF0804003F0ACFCB9
:1027900083464FF07E5103F0D5FD0746414603F0D6
:1027A00063FE2449086184F000484046009903F024
:1027B00095FA07464FF0804103F096FC1D494861A9
:1027C00085F000484046019903F088FA07464FF02B
:1027D000804103F089FC1749886184F00048404635
:1027E000009903F0AFFD07464FF0804103F07CFCF9
:1027F0001049C86151464FF0804003F075FC804697
:1028000049464FF0804003F06FFC83464FF07E5105
:1028100003F098FD0746414603F026FE054908628D
:10282000BDE8FF9F5C0000206000002064000020E5
:1028300058000020EC0100202DE9F8430446024630
:102840004F486946B0EB420F09D94FF0E640B0EB74
:10285000420F94BF00204FF0FF30009030E0494B12
:1028600022F00040834271D94749204603F03CFCE6
:1028700003F038FD804603F09BFB00F0030000905E
:102880004249404603F030FC05464149404603F0CA
:102890002BFC06463F49404603F026FC07463E49CE
:1028A000404603F021FC214603F04CFD394603F07D
:1028B000DBFD314603F0D8FD294603F0D5FD044683
:1028C0002546009C002C45DB294614F0010F0846E4
:1028D0001CD003F009FC0646304903F005FC3049E2
:1028E00003F030FD314603F0FFFB2E4903F0F6F90B
:1028F000314603F0F9FB294603F0F6FB294603F0C5
:10290000EDF914F0020F1CD0BDE8F88303F0ECFBE6
:102910000546254903F0E8FB244903F0DFF9294681
:1029200003F0E2FB224903F0D9F9294603F0DCFB6E
:102930004FF07E5103F0D2F914F0020F08BFBDE84A
:10294000F88380F00040BDE8F883FFE71046FFF70A
:10295000B7FAB4E76800B0F17F4F3CBF4FF07E504C
:10296000BDE8F88307D14FF00100FDF7F7FCBDE8A3
:10297000F843FFF79CBA2846BDE8F843FFF792BA40
:10298000B61F927E490E494683F9223F1A61342CC4
:102990000020A23300A0FD390000C93F336D4C393F
:1029A000DA82083CA0AA2ABEB93AB2BACA9F2A3D26
:1029B000DDFFFFBE00B5034603E04FF47A7000F080
:1029C00005F8181EA3F10103F7D100BD00EBC0010B
:1029D000C9004FF0E0225161002191610521116190
:1029E00000BF4FF0E021096901F480310029F8D0DF
:1029F00004214FF0E0221161704700002DE9F04FF3
:102A00008DB004460E461546606A28B9266001203E
:102A100060620DB0BDE8F08F4D4B0FCB09AF0FC713
:102A20000A952946606803F05FFB0746216803F0BA
:102A300055F920602946284603F056FB8246616915
:102A400003F052FB80462846E16803F04DFB0290FC
:102A50002846216903F048FB0190A16803F03EF984
:102A60008246029903F03AF98146414603F036F96D
:102A70000746A16903F032F905902846616903F021
:102A800033FB0746E16803F029F90690284661699F
:102A900003F02AFB0746216903F020F90790E1695A
:102AA000606903F01BF90890216A059803F016F994
:102AB00007463946059803F085F90390216A059881
:102AC00003F00CF907463946079803F07BF90490A8
:102AD0003046216803F0C8FC83465946039803F04A
:102AE00003FB0746216803F0F9F820605946049873
:102AF00003F0FAFA0746616803F0F0F860604FF0FF
:102B00007E50039903F0B0FC0746059903F0ECFAF8
:102B1000A0604FF07E50039903F0A6FC074606998B
:102B200003F0E2FAE060DDE9040103F0DDFA0746B4
:102B3000079903F007FC20610699049803F0D4FA82
:102B40000746089903F0FEFB606100BF61E70000E3
:102B50009466000810B500220121062000F01AF842
:102B600001220221002000F05FF901220321002050
:102B700000F05AF9002201210C2000F00BF801228C
:102B80000421002000F050F901220521002000F06E
:102B90004BF910BD2DE9F04704460E4617460321B8
:102BA00094FBF1F0C11700EB91718910A0EB81014A
:102BB00089064FEA1168032194FBF1F0C11700EB7D
:102BC0009171C1F38705204600F06AF831488069A9
:102BD00040F001002F4988614FEAB13050F82500DC
:102BE0000F2101FA08F188432B4941F82500032001
:102BF00094FBF0F100FB114088B1032094FBF0F14D
:102C000000FB1140401E012101FA00F000FA08F01B
:102C1000214951F8251001431F4840F82510032091
:102C200094FBF0F1012088401C49096808431B49C6
:102C3000086066B9032094FBF0F101208840174931
:102C40000831096808431549083108600BE0032082
:102C500094FBF0F10120884010490C3109680843C9
:102C60000E490C310860032094FBF0F004280ADCC4
:102C7000032094FBF0F0801D00F0FF094946384620
:102C8000FEF756FD03E017213846FEF751FDBDE87B
:102C9000F0870000001002400800014000040140DD
:102CA00010B50446182C12D2DFE804F00C12181EDE
:102CB000242A30363C42484E545A60666C72787E04
:102CC000848A909601220021084600F0ADF889E040
:102CD00001220021104600F0A7F883E00122002124
:102CE000022000F0A1F87DE001221146002000F052
:102CF0009BF877E001221146104600F095F871E04C
:102D000001221146022000F08FF86BE0012202211F
:102D1000002000F089F865E001220221104600F051
:102D200083F85FE001220221084600F07DF859E0B7
:102D300001220321002000F077F853E00122032153
:102D4000104600F071F84DE001220321022000F04E
:102D50006BF847E001220421002000F065F841E013
:102D600001220421104600F05FF83BE0012204211B
:102D7000022000F059F835E001220521002000F082
:102D800053F82FE001220521104600F04DF829E00C
:102D900001220521022000F047F823E0012206214C
:102DA000002000F041F81DE001220621104600F04D
:102DB0003BF817E001220621022000F035F811E06F
:102DC00001220721002000F02FF80BE0012207214B
:102DD000104600F029F805E001220721022000F04A
:102DE00023F800BF00BF10BD00BF054A128802F0E3
:102DF0004002002AF9D0C2B2014B1B1D1A80704755
:102E00000038014010B50246064850F8220080689C
:102E100001248C4000EA04030BB1012010BD002006
:102E2000FCE70000F800002070B5654CA46904259B
:102E300085402C43624DAC6108295DDA614C54F841
:102E4000204024688E000F25B540AC435D4D55F8F9
:102E500020502C601AB1032A01D0022A0FD101247C
:102E6000944044F003048D00AC40564D55F820507A
:102E70002D682C43534D55F820502C609FE0012ABB
:102E800001D0042A2AD14F4C54F8204024688E00E7
:102E90000825B5402C434B4D55F820502C60012A95
:102EA0000ED1484C54F82040E46801258D4024EAB6
:102EB000050301248C401C43424D55F82050EC6022
:102EC000042A7CD13F4C54F82040E56801248C4012
:102ED000A5433C4C54F82040E56070E00424944045
:102EE0008D00AC40374D55F820502D682C43354DA2
:102EF00055F820502C6062E0324C54F82040646851
:102F0000A1F10805AE000F25B540AC432D4D55F895
:102F100020506C601AB1032A01D0022A11D1012479
:102F2000944044F00304A1F10805AD00AC40254DE8
:102F300055F820506D682C43224D55F820506C6098
:102F40003DE0012A01D0042A2AD11E4C54F8204029
:102F50006468A1F10805AE000825B5402C43194D61
:102F600055F820506C60012A0CD1174C25680124BB
:102F70008C4025EA040301248C401C43114D55F874
:102F80002050EC60042A1AD10E4C54F82040E4681A
:102F900001258D40AC430B4D55F82050EC600EE000
:102FA00004249440A1F10805AD00AC40054D55F84E
:102FB00020506D682C43034D55F820506C6070BD57
:102FC00000100240F80000200C08014030B57AB132
:102FD0000D4C54F82040E46801258D4024EA050397
:102FE00001248C401C43084D55F82050EC600AE049
:102FF000054C54F82040E46801258D40AC43024D57
:1030000055F82050EC6030BDF80000202DE9FF4F4E
:103010008DB08146654A116AD069FFF7D5F86449D9
:10302000059003F061F80A906048806980F00040E4
:103030000490FFF737F85E49059003F055F80B90C0
:103040005A4A1168D068FFF7BFF85949059003F054
:103050004BF8824657490B9803F046F80590FFF766
:10306000EBFB099053490B9803F03EF8059001F0F3
:1030700073FD08904F490A9803F036F80590FFF762
:10308000DBFB07904B490A9803F02EF8059001F0FE
:1030900063FD069008990E9803F026F804900699AF
:1030A0000F9803F021F80090099903F01DF80290A1
:1030B0000799109803F018F80090099903F014F894
:1030C0000190029902F00AFE0390049903F0CCF9F2
:1030D0003749059003F008F807463749384603F0AA
:1030E000CFF800D2344F3549384602F0C9FF00D23C
:1030F000324F3846FFF7BAF9044621464FF07E506A
:1031000003F0B2F93946039002F0EEFF05902C4827
:103110000168204602F0E8FF0490059902F0DEFD08
:1031200027490860274A51462748FFF767FC264889
:10313000D0F800B02546264629464FF07E5003F0D1
:1031400093F95946039002F0CFFF05901F4801689C
:10315000284602F0C9FF0490059902F0BFFD8046A1
:1031600031464FF07E5003F07FF94146039002F064
:10317000BBFF059016480168304602F0B5FF049089
:10318000059902F0ABFD0C901248C0F800A00F4862
:10319000C0F800800E490C9808600F4807600AA824
:1031A00007C889E8070011B0BDE8F08FEC010020E6
:1031B000E12E654235FA8E3C0000C8420000C8C2CC
:1031C000C80000200AD7A33B9800002084000020FC
:1031D000C4000020C0000020800000204FF07E507E
:1031E0000749086000200749086007490860074947
:1031F0000860074988600748C86000200875704764
:103200005800002064000020600000205C000020C6
:1032100068000020CDCCCC3D0FB400B5A1B02598FE
:10322000FE490E9002F060FF25902698FB490E9013
:1032300002F05AFF26902798F8490E9002F054FFAA
:10324000279027980B9001460A9002F04DFF0D90B1
:10325000269809900146089002F046FF0B902598A9
:1032600009900146089002F03FFF0A900B9902F086
:1032700035FD0C900D9902F031FD0E9001F056FDD8
:103280000F90229800210E9002F05EFE0BD1239841
:1032900000210E9002F058FE05D1249800210E90D6
:1032A00002F052FE7ED024980B9001460A9002F064
:1032B0001BFF0D90239809900146089002F014FF1F
:1032C0000B90229809900146089002F00DFF0A9099
:1032D0000B9902F003FD0C900D9902F0FFFC0E908B
:1032E00000F080FB209022980E90209902F0FCFEC6
:1032F000229023980E90209902F0F6FE23902498B5
:103300000E90209902F0F0FE2490C5490F9802F02B
:10331000B7FE7DD2C348C0690990249808900999E6
:1033200002F0E2FE0B90BF48006A099023980890D3
:10333000099902F0D9FE0A900B9903F095F80E90C6
:10334000B848006A099022980890099902F0CCFECA
:103350000B90B4488069099024980890099902F06C
:10336000C3FE0A900B9903F07FF80D90AD48806979
:10337000099023980890099902F0B6FE0B90A9488D
:10338000C069099022980890099902F0ADFE0A9050
:103390000B9903F069F80C90A3480E99006802F0AD
:1033A000A3FE00E010E30A90289902F09DFE0B9026
:1033B0009E4801680B9802F091FC9C4908609A486D
:1033C0000D99006802F090FE0A90289902F08CFE98
:1033D0000B90974801680B9802F080FC94490860B4
:1033E00091480C99006802F07FFE0A90289902F03B
:1033F0007BFE0B908F4801680B9802F06FFC8D49A3
:1034000008608D480E99006802F06EFE0A9000E098
:1034100033E0864801680A9802F060FC0B9025981A
:1034200001460A900B9802F059FC259082480D99AC
:10343000006802F059FE0A907D4801680A9802F07F
:103440004DFC0B90269801460A900B9802F046FC22
:10345000269079480C99006802F046FE0A9075485B
:1034600001680A9802F03AFC0B90279801460A90EE
:103470000B9802F033FC279061E2279801460B90ED
:103480006E48006802F030FE0D90269801460990C3
:103490006B48006802F028FE0B906A48006880F0D4
:1034A00000400990259801460890099802F01CFEFA
:1034B0000A900B9902F0D8FF0C900D9902F0D4FFFE
:1034C0004FF07C510E9002F00FFE1B9026980146A3
:1034D0000B905A48006802F007FE0D9027980146AD
:1034E00009905748006802F0FFFD0B9025980146AF
:1034F00009905548006802F0F7FD0A900B9902F018
:10350000EDFB0C900D9902F0AFFF4FF07C510E9047
:1035100002F0EAFD1A90259801460B904748006892
:1035200002F0E2FD0D902798014609904548006899
:1035300002F0DAFD0B902698014609904248006897
:1035400002F0D2FD0A900B9902F08EFF0C900D99BB
:1035500002F0C4FB4FF07C510E9002F0C5FD1990B3
:10356000259801460B903648006802F0BDFD0D908D
:103570002698014609903348006802F0B5FD0B908B
:103580002798014609903048006802F0ADFD0A9086
:103590000B9902F0A3FB0C900D9902F065FF4FF020
:1035A0007C510E9002F0A0FD1890274801684FF062
:1035B000804002F099FD1790224801684FF080404A
:1035C00002F092FD16901E4801684FF0804002F014
:1035D0008BFD1590194801684FF0804002F084FD82
:1035E000149019480168006802F07EFD1390154898
:1035F0000168006802F078FD1290114801680068C7
:1036000002F072FD11900D480168006802F06CFD37
:103610001090239801460C90169817E035FA8E3CCE
:10362000CDCCCC3DEC010020480000204C00002017
:1036300050000020540000204400002064000020BE
:10364000600000205C0000205800002002F04CFDCB
:103650000E901299179802F047FD0C90229801469F
:103660000890159802F040FD0A901199179802F001
:103670003BFD09900A9902F031FB0B900C9902F086
:103680002DFB0D900E9902F0EFFE1F90249801463D
:103690000C90169802F028FD0E901199169802F0E1
:1036A00023FD0C901299169802F01EFD0A902398A3
:1036B00001460590179802F017FD07904FF08140E2
:1036C000139902F011FD0390C1480168039802F0BC
:1036D0000BFD0590229801460190149802F004FD1C
:1036E00003901099169802F0FFFC0290039902F0E3
:1036F000BBFE0490059902F0F1FA0690079902F0DA
:10370000B3FE0890169902F0AFFE09900A9902F0F4
:10371000E5FA0B900C9902F0E1FA0D900E9902F087
:10372000DDFA1E90249801460C90159802F0DCFCFE
:103730000E901199159802F0D7FC0C9012991598DB
:1037400002F0D2FC0A90239801460590149802F0EA
:10375000CBFC07901099159802F0C6FC05902298B2
:1037600001460190179802F0BFFC03904FF0814092
:10377000139902F0B9FC019096480168019802F093
:10378000B3FC0290039902F0A9FA0490059902F0A3
:10379000A5FA0690079902F067FE0890159902F0C5
:1037A00063FE09900A9902F099FA0B900C9902F0C5
:1037B00095FA0D900E9902F091FA1D90239801460A
:1037C0000C90159802F090FC0E904FF081401199EA
:1037D00002F08AFC0A90804801680A9802F084FC92
:1037E0000C90229801460890169802F07DFC0A90F1
:1037F0004FF08140129902F077FC089076480168FA
:10380000089802F071FC09900A9902F02DFE0B90C5
:103810000C9902F063FA0D900E9902F025FE1C90AF
:103820001C99084602F060FC0D901D99084602F0B4
:103830005BFC0B901E99084602F056FC09901F99FC
:10384000084602F051FC0890099902F047FA0A90E4
:103850000B9902F043FA0C900D9902F03FFA0E908A
:1038600000F0C0F82090DDE91F0102F03DFC1F9040
:1038700020991E9802F038FC1E9020991D9802F0A5
:1038800033FC1D9020991C9802F02EFC1C9053488C
:103890001F99006802F028FC0E901B9902F052FD5F
:1038A0001B904E481E99006802F01EFC0E901A995B
:1038B00002F048FD1A9049481D99006802F014FC76
:1038C0000E90199902F03EFD199044481C99006829
:1038D00002F00AFC0E90189902F034FD1890289915
:1038E0001B9802F001FC0E903D4801680E9802F012
:1038F000F5F93B49086028991A9802F0F5FB0E90FB
:10390000334801680E9802F0E9F9314908602899B6
:10391000199802F0E9FB0E902E4801680E9802F00B
:10392000DDF92C4908602899189802F0DDFB0E900B
:10393000294801680E9802F0D1F927490860264805
:103940000168006802F0D0FB0D9022480168006811
:1039500002F0CAFB0B901E480168006802F0C4FB2D
:1039600009901F480168006802F0BEFB08900999A1
:1039700002F0B4F90A900B9902F0B0F90C900D998D
:1039800002F0ACF90E9000F02DF820901448209928
:10399000006802F0A9FB124908600D4820990068F0
:1039A00002F0A2FB0A4908600A482099006802F068
:1039B0009BFB0849086008482099006802F094FBC6
:1039C00005490860FEF75EFE21B05DF814FB0000BB
:1039D0005C00002060000020640000204000002007
:1039E000580000202DE9F04704464FF07C51204656
:1039F00002F07AFB814625462E460C48A0EB66066F
:103A000035462946484602F06FFB8246294602F0B9
:103A10006BFB80464FF07F5102F094FC074629462D
:103A200002F062FB05462846BDE8F087DF59375FA4
:103A300008B5FDF71AFF00F09DF8FFF78BF801F0CD
:103A4000A3FA00224FF4E131104601F03FFA4FF0A3
:103A50007E50224B224A01210090224800F0DCF9DE
:103A60004FF07E501D4B1E4A012100901E4800F071
:103A7000D3F94FF07C5000231C4A194600901C4893
:103A800000F0CAF9FDF7EAFCFDF7ECFDFFF7A6FB35
:103A9000002211461620FFF77DF800220A2101209E
:103AA00001F05AF901F090F917E001F0B1F911486D
:103AB000006802F0E7F8044622460B460EA0FCF729
:103AC000B1FB0220032300900A4801210268084646
:103AD000FDF778FF1420FEF76DFFE6E70000A04039
:103AE0000000404050010020840100203333333F68
:103AF000B80100204C0100207961773A252E32660A
:103B00000D0A000010B50446A2B20021084600F0DC
:103B100099FF0948027806210020FFF757FA064866
:103B2000007808B9012000E00020024607210020AB
:103B3000FFF74CFA10BD00000000002010B504464D
:103B4000A2B20121002000F07DFF09480278002187
:103B50000120FFF73BFA0648007808B9012000E091
:103B60000020024601210846FFF730FA10BD000090
:103B70000100002010B54FF47A720021084600F0D1
:103B800053FE002206211046FFF74EF900220721BE
:103B90001046FFF749F94FF47A720121002000F036
:103BA00043FE002211460120FFF73EF900220121C9
:103BB0000846FFF739F910BD70B505460C46002DD3
:103BC00008DB012011490870284602F02DFA10493F
:103BD000086007E000200D490870684202F024FAEE
:103BE0000B490860002C08DB01200A4908702046B8
:103BF00002F01AFA0849086007E000200549087039
:103C0000604202F011FA0449086070BD0000002013
:103C100050010020010000208401002010B504465E
:103C200000200949086109490861094908600949F2
:103C300008600949204602F057FA08490860012047
:103C40000749087010BD000010000020240000206B
:103C5000040000200800002000002041380000205F
:103C60003C0000202DE9F0410446D4E9000102F0B7
:103C7000FBFBA060206B01282DD1D4E9020102F0EA
:103C8000F3FB0546616902F02FFA2062A168A06982
:103C900002F02AFAA0624FF08040E16802F024FAB4
:103CA0000746A16802F04EFB0646216902F016F8AD
:103CB0000546E16902F018FA6062A16A206A02F022
:103CC0000DF80646616A02F009F80546E16A02F05D
:103CD00005F8E06221E0206BF8B9A168606902F0A4
:103CE00003FA2062A168A06902F0FEF90546A16A04
:103CF00001F0F4FFA062D4E9020102F0B5FB054631
:103D0000E16902F0F1F96062A16A206A01F0E6FF60
:103D10000546616A01F0E2FFE062E1682161A168A5
:103D2000E160BDE8F081000010B53148007801285D
:103D30000CD13049304A127851F82200FEF77EF952
:103D400000202B49087001202C49087001F03AF935
:103D50002B48006800EB8000400029490860294892
:103D6000006800EB80004000264908602648007883
:103D700030B12348006802F057F92449486006E052
:103D80001F480068404202F04FF92049486020482F
:103D9000007830B11B48006802F046F91D494860C0
:103DA00006E018480068404202F03EF919494860B0
:103DB000002013490860134908601448FFF752FFB8
:103DC0001448FFF74FFF114800F02EF8114800F09B
:103DD0002BF80E49C86A02F0EBF80446FFF792FE92
:103DE0000C49C86A02F0E4F80446FFF7A7FE10BDCC
:103DF000CC000020D80000203D000020EC00002076
:103E000004000020080000200000002050010020D5
:103E1000010000208401002010B5029C0163426172
:103E20008361C46110BD000010B504460749E06A13
:103E300002F026FA01D80548E0620021E06A02F0AB
:103E40001FF901D80020E06210BD00000050434778
:103E50002DE9F04D1D460C4698B0174621F0004163
:103E600023F00043002814BF4FF0010C4FF0000C6A
:103E70000CEB440CFE4A0CEB02064FEA620C664562
:103E80002BD33E0018BF012606EB45061644F94A1F
:103E9000964222D3F84A53EA070C02D0944205D145
:103EA00048B918B000201146BDE8F08D002808BFC1
:103EB0004FF0000C01D04FF0010C0CEB440212F556
:103EC000001F0AD8002F14BF4FF0010C4FF0000C58
:103ED0000CEB450212F5001F07D918B03A462B46E5
:103EE0002146BDE8F04DFDF7C5BF0022DFF88CA3E9
:103EF000002CB8BF534526DADFF884C36345A8BF5A
:103F0000022220DADFF870C39C451CDCDFF874C3A2
:103F10000CEB235CBCF1140F08DDCCF1340627FA5E
:103F200006FC0CFA06F6BE420DD108E05FB9CCF1F2
:103F3000140623FA06FC0CFA06F69E4203D10CF096
:103F40000102C2F1020251EA000C19D1002D17DA68
:103F5000002C18BF022A01D0012A07D00220FCF74A
:103F6000FDF918B0BDE8F04DFDF77CBF0220FCF76D
:103F7000F5F9FDF777FF18B081F00041BDE8F08D4D
:103F8000B7F1000C6CD1534525D104F1804212F5F4
:103F9000801201BF00280020B74918B008BFBDE853
:103FA000F08DB548884207DC002DA1BF6046294648
:103FB00018B0BDE8F08D07E0281E05DA80F000415A
:103FC00018B06046BDE8F08DAF497944D1E90001F1
:103FD00018B0BDE8F08DDFF8A0C2634525D1002DF3
:103FE0001FDA19B1514512D1D8B909E0002840F0C3
:103FF000EC82A24A214618B062F31E01BDE8F08DA2
:104000000020214618B060F31E01BDE8F08D08DAEB
:1040100018B02346BDE8F04D02460020614601F08D
:1040200033B918B02146BDE8F08D514518DAB5F125
:10403000804F0DD0A5F1005CBCF1FF5C10D1B4F154
:10404000000C0DDB18B06146BDE8F04D00F048BE35
:10405000234618B00246BDE8F04D194601F002BBF8
:10406000060024F0004C3BD1D9B1514533D1002C8E
:1040700006DD002DA1BF0020514618B0BDE8F08D2F
:10408000002C01DD002D1BDB002C13DA002D11DBD1
:10409000012A4FF0000014BF78497C4918B0BDE8F0
:1040A000F08D022A18BF002C0AD0012A08D1002C5A
:1040B00006DA0AE0002CB8BF002D11DA012A04D07C
:1040C000002018B00146BDE8F08D18B000204FF078
:1040D0000041BDE8F08DA1F14050B0F17F601AD0F1
:1040E000012000EBE47050EA020421D0624C521E21
:1040F0004FF0000B104304BF4FF0000B644C6548B9
:1041000083427CDD644A654893421FDD884217DBA9
:10411000002D25DB37E0002C00DA4AB1022A0CBF63
:1041200001204FF0FF3018B0BDE8F04D01F033BA78
:104130000120FCF713F918B0BDE8F04DFDF79CBE67
:104140004D4A8A4202DC002D0ADC1CE0814202DA80
:10415000002D18DA04E0484B994220DD002D12DDD5
:104160000220FCF7FBF8FDF78DFE05460E46002207
:1041700053465846214601F075FA18B066F31E0101
:104180002846BDE8F08D0220FCF7E8F8FDF782FE36
:104190000A46214618B062F31E01BDE8F08D0022E8
:1041A0003046614601F084FC80460E466FF0010205
:1041B00002F003FA4FF05532394B01F087FB4246CB
:1041C000334601F04FFA0022364B01F07FFB824666
:1041D0004246334604911046194601F043FA5246CE
:1041E000049B01F03FFA8A4600904FF0C0422E4BEC
:1041F0004046314601F036FA2C4A2B4B00E027E0CE
:10420000CDE906015146009801F02CFA8246019151
:10421000274A284B4046314601F024FA5246019B7A
:1042200001F046FC82460B4602460591DDE9060197
:1042300000F06EFFDDE9062300268846304601F0D7
:1042400037FC5246059B01F041FB024600F07EB967
:104250000020B1F5801F07DA35223046614602F0B2
:10426000ACF906466FF0340000EB215024E000006A
:10427000FFFF1F00FFFF0F000000F03F0000F07F76
:104280000000404301FCFFFF522D00000000F0FF42
:104290000000F0BF0000E0410000F043FFFFEF3FEF
:1042A0005555D53F0000E03F4715F73FFE822B658F
:1042B00044DF5DF80BAE543EA0F2FF300190C1F335
:1042C000130040F07F6141F040510291FE49884265
:1042D000D8BF002004DDFD498142C8BF012001DDB7
:1042E0000D9008E000200D900198401C019002986C
:1042F000A0F5801002900299F54878440B910D9931
:1043000000EBC100D0E900230F9330460A920B99CD
:1043100001F0CEFBCDE90601DDE90A2130460F9B15
:1043200000F0F6FE02460B460020EA4900F0ACFF22
:10433000059102460B460090DDE9060101F092F975
:104340001490E5488A464FF00008784402990068C6
:1043500012904FF0005040EA61010D980F9B01EB65
:10436000804000F5002109910A9A129801F0A0FB03
:1043700032460B9B01F0AAFA4246534601F072F90D
:104380000646029140465146099B129A01F06AF98D
:10439000DDE9062301F09AFA3246029B01F088FB20
:1043A000059B009A01F05EF90091149A049053461F
:1043B0001046194601F056F906460246C7480B4614
:1043C000029106217844FDF7F8FCCDE90510029B27
:1043D00032461046194601F045F9DDE9053201F093
:1043E00041F905910646534640461946149A00F095
:1043F0008FFE009B049A01F035F93246059B00F0D0
:1044000087FECDE90510424653461046194601F095
:1044100029F90022B24B02910A9000F079FEDDE901
:10442000053200F075FE0E464246AD4B404601F0A7
:104430003FFB029B0A9A01F03BFBDDE9053201F0EC
:1044400045FA424602910A9033461046514601F021
:1044500009F9CDE906015346149A02990A9801F028
:1044600001F98A460290334642460099049801F0C9
:10447000F9F85346029A00F04BFE82460B4602467C
:104480000591DDE9060100F043FEDDE90623002089
:104490008846064601F00CFB5246059B01F016FAD1
:1044A000824609914FF060428E4B3046414601F002
:1044B000D9F8049006918C4A8A4B5046099901F02C
:1044C000D1F882460291894A894B3046414601F033
:1044D000C9F85246029B00F01BFE864B7B440D9AA6
:1044E00003EBC203D3E9002300F012FE0E90079104
:1044F000019801F050F80591DDE9061382460E9A05
:10450000049800F005FE7C4A7A440D9B02EBC3033D
:10451000D3E900230093029200F0FAFD5246059B76
:1045200000F0F6FD0026884652463046059B01F015
:10453000BFFA009B029A01F0BBFA069B049A01F0B5
:10454000B7FA079B0E9A01F0C1F9024600200B460C
:1045500002903846294601F085F8824601912B46A3
:1045600038461946029A01F0A3FA3246434601F052
:1045700079F85246019B00F0CBFD07468A46324649
:1045800043462946029801F06DF805460E463A4624
:10459000534600F0BDFD594A8846914221DBA8EB05
:1045A000020353EA000210D12A46334601F080FA92
:1045B000CDE90401524A534B3846514600F0A8FD5C
:1045C000DDE9042301F04CF921D20220FBF7C6FEFD
:1045D000FDF758FC0A46214618B062F31E01BDE8FB
:1045E000F08D494B28F000429A4210D3474A08EB1D
:1045F000020353EA00027FF4C6AD2A46334601F0B7
:1046000057FA3A46534601F02BF97FF6BCAD00222B
:10461000019228F000403E493E4A01EB205182427F
:1046200023DA481C4FF4801121FA00F040443A4A42
:10463000C0F30A517A44394BA1F2FF31CB4020EA52
:104640000303C0F3130040F48010C1F11401C8400B
:1046500012680190B8F1000FBCBF4042019028469B
:10466000314601F025FA05460E462A4633463846BD
:10467000514600F04DFD4FF000084246284B4046A1
:10468000059100F0EFFFCDE90601264A264B404692
:10469000059900F0E7FF009102902A463346404614
:1046A000059901F005FA3A46534601F00FF91F4A01
:1046B0001F4B00F0D7FF009B029A00F029FD074630
:1046C000884602460B4635E08E9803007AB60B000A
:1046D0009A2900000000F03FD229000000290000C4
:1046E0000000084009C7EE3FFD033ADCF5015B140A
:1046F000E02F3EBED82700009C270000000090401D
:10470000FE822B654715973C00CC904000346F3FEC
:1047100001FCFFFF0000E03FE8260000FFFF0F0064
:10472000432EE63F396CA80C615C20BEEF39FAFEDF
:10473000422EE63FDDE9060100F0EAFCDDE9062352
:1047400005460E4601F0B4F93A46434601F0BEF87C
:104750000F462A46334600901046194600F082FF65
:10476000824602462E4888460B4605217844FDF7CE
:1047700024FB5246434600F075FF2A46334601F0BB
:10478000A5F880468A463B4628463146009A00F006
:1047900069FF3B46009A00F0BBFC069100900022A6
:1047A0004FF080434046514601F082F90F460C908D
:1047B000424653462846314600F054FF3B460C9A89
:1047C00000F062FD069B009A01F072F92A4633461A
:1047D00001F06EF90022134B01F078F805460198BC
:1047E0000E4601EB00510815002810DC2846314622
:1047F000019A01F0E2FEFDF7B9FA042808BFFDF7BF
:1048000049FB28463146019A01F0D7FE05460B4682
:1048100018B02A4658462146BDE8F04D00F022BFA8
:10482000882500000000F03F2DE9F04104460D46C8
:1048300016462846E91705EB91718910A5EB810111
:10484000491CCFB25148C0690121A14008434F49DA
:10485000C8614F4890FBF6F0401E4E4951F82410B5
:10486000888547204B4951F824100885284600F0D8
:1048700093F8012F06D0022F1ED0032F36D0042F1D
:1048800069D14DE0434850F82400008B40F06000AF
:10489000404951F8241008833E4850F82400008B0A
:1048A00040F008003B4951F82410088300203949A2
:1048B00051F8241088864EE0364850F82400008BCA
:1048C00040F4C040334951F824100883314850F86F
:1048D0002400008B40F400602E4951F82410088316
:1048E00000202C4951F82410088734E0294850F85A
:1048F0002400808B40F06000264951F82410888302
:10490000244850F82400808B40F00800214951F8D9
:104910002410888300201F4951F8241088871AE04A
:104920001C4850F82400808B40F4C040194951F8CD
:1049300024108883174850F82400808B40F40060CE
:10494000144951F8241088830020124951F824108A
:10495000A1F8400000BF00BF0E4850F82400008CB2
:10496000791E8A000121914008430A4951F8241018
:104970000884084850F82400008840F08100054968
:1049800051F824100880BDE8F081000000100240BA
:1049900040420F000401002010B504460C2C4FD2F9
:1049A000DFE804F0060C12181E242A30363C424878
:1049B000032200210846FEF737FA41E003220121D5
:1049C0000020FEF731FA3BE0032202210020FEF72F
:1049D0002BFA35E0032211460020FEF725FA2FE0DE
:1049E000032206210020FEF71FFA29E003220721F7
:1049F0000020FEF719FA23E0032200210120FEF730
:104A000013FA1DE0032201210846FEF70DFA17E014
:104A1000032206210120FEF707FA11E003220721F5
:104A20000120FEF701FA0BE0032208210120FEF726
:104A3000FBF905E0032209210120FEF7F5F900BF8B
:104A400000BF10BD2DE9F84F04460D461746284615
:104A5000E91705EB91718910A5EB8101491C01F063
:104A6000FF084CF25030874200DB0746384850F8C8
:104A70002400868DB8F1010F09D0B8F1020F1DD0C6
:104A8000B8F1030F31D0B8F1040F5DD144E0701CD0
:104A900001F0CAFA8346384601F0DEFA2D4900904B
:104AA00001F090F98246594601F01EFB814601F063
:104AB0009BFA274951F82410888645E0701C01F0C4
:104AC000B3FA0090384601F0C7FA8346214901F055
:104AD00079F98246009901F007FB814601F084FADA
:104AE0001B4951F8241008872EE0701C01F09CFA35
:104AF0000090384601F0B0FA8346164901F062F999
:104B00008246009901F0F0FA814601F06DFA1049F1
:104B100051F82410888717E0701C01F085FA009086
:104B2000384601F099FA83460A4901F04BF982466A
:104B3000009901F0D9FA814601F056FA044951F87A
:104B40002410A1F8400000BF00BFBDE8F88F0000AE
:104B500004010020005043472DE9F8430446024673
:104B600052486946B0EB420F09D94FF0E640B0EB2E
:104B7000420F94BF00204FF0FF30009030E04C4BCC
:104B800022F00040834271D94A49204601F0ACFA34
:104B900001F0A8FB804601F00BFA00F00300009042
:104BA0004549404601F0A0FA05464449404601F017
:104BB0009BFA06464249404601F096FA07464149AB
:104BC000404601F091FA214601F0BCFB394601F064
:104BD0004BFC314601F048FC294601F045FC0446F7
:104BE0002546009C002C45DB294614F0010F0846A1
:104BF0001ED001F079FA0546334901F075FA3349C0
:104C000001F06CF8294601F06FFA314901F066F8BD
:104C1000294601F069FA4FF07E5101F05FF814F077
:104C2000020F08BFBDE8F88380F00040BDE8F883BC
:104C300001F05AFA0646274901F056FA264901F0D2
:104C400081FB314601F050FA244901F047F8314622
:104C500001F04AFA294601F047FA294601F03EF8E8
:104C600014F0020FE0D1BDE8F883FFE71046FDF72E
:104C700027F9B4E76800B0F17F4F09D22846FDF765
:104C800089F8042808BFFDF716F92846BDE8F8831F
:104C900006D10120FBF762FBBDE8F843FDF707B939
:104CA0002846BDE8F843FDF7FDB80000B61F927E28
:104CB000490E494683F9223F1A61342C0020A23361
:104CC00000A0FD390000C93FB93AB2BACA9F2A3DD7
:104CD000DDFFFFBE336D4C39DA82083CA0AA2ABE44
:104CE0002DE9F04106460F4600F0FCFD041E0D467E
:104CF00018BF0120284320F00040C0F17F6000F180
:104D0000E040C00F0ED0301C18BF0120384320F007
:104D10000040C0F17F6000F1E040C00F04BF0120FF
:104D2000FBF71CFB20462946BDE8F08170B505461F
:104D300001F012FB044620F00040C0F1FF40C00F1C
:104D400008D025F00040C0F1FF40C00F04BF012093
:104D5000FBF704FB204670BD70B504460D461646B1
:104D60001748C0690121A14008431549C86105EBF6
:104D700085004000401E134951F82410888541F6F3
:104D80001F40104951F8241008850E4850F824009F
:104D9000008840F001000B4951F8241008800948B0
:104DA00050F82400808940F00100064951F8241091
:104DB000888104F11C00C1B23046FCF7B9FC70BD1B
:104DC000001002400401002010B500200B490870BB
:104DD0000B4908700B4908700B4908704FF4FA70C2
:104DE000FDF7E8FD32210846FEF7E6FE0749088890
:104DF00001F032F90446FEF711FF10BDCC0000208F
:104E0000EC000020ED0000203D000020CE0000203E
:104E100010B50548007800B110BDFDF751FBFDF756
:104E20007FFB00BFF8E70000ED0000202DE9F04F08
:104E300089B081468A46B9F1000F01D11F4C00E0CC
:104E40001F4C4FEA0A1094FBF0FB584600F0BAFBE7
:104E5000CDE90401504600F09EFB07460022194BA5
:104E600000F000FC05460E46204601F0DDF807463E
:104E700000F008FF2A463346CDE9000100F004FAAD
:104E8000CDE90201DDE9042300F012FECDE90601BF
:104E900000F00CF908904FF08341089801F024F9D4
:104EA0000890089801F0A0F800EB0B10064951F8A3
:104EB0002910088109B0BDE8F08F000000A24A0463
:104EC00000512502000030401001002070B504465A
:104ED0000E46154634B91448806940F480401249A2
:104EE000886108E01048C06904F1100101228A407D
:104EF00010430D49C861204600F01AF8314620469B
:104F0000FFF794FF094850F82400808942F22C01F1
:104F10000843064951F82410888104F12500C1B2E4
:104F20002846FCF705FC70BD00100240100100206F
:104F300010B5044624B1012C0DD0022C21D115E06E
:104F4000032209210020FDF76FFF04220A2100201F
:104F5000FDF76AFF15E0032202210020FDF764FF40
:104F6000042203210020FDF75FFF0AE003220A214B
:104F70000120FDF759FF04220B210120FDF754FF0A
:104F800000BF00BF10BD000070B50B4801680B48A2
:104F900001F0AAF80446084A9168506801F0A4F8A4
:104FA00005462946204600F00DFF0349C860084623
:104FB000C0680349C86070BD10000020DB0F494085
:104FC0002400002070B52848007890B12748006878
:104FD00001F02AF805462648C168284601F084F801
:104FE000044623480169204600F078FE2049086104
:104FF00011E01E48006801F017F805461C48C1681A
:10500000284601F071F8044619480169204601F06C
:1050100099F9174908611748007890B11648006857
:1050200001F002F805461548C168284601F05CF811
:10503000044612480169204600F050FE0F490861FD
:1050400011E00D48006800F0EFFF05460B48C1680D
:10505000284601F049F8044608480169204601F055
:1050600071F90649086170BD0000002004000020AD
:105070001000002001000020080000202400002073
:1050800010B500290AD00878002807D005487844D0
:10509000FBF7DAFC002801D0002010BD024878445C
:1050A00010BD00006E1D0000661D000021F00042D2
:1050B000A2F16052B2F5801F01F0004328BFD2F187
:1050C0007F6C0BD95FEA001C43EAC20242EB5070CE
:1050D00018BF704728BF20F001007047B2F5801F4D
:1050E000BCBF184670474FEA410C1CF5001F02D2A6
:1050F000084601F0C0B870B500F05EFB0000008902
:10510000FFF7F6BF4FF00040A0F5800070470000A9
:1051100010B591EA030F48BF83F0004300F1D0843B
:10512000841A71EB030C05D2121943EB0C03001B1C
:1051300061EB0C01DFF824E14FEA1154A4EB135C9E
:105140001EEA430F18BF9EEA445F73D023EA0E03A2
:10515000DCF1200E21EA045143F4801332D322FA09
:105160000CFE10EB0E0023FA0CFE41EB0E01CCF10D
:10517000200E03FA0EFE10EB0E0051F10001B1F506
:10518000801FCCF1200E32D201EB045112FA0EF244
:10519000BDE8104058BF7047401C38BF5FEA42026C
:1051A00018BF7047002814BF20F0010041F1000132
:1051B0004FEA410313F5001F38BF7047A1F1C0410A
:1051C00000F048BB012A43EB0302ACF1200CDCF1F8
:1051D0001F0E32BF4FF0000E23FA0CF310EB03004A
:1051E00041EB0451B4EB115FD0D0A1EB045101F5B8
:1051F000801149085FEA300001EB04510ED350F1F1
:10520000000038BF12FA0EFE08D1BDE81040C9E711
:10521000401C38BF5FEA4202CAD1C3E7BDE8104074
:105220004FEA410313F5001F38BF7047A1F1C04199
:1052300000F010BB9EEA445F08D011EA5E0FBDE8A3
:10524000104004BF01F0004100207047BDE810404D
:1052500070B500F0B1FA00BF64FBBE3E0000E0FF95
:1052600002494FF0000001F076B900BF0000F87F5E
:10527000491058BFC1F140415B1058BFC3F14043D2
:105280008B42EFF3008070472DE9C04130B4DFF866
:10529000A0C23CEA111418BF3CEA131400F0EC80E1
:1052A00081EA03051CEA111444EAD57418BF1CEA0C
:1052B000131500F0C780A4EB05044FF0004545EA44
:1052C000C12145EAC32341EA505143EA525304F154
:1052D0007F74994204F500344FEAC0204FEAC2229D
:1052E00008BF904200F09C804FEA13650FF2401611
:1052F000765D4FEA134506FB05F7C7F1807706FB9D
:1053000007F74FEAD737A7FB03687642C8F580381E
:10531000A7FB06CE38BFA8F1010807FB08E64FF04F
:10532000000EA6FB028CE6FB03CEDCF1000CCEF1F6
:10533000004E38BFAEF1010EA6FB0C584FF000072F
:105340004FF00005E6FB0E87A1FB08C6A0FB07CEC9
:1053500016EB0E0645F10005E1FB076515F1E04E81
:105360007EBFA4F580345FEA46066D4116F18007E2
:1053700045F100054FEA17274FEA066647EA056739
:10538000A6F1DE46B6F1805F4FEA15251FD93846F3
:1053900024F0010C05EBC471BCF1FE6F01EB0C11A4
:1053A00002D8F0BCBDE8008124425CBF01F5801E3C
:1053B0009EEAC47F02D4F0BCBDE80081244238D408
:1053C000F0BCA1F1C041BDE8004100F043BA4FEA92
:1053D000D22242EA43524FEAD323A7FB02864FEA86
:1053E000D02040EA415007FB03661EEA0E0F4FEA49
:1053F000D12105FB026658BFA6EB0056B6EB00565E
:105400004FEA520E4EEAC37E18EB0E0E56EB530EC9
:10541000BDD518EB02085E417F1C55F10005B6E7CB
:105420004FF480154FF000074FF000064FF00008D2
:10543000ADE7F0BC4FF0000001F1C04101F00041C8
:10544000BDE8008111EA0C1F0CEA131500D00CE036
:1054500013EA0C1F00F025804FF00000F0BC81EA39
:10546000030101F00041BDE80081F0BCBDE800414E
:1054700081EA030100F0EEB9F0BCBDE8004170B56F
:1054800000F09AF9097EFC3E00F007B881EA0301BA
:105490004FF0000001F00041704781EA030100F085
:1054A000D9B9F0BCBDE800414FF000002149704778
:1054B000FFFDFBF9F7F5F4F2F0EEEDEBE9E8E6E4D9
:1054C000E3E1E0DEDDDBDAD8D7D5D4D3D1D0CFCD60
:1054D000CCCBCAC8C7C6C5C4C2C1C0BFBEBDBCBB99
:1054E000BAB9B8B7B6B5B4B3B2B1B0AFAEADACAB94
:1054F000AAA9A8A8A7A6A5A4A3A3A2A1A09F9F9E6E
:105500009D9C9C9B9A99999897979695959493931F
:10551000929191908F8F8E8E8D8C8C8B8B8A8989B6
:105520008888878786858584848383828281818039
:105530000000FF070000F87F4FEA41034FEA535392
:10554000A3F58063D3F11E03C8BFD3F1210C0CDD9A
:105550004FF0004242EAC12242EA505232FA03FCC2
:105560008CEAE17CACEBE1707047102BC4BF0020EB
:10557000704703F5787CBCF1FF3F04D06FF0004228
:1055800082EA2100704770B500F016F94992248034
:1055900000207047F2E710F0004248BF4042B0FAE6
:1055A00080F310FA03F10AD0C3F11D0303F5806301
:1055B0004FEA415002EB035202EBD12170474FF00A
:1055C00000007047B0FA80F310FA03F10AD0C3F17B
:1055D0001D0303F580634FEA41504FEA035202EB8B
:1055E000D12170474FF000007047000051EA030CD2
:1055F00017D41CF5801F58BFBCF5801F00F1068032
:10560000994218BF704708BF9042704707D711F5FD
:10561000801F58BF13F5801F19D4994270478942E3
:1056200070471CF5801F08D5BCF5801FF7D58B424D
:1056300018BF704708BF824270474FF4001C1CEB34
:10564000410F38BF1CEB430F01D28B42704770B53E
:1056500000F0B2F8922449004FF000514FF080530F
:10566000FFF706BEDFF848C170B51CEA111E1EBF69
:105670001CEA13159EEA0C0F95EA0C0F00F06F80E0
:1056800081EA030423EA4C134EEAD47E21EA4C114A
:1056900041F4801143F48013AE44A1FB024CA0FB03
:1056A0000365AEF17F7E361955EB0C05A1FB034C6B
:1056B0004CF10003A0FB021C16EB0C06654153F1F4
:1056C0000003094218BF46F0010613F4007F0BD116
:1056D0004FEA03314FEA0530340341EA155140EAFD
:1056E00016506FF003020AE04FEAC3214FEAC520CB
:1056F000F40241EA555140EA56506FF0020202EBC3
:105700002E4201EB025585EACE710AD05FEA440CC5
:1057100018BF24F0004450F1000041F1000120EADC
:10572000D47040F2FE7C624500D270BDA84214BF26
:105730004FF080444FF04044002E08BF0024BEF1DB
:10574000806FA8BFA1F1C041BDE8704080F28280A7
:105750004FF0000001F1C04101F0004170479EEAA6
:105760000C0F0CEA131518BF95EA0C0F06D04FF07A
:10577000000081EA030E0EF0004170BD00F01CF83D
:105780008900013E00F007B800F009B84FEA430C69
:105790005FEA5C5C08D081EA030100F05BB84FEA85
:1057A000410C5FEA5C5CF6D14FF0000001497047A4
:1057B0000000FF070000F87F0EF1020E2EF0030E2E
:1057C0005EF8046B364205D4012A43EB030515F558
:1057D000001F12D8012841EB010C1CF5001F0CD84A
:1057E0000ED14FEAD17C15F5001F0CEB4C0C0CF1DF
:1057F000020C08BF4CEBD37C04E04FF0080C01E036
:105800004FEAD37C0CEB4C0526FA05F606F00706AA
:10581000B6F1040C06D20EEB860CBDE870404CF0DD
:10582000010C6047DFE80CF0090B02024FF0004169
:105830004FF00000A1F5002170BD19461046012867
:1058400051EB010418BFD4F5001484BF002001F00F
:10585000004170BD0808A0F500114FEA3101704702
:1058600053EA010C17D41CF5801F58BFBCF5801FEC
:1058700000F106808B4218BF704708BF8242704714
:1058800007D713F5801F58BF11F5801F19D48B421D
:1058900070479B4270471CF5801F08D5BCF5801FE0
:1058A000F7D5994218BF704708BF904270474FF430
:1058B000001C1CEB430F38BF1CEB410F01D2994277
:1058C00070470FB40CBC03BCFFF7C1BE91EA030FD5
:1058D00010B581F000413FF523AC83F0004300F0A8
:1058E000EFB800002DE9F04101F5801CBCF5001F68
:1058F000C0F2C3804FEA115C21EA0C510CF1FD0C9F
:1059000041F480115FEA5C0C0CF5C07C01D34000CF
:1059100049413DA4890241EA905187028E0E0A0C4A
:10592000A45D04FB04F602FB06F6C6F14046A4FBA8
:105930000662F60D46EA422606FB06F4A4FB0123A6
:105940005242C3F1404338BF5B1EA6FB0242002413
:10595000E6FB0324D20B42EA4446A6FB0623A1FB46
:1059600002E2A3FB07E4A4184FF0000252F1000288
:10597000E3FB01426442C2F1404E38BFAEF1010E7A
:10598000A6FB04234FF00002E6FB0E32A2FB034607
:105990004FF00004B61954F10004E2FB0264A1FBCD
:1059A00006E6A4FB07E816EB08064FF0000858F1DE
:1059B0000008E4FB01687642C8F1405838BFA8F1FE
:1059C0000108A2FB06E4A3FB08E52D194FF0000433
:1059D00054F10004E2FB0854A1FB05E6A7FB04E830
:1059E00018EB06084FF0000656F10006E1FB0486AE
:1059F00018F1200556F10006A809A8F11B08B10905
:105A000008F03F08B8F10A0F40EA86601CD901EBA4
:105A10000C51BDE8F08100BFFCF5EEE8E2DDD8D323
:105A2000CFCBC7C3C0BDB9B6B4B1AEACA9A7A5A30F
:105A3000A19F9D9B9A9896959392908F8D8C8B8920
:105A40008887868584838281A0FB006800FB01F241
:105A500008EB4208B8EB872807D5341858EB010447
:105A6000D5D5401C51F10001D1E7341A78EB01047F
:105A7000CDD4401E71F10001C9E75FEA4C0C5FEA2A
:105A80009C5C0DD105D34FF0000001F00041BDE852
:105A9000F081BDE8F04170B5FFF78EFE6DDBFFBE13
:105AA000BDE8F0414FF00000004970470000F87F6A
:105AB00010B591EA030F48BF83F000433FF530ABC8
:105AC000841A71EB030C07D212198CF0004C43EBD3
:105AD0000C03001B61EB0C01DFF8A4E14FEA115449
