:020000040800F2
:1000000018080020890100089101000893010008E8
:100010009501000897010008990100080000000000
:100020000000000000000000000000009B0100082C
:100030009D010008000000009F010008A1010008C8
:10004000A3010008A3010008A3010008A301000800
:10005000A3010008A3010008550200086D02000872
:1000600085020008C1020008D9020008A3010008A7
:10007000A3010008A3010008A3010008A3010008D0
:10008000A3010008A3010008A3010008A3010008C0
:10009000A3010008A3010008A3010008150300083C
:1000A000A3010008A3010008A3010008A3010008A0
:1000B000B50C0008D50C0008F90C0008A3010008D5
:1000C000A3010008A3010008A3010008A301000880
:1000D000A3010008150D0008310D00084D0D0008A2
:1000E000A3010008A3010008A301000800F002F822
:1000F00000F03AF80AA090E8000C82448344AAF188
:100100000107DA4501D100F02FF8AFF2090EBAE885
:100110000F0013F0010F18BFFB1A43F0010318473B
:1001200098570000B8570000103A24BF78C878C12B
:10013000FAD8520724BF30C830C144BF04680C60ED
:10014000704700000023002400250026103A28BF35
:1001500078C1FBD8520728BF30C148BF0B60704739
:100160001FB51FBD10B510BD00F046F81146FFF7D2
:10017000F7FF02F025FB00F064F803B4FFF7F2FF8D
:1001800003BC00F04FFF00000948804709480047C2
:10019000FEE7FEE7FEE7FEE7FEE7FEE7FEE7FEE737
:1001A000FEE7FEE704480549054A064B7047000094
:1001B000550C0008ED000008180200201808002067
:1001C00018040020180400207047704770477047DB
:1001D000704710B500F008F8006810BD10B504466F
:1001E00000F002F8046010BD00487047B401002020
:1001F00000487047B40100207546FFF7F9FFAE468E
:1002000005006946534620F00700854618B020B522
:10021000FFF7C8FFBDE820404FF000064FF0000791
:100220004FF000084FF0000B21F00701AC46ACE89E
:10023000C009ACE8C009ACE8C009ACE8C0098D460B
:10024000704710B50446AFF300802046BDE810406B
:10025000FFF793BF0448006800F0010010B10120CF
:100260000149086070470000140401400448006818
:1002700000F0020010B10220014908607047000040
:100280001404014010B50C48006800F0040090B15F
:100290000321002001F07EFC28B108480068401EC0
:1002A0000649086004E005480068401C03490860EE
:1002B00004200149086010BD14040140040000201E
:1002C0000448006800F0080010B1082001490860E7
:1002D000704700001404014010B50C48006800F09D
:1002E000100090B10521002001F054FC28B108480D
:1002F0000068401C0649086004E005480068401E8C
:100300000349086010200149086010BD1404014031
:100310000800002010B58CB04348006800F02000B1
:1003200010B12020404908603F48006800F04000BC
:1003300010B140203C4908603B48006800F0800054
:1003400000285DD000F030F93848B0F9000004F022
:1003500025FC04464FF08D4104F0EEFA0990344834
:10036000B0F9000004F01AFC04464FF08D4104F08F
:10037000E3FA0A902F48B0F9000004F00FFC04469D
:100380004FF08D4104F0D8FA0B902B48B0F90000E3
:1003900004F004FC0446294904F0CEFA06902848EB
:1003A000B0F9000004F0FAFB0446244904F0C4FA52
:1003B00007902448B0F9000004F0F0FB04461F4900
:1003C00004F0BAFA089020480290DDE90701CDE96F
:1003D0000001069B09A807C801F0E6FD06A90EC9A1
:1003E00003A801F0DBFC1949039808601849049838
:1003F000086018490598086080200B49086000BF14
:100400000948006800F4807018B14FF48070064904
:1004100008600548006800F4007018B14FF40070DF
:10042000014908600CB010BD14040140C400002054
:10043000C6000020C8000020CA00002033338341DA
:10044000CC000020CE0000200AD7A33BE80000200B
:10045000EC000020F000002010B502220A2101204B
:1004600001F0AAFB02220B21012001F0A5FB0122D1
:100470000B21104601F072FC01220A21104601F006
:100480006DFC10BD10B501220B21104601F066FC79
:1004900001220A21104601F061FC00220A210120FC
:1004A00001F05CFC10BD70B5002501220B21104647
:1004B00001F054FC002412E001220A21104601F050
:1004C0004DFC0B21012001F065FB10B18020204183
:1004D000054300220A21012001F040FC641C082C85
:1004E000EADB284670BD70B50546002419E080207F
:1004F0002041284028B101220B21104601F02EFC9A
:1005000004E000220B21012001F028FC01220A2135
:10051000104601F023FC00220A21012001F01EFCFC
:10052000641C082CE3DB70BD10B501220B211046C2
:1005300001F014FC01220A21104601F00FFC0022F8
:100540000B21012001F00AFC00220A21012001F008
:1005500005FC10BD10B500220B21012001F0FEFBAF
:1005600001220A21104601F0F9FB01220B2110465D
:1005700001F0F4FB10BD10B5002401220B21104640
:1005800001F0ECFB01220A21104601F0E7FB0B21F0
:10059000012001F0FFFA044600220A21012001F0A7
:1005A000DDFB204610BD000070B53B2000F072F866
:1005B00004463C2000F06EF8054645EA042000B2EF
:1005C000214908803D2000F065F804463E2000F0F7
:1005D00061F8054645EA042000B21C4908803F2026
:1005E00000F058F80446402000F054F8054645EA6B
:1005F000042000B216490880432000F04BF804465E
:10060000442000F047F8054645EA042000B21149AD
:100610000880452000F03EF80446462000F03AF8F5
:10062000054645EA042000B20B490880472000F047
:1006300031F80446482000F02DF8054645EA04202C
:1006400000B20649088070BDC4000020C60000202A
:10065000C8000020CA000020CC000020CE000020EE
:1006600010B502216B2000F035F82721192000F089
:1006700031F800211A2000F02DF818211B2000F07D
:1006800029F800211C2000F025F80121382000F075
:1006900021F810BD70B50446FFF746FFD020FFF7E4
:1006A00022FFFFF768FF2046FFF71DFFFFF763FFFC
:1006B000FFF750FFFFF738FFD120FFF714FFFFF7D8
:1006C0005AFFFFF7F0FE0546FFF7DCFEFFF742FF9B
:1006D000284670BD70B505460C46FFF725FFD020B3
:1006E000FFF701FFFFF747FF2846FFF7FCFEFFF784
:1006F00042FF2046FFF7F7FEFFF73DFFFFF72AFF17
:1007000070BD0000014607238B431A02054B186891
:100710004FF6FF0318401043034B1843014B18607A
:10072000704700000CED00E00000FA0570B50546CA
:100730000C460420FFF7E6FF0E48005D00F00106BE
:1007400046EA0510C1B20B4801552046E21704EBFA
:10075000D2625211A4EB421301229A402146E317C0
:1007600004EBD3635B119B0003F1E023C3F800218A
:1007700070BD000000E400E070B500240EE0002130
:10078000204600F0D1F8002504E0002000F0DDF95B
:10079000681CC5B2802DF8DB601CC4B2082CEEDBEF
:1007A00070BD10B502220821012001F005FA0222D5
:1007B0000921012001F000FA01220821104601F070
:1007C000CDFA01220921104601F0C8FA10BD70B51A
:1007D0000546002413E08020204100EA050209219B
:1007E000012001F0BBFA01220821104601F0B6FAFF
:1007F00000220821012001F0B1FA601CC4B2082CCB
:10080000E9DB01220821104601F0A8FA00220821A4
:10081000012001F0A3FA70BD10B501220921104694
:1008200001F09CFA01220821104601F097FA0022FB
:100830000921012001F092FA00220821012001F093
:100840008DFA10BD10B500220921012001F086FAB1
:1008500001220821104601F081FA012209211046E7
:1008600001F07CFA10BD70B5002406E0002500E020
:100870006D1CB5F57A7FFBD3641CB4F57A7FF5D394
:10088000FFF78FFFAE2000F050F9D52000F04DF9B2
:10089000802000F04AF9A82000F047F93F2000F03E
:1008A00044F9D32000F041F9002000F03EF9402047
:1008B00000F03BF9A12000F038F9C82000F035F92C
:1008C000DA2000F032F9122000F02FF9812000F038
:1008D0002CF9CF2000F029F9D92000F026F9F120D9
:1008E00000F023F9DB2000F020F9302000F01DF9A2
:1008F000A42000F01AF9A62000F017F98D2000F0CE
:1009000014F9142000F011F9AF2000F00EF9FFF7F0
:1009100033FF70BD10B50246012000E050430B1EAE
:10092000A1F10101FAD110BD70B505460C4645F0A4
:10093000B00000F0FAF8102141EA141000F0F5F8C8
:1009400004F00F0000F0F1F870BD00002DE9F04157
:1009500005460E461746721ED206110E6A1E520634
:10096000100EFFF7E1FF002409E0A7F12001134A70
:1009700002EB0111085D00F0E8F8601CC4B2082C1D
:10098000F3DB721ED206110E6A1E012303EB420234
:10099000D0B2FFF7C9FF00240BE0A7F12001074AFE
:1009A00002EB011204F10801505C00F0CEF8601C6B
:1009B000C4B2082CF1DBBDE8F0810000145200083D
:1009C0002DE9FF4F87B00C4691469A46DDF850B0AE
:1009D000484604F0A7F80590584603F0ADFB0746DB
:1009E0003A460B4600201A4902F0B0F805460E467A
:1009F000059804F0D3F88046494604F05DFA0746AE
:100A000003F0FAFE2A463346CDE9000103F0E4FB89
:100A1000CDE9020103F04AFB049053462146059AB2
:100A2000079800F03BF804EB0A00401CC1B209A291
:100A3000079800F066F804EB0A00801CC1B25B4620
:100A4000049A079800F008F80BB0BDE8F08F00009A
:100A5000000024402E0000002DE9F04780460E469D
:100A600017461D46002415E0281B411E0A20FFF7EB
:100A700051FFB7FBF0F00A21B0FBF1F201FB1200CD
:100A800000F130093019C1B24A464046FFF75EFF17
:100A9000601CC4B2AC42E7DBBDE8F0872DE9F0474B
:100AA0008146884615461E46002D06DB2B22414610
:100AB0004846FFF74BFF2F4605E02D2241464846AA
:100AC000FFF744FF6F42002417E0301B411E0A204D
:100AD000FFF720FFB7FBF0F00A21B0FBF1F201FBBA
:100AE000120000F1300A08EB0400401CC1B252466B
:100AF0004846FFF72BFF601CC4B2B442E5DBBDE8FB
:100B0000F0872DE9F04107460E461546002407E020
:100B10002A5D3019C1B23846FFF718FF601CC4B215
:100B2000285D0028F4D1BDE8F08110B50446FFF738
:100B300073FE7820FFF74BFE0020FFF748FE2046AB
:100B4000FFF745FEFFF77EFE10BD10B50446FFF728
:100B500063FE7820FFF73BFE4020FFF738FE20467B
:100B6000FFF735FEFFF76EFE10BD10B500F002F87E
:100B700010BD00000CB500200190009033480068C3
:100B800040F480303149086000BF3048006800F40C
:100B9000003000900198401C0190009818B901980D
:100BA000B0F5A06FF1D12948006800F4003010B111
:100BB0000120009001E0002000900098012843D11E
:100BC0002348006840F0100021490860084600688A
:100BD00020F0030008600846006840F0020008604A
:100BE0001A48406819494860084640684860084605
:100BF000406840F4806048600846406820F47C10FB
:100C000048600846406840F4E810486008460068BC
:100C100040F08070086000BF0C48006800F0007071
:100C20000028F9D00948406820F0030007494860CF
:100C30000846406840F00200486000BF0348406832
:100C400000F00C000828F9D10CBD00000010024093
:100C50000020024010B51348006840F0010011491F
:100C6000086008464068104908400E494860084638
:100C700000680E4908400B4908600846006820F4E7
:100C8000802008600846406820F4FE0048604FF469
:100C90001F008860FFF769FF4FF00060044908609B
:100CA00010BD0000001002400000FFF8FFFFF6FE3C
:100CB00008ED00E04FF08040008A00F0010038B1FC
:100CC0004FF08040008A20F001004FF08041088200
:100CD0007047000010B50748008800F0010038B1E7
:100CE00001F0AEFE0348008820F0010001490880B1
:100CF00010BD0000100400400548008800F001000D
:100D000028B10348008820F001000149088070479D
:100D1000100800400548008800F0200028B1034872
:100D2000008820F020000149088070470038014009
:100D30000548008800F0200028B10348008820F012
:100D400020000149088070470044004005480088A1
:100D500000F0200028B10348008820F0200001495D
:100D60000880704700480040490050EAC12018BF81
:100D700004204A0D18BF40F0010040F2FF72B2EBB0
:100D8000515F08BF40F00200012808BF05207047EE
:100D90004100080218BF04200A0E18BF40F00100ED
:100DA0004FF07F4232EA010108BF40F00200012803
:100DB00008BF052070472DE9F0414F1E00EBC70129
:100DC0000446D1E9000115461E4637F006020DD053
:100DD0002A46334603F000FA7F1E04EBC703D3E92B
:100DE000002302F04FFF37F00602F1D1022F25D089
:100DF000042F13D0062F18BFBDE8F0812A463346D2
:100E000003F0EAF9D4E90A2302F03CFF2A4633460C
:100E100003F0E2F9D4E9082302F034FF2A4633460E
:100E200003F0DAF9D4E9062302F02CFF2A46334610
:100E300003F0D2F9D4E9042302F024FF2A46334612
:100E400003F0CAF9D4E9022302F01CFF2A46334614
:100E500003F0C2F9D4E90023BDE8F04102F012BF6B
:100E6000002213461046014902F0C8BF0000F03FBF
:100E700002F008BF002213461046114602F0BEBF22
:100E800040F2013200204FF0E04104F04EB9000082
:100E9000024A0020110704F048B9000001FDFFFFDD
:100EA000012104F070B903F0D3BC0021084603F01F
:100EB00043BD6FF05E01080704F065B92DE9F04D00
:100EC0000D4614464FF07F41B1EB440F9EBF4FF0EB
:100ED000FF312960BDE8F08D4FF0004040EA042169
:100EE000C4F3C750783810F01F024A4B4FEA601C19
:100EF000C2F120067B44C4F3C750A0F178004FEA4A
:100F0000601003EB800053F82C3008BFD0E901C615
:100F100012D0D0F804C093402CFA06F73B43876800
:100F20000CFA02FC27FA06F8C06807FA02F2F04051
:100F30004CEA080C42EA0006A3FB0132ACFB01C0FC
:100F4000A6FB016101EB0C068E4234BF4FF0010C91
:100F50004FF0000CC1186144BCF1000F02D0814277
:100F600002D903E0814201D2012000E000201044B8
:100F700000F120024FEA92188006CA0C40EA423083
:100F80004F03C5F8008003F009FE8246384603F09F
:100F90001DFE6FF0120104F0F6F80746304603F02C
:100FA00015FE6FF0250104F0EEF8834639465046F1
:100FB00003F04EFC594603F04BFC00F500666FF35E
:100FC0000B065146304604F009F8394604F006F89D
:100FD000594603F071FF104903F040FE07460F49E0
:100FE000304603F03BFE394603F032FC07460C491D
:100FF000304603F033FE394603F02AFC14F0004F6C
:1010000008BFBDE8F08DC8F1805180F00040296034
:10101000BDE8F08DA0490000DB0FC92F22AAFD29F1
:101020000000C92F00BF70472DE9F04104464FF082
:101030000E4000EB4400B0F1506F204655D84FF001
:10104000FC41B1EB440F1CD224F000404FF07E5124
:1010500003F032FF4FF0FF3104F095F8054602F03F
:10106000E3FC14F0004F1DBF2F4F304E80F00040C6
:101070002F4F08BF2F4E4FF0404103F0EFFD0446C5
:1010800005E000273E46014603F0E8FD05462A49F3
:10109000284603F0E3FD294903F0DAFB294603F073
:1010A000DDFD274903F0D4FB294603F0D7FD254990
:1010B00003F0CEFB294603F0D1FD234903F0C8FB22
:1010C00080462946204603F0C9FD414603F0C6FD8F
:1010D00005463146204603F0BBFB294603F0B8FB2A
:1010E0003946BDE8F04103F0B3BB4FF0E441B1EB4A
:1010F000440F08D9FFF74CFE042808BFFFF7D9FEBC
:101100002046BDE8F0814FF07F41B1EB440F03D2A0
:10111000BDE8F041FFF7C4BE0120FFF75FF8BDE86E
:10112000F041FFF7C2BE00000000C9BF22AAFDB90E
:101130000000C93F22AAFD3924FE1C3DC78AD83CC5
:101140001E67383D1B93993DAFAA2A3E2DE9F04713
:101150004FF0684202EB40030C460546B3F1654F81
:101160003CBF02EB4102B2F1654F80F0CD8000BF81
:10117000C0F3C752C1F3C753D21A1B2A06DD10F0C1
:10118000004F14BF87488848BDE8F08712F11A0F56
:101190002FDA11F0004F06D010F0004F0CBF83483B
:1011A0008348BDE8F0872146284603F0C5FB064684
:1011B000FFF7EEFD042808BFFFF77BFE2846FFF788
:1011C000E7FD05462046FFF7E3FD04463046FFF7FE
:1011D000DFFD042D18BF052D08D1042C18BF052CE8
:1011E00004D1002804BF0220FEF7F8FF3046BDE816
:1011F000F0874200B2EB410F25D910F0004F19BF24
:101200006C4F6D4E6D4F6E4E224685F00044154674
:101210000A4680F0004110460A1A5200B2F1807F5F
:101220003ED248406749DFF8A0A110F0004F18D027
:101230004FF03F48384603F0D1FE0746514630464E
:1012400003F0CCFE17E011F0004F04BF0026374634
:10125000E2D010F0004F19BF5C4F5D4E5D4F5E4E07
:10126000DAE74FF07C58384603F0F2FA0746514669
:10127000304603F0EDFA06464146284603F0EEFC00
:10128000214603F0E5FA82462146404603F0E6FC9B
:10129000294603F011FE514603F04EFB044604E0DC
:1012A0002146284603F048FB0446014603F0D6FCDD
:1012B00080464A4903F0D2FC494903F0C9FA414645
:1012C00003F0CCFC474903F0C3FA414603F0C6FCE7
:1012D000454903F0BDFA414603F0C0FC434903F021
:1012E000B7FA05464146204603F0B8FC294603F00C
:1012F000B5FC314603F0ACFA214603F0A9FA3946B1
:10130000BDE8F04703F0A4BA4FF07F42B2EB400FC4
:1013100028BFB2EB410F03D2BDE8F047FFF7C3BDD2
:1013200040EA01035B0008BF44F0FF410AD0B2EB82
:10133000400F08BFB2EB410F06D125F0804024F0EA
:10134000804105460C4613E7B2EB400F12BF5FEA3F
:10135000410345F0FF4004F000413FF409AFB2EB18
:10136000410F12BF5FEA400205F0004044F0FF4128
:101370003FF4FEAE4A0092EA40033FF5F9AE002A80
:10138000ACBF4FF09F464FF03E56314603F066FC2F
:1013900005463146204603F061FC044628462146B6
:1013A000E6E60000DB0FC9BFDB0FC93FDB0F49409A
:1013B000DB0F49C00000C9BF22AAFDB90000C93F28
:1013C00022AAFD390060ED3EC30ACE37000049C0B5
:1013D00022AA7DBA0000494022AA7D3A2DAD65BD02
:1013E0008FB8D53D0FB511BE61C84C3EA8AAAABEA4
:1013F0002DE9F041044600BF24F0004005461048A6
:101400008168284603F0F6FB16D20D4A1168506831
:1014100003F0E4FD07460A488168284603F08CFA89
:101420008046394603F01AFC0646054841683046B6
:1014300003F042FDBDE8F08101480068FAE70000D2
:101440005C0000202DE9FF5F66480168006803F03A
:1014500005FC814664480168006803F0FFFB824692
:1014600062480168006803F0F9FB03905D48016879
:101470005F48006803F0F2FB04465B4801685C4883
:10148000006803F0EBFB05465848016858480068BF
:1014900003F0E4FB0646544801685248006803F034
:1014A000DDFB0290514801684E48006803F0D6FB0E
:1014B00001904E4801684C48006803F0CFFB009053
:1014C0004FF08040039903F0C9FB804651464FF02E
:1014D000804003F0C3FB83464FF07E5103F0ECFCE9
:1014E0000746414603F07AFD4249086086F000480D
:1014F0004046029903F0ACF907464FF0804103F0F3
:10150000ADFB3C49486085F000484046019903F036
:10151000D3FC07464FF0804103F0A0FB35498860BB
:1015200086F000484046029903F0C6FC07464FF09B
:10153000804103F093FB2F49C8604FF0804003992E
:1015400003F08CFB804649464FF0804003F086FB59
:1015500083464FF07E5103F0AFFC0746414603F04F
:101560003DFD2449086184F000484046009903F09D
:101570006FF907464FF0804103F070FB1D49486149
:1015800085F000484046019903F062F907464FF0A4
:10159000804103F063FB1749886184F000484046AE
:1015A000009903F089FC07464FF0804103F056FB99
:1015B0001049C86151464FF0804003F04FFB804610
:1015C00049464FF0804003F049FB83464FF07E517F
:1015D00003F072FC0746414603F000FD054908622E
:1015E000BDE8FF9F2C0000203000002034000020C8
:1015F00028000020900100202DE9F843044602460F
:101600004F486946B0EB420F09D94FF0E640B0EBC6
:10161000420F94BF00204FF0FF30009030E0494B64
:1016200022F00040834271D94749204603F016FB5F
:1016300003F012FC804603F075FA00F003000090FE
:101640004249404603F00AFB05464149404603F043
:1016500005FB06463F49404603F000FB07463E496E
:10166000404603F0FBFA214603F026FC394603F01E
:10167000B5FC314603F0B2FC294603F0AFFC04464A
:101680002546009C002C45DB294614F0010F084636
:101690001CD003F0E3FA0646304903F0DFFA304984
:1016A00003F00AFC314603F0D9FA2E4903F0D0F8D2
:1016B000314603F0D3FA294603F0D0FA294603F065
:1016C000C7F814F0020F1CD0BDE8F88303F0C6FA87
:1016D0000546254903F0C2FA244903F0B9F8294622
:1016E00003F0BCFA224903F0B3F8294603F0B6FA36
:1016F0004FF07E5103F0ACF814F0020F08BFBDE8C4
:10170000F88380F00040BDE8F883FFE71046FFF75C
:10171000D5FBB4E76800B0F17F4F3CBF4FF07E507F
:10172000BDE8F88307D14FF00100FEF757FDBDE893
:10173000F843FFF7BABB2846BDE8F843FFF7B0BB54
:10174000B61F927E490E494683F9223F1A61342C16
:101750000020A23300A0FD390000C93F336D4C3991
:10176000DA82083CA0AA2ABEB93AB2BACA9F2A3D78
:10177000DDFFFFBE00B5034603E04FF47A7000F0D2
:1017800005F8181EA3F10103F7D100BD00EBC0015D
:10179000C9004FF0E02251610021916105211161E2
:1017A00000BF4FF0E021096901F480310029F8D031
:1017B00004214FF0E0221161704700002DE9F04F45
:1017C0008DB004460E461546606A28B92660012091
:1017D00060620DB0BDE8F08F4D4B0FCB09AF0FC766
:1017E0000A952946606803F039FA0746216803F034
:1017F0002FF820602946284603F030FA82466169B6
:1018000003F02CFA80462846E16803F027FA02909C
:101810002846216903F022FA0190A16803F018F824
:101820008246029903F014F88146414603F010F80D
:101830000746A16903F00CF805902846616903F09A
:101840000DFA0746E16803F003F80690284661693F
:1018500003F004FA0746216902F0FAFF0790E169F4
:10186000606902F0F5FF0890216A059802F0F0FF28
:1018700007463946059803F05FF80390216A0598FA
:1018800002F0E6FF07463946079803F055F8049042
:101890003046216803F0A2FB83465946039803F0C3
:1018A000DDF90746216802F0D3FF2060594604980D
:1018B00003F0D4F90746616802F0CAFF60604FF098
:1018C0007E50039903F08AFB0746059903F0C6F999
:1018D000A0604FF07E50039903F080FB0746069905
:1018E00003F0BCF9E060DDE9040103F0B7F9074655
:1018F000079903F0E1FA20610699049803F0AEF924
:101900000746089903F0D8FA606100BF61E700005C
:101910000452000810B500220121062000F010F842
:1019200001220321002000F047F9002201210C20B0
:1019300000F006F801220521002000F03DF910BD5D
:101940002DE9F04704460E461746032194FBF1F0BB
:10195000C11700EB91718910A0EB810189064FEA54
:101960001168032194FBF1F0C11700EB9171C1F3F1
:101970008705204600F06AF83148806940F0010090
:101980002F4988614FEAB13050F825000F2101FA44
:1019900008F188432B4941F82500032094FBF0F11E
:1019A00000FB114088B1032094FBF0F100FB1140D3
:1019B000401E012101FA00F000FA08F0214951F817
:1019C000251001431F4840F82510032094FBF0F137
:1019D000012088401C49096808431B49086066B912
:1019E000032094FBF0F10120884017490831096871
:1019F00008431549083108600BE0032094FBF0F11F
:101A00000120884010490C31096808430E490C3107
:101A10000860032094FBF0F004280ADC032094FB08
:101A2000F0F0801D00F0FF0949463846FEF77EFEC3
:101A300003E017213846FEF779FEBDE8F087000085
:101A400000100240080001400004014010B50446A7
:101A5000182C12D2DFE804F00C12181E242A30369B
:101A60003C42484E545A60666C72787E848A9096E6
:101A700001220021084600F09FF889E001220021A0
:101A8000104600F099F883E001220021022000F0C6
:101A900093F87DE001221146002000F08DF877E0F8
:101AA00001221146104600F087F871E0012211462C
:101AB000022000F081F86BE001220221002000F0FA
:101AC0007BF865E001220221104600F075F85FE026
:101AD00001220221084600F06FF859E0012203219B
:101AE000002000F069F853E001220321104600F0C5
:101AF00063F84DE001220321022000F05DF847E089
:101B000001220421002000F057F841E001220421C5
:101B1000104600F051F83BE001220421022000F0C1
:101B20004BF835E001220521002000F045F82FE0B8
:101B300001220521104600F03FF829E0012205218D
:101B4000022000F039F823E001220621002000F0F5
:101B500033F81DE001220621104600F02DF817E0B1
:101B600001220621022000F027F811E001220721BE
:101B7000002000F021F80BE001220721104600F0C0
:101B80001BF805E001220721022000F015F800BF34
:101B900000BF10BD10B50246064850F8220080680C
:101BA00001248C4000EA04030BB1012010BD002089
:101BB000FCE700009C00002070B5654CA46904257A
:101BC00085402C43624DAC6108295DDA614C54F8C4
:101BD000204024688E000F25B540AC435D4D55F87C
:101BE00020502C601AB1032A01D0022A0FD10124FF
:101BF000944044F003048D00AC40564D55F82050FD
:101C00002D682C43534D55F820502C609FE0012A3D
:101C100001D0042A2AD14F4C54F8204024688E0069
:101C20000825B5402C434B4D55F820502C60012A17
:101C30000ED1484C54F82040E46801258D4024EA38
:101C4000050301248C401C43424D55F82050EC60A4
:101C5000042A7CD13F4C54F82040E56801248C4094
:101C6000A5433C4C54F82040E56070E004249440C7
:101C70008D00AC40374D55F820502D682C43354D24
:101C800055F820502C6062E0324C54F820406468D3
:101C9000A1F10805AE000F25B540AC432D4D55F818
:101CA00020506C601AB1032A01D0022A11D10124FC
:101CB000944044F00304A1F10805AD00AC40254D6B
:101CC00055F820506D682C43224D55F820506C601B
:101CD0003DE0012A01D0042A2AD11E4C54F82040AC
:101CE0006468A1F10805AE000825B5402C43194DE4
:101CF00055F820506C60012A0CD1174C256801243E
:101D00008C4025EA040301248C401C43114D55F8F6
:101D10002050EC60042A1AD10E4C54F82040E4689C
:101D200001258D40AC430B4D55F82050EC600EE082
:101D300004249440A1F10805AD00AC40054D55F8D0
:101D400020506D682C43034D55F820506C6070BDD9
:101D5000001002409C0000200C08014030B57AB110
:101D60000D4C54F82040E46801258D4024EA050319
:101D700001248C401C43084D55F82050EC600AE0CB
:101D8000054C54F82040E46801258D40AC43024DD9
:101D900055F82050EC6030BD9C0000202DE9FF4F2D
:101DA0008DB08146654A116AD069FFF7CFF9644961
:101DB000059002F053FF0A906048806980F000406F
:101DC0000490FFF731F95E49059002F047FF0B9050
:101DD0005A4A1168D068FFF7B9F95949059002F0DD
:101DE0003DFF824657490B9802F038FF0590FFF7F8
:101DF00003FC099053490B9802F030FF059001F065
:101E000029FD08904F490A9802F028FF0590FFF736
:101E1000F3FB07904B490A9802F020FF059001F070
:101E200019FD069008990E9802F018FF0490069983
:101E30000F9802F013FF0090099902F00FFF029033
:101E40000799109802F00AFF0090099902F006FF26
:101E50000190029902F0FCFC0390049903F0BEF893
:101E60003749059002F0FAFE07463749384602F036
:101E7000C1FF00D2344F3549384602F0BBFE00D2D4
:101E8000324F3846FFF7B4FA044621464FF07E50F1
:101E900003F0A4F83946039002F0E0FE05902C48C8
:101EA0000168204602F0DAFE0490059902F0D0FCA9
:101EB00027490860274A51462748FFF77FFC2648F4
:101EC000D0F800B02546264629464FF07E5003F054
:101ED00085F85946039002F0C1FE05901F4801683D
:101EE000284602F0BBFE0490059902F0B1FC804642
:101EF00031464FF07E5003F071F84146039002F0F6
:101F0000ADFE059016480168304602F0A7FE049029
:101F1000059902F09DFC0C901248C0F800A00F48F3
:101F2000C0F800800E490C9808600F4807600AA8A6
:101F300007C889E8070011B0BDE8F08F90010020C4
:101F4000E12E654235FA8E3C0000A0420000A0C29E
:101F5000980000200AD7A33B68000020540000200E
:101F60009400002090000020500000204FF07E5090
:101F700007490860002007490860074908600749C9
:101F80000860074988600748C860002008757047E6
:101F90002800002034000020300000202C00002009
:101FA00038000020CDCCCC3D0FB400B5A1B02598B1
:101FB000FE490E9002F052FE25902698FB490E90A5
:101FC00002F04CFE26902798F8490E9002F046FE4B
:101FD000279027980B9001460A9002F03FFE0D9043
:101FE000269809900146089002F038FE0B9025983B
:101FF00009900146089002F031FE0A900B9902F018
:1020000027FC0C900D9902F023FC0E9001F00CFDC2
:102010000F90229800210E9002F050FD0BD12398D2
:1020200000210E9002F04AFD05D1249800210E9067
:1020300002F044FD7ED024980B9001460A9002F0F5
:102040000DFE0D90239809900146089002F006FEBF
:102050000B90229809900146089002F0FFFD0A902B
:102060000B9902F0F5FB0C900D9902F0F1FB0E902C
:1020700000F080FB209022980E90209902F0EEFD57
:10208000229023980E90209902F0E8FD2390249846
:102090000E90209902F0E2FD2490C5490F9802F0BD
:1020A000A9FD7DD2C348C069099024980890099978
:1020B00002F0D4FD0B90BF48006A09902398089065
:1020C000099902F0CBFD0A900B9902F087FF0E9060
:1020D000B848006A099022980890099902F0BEFD5C
:1020E0000B90B4488069099024980890099902F0EF
:1020F000B5FD0A900B9902F071FF0D90AD48806913
:10210000099023980890099902F0A8FD0B90A9481E
:10211000C069099022980890099902F09FFD0A90E1
:102120000B9902F05BFF0C90A3480E99006802F037
:1021300095FD00E010E30A90289902F08FFD0B90C6
:102140009E4801680B9802F083FB9C4908609A48FE
:102150000D99006802F082FD0A90289902F07EFD38
:102160000B90974801680B9802F072FB9449086045
:1021700091480C99006802F071FD0A90289902F0CC
:102180006DFD0B908F4801680B9802F061FB8D4943
:1021900008608D480E99006802F060FD0A9000E02A
:1021A00033E0864801680A9802F052FB0B902598AC
:1021B00001460A900B9802F04BFB259082480D993E
:1021C000006802F04BFD0A907D4801680A9802F011
:1021D0003FFB0B90269801460A900B9802F038FBC3
:1021E000269079480C99006802F038FD0A907548ED
:1021F00001680A9802F02CFB0B90279801460A9080
:102200000B9802F025FB279061E2279801460B907E
:102210006E48006802F022FD0D9026980146099054
:102220006B48006802F01AFD0B906A48006880F065
:1022300000400990259801460890099802F00EFD8B
:102240000A900B9902F0CAFE0C900D9902F0C6FE9E
:102250004FF07C510E9002F001FD1B902698014634
:102260000B905A48006802F0F9FC0D90279801463F
:1022700009905748006802F0F1FC0B902598014640
:1022800009905548006802F0E9FC0A900B9902F0A9
:10229000DFFA0C900D9902F0A1FE4FF07C510E90E8
:1022A00002F0DCFC1A90259801460B904748006824
:1022B00002F0D4FC0D90279801460990454800682B
:1022C00002F0CCFC0B902698014609904248006829
:1022D00002F0C4FC0A900B9902F080FE0C900D995C
:1022E00002F0B6FA4FF07C510E9002F0B7FC199054
:1022F000259801460B903648006802F0AFFC0D901F
:102300002698014609903348006802F0A7FC0B901C
:102310002798014609903048006802F09FFC0A9017
:102320000B9902F095FA0C900D9902F057FE4FF0C0
:102330007C510E9002F092FC1890274801684FF0F3
:10234000804002F08BFC1790224801684FF08040DB
:1023500002F084FC16901E4801684FF0804002F0A5
:102360007DFC1590194801684FF0804002F076FC22
:10237000149019480168006802F070FC1390154829
:102380000168006802F06AFC129011480168006858
:1023900002F064FC11900D480168006802F05EFCD8
:1023A0001090239801460C90169817E035FA8E3C51
:1023B000CDCCCC3D90010020180000201C00002056
:1023C0002000002024000020140000203400002001
:1023D000300000202C0000202800002002F03EFCED
:1023E0000E901299179802F039FC0C902298014631
:1023F0000890159802F032FC0A901199179802F093
:102400002DFC09900A9902F023FA0B900C9902F026
:102410001FFA0D900E9902F0E1FD1F9024980146DD
:102420000C90169802F01AFC0E901199169802F072
:1024300015FC0C901299169802F010FC0A90239843
:1024400001460590179802F009FC07904FF0814073
:10245000139902F003FC0390C1480168039802F04D
:10246000FDFB0590229801460190149802F0F6FBBE
:1024700003901099169802F0F1FB0290039902F074
:10248000ADFD0490059902F0E3F90690079902F07A
:10249000A5FD0890169902F0A1FD09900A9902F095
:1024A000D7F90B900C9902F0D3F90D900E9902F028
:1024B000CFF91E90249801460C90159802F0CEFB9F
:1024C0000E901199159802F0C9FB0C90129915986D
:1024D00002F0C4FB0A90239801460590149802F07C
:1024E000BDFB07901099159802F0B8FB0590229853
:1024F00001460190179802F0B1FB03904FF0814024
:10250000139902F0ABFB019096480168019802F024
:10251000A5FB0290039902F09BF90490059902F043
:1025200097F90690079902F059FD0890159902F065
:1025300055FD09900A9902F08BF90B900C9902F065
:1025400087F90D900E9902F083F91D9023980146AA
:102550000C90159802F082FB0E904FF0814011997B
:1025600002F07CFB0A90804801680A9802F076FB32
:102570000C90229801460890169802F06FFB0A9082
:102580004FF08140129902F069FB0890764801688B
:10259000089802F063FB09900A9902F01FFD0B9066
:1025A0000C9902F055F90D900E9902F017FD1C9050
:1025B0001C99084602F052FB0D901D99084602F046
:1025C0004DFB0B901E99084602F048FB09901F999D
:1025D000084602F043FB0890099902F039F90A9085
:1025E0000B9902F035F90C900D9902F031F90E902B
:1025F00000F0C0F82090DDE91F0102F02FFB1F90D2
:1026000020991E9802F02AFB1E9020991D9802F036
:1026100025FB1D9020991C9802F020FB1C9053482C
:102620001F99006802F01AFB0E901B9902F044FCFF
:102630001B904E481E99006802F010FB0E901A99EC
:1026400002F03AFC1A9049481D99006802F006FB16
:102650000E90199902F030FC199044481C990068BA
:1026600002F0FCFA0E90189902F026FC18902899B6
:102670001B9802F0F3FA0E903D4801680E9802F0A4
:10268000E7F83B49086028991A9802F0E7FA0E909B
:10269000334801680E9802F0DBF831490860289948
:1026A000199802F0DBFA0E902E4801680E9802F09D
:1026B000CFF82C4908602899189802F0CFFA0E90AC
:1026C000294801680E9802F0C3F827490860264897
:1026D0000168006802F0C2FA0D90224801680068A3
:1026E00002F0BCFA0B901E480168006802F0B6FACE
:1026F00009901F480168006802F0B0FA0890099933
:1027000002F0A6F80A900B9902F0A2F80C900D992D
:1027100002F09EF80E9000F02DF8209014482099B9
:10272000006802F09BFA124908600D482099006881
:1027300002F094FA0A4908600A482099006802F0F9
:102740008DFA0849086008482099006802F086FA66
:1027500005490860FEF776FE21B05DF814FB000025
:102760002C00002030000020340000201000002049
:10277000280000202DE9F04704464FF07C51204608
:1027800002F06CFA814625462E460C48A0EB660600
:1027900035462946484602F061FA8246294602F04B
:1027A0005DFA80464FF07F5102F086FB07462946CE
:1027B00002F054FA05462846BDE8F087DF59375F36
:1027C00008B5FEF750F800F085F8FFF7A3F80022EF
:1027D0004FF4E131104601F0C5F91C481C4B1A4674
:1027E000012100901B4800F095F91848184B1A4633
:1027F00001210090184800F08DF94FF07C50002323
:102800004FF0804219460090144800F083F9FDF71C
:1028100023FEFDF725FFFFF7A9FB00221146162036
:10282000FFF78EF800220A21012001F013F90BE0D6
:102830000220032300900A48012102680846FEF79F
:10284000BFF81420FEF796FFF2E700000000A0405A
:1028500000002041F4000020280100205C0100203D
:10286000F000002010B50446A2B20021084600F096
:1028700067FF0948027806210020FFF76FFA064833
:10288000007808B9012000E000200246072100205E
:10289000FFF764FA10BD00000000002010B50446E8
:1028A000A2B20121002000F04BFF0948027800216C
:1028B0000120FFF753FA0648007808B9012000E02C
:1028C0000020024601210846FFF748FA10BD00002B
:1028D0000100002010B54FF47A720021084600F084
:1028E00021FE002206211046FFF766F9002207218B
:1028F0001046FFF761F94FF47A720121002000F0D1
:1029000011FE002211460120FFF756F90022012195
:102910000846FFF751F910BD70B505460C46002D6D
:1029200008DB012011490870284602F037F91049E8
:10293000086007E000200D490870684202F02EF997
:102940000B490860002C08DB01200A49087020466A
:1029500002F024F90849086007E0002005490870E2
:10296000604202F01BF90449086070BD00000020BD
:10297000F400002001000020280100202DE9F04192
:102980000446D4E9000102F029FBA060206B012875
:102990002DD1D4E9020102F021FB0546616902F064
:1029A0005DF92062A168A06902F058F9A0624FF0B9
:1029B0008040E16802F052F90746A16802F07CFA13
:1029C0000646216901F044FF0546E16902F046F937
:1029D0006062A16A206A01F03BFF0646616A01F06D
:1029E00037FF0546E16A01F033FFE06221E0206B2A
:1029F000F8B9A168606902F031F92062A168A069A4
:102A000002F02CF90546A16A01F022FFA062D4E988
:102A1000020102F0E3FA0546E16902F01FF9606283
:102A2000A16A206A01F014FF0546616A01F010FFF7
:102A3000E062E1682161A168E160BDE8F081000029
:102A400070B52C482C4908600846FFF797FF2A49C3
:102A5000C86A02F067F806462748C06A80F0004559
:102A6000284602F05FF804463146FFF755FF234839
:102A7000007830B12248006802F090F8214948609F
:102A800006E01F480068404202F088F81D4948608F
:102A90001D48007830B11D48006802F07FF81C49DD
:102AA000486006E019480068404202F077F818498B
:102AB0004860002012490860144908601148FFF777
:102AC0005DFF1348FFF75AFF0E4800F02BF810483F
:102AD00000F028F80B49C86A02F024F80446FFF712
:102AE000C1FE0B49C86A02F01DF80446FFF7D6FE86
:102AF00070BD00000000A0C15C01002000000020AB
:102B000004000020F4000020010000200800002044
:102B10002801002010B5029C016342618361C461F9
:102B200010BD000010B504460749E06A02F062F9E2
:102B300001D80548E0620021E06A02F05BF801D8A4
:102B40000020E06210BD0000005043472DE9F04D29
:102B50001D460C4698B0174621F0004123F0004373
:102B6000002814BF4FF0010C4FF0000C0CEB440C8C
:102B7000FE4A0CEB02064FEA620C66452BD33E0080
:102B800018BF012606EB45061644F94A964222D3A1
:102B9000F84A53EA070C02D0944205D148B918B05C
:102BA00000201146BDE8F08D002808BF4FF0000C52
:102BB00001D04FF0010C0CEB440212F5001F0AD8B3
:102BC000002F14BF4FF0010C4FF0000C0CEB45022E
:102BD00012F5001F07D918B03A462B462146BDE82A
:102BE000F04DFEF745B90022DFF88CA3002CB8BFEA
:102BF000534526DADFF884C36345A8BF022220DAF2
:102C0000DFF870C39C451CDCDFF874C30CEB235C5D
:102C1000BCF1140F08DDCCF1340627FA06FC0CFADF
:102C200006F6BE420DD108E05FB9CCF1140623FAD6
:102C300006FC0CFA06F69E4203D10CF00102C2F12A
:102C4000020251EA000C19D1002D17DA002C18BF2E
:102C5000022A01D0012A07D00220FDF7BFFA18B0DE
:102C6000BDE8F04DFEF7FCB80220FDF7B7FAFEF71D
:102C7000F7F818B081F00041BDE8F08DB7F1000C15
:102C80006CD1534525D104F1804212F5801201BF69
:102C900000280020B74918B008BFBDE8F08DB5483E
:102CA000884207DC002DA1BF6046294618B0BDE868
:102CB000F08D07E0281E05DA80F0004118B060466C
:102CC000BDE8F08DAF497944D1E9000118B0BDE805
:102CD000F08DDFF8A0C2634525D1002D1FDA19B1B0
:102CE000514512D1D8B909E0002840F0EC82A24A3F
:102CF000214618B062F31E01BDE8F08D0020214688
:102D000018B060F31E01BDE8F08D08DA18B0234654
:102D1000BDE8F04D02460020614601F06FB818B0E2
:102D20002146BDE8F08D514518DAB5F1804F0DD040
:102D3000A5F1005CBCF1FF5C10D1B4F1000C0DDB1F
:102D400018B06146BDE8F04D00F048BE234618B00B
:102D50000246BDE8F04D194601F03EBA060024F0E7
:102D6000004C3BD1D9B1514533D1002C06DD002DAB
:102D7000A1BF0020514618B0BDE8F08D002C01DD48
:102D8000002D1BDB002C13DA002D11DB012A4FF084
:102D9000000014BF78497C4918B0BDE8F08D022AC4
:102DA00018BF002C0AD0012A08D1002C06DA0AE04C
:102DB000002CB8BF002D11DA012A04D0002018B071
:102DC0000146BDE8F08D18B000204FF00041BDE88D
:102DD000F08DA1F14050B0F17F601AD0012000EBDE
:102DE000E47050EA020421D0624C521E4FF0000BF6
:102DF000104304BF4FF0000B644C654883427CDDF8
:102E0000644A654893421FDD884217DB002D25DBAD
:102E100037E0002C00DA4AB1022A0CBF01204FF043
:102E2000FF3018B0BDE8F04D01F06FB90120FDF79B
:102E3000D5F918B0BDE8F04DFEF71CB84D4A8A42EE
:102E400002DC002D0ADC1CE0814202DA002D18DAD7
:102E500004E0484B994220DD002D12DD0220FDF7F1
:102E6000BDF9FEF70DF805460E46002253465846BA
:102E7000214601F0B1F918B066F31E012846BDE8FD
:102E8000F08D0220FDF7AAF9FEF702F80A46214666
:102E900018B062F31E01BDE8F08D00223046614695
:102EA00001F0C0FB80460E466FF0010202F03DF9D2
:102EB0004FF05532394B01F0C3FA4246334601F028
:102EC0008BF90022364B01F0BBFA8246424633466C
:102ED00004911046194601F07FF95246049B01F017
:102EE0007BF98A4600904FF0C0422E4B4046314657
:102EF00001F072F92C4A2B4B00E027E0CDE90601E6
:102F00005146009801F068F982460191274A284B02
:102F10004046314601F060F95246019B01F082FBC8
:102F200082460B4602460591DDE9060100F0AAFE45
:102F3000DDE9062300268846304601F073FB524641
:102F4000059B01F07DFA024600F07EB90020B1F544
:102F5000801F07DA35223046614602F0E6F8064661
:102F60006FF0340000EB215024E00000FFFF1F0051
:102F7000FFFF0F000000F03F0000F07F0000404323
:102F800001FCFFFFC62B00000000F0FF0000F0BFB7
:102F90000000E0410000F043FFFFEF3F5555D53FF3
:102FA0000000E03F4715F73FFE822B6544DF5DF8E8
:102FB0000BAE543EA0F2FF300190C1F3130040F07D
:102FC0007F6141F040510291FE498842D8BF002004
:102FD00004DDFD498142C8BF012001DD0D9008E0FC
:102FE00000200D900198401C01900298A0F58010DF
:102FF00002900299F54878440B910D9900EBC100BD
:10300000D0E900230F9330460A920B9901F00AFB96
:10301000CDE90601DDE90A2130460F9B00F032FEC2
:1030200002460B460020EA4900F0E8FE0591024600
:103030000B460090DDE9060101F0CEF81490E5485A
:103040008A464FF0000878440299006812904FF0C9
:10305000005040EA61010D980F9B01EB804000F5A4
:10306000002109910A9A129801F0DCFA32460B9B72
:1030700001F0E6F94246534601F0AEF806460291E9
:1030800040465146099B129A01F0A6F8DDE9062355
:1030900001F0D6F93246029B01F0C4FA059B009A72
:1030A00001F09AF80091149A04905346104619467C
:1030B00001F092F806460246C7480B4602910621E7
:1030C0007844FDF778FECDE90510029B32461046A4
:1030D000194601F081F8DDE9053201F07DF805912E
:1030E0000646534640461946149A00F0CBFD009B15
:1030F000049A01F071F83246059B00F0C3FDCDE95A
:103100000510424653461046194601F065F8002264
:10311000B24B02910A9000F0B5FDDDE9053200F0F6
:10312000B1FD0E464246AD4B404601F07BFA029B94
:103130000A9A01F077FADDE9053201F081F9424699
:1031400002910A9033461046514601F045F8CDE908
:1031500006015346149A02990A9801F03DF88A46EE
:103160000290334642460099049801F035F85346E0
:10317000029A00F087FD82460B4602460591DDE982
:10318000060100F07FFDDDE90623002088460646A3
:1031900001F048FA5246059B01F052F98246099126
:1031A0004FF060428E4B3046414601F015F80490D6
:1031B00006918C4A8A4B5046099901F00DF88246D7
:1031C0000291894A894B3046414601F005F8524642
:1031D000029B00F057FD864B7B440D9A03EBC20324
:1031E000D3E9002300F04EFD0E900791019800F006
:1031F0008CFF0591DDE9061382460E9A049800F0D3
:1032000041FD7C4A7A440D9B02EBC303D3E90023C2
:103210000093029200F036FD5246059B00F032FD0D
:103220000026884652463046059B01F0FBF9009B7C
:10323000029A01F0F7F9069B049A01F0F3F9079B53
:103240000E9A01F0FDF8024600200B460290384627
:10325000294600F0C1FF824601912B4638461946A7
:10326000029A01F0DFF93246434600F0B5FF5246BC
:10327000019B00F007FD07468A4632464346294631
:10328000029800F0A9FF05460E463A46534600F064
:10329000F9FC594A8846914221DBA8EB020353EA24
:1032A000000210D12A46334601F0BCF9CDE90401F1
:1032B000524A534B3846514600F0E4FCDDE9042302
:1032C00001F088F821D20220FCF788FFFDF7D8FD35
:1032D0000A46214618B062F31E01BDE8F08D494B45
:1032E00028F000429A4210D3474A08EB020353EAFF
:1032F00000027FF4C6AD2A46334601F093F93A4600
:10330000534601F067F87FF6BCAD0022019228F029
:1033100000403E493E4A01EB2051824223DA481CDC
:103320004FF4801121FA00F040443A4AC0F30A51A8
:103330007A44394BA1F2FF31CB4020EA0303C0F3BA
:10334000130040F48010C1F11401C84012680190CC
:10335000B8F1000FBCBF404201902846314601F051
:1033600061F905460E462A4633463846514600F076
:1033700089FC4FF000084246284B4046059100F07A
:103380002BFFCDE90601264A264B4046059900F061
:1033900023FF009102902A4633464046059901F0EA
:1033A00041F93A46534601F04BF81F4A1F4B00F0D3
:1033B00013FF009B029A00F065FC07468846024610
:1033C0000B4635E08E9803007AB60B000E280000FD
:1033D0000000F03F4628000074270000000008406D
:1033E00009C7EE3FFD033ADCF5015B14E02F3EBE5A
:1033F0004C2600001026000000009040FE822B6545
:103400004715973C00CC904000346F3F01FCFFFF14
:103410000000E03F5C250000FFFF0F00432EE63F69
:10342000396CA80C615C20BEEF39FAFE422EE63FF3
:10343000DDE9060100F026FCDDE9062305460E461F
:1034400001F0F0F83A46434600F0FAFF0F462A46EC
:10345000334600901046194600F0BEFE82460246F2
:103460002E4888460B4605217844FDF7A4FC5246B9
:10347000434600F0B1FE2A46334600F0E1FF8046A5
:103480008A463B4628463146009A00F0A5FE3B4658
:10349000009A00F0F7FB0691009000224FF0804365
:1034A0004046514601F0BEF80F460C904246534646
:1034B0002846314600F090FE3B460C9A00F09EFCF8
:1034C000069B009A01F0AEF82A46334601F0AAF8AE
:1034D0000022134B00F0B4FF054601980E4601EBA5
:1034E00000510815002810DC28463146019A01F0E9
:1034F0001CFEFDF739FC042808BFFDF7C9FC28466F
:103500003146019A01F011FE05460B4618B02A46D5
:1035100058462146BDE8F04D00F05EBEFC23000099
:103520000000F03F2DE9F04104460D4616462846BE
:10353000E91705EB91718910A5EB8101491CCFB208
:103540005148C0690121A14008434F49C8614F4813
:1035500090FBF6F0401E4E4951F824108885472014
:103560004B4951F824100885284600F093F8012FA4
:1035700006D0022F1ED0032F36D0042F69D14DE084
:10358000434850F82400008B40F06000404951F857
:10359000241008833E4850F82400008B40F00800B7
:1035A0003B4951F8241008830020394951F8241070
:1035B00088864EE0364850F82400008B40F4C04026
:1035C000334951F824100883314850F82400008B07
:1035D00040F400602E4951F82410088300202C4943
:1035E00051F82410088734E0294850F82400808BD3
:1035F00040F06000264951F824108883244850F890
:103600002400808B40F00800214951F82410888361
:1036100000201F4951F8241088871AE01C4850F8F0
:103620002400808B40F4C040194951F8241088834D
:10363000174850F82400808B40F40060144951F87A
:10364000241088830020124951F82410A1F840006A
:1036500000BF00BF0E4850F82400008C791E8A007D
:103660000121914008430A4951F824100884084870
:1036700050F82400008840F08100054951F82410DA
:103680000880BDE8F08100000010024040420F00B9
:10369000A800002010B504460C2C4FD2DFE804F03F
:1036A000060C12181E242A30363C42480322002100
:1036B0000846FEF781FA41E0032201210020FEF7CF
:1036C0007BFA3BE0032202210020FEF775FA35E089
:1036D000032211460020FEF76FFA2FE00322062195
:1036E0000020FEF769FA29E0032207210020FEF7F7
:1036F00063FA23E0032200210120FEF75DFA1DE0BA
:10370000032201210846FEF757FA17E0032206219B
:103710000120FEF751FA11E0032207210120FEF7F4
:103720004BFA0BE0032208210120FEF745FA05E0E1
:10373000032209210120FEF73FFA00BF00BF10BDA0
:103740002DE9F84F04460D4617462846E91705EBC4
:1037500091718910A5EB8101491C01F0FF084CF221
:103760005030874200DB0746384850F82400868DE9
:10377000B8F1010F09D0B8F1020F1DD0B8F1030F55
:1037800031D0B8F1040F5DD144E0701C01F006FAAD
:103790008346384601F01AFA2D49009001F0CCF822
:1037A0008246594601F05AFA814601F0D7F9274975
:1037B00051F82410888645E0701C01F0EFF9009064
:1037C000384601F003FA8346214901F0B5F88246F4
:1037D000009901F043FA814601F0C0F91B4951F804
:1037E000241008872EE0701C01F0D8F900903846AC
:1037F00001F0ECF98346164901F09EF882460099E3
:1038000001F02CFA814601F0A9F9104951F8241071
:10381000888717E0701C01F0C1F90090384601F06C
:10382000D5F983460A4901F087F88246009901F0EC
:1038300015FA814601F092F9044951F82410A1F8D3
:10384000400000BF00BFBDE8F88F0000A8000020C6
:10385000005043472DE9F843044602465248694662
:10386000B0EB420F09D94FF0E640B0EB420F94BFE6
:1038700000204FF0FF30009030E04C4B22F0004031
:10388000834271D94A49204601F0E8F901F0E4FA8F
:10389000804601F047F900F003000090454940469A
:1038A00001F0DCF905464449404601F0D7F90646E7
:1038B0004249404601F0D2F907464149404601F0ED
:1038C000CDF9214601F0F8FA394601F087FB31467F
:1038D00001F084FB294601F081FB04462546009C4B
:1038E000002C45DB294614F0010F08461ED001F0DC
:1038F000B5F90546334901F0B1F9334900F0A8FFA5
:10390000294601F0ABF9314900F0A2FF294601F048
:10391000A5F94FF07E5100F09BFF14F0020F08BF95
:10392000BDE8F88380F00040BDE8F88301F096F927
:103930000646274901F092F9264901F0BDFA3146C1
:1039400001F08CF9244900F083FF314601F086F93B
:10395000294601F083F9294600F07AFF14F0020F9E
:10396000E0D1BDE8F883FFE71046FDF7A7FAB4E71A
:103970006800B0F17F4F09D22846FDF709FA042804
:1039800008BFFDF796FA2846BDE8F88306D1012066
:10399000FCF724FCBDE8F843FDF787BA2846BDE8EC
:1039A000F843FDF77DBA0000B61F927E490E4946E6
:1039B00083F9223F1A61342C0020A23300A0FD3984
:1039C0000000C93FB93AB2BACA9F2A3DDDFFFFBE27
:1039D000336D4C39DA82083CA0AA2ABE2DE9F041A9
:1039E00006460F4600F038FD041E0D4618BF0120A4
:1039F000284320F00040C0F17F6000F1E040C00F9C
:103A00000ED0301C18BF0120384320F00040C0F118
:103A10007F6000F1E040C00F04BF0120FCF7DEFB37
:103A200020462946BDE8F08170B5054601F04EFA02
:103A3000044620F00040C0F1FF40C00F08D025F040
:103A40000040C0F1FF40C00F04BF0120FCF7C6FBDF
:103A5000204670BD70B504460D4616461748C0692D
:103A60000121A14008431549C86105EB85004000CC
:103A7000401E134951F82410888541F61F40104913
:103A800051F8241008850E4850F82400008840F0B2
:103A900001000B4951F824100880094850F824000F
:103AA000808940F00100064951F82410888104F112
:103AB0001C00C1B23046FCF739FE70BD0010024058
:103AC000A80000202DE9F04F89B081468A46B9F15F
:103AD000000F01D11F4C00E01F4C4FEA0A1094FB6D
:103AE000F0FB584600F028FBCDE90401504600F0F9
:103AF0000CFB07460022194B00F06EFB05460E46F4
:103B0000204601F04BF8074600F076FE2A46334681
:103B1000CDE9000100F072F9CDE90201DDE90423ED
:103B200000F080FDCDE9060100F07AF808904FF032
:103B30008341089801F092F80890089801F00EF877
:103B400000EB0B10064951F82910088109B0BDE8B7
:103B5000F08F000000A24A0400512502000030400E
:103B6000B400002070B504460E46154634B914481A
:103B7000806940F480401249886108E01048C069BB
:103B800004F1100101228A4010430D49C86120460A
:103B900000F01AF831462046FFF794FF094850F824
:103BA0002400808942F22C010843064951F8241070
:103BB000888104F12500C1B22846FCF7B7FD70BD2D
:103BC00000100240B400002010B5044624B1012CBE
:103BD0000DD0022C21D115E0032209210020FDF790
:103BE000EBFF04220A210020FDF7E6FF15E0032287
:103BF00002210020FDF7E0FF042203210020FDF751
:103C0000DBFF0AE003220A210120FDF7D5FF042291
:103C10000B210120FDF7D0FF00BF00BF10BD000049
:103C200021F00042A2F16052B2F5801F01F0004382
:103C300028BFD2F17F6C0BD95FEA001C43EAC202B5
:103C400042EB507018BF704728BF20F0010070474A
:103C5000B2F5801FBCBF184670474FEA410C1CF5F7
:103C6000001F02D2084601F0C0B870B500F05EFB3C
:103C700000000089FFF7F6BF4FF00040A0F580007C
:103C80007047000010B591EA030F48BF83F000436E
:103C900000F1D084841A71EB030C05D2121943EBA6
:103CA0000C03001B61EB0C01DFF824E14FEA115417
:103CB000A4EB135C1EEA430F18BF9EEA445F73D067
:103CC00023EA0E03DCF1200E21EA045143F48013B1
:103CD00032D322FA0CFE10EB0E0023FA0CFE41EB5D
:103CE0000E01CCF1200E03FA0EFE10EB0E0051F186
:103CF0000001B1F5801FCCF1200E32D201EB04514E
:103D000012FA0EF2BDE8104058BF7047401C38BF91
:103D10005FEA420218BF7047002814BF20F001007C
:103D200041F100014FEA410313F5001F38BF70470E
:103D3000A1F1C04100F048BB012A43EB0302ACF102
:103D4000200CDCF11F0E32BF4FF0000E23FA0CF3F3
:103D500010EB030041EB0451B4EB115FD0D0A1EBA9
:103D6000045101F5801149085FEA300001EB04516C
:103D70000ED350F1000038BF12FA0EFE08D1BDE894
:103D80001040C9E7401C38BF5FEA4202CAD1C3E70E
:103D9000BDE810404FEA410313F5001F38BF7047DC
:103DA000A1F1C04100F010BB9EEA445F08D011EAC7
:103DB0005E0FBDE8104004BF01F0004100207047D5
:103DC000BDE8104070B500F0B1FA00BF64FBBE3E24
:103DD0000000E0FF02494FF0000001F074B900BF9D
:103DE0000000F87F491058BFC1F140415B1058BF37
:103DF000C3F140438B42EFF3008070472DE9C0418F
:103E000030B4DFF8A0C23CEA111418BF3CEA131426
:103E100000F0EC8081EA03051CEA111444EAD57431
:103E200018BF1CEA131500F0C780A4EB05044FF07F
:103E3000004545EAC12145EAC32341EA505143EA1E
:103E4000525304F17F74994204F500344FEAC020C4
:103E50004FEAC22208BF904200F09C804FEA1365EF
:103E60000FF24016765D4FEA134506FB05F7C7F1E2
:103E7000807706FB07F74FEAD737A7FB0368764240
:103E8000C8F58038A7FB06CE38BFA8F1010807FBAC
:103E900008E64FF0000EA6FB028CE6FB03CEDCF139
:103EA000000CCEF1004E38BFAEF1010EA6FB0C584F
:103EB0004FF000074FF00005E6FB0E87A1FB08C698
:103EC000A0FB07CE16EB0E0645F10005E1FB0765EA
:103ED00015F1E04E7EBFA4F580345FEA46066D41E1
:103EE00016F1800745F100054FEA17274FEA0666ED
:103EF00047EA0567A6F1DE46B6F1805F4FEA152571
:103F00001FD9384624F0010C05EBC471BCF1FE6FDB
:103F100001EB0C1102D8F0BCBDE8008124425CBF6B
:103F200001F5801E9EEAC47F02D4F0BCBDE800818A
:103F3000244238D4F0BCA1F1C041BDE8004100F0FA
:103F400043BA4FEAD22242EA43524FEAD323A7FBB5
:103F500002864FEAD02040EA415007FB03661EEA82
:103F60000E0F4FEAD12105FB026658BFA6EB0056A3
:103F7000B6EB00564FEA520E4EEAC37E18EB0E0E19
:103F800056EB530EBDD518EB02085E417F1C55F170
:103F90000005B6E74FF480154FF000074FF000061C
:103FA0004FF00008ADE7F0BC4FF0000001F1C04158
:103FB00001F00041BDE8008111EA0C1F0CEA131565
:103FC00000D00CE013EA0C1F00F025804FF0000039
:103FD000F0BC81EA030101F00041BDE80081F0BCC2
:103FE000BDE8004181EA030100F0EEB9F0BCBDE894
:103FF000004170B500F09AF9097EFC3E00F007B868
:1040000081EA03014FF0000001F00041704781EAAE
:10401000030100F0D9B9F0BCBDE800414FF0000049
:1040200021497047FFFDFBF9F7F5F4F2F0EEEDEBF7
:10403000E9E8E6E4E3E1E0DEDDDBDAD8D7D5D4D3A6
:10404000D1D0CFCDCCCBCAC8C7C6C5C4C2C1C0BFF2
:10405000BEBDBCBBBAB9B8B7B6B5B4B3B2B1B0AFF8
:10406000AEADACABAAA9A8A8A7A6A5A4A3A3A2A1DC
:10407000A09F9F9E9D9C9C9B9A9999989797969597
:1040800095949393929191908F8F8E8E8D8C8C8B33
:104090008B8A8989888887878685858484838382BB
:1040A000828181800000FF070000F87F4FEA410312
:1040B0004FEA5353A3F58063D3F11E03C8BFD3F176
:1040C000210C0CDD4FF0004242EAC12242EA50527C
:1040D00032FA03FC8CEAE17CACEBE1707047102B08
:1040E000C4BF0020704703F5787CBCF1FF3F04D0CB
:1040F0006FF0004282EA2100704770B500F016F9B7
:104100004992248000207047F2E710F0004248BF37
:104110004042B0FA80F310FA03F10AD0C3F11D0354
:1041200003F580634FEA415002EB035202EBD121C9
:1041300070474FF000007047B0FA80F310FA03F1B7
:104140000AD0C3F11D0303F580634FEA41504FEAE3
:10415000035202EBD12170474FF00000704700007E
:1041600051EA030C17D41CF5801F58BFBCF5801F03
:1041700000F10680994218BF704708BF904270470F
:1041800007D711F5801F58BF13F5801F19D4994226
:104190007047894270471CF5801F08D5BCF5801F09
:1041A000F7D58B4218BF704708BF824270474FF463
:1041B000001C1CEB410F38BF1CEB430F01D28B429C
:1041C000704770B500F0B2F8922449004FF00051EA
:1041D0004FF08053FFF706BEDFF848C170B51CEA08
:1041E000111E1EBF1CEA13159EEA0C0F95EA0C0F58
:1041F00000F06F8081EA030423EA4C134EEAD47E78
:1042000021EA4C1141F4801143F48013AE44A1FB28
:10421000024CA0FB0365AEF17F7E361955EB0C0511
:10422000A1FB034C4CF10003A0FB021C16EB0C0697
:10423000654153F10003094218BF46F0010613F42B
:10424000007F0BD14FEA03314FEA0530340341EAD6
:10425000155140EA16506FF003020AE04FEAC321FD
:104260004FEAC520F40241EA555140EA56506FF03A
:10427000020202EB2E4201EB025585EACE710AD012
:104280005FEA440C18BF24F0004450F1000041F1F3
:10429000000120EAD47040F2FE7C624500D270BD7D
:1042A000A84214BF4FF080444FF04044002E08BF96
:1042B0000024BEF1806FA8BFA1F1C041BDE87040ED
:1042C00080F282804FF0000001F1C04101F0004116
:1042D00070479EEA0C0F0CEA131518BF95EA0C0FF5
:1042E00006D04FF0000081EA030E0EF0004170BDD1
:1042F00000F01CF88900013E00F007B800F009B892
:104300004FEA430C5FEA5C5C08D081EA030100F0ED
:104310005BB84FEA410C5FEA5C5CF6D14FF00000FD
:10432000014970470000FF070000F87F0EF1020E00
:104330002EF0030E5EF8046B364205D4012A43EBDF
:10434000030515F5001F12D8012841EB010C1CF5DF
:10435000001F0CD80ED14FEAD17C15F5001F0CEBD5
:104360004C0C0CF1020C08BF4CEBD37C04E04FF07A
:10437000080C01E04FEAD37C0CEB4C0526FA05F65D
:1043800006F00706B6F1040C06D20EEB860CBDE86B
:1043900070404CF0010C6047DFE80CF0090B0202A2
:1043A0004FF000414FF00000A1F5002170BD19460B
:1043B0001046012851EB010418BFD4F5001484BF46
:1043C000002001F0004170BD0808A0F500114FEA7F
:1043D0003101704753EA010C17D41CF5801F58BFF8
:1043E000BCF5801F00F106808B4218BF704708BFE4
:1043F0008242704707D713F5801F58BF11F5801F01
:1044000019D48B4270479B4270471CF5801F08D51A
:10441000BCF5801FF7D5994218BF704708BF90427E
:1044200070474FF4001C1CEB430F38BF1CEB410FCF
:1044300001D2994270470FB40CBC03BCFFF7C1BE58
:1044400091EA030F10B581F000413FF523AC83F0F2
:10445000004300F0EFB800002DE9F04101F5801CA9
:10446000BCF5001FC0F2C3804FEA115C21EA0C5179
:104470000CF1FD0C41F480115FEA5C0C0CF5C07C82
:1044800001D3400049413DA4890241EA905187028D
:104490008E0E0A0CA45D04FB04F602FB06F6C6F1C0
:1044A0004046A4FB0662F60D46EA422606FB06F4E9
:1044B000A4FB01235242C3F1404338BF5B1EA6FB5D
:1044C00002420024E6FB0324D20B42EA4446A6FB48
:1044D0000623A1FB02E2A3FB07E4A4184FF00002AD
:1044E00052F10002E3FB01426442C2F1404E38BF88
:1044F000AEF1010EA6FB04234FF00002E6FB0E32E4
:10450000A2FB03464FF00004B61954F10004E2FB8D
:104510000264A1FB06E6A4FB07E816EB08064FF0D1
:10452000000858F10008E4FB01687642C8F14058E1
:1045300038BFA8F10108A2FB06E4A3FB08E52D198A
:104540004FF0000454F10004E2FB0854A1FB05E61F
:10455000A7FB04E818EB06084FF0000656F100062A
:10456000E1FB048618F1200556F10006A809A8F120
:104570001B08B10908F03F08B8F10A0F40EA86604D
:104580001CD901EB0C51BDE8F08100BFFCF5EEE851
:10459000E2DDD8D3CFCBC7C3C0BDB9B6B4B1AEACE2
:1045A000A9A7A5A3A19F9D9B9A9896959392908F5A
:1045B0008D8C8B898887868584838281A0FB0068A7
:1045C00000FB01F208EB4208B8EB872807D5341846
:1045D00058EB0104D5D5401C51F10001D1E7341A44
:1045E00078EB0104CDD4401E71F10001C9E75FEA08
:1045F0004C0C5FEA9C5C0DD105D34FF0000001F03C
:104600000041BDE8F081BDE8F04170B5FFF78EFED6
:104610006DDBFFBEBDE8F0414FF000000049704780
:104620000000F87F10B591EA030F48BF83F0004304
:104630003FF530AB841A71EB030C07D212198CF0E2
:10464000004C43EB0C03001B61EB0C01DFF8A4E111
:104650004FEA1154A4EB135C1EEA430F18BF9EEA05
:10466000445F00F0B08023EA6E03524221EA045115
:10467000C3EB6E0338BF5B1EDCF1200E25D322FA9C
:104680000CFE10EB0E0043FA0CFE41EB0E01CCF1D8
:10469000200E03FA0EFE10EB0E0051F10001CCF1DA
:1046A000200E29D412FA0EF201EB0451BDE810409D
:1046B00058BF7047401C1CBFB2F1004F7047002824
:1046C0000CBF491C20F00100704712EB020E43EBB7
:1046D000030218BF4FF0010E4EEA4202ACF1200C6B
:1046E000DCF11E0E54D943FA0CFE10EB0E0051F112
:1046F000FF31CCF11E0ED5D50EF1010E12FA0EFED1
:10470000404141EB010101EB445C5FEA5C5C10D984
:1047100010EBDE7001EB045138BFBEF1004FBDE875
:10472000104018BF704700280CBF491C20F0010042
:10473000704730D24FEAD42C11F5001124F40064F4
:104740001BD0B1FA81F20B3AA41AA41ED2F12003B5
:10475000914030FA03F31943904001EBCC71002CE7
:1047600001EB0451BDE81040A8BF704701F1C04102
:104770004FF0000001F000417047B0FA80F310FAEA
:1047800003F100D110BDE41A173C4805C90AE4E75B
:1047900001EB045110BD491001EB0451BDE810407C
:1047A0004FEA300002E04FF0000170474A0008BFB6
:1047B0000042F8D0B2F5001F28BF704701F0004159
:1047C0004FF0000070479EEA445F07D011EA5E0F89
:1047D000BDE8104004BF002100207047BDE8104034
:1047E00070B5FFF7A3FD00BF40DFF63E83F0004148
:1047F000104670470000E0FF43004FEAD30C4FEA39
:104800003C0C43401FBF40070CF1605113F0FE4FBA
:1048100070471CF0006F03D100200CF0004170477E
:104820000CF0004343EA507010B540EACC0000F0B1
:1048300096FA00BF000000924FEA0001FFF7C4BDE6
:104840004FF000414FF00000A1F50021704700003B
:1048500090EA010F48BF81F0004100F1C683421A7F
:104860003CBF801A89184FEAD0524FF07F4C1CEAA7
:10487000410FA2EBD15318BF9CEA026F00F03B80BE
:104880004FF0004C4CEA00204CEA012121FA03FCD5
:1048900010EB0C0C1ED202F1FF325FEA1C2040EB41
:1048A000C25038BF70471CF07F0F4FEA400C18BF52
:1048B000BCF17F4F38BF7047C3F12003994008BF58
:1048C00020F00100BCF17F4F38BF7047A0F1C0401D
:1048D00000F08BBA4FEA3C00000A40EBC25028BF00
:1048E0001CF0FF0F4FEA400CE6D018BFBCF17F4F21
:1048F00038BF7047EAE79CEA026F05D010EA5C0F08
:1049000008BF00F00040704710B500F028FA00BF63
:1049100064FBBE3E014800F0D6BB00BF0000C07F74
:10492000401058BFC0F14040491058BFC1F140414C
:104930008142EFF3008070474FF47F0C1CEAD012E5
:104940001EBF1CEAD11392EA0C0F93EA0C0F00F081
:10495000858090EA010F48BF42F4807240F4000C59
:1049600041F400002CF07F4120F07F4000B58142EF
:10497000A2EB03020FF2081CACEB504EC0F100009A
:104980009EF800E04FEA4E0E00FB0EFC38BF4900D7
:104990004FEA2C1C02F5FA020CFB0EF34FEACE1E76
:1049A0004FEA112C4FEAC1210EEB635E42EB22422B
:1049B0000EFB0CFC4FEA1C5300FB03114FEA112CB9
:1049C0004FEA01310EFB0CFC4FEADC4C00FB0C11F2
:1049D000C14228BF09184CEB03335DF804EB10EB20
:1049E000410143EBC250B2F57C0F38BF704729D567
:1049F00012F0F00F1CBF00F1C04000F00040704703
:104A0000008182838485868788898B8C8D8E8F91A7
:104A10009293959697999A9C9D9FA0A2A3A5A7A8CB
:104A2000AAACAEB0B2B3B5B7B9BCBEC0C2C5C7C9F7
:104A3000CCCED1D4D7D9DCDFE2E6E9ECF0F3F7FA5B
:104A4000FE0000004FEA400C0CF1807CBCF17E4F70
:104A500028BF7047B0F1C04000F0C7B990EA010F1D
:104A60000CEAD11348BF42F48072624538BF6345F7
:104A700007D213F47F0F16D080EA010000F0004047
:104A8000704710B500F06BF9097EFC3E00F005B8E8
:104A900080EA010000F00040704780EA010000F069
:104AA000004000F0A2B912F47F0F04BF0248704723
:104AB00080EA010000F099B90000C07F50EA010CC3
:104AC00000F113801CF5000F58BFBCF5000F01D496
:104AD0008842704707D710F5000F58BF11F5000F37
:104AE00015D488427047894270471CF5000F04D5E1
:104AF000BCF5000FF7D5814270474FF0807C1CEB6E
:104B0000400F38BF1CEB410F01D28142704710B5F6
:104B100000F025F9922449004FF000504FF08051E9
:104B2000FFF7FEBE41000B0ED3F19E0208D950F4F0
:104B300000034FEA032323FA02F048BF40427047C4
:104B400010B500F00CF900BF499224800020704796
:104B50006FF0004282EA200070470000C10DD1F1E1
:104B60009E0206DB4FEA002343F0004323FA02F0E3
:104B70007047004207D54FEA4001B1F1FE4F02D223
:104B80004FF00000704710B500F0E9F8499224801A
:104B9000002070476FEA20007047000010F00041CD
:104BA00048BF4042B0FA80F310FA03F2C3F19D030C
:104BB0000BD051EAC35101EB1220530638BF7047A6
:104BC00000F1010008BF20F001007047B0FA80F347
:104BD00010FA03F2C3F19D030AD0D90501EB1220AC
:104BE000530638BF704700F1010008BF20F00100F4
:104BF0007047000050EA010C00F113801CF5000F13
:104C000058BFBCF5000F01D48842704707D710F594
:104C1000000F58BF11F5000F15D488427047894224
:104C200070471CF5000F04D5BCF5000FF7D5814285
:104C300070474FF0807C1CEB400F38BF1CEB410FDE
:104C400001D28142704710B500F089F892244900E2
:104C50004FF000504FF08051FFF762BE4FF47F0CD1
:104C60001CEAD0121EBF1CEAD11392EA0C0F93EA81
:104C70000C0F00F0478090EA010F48BF42F48072A9
:104C80004FF0004C4CEA00204CEA012102EB0302F9
:104C9000A0FB0113A2F50002002918BF43F0010395
:104CA0005B0028BF4FEA330342EB22425FEA132C3A
:104CB0004CEBC2502EBFBCEB436FB2F57C0F70477C
:104CC0004FEA036CBCF1004F08BF20F00100B2F5C1
:104CD0007C0F38BF70470BD582F0FF0212F5803F82
:104CE000C8BF704700F1C040D8BF00F00040704717
:104CF00000F5000C5FEA4C0C48BF7047B0F1C040B3
:104D000000F073B890EA010F0CEAD11348BF42F4E7
:104D10008072624538BF634504D280EA010000F02A
:104D20000040704710B500F01AF800BF8900013E3E
:104D300000F007B800F009B85FEA410C5FEA1C6CAC
:104D400008D080EA010000F050B85FEA400C5FEA4A
:104D50001C6CF6D14FF00040A0F5800070470EF1BA
:104D6000020E2EF0030E5EF8044B244204D44FEAE8
:104D70004102B2F17F4F11D84FEA4003B3F17F4FA8
:104D80000CD80ED14FEAD07CB2F17F4F0CEB4C0C1B
:104D90000CF1020C08BF4CEBD17C04E04FF0080C86
:104DA00001E04FEAD17C0CEB4C0324FA03F404F04D
:104DB0000704B4F1040C06D20EEB840CBDE81040DD
:104DC0004CF0010C6047DFE80CF0070802024FF0DE
:104DD0000040A0F5800010BD0846420018BFD2F187
:104DE000807288BF00F0004010BDFF2141EAD05022
:104DF000C005704751EA000C00F113801CF5000F4C
:104E000058BFBCF5000F01D48142704707D711F598
:104E1000000F58BF10F5000F15D48142704789422A
:104E200070471CF5000F04D5BCF5000FF7D588427C
:104E300070474FF0807C1CEB410F38BF1CEB400FDC
:104E400001D28842704780EA010081EA000180EACD
:104E50000100FFF7F8BE00005FEA400C5FEA1C6C3F
:104E6000BCF17F0314D4D3F1170240F31C804FF040
:104E7000010C0CFA02FCACF101030340B3EB5C0241
:104E800020EA030008BF10EA0C0F88BF6044704797
:104E9000B3F1FF3F28BF5FEA002C00F0004088BF5D
:104EA00040F07E507047BCF1FF0FB8BF704710B59F
:104EB000FFF755FF40DBB6BE80F0004090EA010FDF
:104EC0007FF5CDAC81F0004100F08FB84FEAD051B2
:104ED000002988BFD1F1FF0240F2758001F17D0108
:104EE0004FEA002070B5490840F0004038BF400844
:104EF0000EA2430E040CD25C02FB02F304FB03F38C
:104F0000C3F14043A3FB0254ED0D45EA442202FBEA
:104F100002F3A0FB03546D42C4F1404438BF641E49
:104F2000A2FB05350023E2FB0453EA0B42EA4342AD
:104F3000A0FB023212F14004A2F12103E40903F0C4
:104F40007F031F2B32D904EBC15070BDFEFAF7F37B
:104F5000F0ECE9E6E4E1DEDCD9D7D4D2D0CECCCA9D
:104F6000C8C6C4C2C1BFBDBCBAB9B7B6B4B3B2B08B
:104F7000AFAEACABAAA9A8A7A6A4A3A2A1A09F9ECE
:104F80009E9D9C9B9A9998979796959493939291AE
:104F900090908F8E8E8D8C8C8B8A8A89898887875A
:104FA00086868584848383828281818004FB04F6E3
:104FB000B6EB004603D5E64248BF641CC3E7A642F1
:104FC00058BF641CBFE711F0FF0F02D100F0004092
:104FD000704710B5FFF7C3FE7FDBFFBE90EA010FFD
:104FE00048BF81F000413FF53AAC421A04D882F044
:104FF0000042A0EB020011444FEAD0524FF07F4C28
:105000001CEA410FA2EBD15318BF9CEA026F4AD0B1
:105010004FF0004C4CEA00204CEA012121FA03FC3D
:10502000B0EB0C0C0FD412F0FE0F36D05FEA4C0040
:105030001DD5001240EBC25038BF70471CF03F0F27
:1050400018BF70470BE0A2F101025FEA1C2040EBA1
:10505000C25038BF70471CF07F0F18BF7047C3F1B4
:105060002003994014BF401E20F0010070478008C3
:105070004FEA122308BF7047B0FA80FCA2EB0C0283
:10508000CCF1280C60FA0CF093EA122F04BF00EB6D
:10509000C25070474FEAC3707047130A5FEADC10D2
:1050A00008BF7047F6E79CEA026F04D010EA5C0F75
:1050B00008BF0020704710B5FFF751FE40DFF63EF5
:1050C00081F0004070470CF00F03092B08BF082047
:1050D00000F07F800A2B0BD0082B18BF704708BF49
:1050E0001CF0400F0AD04FF000004FF00001704755
:1050F0001CF0400F18BF4FF0004070471CF0100F1D
:1051000008D020F0704300F07F4242EAD3014FEA1A
:105110004370704700F0604021F07F4242EA000295
:1051200001F07F4040EA727070474FF0FF0C4CF482
:10513000E06C1CEA11531CBF9CEA030C9445C2BFEF
:10514000DA4201EB02517047002B0DD0BCF1000F89
:105150000FD0002A01F00041A4BF41F0E04141F02E
:105160007F614FF00000704701F000414FF00000F8
:10517000704750EA01334FF09B0C18BF4CF0806C25
:105180007EF428AE70474FF0FF0212EAD0521CBFE7
:1051900092F0FF038B42C2BFD14200EBC150704777
:1051A000002A0AD0002B0BD0002900F00040A4BF39
:1051B00040F0FE4040F40000704700F000407047AF
:1051C00043024FF00B0C18BF4CF0806C7FF4A2AB85
:1051D00070471CF4801F11D01CF4E02F03D06FEA3D
:1051E000CC31490070474FF04050EFF3008222F07D
:1051F000704242EA000282F3008870474FF00000DC
:10520000704700000000803F000000000000000028
:105210000000803F000000000000000000000000CF
:1052200000000000000000F8000000000000003353
:105230003000000000100C06100C060000000000FA
:105240000000000040C07840C0784000043F0404E3
:105250003F040400007088FC08300000001820FFA4
:10526000211E0000F008F000E018000000211C03DF
:105270001E211E0000F00888700000001E2123245B
:105280001927211010160E00000000000000000079
:1052900000000000000000E0180402000000000709
:1052A0001820400000020418E00000000040201810
:1052B00007000000404080F0804040000202010FE3
:1052C00001020200000000F0000000000101011FC7
:1052D00001010100000000000000000080B070002B
:1052E00000000000000000000000000000010101BB
:1052F000010101010000000000000000003030004A
:105300000000000000000000806018040060180623
:105310000100000000E010080810E000000F10205D
:1053200020100F00001010F8000000000020203FA7
:105330002020000000700808088870000030282431
:1053400022213000003008888848300000182020D2
:1053500020110E000000C02010F8000000070424F7
:10536000243F240000F8088888080800001921203C
:1053700020110E0000E0108888180000000F112096
:1053800020110E0000380808C83808000000003F4F
:10539000000000000070880808887000001C2221AE
:1053A00021221C0000E010080810E000000031225B
:1053B00022110F00000000C0C000000000000030FB
:1053C000300000000000008000000000000080604D
:1053D00000000000000080402010080000010204CE
:1053E00008102000404040404040400004040404B5
:1053F0000404040000081020408000000020100871
:1054000004020100007048080808F00000000030A5
:1054100036010000C030C828E810E0000718272433
:1054200023140B000000C038E0000000203C2302E1
:105430000227382008F8888888700000203F202044
:1054400020110E00C0300808080838000718202076
:105450002010080008F808080810E000203F20206D
:1054600020100F0008F88888E8081000203F20204E
:105470002320180008F88888E8081000203F200042
:1054800003000000C030080808380000071820207A
:10549000221E020008F808000008F808203F210139
:1054A00001213F20000808F8080800000020203FE4
:1054B0002020000000000808F8080800C080808054
:1054C0007F00000008F888C028180800203F20014D
:1054D0002638200008F8080000000000203F2020A7
:1054E0002020300008F8F800F8F80800203F003FBE
:1054F000003F200008F830C00008F808203F2000D6
:1055000007183F00E01008080810E0000F102020E6
:1055100020100F0008F808080808F000203F2101BB
:1055200001010000E01008080810E0000F18242412
:1055300038504F0008F8888888887000203F200085
:10554000030C30200070880808083800003820213B
:1055500021221C00180808F8080818000000203F45
:105560002000000008F808000008F808001F2020AC
:1055700020201F000878880000C83808000007387D
:105580000E010000F80800F80008F800033C0700CE
:10559000073C0300081868808068180820302C0336
:1055A000032C30200838C800C83808000000203F0D
:1055B0002000000010080808C838080020382621FC
:1055C00020201800000000FE020202000000007F00
:1055D00040404000000C30C000000000000000010E
:1055E0000638C00000020202FE00000000404040F9
:1055F0007F0000000000040202020400000000001E
:10560000000000000000000000000000808080809A
:105610008080808000020204000000000000000082
:10562000000000000000808080800000001924221B
:1056300022223F2008F8008080000000003F112057
:1056400020110E000000008080800000000E11205C
:1056500020201100000000808088F800000E11203A
:1056600020103F200000808080800000001F222248
:1056700022221300008080F0888888180020203FB4
:10568000202000000000808080808000006B9494C7
:105690009493600008F8008080800000203F210083
:1056A00000203F2000809898000000000020203F4C
:1056B00020200000000000809898000000C080803A
:1056C000807F000008F8000080808000203F2402D6
:1056D0002D302000000808F8000000000020203FC6
:1056E000202000008080808080808000203F20007B
:1056F0003F20003F8080008080800000203F21000C
:1057000000203F200000808080800000001F2020BB
:1057100020201F00808000808000000080FFA120EA
:1057200020110E000000008080808000000E1120FB
:1057300020A0FF80808080008080800020203F218A
:10574000200001000000808080808000003324243D
:1057500024241900008080E0808000000000001FE9
:10576000202000008080000000808000001F20209A
:1057700020103F20808080000080808000010E305B
:105780000806010080800080008080800F300C03BC
:105790000C300F0000808000808080000020312EBF
:1057A0000E312000808080000080808080818E709B
:1057B0001806010000808080808080000021302C4D
:1057C0002221300000000000807C02020000000066
:1057D000003F404000000000FF000000000000000B
:1057E000FF0000000002027C800000000040403FFB
:1057F0000000000000060101020204040000000095
:105800000000000000000000000000000000F03F69
:10581000000000000000F83F000000000000000051
:105820000000004003B8E23F00000000000000005C
:1058300006D0CF43EBFD4C3E033333333333E33FEA
:10584000FFAB6FDBB66DDB3F4D268F515555D53F16
:1058500001411DA96074D13F65DBC9934A86CD3FE4
:10586000EF4E454A287ECA3F3E5555555555C53FD2
:1058700093BDBE166CC166BF2CDE25AF6A56113FC4
:10588000F16BD2C541BDBBBED0A4BE726937663EC6
:105890000000000000000000000000006E83F9A27C
:1058A0002915444ED15727FCC0DD34F5999562DBAC
:1058B0004190433CAB6351FED858000800000020E3
:1058C000F400000028010008CC590008F400002072
:1058D000240700004401000801010000000000004E
:1058E00000000000000000000AD7A33D0000704146
:1058F0006F12033A000000000000000000000000EA
:105900000000803F000000000000000000000000D8
:105910006F12833A9A99993E00000000CDCCCC3D9D
:105920000000000000000000000000000000000077
:10593000000000000000403F3333733F0000484246
:105940000000000000000000CDCCCC3D00000000B5
:1059500000000000CDCCCC3D6F12833A6F12033BA8
:105960009A99993E0000000000000000000000002D
:105970000000000000080140000C01400010014040
:1059800000000040000400400008004000380140D2
:1059900000440040004800400000000000000000FB
:1059A00000000000000000000000000000000000F7
:1059B00000000000000000000000000000000000E7
:0C59C000000000000000000000000000DB
:04000005080000ED02
:00000001FF
