:020000040800F2
:10000000780600208901000891010008930100088A
:100010009501000897010008990100080000000000
:100020000000000000000000000000009B0100082C
:100030009D010008000000009F010008A1010008C8
:10004000A3010008A3010008A3010008A301000800
:10005000A3010008A3010008450200085D02000892
:10006000750200088D020008A5020008A30100081F
:10007000A3010008A3010008A3010008A3010008D0
:10008000A3010008A3010008A3010008A3010008C0
:10009000A3010008A3010008A3010008BD02000895
:1000A000A3010008A3010008A3010008A3010008A0
:1000B000D5060008F5060008A3010008A301000802
:1000C000A3010008A3010008A3010008A301000880
:1000D000A3010008110700082D07000849070008C0
:1000E000A3010008A3010008A301000800F002F822
:1000F00000F03AF80AA090E8000C82448344AAF188
:100100000107DA4501D100F02FF8AFF2090EBAE885
:100110000F0013F0010F18BFFB1A43F0010318473B
:100120002415000044150000103A24BF78C878C197
:10013000FAD8520724BF30C830C144BF04680C60ED
:10014000704700000023002400250026103A28BF35
:1001500078C1FBD8520728BF30C148BF0B60704739
:100160001FB51FBD10B510BD00F036F81146FFF7E2
:10017000F7FF00F00DFC00F054F803B4FFF7F2FFB6
:1001800003BC00F057F800000948804709480047C1
:10019000FEE7FEE7FEE7FEE7FEE7FEE7FEE7FEE737
:1001A000FEE7FEE704480549054A064B7047000094
:1001B00075060008ED000008780000207806002091
:1001C00078020020780200207047704770470000D6
:1001D00000487047180000207546FFF7F9FFAE464B
:1001E00005006946534620F00700854618B020B543
:1001F000FFF7D8FFBDE820404FF000064FF00007A2
:100200004FF000084FF0000B21F00701AC46ACE8BE
:10021000C009ACE8C009ACE8C009ACE8C0098D462B
:10022000704710B50446AFF300802046BDE810408B
:10023000FFF7A3BF01491820ABBEFEE7260002006E
:10024000704700000448006800F0010010B1012070
:100250000149086070470000140401400448006828
:1002600000F0020010B10220014908607047000050
:10027000140401400448006800F0040010B1042098
:1002800001490860704700001404014004480068F8
:1002900000F0080010B10820014908607047000014
:1002A000140401400448006800F0100010B1102050
:1002B00001490860704700001404014015480068B7
:1002C00000F0200010B12020124908601148006899
:1002D00000F0400010B140200E4908600D48006851
:1002E00000F0800010B180200A49086009480068C9
:1002F00000F4807018B14FF480700649086005481A
:10030000006800F4007018B14FF4007001490860F3
:100310007047000014040140014607238B431A0272
:10032000054B18684FF6FF0318401043034B184362
:10033000014B1860704700000CED00E00000FA056A
:1003400070B505460C460420FFF7E6FF0E48005D39
:1003500000F0010646EA0510C1B20B4801552046DF
:10036000E21704EBD2625211A4EB421301229A402D
:100370002146E31704EBD3635B119B0003F1E023F9
:10038000C3F8002170BD000000E400E070B5002457
:100390000EE00021204600F0C7F8002504E0002010
:1003A00000F0E3F8681CC5B2802DF8DB601CC4B215
:1003B000082CEEDB70BD10B502220821012000F0F0
:1003C000F5F902220921012000F0F0F901220821AB
:1003D000104600F0BDFA01220921104600F0B8FADB
:1003E00010BD70B50546002413E08020204100EACE
:1003F00005020921012000F0ABFA01220821104674
:1004000000F0A6FA00220821012000F0A1FA601CE9
:10041000C4B2082CE9DB01220821104600F098FA4A
:1004200000220821012000F093FA70BD10B50122CE
:100430000921104600F08CFA01220821104600F034
:1004400087FA00220921012000F082FA0022082107
:10045000012000F07DFA10BD10B500220921012015
:1004600000F076FA01220821104600F071FA01220C
:100470000921104600F06CFA10BD70B5002406E0AA
:10048000002500E06D1CB5F57A7FFBD3641CB4F544
:100490007A7FF5D3FFF78FFFAE2000F056F8D52016
:1004A00000F053F8802000F050F8A82000F04DF83C
:1004B0003F2000F04AF8D32000F047F8002000F079
:1004C00044F8402000F041F8A12000F03EF8C82098
:1004D00000F03BF8DA2000F038F8122000F035F890
:1004E000812000F032F8CF2000F02FF8D92000F062
:1004F0002CF8F12000F029F8DB2000F026F830205D
:1005000000F023F8A42000F020F8A62000F01DF849
:100510008D2000F01AF8142000F017F8AF2000F03A
:1005200014F8FFF733FF70BD70B505460C4645F073
:10053000B00000F00AF8102141EA141000F005F8AC
:1005400004F00F0000F001F870BD10B50446FFF78D
:100550006DFF7820FFF745FF0020FFF742FF2046A0
:10056000FFF73FFFFFF778FF10BD10B50446FFF718
:100570005DFF7820FFF735FF4020FFF732FF204670
:10058000FFF72FFFFFF768FF10BD10B500F002F86E
:1005900010BD00000CB500200190009033480068A9
:1005A00040F480303149086000BF3048006800F4F2
:1005B000003000900198401C0190009818B90198F3
:1005C000B0F5A06FF1D12948006800F4003010B1F7
:1005D0000120009001E0002000900098012843D104
:1005E0002348006840F01000214908600846006870
:1005F00020F0030008600846006840F00200086030
:100600001A484068194948600846406848600846EA
:10061000406840F4806048600846406820F47C10E0
:1006200048600846406840F4E810486008460068A2
:1006300040F08070086000BF0C48006800F0007057
:100640000028F9D00948406820F0030007494860B5
:100650000846406840F00200486000BF0348406818
:1006600000F00C000828F9D10CBD00000010024079
:100670000020024010B51348006840F00100114905
:10068000086008464068104908400E49486008461E
:1006900000680E4908400B4908600846006820F4CD
:1006A000802008600846406820F4FE0048604FF44F
:1006B0001F008860FFF769FF4FF000600449086081
:1006C00010BD0000001002400000FFF8FFFFF6FE22
:1006D00008ED00E04FF08040008A00F0010038B1E2
:1006E0004FF08040008A20F001004FF080410882E6
:1006F000704700000548008800F0010028B1034859
:10070000008820F001000149088070471004004073
:100710000548008800F0200028B10348008820F038
:1007200020000149088070470038014005480088D2
:1007300000F0200028B10348008820F02000014983
:1007400008807047004400400548008800F0200001
:1007500028B10348008820F0200001490880704734
:100760000048004000B5034603E04FF47A7000F003
:1007700005F8181EA3F10103F7D100BD00EBC0017D
:10078000C9004FF0E0225161002191610521116102
:1007900000BF4FF0E021096901F480310029F8D051
:1007A00004214FF0E02211617047000070B5654CE4
:1007B000A469042585402C43624DAC6108295DDAAB
:1007C000614C54F8204024688E000F25B540AC439E
:1007D0005D4D55F820502C601AB1032A01D0022A31
:1007E0000FD10124944044F003048D00AC40564DD9
:1007F00055F820502D682C43534D55F820502C604F
:100800009FE0012A01D0042A2AD14F4C54F82040FD
:1008100024688E000825B5402C434B4D55F82050D8
:100820002C60012A0ED1484C54F82040E468012580
:100830008D4024EA050301248C401C43424D55F8A9
:100840002050EC60042A7CD13F4C54F82040E568ED
:1008500001248C40A5433C4C54F82040E56070E0F6
:10086000042494408D00AC40374D55F820502D683D
:100870002C43354D55F820502C6062E0324C54F832
:1008800020406468A1F10805AE000F25B540AC43D7
:100890002D4D55F820506C601AB1032A01D0022A60
:1008A00011D10124944044F00304A1F10805AD00E6
:1008B000AC40254D55F820506D682C43224D55F81D
:1008C00020506C603DE0012A01D0042A2AD11E4C40
:1008D00054F820406468A1F10805AE000825B54031
:1008E0002C43194D55F820506C60012A0CD1174C3F
:1008F000256801248C4025EA040301248C401C4314
:10090000114D55F82050EC60042A1AD10E4C54F8C1
:100910002040E46801258D40AC430B4D55F8205034
:10092000EC600EE004249440A1F10805AD00AC4059
:10093000054D55F820506D682C43034D55F8205057
:100940006C6070BD00100240000000200C080140E7
:1009500030B57AB10D4C54F82040E46801258D4043
:1009600024EA050301248C401C43084D55F820500F
:10097000EC600AE0054C54F82040E46801258D4005
:10098000AC43024D55F82050EC6030BD0000002013
:10099000FFF773FD01224FF4E131002000F066F80B
:1009A00013E04FF4FA70FFF7DDFE0121002000F0A4
:1009B000BBF80221002000F0B7F80321002000F06E
:1009C000B3F80421002000F0AFF8EAE72DE9F04F7A
:1009D00089B081468A46B9F1000F01D11F4C00E071
:1009E0001F4C4FEA0A1094FBF0FB584600F0FFFA48
:1009F000CDE90401504600F0E3FA07460022194B06
:100A000000F008FB05460E46204600F037FD07467D
:100A100000F0E8FC2A463346CDE9000100F078F901
:100A2000CDE90201DDE9042300F0F2FBCDE9060186
:100A300000F094F808904FF08341089800F036FDDC
:100A40000890089800F0FAFC00EB0B10064951F8EA
:100A50002910088109B0BDE8F08F000000A24A0407
:100A600000512502000030400C00002070B5044603
:100A70000E46154634B91448806940F48040124946
:100A8000886108E01048C06904F1100101228A4021
:100A900010430D49C861204600F01AF8314620463F
:100AA000FFF794FF094850F82400808942F22C0196
:100AB0000843064951F82410888104F12500C1B289
:100AC0002846FFF73DFC70BD001002400C000020DE
:100AD00010B5044624B1012C0DD0022C21D115E013
:100AE000032209210020FFF761FE04220A210020D1
:100AF000FFF75CFE15E0032202210020FFF756FEFF
:100B0000042203210020FFF751FE0AE003220A21FC
:100B10000120FFF74BFE04220B210120FFF746FEC8
:100B200000BF00BF10BD000070B504460D4600BFF9
:100B3000094850F82400008808B9012000E000208E
:100B400000F040000028F3D1034850F824008580CD
:100B50000120FFF707FE70BD0C00002021F00042CD
:100B6000A2F16052B2F5801F01F0004328BFD2F11C
:100B70007F6C0BD95FEA001C43EAC20242EB507063
:100B800018BF704728BF20F001007047B2F5801FE2
:100B9000BCBF184670474FEA410C1CF5001F02D23B
:100BA000084600F04ABD70B500F0DEFA000000898A
:100BB000FFF7F6BF4FF00040A0F58000704700003F
:100BC00010B591EA030F48BF83F0004300F128837A
:100BD000841A71EB030C05D2121943EB0C03001BB2
:100BE00061EB0C01DFF824E14FEA1154A4EB135C34
:100BF0001EEA430F18BF9EEA445F73D023EA0E0338
:100C0000DCF1200E21EA045143F4801332D322FA9E
:100C10000CFE10EB0E0023FA0CFE41EB0E01CCF1A2
:100C2000200E03FA0EFE10EB0E0051F10001B1F59B
:100C3000801FCCF1200E32D201EB045112FA0EF2D9
:100C4000BDE8104058BF7047401C38BF5FEA420201
:100C500018BF7047002814BF20F0010041F10001C7
:100C60004FEA410313F5001F38BF7047A1F1C0419F
:100C700000F0C8BA012A43EB0302ACF1200CDCF10E
:100C80001F0E32BF4FF0000E23FA0CF310EB0300DF
:100C900041EB0451B4EB115FD0D0A1EB045101F54D
:100CA000801149085FEA300001EB04510ED350F186
:100CB000000038BF12FA0EFE08D1BDE81040C9E7A7
:100CC000401C38BF5FEA4202CAD1C3E7BDE810400A
:100CD0004FEA410313F5001F38BF7047A1F1C0412F
:100CE00000F090BA9EEA445F08D011EA5E0FBDE8BA
:100CF000104004BF01F0004100207047BDE81040E3
:100D000070B500F031FA00BF64FBBE3E0000E0FFAA
:100D10002DE9C04130B4DFF8A0C23CEA111418BF7D
:100D20003CEA131400F0EC8081EA03051CEA11147C
:100D300044EAD57418BF1CEA131500F0C780A4EB71
:100D400005044FF0004545EAC12145EAC32341EAC5
:100D5000505143EA525304F17F74994204F5003430
:100D60004FEAC0204FEAC22208BF904200F09C80A8
:100D70004FEA13650FF24016765D4FEA134506FB06
:100D800005F7C7F1807706FB07F74FEAD737A7FBD0
:100D900003687642C8F58038A7FB06CE38BFA8F1B5
:100DA000010807FB08E64FF0000EA6FB028CE6FBED
:100DB00003CEDCF1000CCEF1004E38BFAEF1010ED7
:100DC000A6FB0C584FF000074FF00005E6FB0E871E
:100DD000A1FB08C6A0FB07CE16EB0E0645F10005E9
:100DE000E1FB076515F1E04E7EBFA4F580345FEAB4
:100DF00046066D4116F1800745F100054FEA1727B9
:100E00004FEA066647EA0567A6F1DE46B6F1805F5F
:100E10004FEA15251FD9384624F0010C05EBC471A3
:100E2000BCF1FE6F01EB0C1102D8F0BCBDE80081F3
:100E300024425CBF01F5801E9EEAC47F02D4F0BC50
:100E4000BDE80081244238D4F0BCA1F1C041BDE826
:100E5000004100F0D7B94FEAD22242EA43524FEAAA
:100E6000D323A7FB02864FEAD02040EA415007FB7C
:100E700003661EEA0E0F4FEAD12105FB026658BF3A
:100E8000A6EB0056B6EB00564FEA520E4EEAC37E72
:100E900018EB0E0E56EB530EBDD518EB02085E4153
:100EA0007F1C55F10005B6E74FF480154FF00007A1
:100EB0004FF000064FF00008ADE7F0BC4FF0000027
:100EC00001F1C04101F00041BDE8008111EA0C1FB1
:100ED0000CEA131500D00CE013EA0C1F00F025807B
:100EE0004FF00000F0BC81EA030101F00041BDE8D1
:100EF0000081F0BCBDE8004181EA030100F082B945
:100F0000F0BCBDE8004170B500F02EF9097EFC3E52
:100F100000F007B881EA03014FF0000001F0004142
:100F2000704781EA030100F06DB9F0BCBDE80041F3
:100F30004FF0000021497047FFFDFBF9F7F5F4F28F
:100F4000F0EEEDEBE9E8E6E4E3E1E0DEDDDBDAD864
:100F5000D7D5D4D3D1D0CFCDCCCBCAC8C7C6C5C4C2
:100F6000C2C1C0BFBEBDBCBBBAB9B8B7B6B5B4B3D9
:100F7000B2B1B0AFAEADACABAAA9A8A8A7A6A5A4C4
:100F8000A3A3A2A1A09F9F9E9D9C9C9B9A99999888
:100F90009797969595949393929191908F8F8E8E2B
:100FA0008D8C8C8B8B8A89898888878786858584B8
:100FB00084838382828181800000FF070000F87FA4
:100FC00010F0004248BF4042B0FA80F310FA03F13B
:100FD0000AD0C3F11D0303F580634FEA415002EBD1
:100FE000035202EBD12170474FF000007047B0FA76
:100FF00080F310FA03F10AD0C3F11D0303F58063F7
:101000004FEA41504FEA035202EBD12170474FF0B3
:1010100000007047DFF848C170B51CEA111E1EBF02
:101020001CEA13159EEA0C0F95EA0C0F00F06F8076
:1010300081EA030423EA4C134EEAD47E21EA4C11E0
:1010400041F4801143F48013AE44A1FB024CA0FB99
:101050000365AEF17F7E361955EB0C05A1FB034C01
:101060004CF10003A0FB021C16EB0C06654153F18A
:101070000003094218BF46F0010613F4007F0BD1AC
:101080004FEA03314FEA0530340341EA155140EA93
:1010900016506FF003020AE04FEAC3214FEAC52061
:1010A000F40241EA555140EA56506FF0020202EB59
:1010B0002E4201EB025585EACE710AD05FEA440C5C
:1010C00018BF24F0004450F1000041F1000120EA73
:1010D000D47040F2FE7C624500D270BDA84214BFBD
:1010E0004FF080444FF04044002E08BF0024BEF172
:1010F000806FA8BFA1F1C041BDE8704080F282803E
:101100004FF0000001F1C04101F0004170479EEA3C
:101110000C0F0CEA131518BF95EA0C0F06D04FF010
:10112000000081EA030E0EF0004170BD00F01CF8D3
:101130008900013E00F007B800F009B84FEA430CFF
:101140005FEA5C5C08D081EA030100F05BB84FEA1B
:10115000410C5FEA5C5CF6D14FF00000014970473A
:101160000000FF070000F87F0EF1020E2EF0030EC4
:101170005EF8046B364205D4012A43EB030515F5EE
:10118000001F12D8012841EB010C1CF5001F0CD8E0
:101190000ED14FEAD17C15F5001F0CEB4C0C0CF175
:1011A000020C08BF4CEBD37C04E04FF0080C01E0CC
:1011B0004FEAD37C0CEB4C0526FA05F606F0070641
:1011C000B6F1040C06D20EEB860CBDE870404CF074
:1011D000010C6047DFE80CF0090B02024FF0004100
:1011E0004FF00000A1F5002170BD194610460128FE
:1011F00051EB010418BFD4F5001484BF002001F0A6
:10120000004170BD0808A0F500114FEA3101704798
:1012100010B591EA030F48BF83F000433FF5D8AC07
:10122000841A71EB030C07D212198CF0004C43EBBB
:101230000C03001B61EB0C01DFF8A4E14FEA115431
:10124000A4EB135C1EEA430F18BF9EEA445F00F054
:10125000B08023EA6E03524221EA0451C3EB6E03CD
:1012600038BF5B1EDCF1200E25D322FA0CFE10EBFA
:101270000E0043FA0CFE41EB0E01CCF1200E03FAF6
:101280000EFE10EB0E0051F10001CCF1200E29D41E
:1012900012FA0EF201EB0451BDE8104058BF70473E
:1012A000401C1CBFB2F1004F704700280CBF491C06
:1012B00020F00100704712EB020E43EB030218BF4F
:1012C0004FF0010E4EEA4202ACF1200CDCF11E0E92
:1012D00054D943FA0CFE10EB0E0051F1FF31CCF162
:1012E0001E0ED5D50EF1010E12FA0EFE404141EB55
:1012F000010101EB445C5FEA5C5C10D910EBDE702D
:1013000001EB045138BFBEF1004FBDE8104018BFDB
:10131000704700280CBF491C20F00100704730D2F4
:101320004FEAD42C11F5001124F400641BD0B1FA5B
:1013300081F20B3AA41AA41ED2F12003914030FA94
:1013400003F31943904001EBCC71002C01EB0451E5
:10135000BDE81040A8BF704701F1C0414FF0000048
:1013600001F000417047B0FA80F310FA03F100D1A8
:1013700010BDE41A173C4805C90AE4E701EB045123
:1013800010BD491001EB0451BDE810404FEA300098
:1013900002E04FF0000170474A0008BF0042F8D059
:1013A000B2F5001F28BF704701F000414FF0000068
:1013B00070479EEA445F07D011EA5E0FBDE8104017
:1013C00004BF002100207047BDE8104070B5FFF752
:1013D000CBFE00BF40DFF63E83F000411046704771
:1013E0000000E0FF43004FEAD30C4FEA3C0C4340BF
:1013F0001FBF40070CF1605113F0FE4F70471CF007
:10140000006F03D100200CF0004170470CF0004346
:1014100043EA507010B540EACC0000F0C8F800BFB5
:10142000000000924FEA0001FFF7ECBE4FF00041D0
:101430004FF00000A1F5002170470000C10DD1F16F
:101440009E0206DB4FEA002343F0004323FA02F03A
:101450007047004207D54FEA4001B1F1FE4F02D27A
:101460004FF00000704710B500F0A1F849922480B9
:10147000002070476FEA20007047000010F0004124
:1014800048BF4042B0FA80F310FA03F2C3F19D0363
:101490000BD051EAC35101EB1220530638BF7047FD
:1014A00000F1010008BF20F0010070474FF47F0CED
:1014B0001CEAD0121EBF1CEAD11392EA0C0F93EA69
:1014C0000C0F00F0478090EA010F48BF42F4807291
:1014D0004FF0004C4CEA00204CEA012102EB0302E1
:1014E000A0FB0113A2F50002002918BF43F001037D
:1014F0005B0028BF4FEA330342EB22425FEA132C22
:101500004CEBC2502EBFBCEB436FB2F57C0F704763
:101510004FEA036CBCF1004F08BF20F00100B2F5A8
:101520007C0F38BF70470BD582F0FF0212F5803F69
:10153000C8BF704700F1C040D8BF00F000407047FE
:1015400000F5000C5FEA4C0C48BF7047B0F1C0409A
:1015500000F073B890EA010F0CEAD11348BF42F4CF
:101560008072624538BF634504D280EA010000F012
:101570000040704710B500F01AF800BF8900013E26
:1015800000F007B800F009B85FEA410C5FEA1C6C94
:1015900008D080EA010000F050B85FEA400C5FEA32
:1015A0001C6CF6D14FF00040A0F5800070470EF1A2
:1015B000020E2EF0030E5EF8044B244204D44FEAD0
:1015C0004102B2F17F4F11D84FEA4003B3F17F4F90
:1015D0000CD80ED14FEAD07CB2F17F4F0CEB4C0C03
:1015E0000CF1020C08BF4CEBD17C04E04FF0080C6E
:1015F00001E04FEAD17C0CEB4C0324FA03F404F035
:101600000704B4F1040C06D20EEB840CBDE81040C4
:101610004CF0010C6047DFE80CF0070802024FF0C5
:101620000040A0F5800010BD0846420018BFD2F16E
:10163000807288BF00F0004010BDFF2141EAD05009
:10164000C005704764160008000000201800000064
:10165000280100087C160008180000206006000021
:101660004401000800080140000C01400010014046
:0C167000003801400044004000480040E9
:04000005080000ED02
:00000001FF
