:020000040800F2
:100000007006002089010008910100089301000892
:100010009501000897010008990100080000000000
:100020000000000000000000000000009B0100082C
:100030009D010008000000009F010008A1010008C8
:10004000A3010008A3010008A3010008A301000800
:10005000A3010008A30100083902000851020008AA
:10006000690200088102000899020008A301000843
:10007000A3010008A3010008A3010008A3010008D0
:10008000A3010008A3010008A3010008A3010008C0
:10009000A3010008A3010008A3010008B1020008A1
:1000A000A3010008A3010008A3010008A3010008A0
:1000B000550600087506000891060008A30100080F
:1000C000A3010008A3010008A3010008A301000880
:1000D000A3010008AD060008C9060008E5060008EF
:1000E000A3010008A3010008A301000800F002F822
:1000F00000F03AF80AA090E8000C82448344AAF188
:100100000107DA4501D100F02FF8AFF2090EBAE885
:100110000F0013F0010F18BFFB1A43F0010318473B
:10012000D0070000F0070000103A24BF78C878C15B
:10013000FAD8520724BF30C830C144BF04680C60ED
:10014000704700000023002400250026103A28BF35
:1001500078C1FBD8520728BF30C148BF0B60704739
:100160001FB51FBD10B510BD00F038F81146FFF7E0
:10017000F7FF00F0B9FB00F056F803B4FFF7F2FF09
:1001800003BC00F0BDFA0000094880470948004759
:10019000FEE7FEE7FEE7FEE7FEE7FEE7FEE7FEE737
:1001A000FEE7FEE704480549054A064B7047000094
:1001B000F5050008ED000008700000207006002022
:1001C000700200207002002070477047704770472F
:1001D00070470000004870470C0000207546FFF78C
:1001E000F9FFAE4605006946534620F007008546F4
:1001F00018B020B5FFF7D6FFBDE820404FF000064D
:100200004FF000074FF000084FF0000B21F00701FE
:10021000AC46ACE8C009ACE8C009ACE8C009ACE841
:10022000C0098D46704710B50446AFF300802046E4
:10023000BDE81040FFF7A1BF0448006800F00100CE
:1002400010B101200149086070470000140401400A
:100250000448006800F0020010B102200149086063
:1002600070470000140401400448006800F00400D6
:1002700010B10420014908607047000014040140D7
:100280000448006800F0080010B108200149086027
:1002900070470000140401400448006800F010009A
:1002A00010B110200149086070470000140401409B
:1002B0001548006800F0200010B1202012490860A5
:1002C0001148006800F0400010B140200E4908605D
:1002D0000D48006800F0800010B180200A490860D5
:1002E0000948006800F4807018B14FF48070064926
:1002F00008600548006800F4007018B14FF4007001
:1003000001490860704700001404014070B50024E2
:100310000EE00021204600F0C7F8002504E0002090
:1003200000F0E3F8681CC5B2802DF8DB601CC4B295
:10033000082CEEDB70BD10B502220821012000F070
:10034000E1F902220921012000F0DCF90122082153
:10035000104600F0A9FA01220921104600F0A4FA83
:1003600010BD70B50546002413E08020204100EA4E
:1003700005020921012000F097FA01220821104608
:1003800000F092FA00220821012000F08DFA601C92
:10039000C4B2082CE9DB01220821104600F084FADF
:1003A00000220821012000F07FFA70BD10B5012263
:1003B0000921104600F078FA01220821104600F0C9
:1003C00073FA00220921012000F06EFA00220821B0
:1003D000012000F069FA10BD10B5002209210120AA
:1003E00000F062FA01220821104600F05DFA0122B5
:1003F0000921104600F058FA10BD70B5002406E03F
:10040000002500E06D1CB5F57A7FFBD3641CB4F5C4
:100410007A7FF5D3FFF78FFFAE2000F056F8D52096
:1004200000F053F8802000F050F8A82000F04DF8BC
:100430003F2000F04AF8D32000F047F8002000F0F9
:1004400044F8402000F041F8A12000F03EF8C82018
:1004500000F03BF8DA2000F038F8122000F035F810
:10046000812000F032F8CF2000F02FF8D92000F0E2
:100470002CF8F12000F029F8DB2000F026F83020DD
:1004800000F023F8A42000F020F8A62000F01DF8CA
:100490008D2000F01AF8142000F017F8AF2000F0BB
:1004A00014F8FFF733FF70BD70B505460C4645F0F4
:1004B000B00000F00AF8102141EA141000F005F82D
:1004C00004F00F0000F001F870BD10B50446FFF70E
:1004D0006DFF7820FFF745FF0020FFF742FF204621
:1004E000FFF73FFFFFF778FF10BD10B50446FFF799
:1004F0005DFF7820FFF735FF4020FFF732FF2046F1
:10050000FFF72FFFFFF768FF10BD10B500F002F8EE
:1005100010BD00000CB50020019000903348006829
:1005200040F480303149086000BF3048006800F472
:10053000003000900198401C0190009818B9019873
:10054000B0F5A06FF1D12948006800F4003010B177
:100550000120009001E0002000900098012843D184
:100560002348006840F010002149086008460068F0
:1005700020F0030008600846006840F002000860B0
:100580001A4840681949486008464068486008466B
:10059000406840F4806048600846406820F47C1061
:1005A00048600846406840F4E81048600846006823
:1005B00040F08070086000BF0C48006800F00070D8
:1005C0000028F9D00948406820F003000749486036
:1005D0000846406840F00200486000BF0348406899
:1005E00000F00C000828F9D10CBD000000100240FA
:1005F0000020024010B51348006840F00100114986
:10060000086008464068104908400E49486008469E
:1006100000680E4908400B4908600846006820F44D
:10062000802008600846406820F4FE0048604FF4CF
:100630001F008860FFF769FF4FF000600449086001
:1006400010BD0000001002400000FFF8FFFFF6FEA2
:1006500008ED00E04FF08040008A00F0010038B162
:100660004FF08040008A20F001004FF08041088266
:10067000704700000548008800F0010028B10348D9
:10068000008820F0010001490880704710040040F4
:100690000548008800F0010028B10348008820F0D8
:1006A0000100014908807047100800400548008893
:1006B00000F0200028B10348008820F02000014904
:1006C00008807047003801400548008800F020008D
:1006D00028B10348008820F02000014908807047B5
:1006E000004400400548008800F0200028B103487D
:1006F000008820F020000149088070470048004031
:1007000000BF704770B5654CA469042585402C4333
:10071000624DAC6108295DDA614C54F820402468D0
:100720008E000F25B540AC435D4D55F820502C6030
:100730001AB1032A01D0022A0FD10124944044F0B7
:1007400003048D00AC40564D55F820502D682C43C5
:10075000534D55F820502C609FE0012A01D0042A07
:100760002AD14F4C54F8204024688E000825B5400B
:100770002C434B4D55F820502C60012A0ED1484C8B
:1007800054F82040E46801258D4024EA0503012443
:100790008C401C43424D55F82050EC60042A7CD11B
:1007A0003F4C54F82040E56801248C40A5433C4C64
:1007B00054F82040E56070E0042494408D00AC4083
:1007C000374D55F820502D682C43354D55F82050A5
:1007D0002C6062E0324C54F820406468A1F10805B6
:1007E000AE000F25B540AC432D4D55F820506C6040
:1007F0001AB1032A01D0022A11D10124944044F0F5
:100800000304A1F10805AD00AC40254D55F820507A
:100810006D682C43224D55F820506C603DE0012A54
:1008200001D0042A2AD11E4C54F820406468A1F15A
:100830000805AE000825B5402C43194D55F8205049
:100840006C60012A0CD1174C256801248C4025EAE4
:10085000040301248C401C43114D55F82050EC60DA
:10086000042A1AD10E4C54F82040E46801258D402A
:10087000AC430B4D55F82050EC600EE0042494403E
:10088000A1F10805AD00AC40054D55F820506D684C
:100890002C43034D55F820506C6070BD0010024091
:1008A000000000200C08014030B57AB10D4C54F81E
:1008B0002040E46801258D4024EA050301248C4092
:1008C0001C43084D55F82050EC600AE0054C54F8E4
:1008D0002040E46801258D40AC43024D55F820507E
:1008E000EC6030BD00000020FFF787FD00BFFEE791
:1008F00010090008000000200C000000280100087A
:100900001C0900080C0000206406000044010008D7
:0C09100000080140000C014000100140F4
:04000005080000ED02
:00000001FF
